{
  "_format": "hh-sol-artifact-1",
  "contractName": "FingerMonkeys",
  "sourceName": "contracts/FingerMonkeys.sol",
  "abi": [
    {
      "inputs": [
        {
          "internalType": "string",
          "name": "_name",
          "type": "string"
        },
        {
          "internalType": "string",
          "name": "_symbol",
          "type": "string"
        },
        {
          "internalType": "string",
          "name": "_initBaseURI",
          "type": "string"
        }
      ],
      "stateMutability": "nonpayable",
      "type": "constructor"
    },
    {
      "anonymous": false,
      "inputs": [
        {
          "indexed": true,
          "internalType": "address",
          "name": "owner",
          "type": "address"
        },
        {
          "indexed": true,
          "internalType": "address",
          "name": "approved",
          "type": "address"
        },
        {
          "indexed": true,
          "internalType": "uint256",
          "name": "tokenId",
          "type": "uint256"
        }
      ],
      "name": "Approval",
      "type": "event"
    },
    {
      "anonymous": false,
      "inputs": [
        {
          "indexed": true,
          "internalType": "address",
          "name": "owner",
          "type": "address"
        },
        {
          "indexed": true,
          "internalType": "address",
          "name": "operator",
          "type": "address"
        },
        {
          "indexed": false,
          "internalType": "bool",
          "name": "approved",
          "type": "bool"
        }
      ],
      "name": "ApprovalForAll",
      "type": "event"
    },
    {
      "anonymous": false,
      "inputs": [
        {
          "indexed": true,
          "internalType": "address",
          "name": "previousOwner",
          "type": "address"
        },
        {
          "indexed": true,
          "internalType": "address",
          "name": "newOwner",
          "type": "address"
        }
      ],
      "name": "OwnershipTransferred",
      "type": "event"
    },
    {
      "anonymous": false,
      "inputs": [
        {
          "indexed": true,
          "internalType": "uint256",
          "name": "supply",
          "type": "uint256"
        }
      ],
      "name": "SupplyChanged",
      "type": "event"
    },
    {
      "anonymous": false,
      "inputs": [
        {
          "indexed": true,
          "internalType": "address",
          "name": "from",
          "type": "address"
        },
        {
          "indexed": true,
          "internalType": "address",
          "name": "to",
          "type": "address"
        },
        {
          "indexed": true,
          "internalType": "uint256",
          "name": "tokenId",
          "type": "uint256"
        }
      ],
      "name": "Transfer",
      "type": "event"
    },
    {
      "inputs": [
        {
          "internalType": "address[]",
          "name": "_addresses",
          "type": "address[]"
        }
      ],
      "name": "addWhiteList",
      "outputs": [],
      "stateMutability": "nonpayable",
      "type": "function"
    },
    {
      "inputs": [
        {
          "internalType": "address",
          "name": "_address",
          "type": "address"
        }
      ],
      "name": "addWhiteListAddress",
      "outputs": [],
      "stateMutability": "nonpayable",
      "type": "function"
    },
    {
      "inputs": [
        {
          "internalType": "address",
          "name": "",
          "type": "address"
        }
      ],
      "name": "addressMintedBalance",
      "outputs": [
        {
          "internalType": "uint256",
          "name": "",
          "type": "uint256"
        }
      ],
      "stateMutability": "view",
      "type": "function"
    },
    {
      "inputs": [
        {
          "internalType": "address",
          "name": "to",
          "type": "address"
        },
        {
          "internalType": "uint256",
          "name": "tokenId",
          "type": "uint256"
        }
      ],
      "name": "approve",
      "outputs": [],
      "stateMutability": "nonpayable",
      "type": "function"
    },
    {
      "inputs": [],
      "name": "availableTokenCount",
      "outputs": [
        {
          "internalType": "uint256",
          "name": "",
          "type": "uint256"
        }
      ],
      "stateMutability": "view",
      "type": "function"
    },
    {
      "inputs": [
        {
          "internalType": "address",
          "name": "owner",
          "type": "address"
        }
      ],
      "name": "balanceOf",
      "outputs": [
        {
          "internalType": "uint256",
          "name": "",
          "type": "uint256"
        }
      ],
      "stateMutability": "view",
      "type": "function"
    },
    {
      "inputs": [],
      "name": "baseExtension",
      "outputs": [
        {
          "internalType": "string",
          "name": "",
          "type": "string"
        }
      ],
      "stateMutability": "view",
      "type": "function"
    },
    {
      "inputs": [],
      "name": "baseURI",
      "outputs": [
        {
          "internalType": "string",
          "name": "",
          "type": "string"
        }
      ],
      "stateMutability": "view",
      "type": "function"
    },
    {
      "inputs": [
        {
          "internalType": "address",
          "name": "",
          "type": "address"
        }
      ],
      "name": "canMint",
      "outputs": [
        {
          "internalType": "uint256",
          "name": "",
          "type": "uint256"
        }
      ],
      "stateMutability": "view",
      "type": "function"
    },
    {
      "inputs": [
        {
          "internalType": "uint256",
          "name": "tokenId",
          "type": "uint256"
        }
      ],
      "name": "getApproved",
      "outputs": [
        {
          "internalType": "address",
          "name": "",
          "type": "address"
        }
      ],
      "stateMutability": "view",
      "type": "function"
    },
    {
      "inputs": [],
      "name": "getInfo",
      "outputs": [
        {
          "components": [
            {
              "internalType": "uint256",
              "name": "regularCost",
              "type": "uint256"
            },
            {
              "internalType": "uint256",
              "name": "memberCost",
              "type": "uint256"
            },
            {
              "internalType": "uint256",
              "name": "whitelistCost",
              "type": "uint256"
            },
            {
              "internalType": "uint256",
              "name": "maxSupply",
              "type": "uint256"
            },
            {
              "internalType": "uint256",
              "name": "totalSupply",
              "type": "uint256"
            },
            {
              "internalType": "uint256",
              "name": "maxMintPerAddress",
              "type": "uint256"
            },
            {
              "internalType": "uint256",
              "name": "maxMintPerTx",
              "type": "uint256"
            }
          ],
          "internalType": "struct IDrop.Info",
          "name": "",
          "type": "tuple"
        }
      ],
      "stateMutability": "view",
      "type": "function"
    },
    {
      "inputs": [],
      "name": "getPayees",
      "outputs": [
        {
          "internalType": "address[]",
          "name": "",
          "type": "address[]"
        }
      ],
      "stateMutability": "view",
      "type": "function"
    },
    {
      "inputs": [],
      "name": "getShares",
      "outputs": [
        {
          "internalType": "uint16[]",
          "name": "",
          "type": "uint16[]"
        }
      ],
      "stateMutability": "view",
      "type": "function"
    },
    {
      "inputs": [
        {
          "internalType": "address",
          "name": "owner",
          "type": "address"
        },
        {
          "internalType": "address",
          "name": "operator",
          "type": "address"
        }
      ],
      "name": "isApprovedForAll",
      "outputs": [
        {
          "internalType": "bool",
          "name": "",
          "type": "bool"
        }
      ],
      "stateMutability": "view",
      "type": "function"
    },
    {
      "inputs": [
        {
          "internalType": "address",
          "name": "_user",
          "type": "address"
        }
      ],
      "name": "isWhitelisted",
      "outputs": [
        {
          "internalType": "bool",
          "name": "",
          "type": "bool"
        }
      ],
      "stateMutability": "view",
      "type": "function"
    },
    {
      "inputs": [],
      "name": "maxMintAmount",
      "outputs": [
        {
          "internalType": "uint256",
          "name": "",
          "type": "uint256"
        }
      ],
      "stateMutability": "view",
      "type": "function"
    },
    {
      "inputs": [],
      "name": "maxSupply",
      "outputs": [
        {
          "internalType": "uint256",
          "name": "",
          "type": "uint256"
        }
      ],
      "stateMutability": "view",
      "type": "function"
    },
    {
      "inputs": [],
      "name": "maxTokens",
      "outputs": [
        {
          "internalType": "uint256",
          "name": "",
          "type": "uint256"
        }
      ],
      "stateMutability": "view",
      "type": "function"
    },
    {
      "inputs": [],
      "name": "maximumSupply",
      "outputs": [
        {
          "internalType": "uint256",
          "name": "",
          "type": "uint256"
        }
      ],
      "stateMutability": "view",
      "type": "function"
    },
    {
      "inputs": [],
      "name": "memCost",
      "outputs": [
        {
          "internalType": "uint256",
          "name": "",
          "type": "uint256"
        }
      ],
      "stateMutability": "view",
      "type": "function"
    },
    {
      "inputs": [
        {
          "internalType": "uint256",
          "name": "_mintAmount",
          "type": "uint256"
        }
      ],
      "name": "mint",
      "outputs": [],
      "stateMutability": "payable",
      "type": "function"
    },
    {
      "inputs": [
        {
          "internalType": "address",
          "name": "_minter",
          "type": "address"
        }
      ],
      "name": "mintCost",
      "outputs": [
        {
          "internalType": "uint256",
          "name": "",
          "type": "uint256"
        }
      ],
      "stateMutability": "view",
      "type": "function"
    },
    {
      "inputs": [],
      "name": "name",
      "outputs": [
        {
          "internalType": "string",
          "name": "",
          "type": "string"
        }
      ],
      "stateMutability": "view",
      "type": "function"
    },
    {
      "inputs": [],
      "name": "nftPerAddressLimit",
      "outputs": [
        {
          "internalType": "uint256",
          "name": "",
          "type": "uint256"
        }
      ],
      "stateMutability": "view",
      "type": "function"
    },
    {
      "inputs": [],
      "name": "nftPerWhitelistAddress",
      "outputs": [
        {
          "internalType": "uint256",
          "name": "",
          "type": "uint256"
        }
      ],
      "stateMutability": "view",
      "type": "function"
    },
    {
      "inputs": [],
      "name": "notRevealedUri",
      "outputs": [
        {
          "internalType": "string",
          "name": "",
          "type": "string"
        }
      ],
      "stateMutability": "view",
      "type": "function"
    },
    {
      "inputs": [],
      "name": "owner",
      "outputs": [
        {
          "internalType": "address",
          "name": "",
          "type": "address"
        }
      ],
      "stateMutability": "view",
      "type": "function"
    },
    {
      "inputs": [],
      "name": "ownerAddress",
      "outputs": [
        {
          "internalType": "address",
          "name": "",
          "type": "address"
        }
      ],
      "stateMutability": "view",
      "type": "function"
    },
    {
      "inputs": [
        {
          "internalType": "address",
          "name": "_ownerAddress",
          "type": "address"
        }
      ],
      "name": "ownerAddressChange",
      "outputs": [],
      "stateMutability": "nonpayable",
      "type": "function"
    },
    {
      "inputs": [
        {
          "internalType": "uint256",
          "name": "tokenId",
          "type": "uint256"
        }
      ],
      "name": "ownerOf",
      "outputs": [
        {
          "internalType": "address",
          "name": "",
          "type": "address"
        }
      ],
      "stateMutability": "view",
      "type": "function"
    },
    {
      "inputs": [
        {
          "internalType": "bool",
          "name": "_state",
          "type": "bool"
        }
      ],
      "name": "pause",
      "outputs": [],
      "stateMutability": "nonpayable",
      "type": "function"
    },
    {
      "inputs": [],
      "name": "paused",
      "outputs": [
        {
          "internalType": "bool",
          "name": "",
          "type": "bool"
        }
      ],
      "stateMutability": "view",
      "type": "function"
    },
    {
      "inputs": [
        {
          "internalType": "address",
          "name": "dest",
          "type": "address"
        }
      ],
      "name": "payments",
      "outputs": [
        {
          "internalType": "uint256",
          "name": "",
          "type": "uint256"
        }
      ],
      "stateMutability": "view",
      "type": "function"
    },
    {
      "inputs": [],
      "name": "regCost",
      "outputs": [
        {
          "internalType": "uint256",
          "name": "",
          "type": "uint256"
        }
      ],
      "stateMutability": "view",
      "type": "function"
    },
    {
      "inputs": [
        {
          "internalType": "address",
          "name": "_address",
          "type": "address"
        }
      ],
      "name": "removeWhiteList",
      "outputs": [],
      "stateMutability": "nonpayable",
      "type": "function"
    },
    {
      "inputs": [],
      "name": "renounceOwnership",
      "outputs": [],
      "stateMutability": "nonpayable",
      "type": "function"
    },
    {
      "inputs": [
        {
          "internalType": "uint256",
          "name": "_mintAmount",
          "type": "uint256"
        },
        {
          "internalType": "address",
          "name": "_to",
          "type": "address"
        }
      ],
      "name": "reserveMint",
      "outputs": [],
      "stateMutability": "payable",
      "type": "function"
    },
    {
      "inputs": [],
      "name": "revealed",
      "outputs": [
        {
          "internalType": "bool",
          "name": "",
          "type": "bool"
        }
      ],
      "stateMutability": "view",
      "type": "function"
    },
    {
      "inputs": [
        {
          "internalType": "address",
          "name": "from",
          "type": "address"
        },
        {
          "internalType": "address",
          "name": "to",
          "type": "address"
        },
        {
          "internalType": "uint256",
          "name": "tokenId",
          "type": "uint256"
        }
      ],
      "name": "safeTransferFrom",
      "outputs": [],
      "stateMutability": "nonpayable",
      "type": "function"
    },
    {
      "inputs": [
        {
          "internalType": "address",
          "name": "from",
          "type": "address"
        },
        {
          "internalType": "address",
          "name": "to",
          "type": "address"
        },
        {
          "internalType": "uint256",
          "name": "tokenId",
          "type": "uint256"
        },
        {
          "internalType": "bytes",
          "name": "_data",
          "type": "bytes"
        }
      ],
      "name": "safeTransferFrom",
      "outputs": [],
      "stateMutability": "nonpayable",
      "type": "function"
    },
    {
      "inputs": [
        {
          "internalType": "address",
          "name": "operator",
          "type": "address"
        },
        {
          "internalType": "bool",
          "name": "approved",
          "type": "bool"
        }
      ],
      "name": "setApprovalForAll",
      "outputs": [],
      "stateMutability": "nonpayable",
      "type": "function"
    },
    {
      "inputs": [
        {
          "internalType": "string",
          "name": "_newBaseURI",
          "type": "string"
        }
      ],
      "name": "setBaseURI",
      "outputs": [],
      "stateMutability": "nonpayable",
      "type": "function"
    },
    {
      "inputs": [
        {
          "internalType": "uint256",
          "name": "_newmaxMintAmount",
          "type": "uint256"
        }
      ],
      "name": "setMaxMintAmount",
      "outputs": [],
      "stateMutability": "nonpayable",
      "type": "function"
    },
    {
      "inputs": [
        {
          "internalType": "uint256",
          "name": "_newCost",
          "type": "uint256"
        }
      ],
      "name": "setMemCost",
      "outputs": [],
      "stateMutability": "nonpayable",
      "type": "function"
    },
    {
      "inputs": [
        {
          "internalType": "address[]",
          "name": "_newPayees",
          "type": "address[]"
        },
        {
          "internalType": "uint16[]",
          "name": "_newShares",
          "type": "uint16[]"
        }
      ],
      "name": "setPaymentShares",
      "outputs": [],
      "stateMutability": "nonpayable",
      "type": "function"
    },
    {
      "inputs": [
        {
          "internalType": "uint256",
          "name": "_newCost",
          "type": "uint256"
        }
      ],
      "name": "setRegCost",
      "outputs": [],
      "stateMutability": "nonpayable",
      "type": "function"
    },
    {
      "inputs": [
        {
          "internalType": "uint256",
          "name": "_newCost",
          "type": "uint256"
        }
      ],
      "name": "setWhiteCost",
      "outputs": [],
      "stateMutability": "nonpayable",
      "type": "function"
    },
    {
      "inputs": [
        {
          "internalType": "bytes4",
          "name": "interfaceId",
          "type": "bytes4"
        }
      ],
      "name": "supportsInterface",
      "outputs": [
        {
          "internalType": "bool",
          "name": "",
          "type": "bool"
        }
      ],
      "stateMutability": "view",
      "type": "function"
    },
    {
      "inputs": [],
      "name": "symbol",
      "outputs": [
        {
          "internalType": "string",
          "name": "",
          "type": "string"
        }
      ],
      "stateMutability": "view",
      "type": "function"
    },
    {
      "inputs": [
        {
          "internalType": "uint256",
          "name": "index",
          "type": "uint256"
        }
      ],
      "name": "tokenByIndex",
      "outputs": [
        {
          "internalType": "uint256",
          "name": "",
          "type": "uint256"
        }
      ],
      "stateMutability": "view",
      "type": "function"
    },
    {
      "inputs": [],
      "name": "tokenCount",
      "outputs": [
        {
          "internalType": "uint256",
          "name": "",
          "type": "uint256"
        }
      ],
      "stateMutability": "view",
      "type": "function"
    },
    {
      "inputs": [
        {
          "internalType": "address",
          "name": "owner",
          "type": "address"
        },
        {
          "internalType": "uint256",
          "name": "index",
          "type": "uint256"
        }
      ],
      "name": "tokenOfOwnerByIndex",
      "outputs": [
        {
          "internalType": "uint256",
          "name": "",
          "type": "uint256"
        }
      ],
      "stateMutability": "view",
      "type": "function"
    },
    {
      "inputs": [
        {
          "internalType": "uint256",
          "name": "tokenId",
          "type": "uint256"
        }
      ],
      "name": "tokenURI",
      "outputs": [
        {
          "internalType": "string",
          "name": "",
          "type": "string"
        }
      ],
      "stateMutability": "view",
      "type": "function"
    },
    {
      "inputs": [],
      "name": "totalSupply",
      "outputs": [
        {
          "internalType": "uint256",
          "name": "",
          "type": "uint256"
        }
      ],
      "stateMutability": "view",
      "type": "function"
    },
    {
      "inputs": [
        {
          "internalType": "address",
          "name": "from",
          "type": "address"
        },
        {
          "internalType": "address",
          "name": "to",
          "type": "address"
        },
        {
          "internalType": "uint256",
          "name": "tokenId",
          "type": "uint256"
        }
      ],
      "name": "transferFrom",
      "outputs": [],
      "stateMutability": "nonpayable",
      "type": "function"
    },
    {
      "inputs": [
        {
          "internalType": "address",
          "name": "newOwner",
          "type": "address"
        }
      ],
      "name": "transferOwnership",
      "outputs": [],
      "stateMutability": "nonpayable",
      "type": "function"
    },
    {
      "inputs": [
        {
          "internalType": "address",
          "name": "_owner",
          "type": "address"
        }
      ],
      "name": "walletOfOwner",
      "outputs": [
        {
          "internalType": "uint256[]",
          "name": "",
          "type": "uint256[]"
        }
      ],
      "stateMutability": "view",
      "type": "function"
    },
    {
      "inputs": [],
      "name": "whiteCost",
      "outputs": [
        {
          "internalType": "uint256",
          "name": "",
          "type": "uint256"
        }
      ],
      "stateMutability": "view",
      "type": "function"
    },
    {
      "inputs": [],
      "name": "withdraw",
      "outputs": [],
      "stateMutability": "payable",
      "type": "function"
    },
    {
      "inputs": [
        {
          "internalType": "address payable",
          "name": "payee",
          "type": "address"
        }
      ],
      "name": "withdrawPayments",
      "outputs": [],
      "stateMutability": "nonpayable",
      "type": "function"
    }
  ],
  "bytecode": "0x60a06040527372af9c869a4759e6d50e9656c0741b395532c3dd600f60006101000a81548173ffffffffffffffffffffffffffffffffffffffff021916908373ffffffffffffffffffffffffffffffffffffffff16021790555073194d51cc109bfb17887cd7731cf967ca27ed2e21601060006101000a81548173ffffffffffffffffffffffffffffffffffffffff021916908373ffffffffffffffffffffffffffffffffffffffff1602179055506040518060400160405280600581526020017f2e6a736f6e00000000000000000000000000000000000000000000000000000081525060129080519060200190620000fb9291906200042e565b50680a922b2ad8812c00006014556808ac7230489e80000060155568056bc75e2d631000006016556115b360175560056018556115b36019556005601a556001601d60006101000a81548160ff0219169083151502179055506001601d60016101000a81548160ff0219169083151502179055503480156200017c57600080fd5b5060405162007f2838038062007f288339818101604052810190620001a291906200055e565b6115b360018185858160009080519060200190620001c29291906200042e565b508060019080519060200190620001db9291906200042e565b505050620001fe620001f26200028b60201b60201c565b6200029360201b60201c565b6040516200020c90620004bf565b604051809103906000f08015801562000229573d6000803e3d6000fd5b5073ffffffffffffffffffffffffffffffffffffffff1660808173ffffffffffffffffffffffffffffffffffffffff1660601b8152505080600c819055505080600e81905550505062000282816200035960201b60201c565b505050620007f2565b600033905090565b6000600a60009054906101000a900473ffffffffffffffffffffffffffffffffffffffff16905081600a60006101000a81548173ffffffffffffffffffffffffffffffffffffffff021916908373ffffffffffffffffffffffffffffffffffffffff1602179055508173ffffffffffffffffffffffffffffffffffffffff168173ffffffffffffffffffffffffffffffffffffffff167f8be0079c531659141344cd1fd0a4f28419497f9722a3daafe3b4186f6b6457e060405160405180910390a35050565b620003696200028b60201b60201c565b73ffffffffffffffffffffffffffffffffffffffff166200038f6200040460201b60201c565b73ffffffffffffffffffffffffffffffffffffffff1614620003e8576040517f08c379a0000000000000000000000000000000000000000000000000000000008152600401620003df9062000626565b60405180910390fd5b8060119080519060200190620004009291906200042e565b5050565b6000600a60009054906101000a900473ffffffffffffffffffffffffffffffffffffffff16905090565b8280546200043c90620006ee565b90600052602060002090601f016020900481019282620004605760008555620004ac565b82601f106200047b57805160ff1916838001178555620004ac565b82800160010185558215620004ac579182015b82811115620004ab5782518255916020019190600101906200048e565b5b509050620004bb9190620004cd565b5090565b610d09806200721f83390190565b5b80821115620004e8576000816000905550600101620004ce565b5090565b600062000503620004fd8462000671565b62000648565b9050828152602081018484840111156200051c57600080fd5b62000529848285620006b8565b509392505050565b600082601f8301126200054357600080fd5b815162000555848260208601620004ec565b91505092915050565b6000806000606084860312156200057457600080fd5b600084015167ffffffffffffffff8111156200058f57600080fd5b6200059d8682870162000531565b935050602084015167ffffffffffffffff811115620005bb57600080fd5b620005c98682870162000531565b925050604084015167ffffffffffffffff811115620005e757600080fd5b620005f58682870162000531565b9150509250925092565b60006200060e602083620006a7565b91506200061b82620007c9565b602082019050919050565b600060208201905081810360008301526200064181620005ff565b9050919050565b60006200065462000667565b905062000662828262000724565b919050565b6000604051905090565b600067ffffffffffffffff8211156200068f576200068e62000789565b5b6200069a82620007b8565b9050602081019050919050565b600082825260208201905092915050565b60005b83811015620006d8578082015181840152602081019050620006bb565b83811115620006e8576000848401525b50505050565b600060028204905060018216806200070757607f821691505b602082108114156200071e576200071d6200075a565b5b50919050565b6200072f82620007b8565b810181811067ffffffffffffffff8211171562000751576200075062000789565b5b80604052505050565b7f4e487b7100000000000000000000000000000000000000000000000000000000600052602260045260246000fd5b7f4e487b7100000000000000000000000000000000000000000000000000000000600052604160045260246000fd5b6000601f19601f8301169050919050565b7f4f776e61626c653a2063616c6c6572206973206e6f7420746865206f776e6572600082015250565b60805160601c616a07620008186000396000818161165e0152612b810152616a076000f3fe6080604052600436106103975760003560e01c80635c975abb116101dc578063a22cb46511610102578063d5abeb01116100a0578063e83157421161006f578063e831574214610d7b578063e985e9c514610da6578063eba830d814610de3578063f2fde38b14610e0c57610397565b8063d5abeb0114610cbd578063d73fe0aa14610ce8578063e14ca35314610d13578063e2982c2114610d3e57610397565b8063ba7d2c76116100dc578063ba7d2c7614610bed578063c2ba474414610c18578063c668286214610c55578063c87b56dd14610c8057610397565b8063a22cb46514610b72578063ab762e1614610b9b578063b88d4fde14610bc457610397565b80638164c3091161017a57806398221858116101495780639822185814610ad75780639f181b5e14610b005780639fb362ae14610b2b578063a0712d6814610b5657610397565b80638164c30914610a2d5780638da5cb5b14610a565780638f84aa0914610a8157806395d89b4114610aac57610397565b80636352211e116101b65780636352211e146109715780636c0360eb146109ae57806370a08231146109d9578063715018a614610a1657610397565b80635c975abb146109015780635e1045ec1461092c57806360b02f701461095557610397565b806323b89cd2116102c15780633ccfd60b1161025f578063518302271161022e578063518302271461085957806355f804b3146108845780635a9b0b89146108ad5780635b3aaf1f146108d857610397565b80633ccfd60b146107ac57806342842e0e146107b6578063438b6300146107df5780634f6ccce71461081c57610397565b80632f745c591161029b5780632f745c59146106de57806331a18f7d1461071b57806331b3eb94146107465780633af32abf1461076f57610397565b806323b89cd21461064b57806327f38113146106765780632acc659e146106a157610397565b8063095ea7b3116103395780631cac1a5f116103085780631cac1a5f146105a55780632042e5c2146105ce578063239c70ae146105f757806323b872dd1461062257610397565b8063095ea7b3146104e95780630ce6e9421461051257806318160ddd1461053d57806318cae2691461056857610397565b806306fdde031161037557806306fdde031461042d578063081812fc14610458578063081c8c4414610495578063088a4ed0146104c057610397565b806301ffc9a71461039c57806302329a29146103d95780630480e58b14610402575b600080fd5b3480156103a857600080fd5b506103c360048036038101906103be9190614e6a565b610e35565b6040516103d091906158f2565b60405180910390f35b3480156103e557600080fd5b5061040060048036038101906103fb9190614e18565b610eaf565b005b34801561040e57600080fd5b50610417610f48565b6040516104249190615cea565b60405180910390f35b34801561043957600080fd5b50610442610f52565b60405161044f919061590d565b60405180910390f35b34801561046457600080fd5b5061047f600480360381019061047a9190614efd565b610fe4565b60405161048c919061580a565b60405180910390f35b3480156104a157600080fd5b506104aa611069565b6040516104b7919061590d565b60405180910390f35b3480156104cc57600080fd5b506104e760048036038101906104e29190614efd565b6110f7565b005b3480156104f557600080fd5b50610510600480360381019061050b9190614d22565b61117d565b005b34801561051e57600080fd5b50610527611295565b6040516105349190615cea565b60405180910390f35b34801561054957600080fd5b5061055261129b565b60405161055f9190615cea565b60405180910390f35b34801561057457600080fd5b5061058f600480360381019061058a9190614b8e565b6112a8565b60405161059c9190615cea565b60405180910390f35b3480156105b157600080fd5b506105cc60048036038101906105c79190614efd565b6112c0565b005b3480156105da57600080fd5b506105f560048036038101906105f09190614b8e565b611346565b005b34801561060357600080fd5b5061060c611467565b6040516106199190615cea565b60405180910390f35b34801561062e57600080fd5b5061064960048036038101906106449190614c1c565b61146d565b005b34801561065757600080fd5b506106606114cd565b60405161066d9190615cea565b60405180910390f35b34801561068257600080fd5b5061068b6114d3565b604051610698919061588c565b60405180910390f35b3480156106ad57600080fd5b506106c860048036038101906106c39190614b8e565b611561565b6040516106d59190615cea565b60405180910390f35b3480156106ea57600080fd5b5061070560048036038101906107009190614d22565b6115b1565b6040516107129190615cea565b60405180910390f35b34801561072757600080fd5b50610730611656565b60405161073d9190615cea565b60405180910390f35b34801561075257600080fd5b5061076d60048036038101906107689190614bb7565b61165c565b005b34801561077b57600080fd5b5061079660048036038101906107919190614b8e565b6116ea565b6040516107a391906158f2565b60405180910390f35b6107b4611740565b005b3480156107c257600080fd5b506107dd60048036038101906107d89190614c1c565b611857565b005b3480156107eb57600080fd5b5061080660048036038101906108019190614b8e565b611877565b60405161081391906158d0565b60405180910390f35b34801561082857600080fd5b50610843600480360381019061083e9190614efd565b611971565b6040516108509190615cea565b60405180910390f35b34801561086557600080fd5b5061086e611a08565b60405161087b91906158f2565b60405180910390f35b34801561089057600080fd5b506108ab60048036038101906108a69190614ebc565b611a1b565b005b3480156108b957600080fd5b506108c2611ab1565b6040516108cf9190615ccf565b60405180910390f35b3480156108e457600080fd5b506108ff60048036038101906108fa9190614b8e565b611b21565b005b34801561090d57600080fd5b50610916611be1565b60405161092391906158f2565b60405180910390f35b34801561093857600080fd5b50610953600480360381019061094e9190614d5e565b611bf4565b005b61096f600480360381019061096a9190614f4f565b611d41565b005b34801561097d57600080fd5b5061099860048036038101906109939190614efd565b611e4f565b6040516109a5919061580a565b60405180910390f35b3480156109ba57600080fd5b506109c3611f01565b6040516109d0919061590d565b60405180910390f35b3480156109e557600080fd5b50610a0060048036038101906109fb9190614b8e565b611f8f565b604051610a0d9190615cea565b60405180910390f35b348015610a2257600080fd5b50610a2b612047565b005b348015610a3957600080fd5b50610a546004803603810190610a4f9190614b8e565b6120cf565b005b348015610a6257600080fd5b50610a6b6121a6565b604051610a78919061580a565b60405180910390f35b348015610a8d57600080fd5b50610a966121d0565b604051610aa3919061580a565b60405180910390f35b348015610ab857600080fd5b50610ac16121f6565b604051610ace919061590d565b60405180910390f35b348015610ae357600080fd5b50610afe6004803603810190610af99190614efd565b612288565b005b348015610b0c57600080fd5b50610b1561230e565b604051610b229190615cea565b60405180910390f35b348015610b3757600080fd5b50610b4061231f565b604051610b4d9190615cea565b60405180910390f35b610b706004803603810190610b6b9190614efd565b612325565b005b348015610b7e57600080fd5b50610b996004803603810190610b949190614ce6565b6127db565b005b348015610ba757600080fd5b50610bc26004803603810190610bbd9190614efd565b6127f1565b005b348015610bd057600080fd5b50610beb6004803603810190610be69190614c6b565b612877565b005b348015610bf957600080fd5b50610c026128d9565b604051610c0f9190615cea565b60405180910390f35b348015610c2457600080fd5b50610c3f6004803603810190610c3a9190614b8e565b6128df565b604051610c4c9190615cea565b60405180910390f35b348015610c6157600080fd5b50610c6a6128eb565b604051610c77919061590d565b60405180910390f35b348015610c8c57600080fd5b50610ca76004803603810190610ca29190614efd565b612979565b604051610cb4919061590d565b60405180910390f35b348015610cc957600080fd5b50610cd2612ad2565b604051610cdf9190615cea565b60405180910390f35b348015610cf457600080fd5b50610cfd612adc565b604051610d0a91906158ae565b60405180910390f35b348015610d1f57600080fd5b50610d28612b5c565b604051610d359190615cea565b60405180910390f35b348015610d4a57600080fd5b50610d656004803603810190610d609190614b8e565b612b7d565b604051610d729190615cea565b60405180910390f35b348015610d8757600080fd5b50610d90612c2f565b604051610d9d9190615cea565b60405180910390f35b348015610db257600080fd5b50610dcd6004803603810190610dc89190614be0565b612c35565b604051610dda91906158f2565b60405180910390f35b348015610def57600080fd5b50610e0a6004803603810190610e059190614da3565b612cc9565b005b348015610e1857600080fd5b50610e336004803603810190610e2e9190614b8e565b612e87565b005b60007f780e9d63000000000000000000000000000000000000000000000000000000007bffffffffffffffffffffffffffffffffffffffffffffffffffffffff1916827bffffffffffffffffffffffffffffffffffffffffffffffffffffffff19161480610ea85750610ea782612f7f565b5b9050919050565b610eb7613061565b73ffffffffffffffffffffffffffffffffffffffff16610ed56121a6565b73ffffffffffffffffffffffffffffffffffffffff1614610f2b576040517f08c379a0000000000000000000000000000000000000000000000000000000008152600401610f2290615b8f565b60405180910390fd5b80601d60006101000a81548160ff02191690831515021790555050565b6000600c54905090565b606060008054610f6190616085565b80601f0160208091040260200160405190810160405280929190818152602001828054610f8d90616085565b8015610fda5780601f10610faf57610100808354040283529160200191610fda565b820191906000526020600020905b815481529060010190602001808311610fbd57829003601f168201915b5050505050905090565b6000610fef82613069565b61102e576040517f08c379a000000000000000000000000000000000000000000000000000000000815260040161102590615b4f565b60405180910390fd5b6004600083815260200190815260200160002060009054906101000a900473ffffffffffffffffffffffffffffffffffffffff169050919050565b6013805461107690616085565b80601f01602080910402602001604051908101604052809291908181526020018280546110a290616085565b80156110ef5780601f106110c4576101008083540402835291602001916110ef565b820191906000526020600020905b8154815290600101906020018083116110d257829003601f168201915b505050505081565b6110ff613061565b73ffffffffffffffffffffffffffffffffffffffff1661111d6121a6565b73ffffffffffffffffffffffffffffffffffffffff1614611173576040517f08c379a000000000000000000000000000000000000000000000000000000000815260040161116a90615b8f565b60405180910390fd5b8060188190555050565b600061118882611e4f565b90508073ffffffffffffffffffffffffffffffffffffffff168373ffffffffffffffffffffffffffffffffffffffff1614156111f9576040517f08c379a00000000000000000000000000000000000000000000000000000000081526004016111f090615c2f565b60405180910390fd5b8073ffffffffffffffffffffffffffffffffffffffff16611218613061565b73ffffffffffffffffffffffffffffffffffffffff161480611247575061124681611241613061565b612c35565b5b611286576040517f08c379a000000000000000000000000000000000000000000000000000000000815260040161127d90615aaf565b60405180910390fd5b61129083836130d5565b505050565b601a5481565b6000600880549050905090565b601f6020528060005260406000206000915090505481565b6112c8613061565b73ffffffffffffffffffffffffffffffffffffffff166112e66121a6565b73ffffffffffffffffffffffffffffffffffffffff161461133c576040517f08c379a000000000000000000000000000000000000000000000000000000000815260040161133390615b8f565b60405180910390fd5b8060168190555050565b61134e613061565b73ffffffffffffffffffffffffffffffffffffffff1661136c6121a6565b73ffffffffffffffffffffffffffffffffffffffff16146113c2576040517f08c379a00000000000000000000000000000000000000000000000000000000081526004016113b990615b8f565b60405180910390fd5b601e60008273ffffffffffffffffffffffffffffffffffffffff1673ffffffffffffffffffffffffffffffffffffffff16815260200190815260200160002060009054906101000a900460ff161561146457601e60008273ffffffffffffffffffffffffffffffffffffffff1673ffffffffffffffffffffffffffffffffffffffff16815260200190815260200160002060006101000a81549060ff02191690555b50565b60185481565b61147e611478613061565b8261318e565b6114bd576040517f08c379a00000000000000000000000000000000000000000000000000000000081526004016114b490615c6f565b60405180910390fd5b6114c883838361326c565b505050565b60165481565b6060601b80548060200260200160405190810160405280929190818152602001828054801561155757602002820191906000526020600020905b8160009054906101000a900473ffffffffffffffffffffffffffffffffffffffff1673ffffffffffffffffffffffffffffffffffffffff168152602001906001019080831161150d575b5050505050905090565b600061156c826116ea565b1561158e57601a5461157d83611f8f565b101561158d5760165490506115ac565b5b611597826134c8565b156115a65760155490506115ac565b60145490505b919050565b60006115bc83611f8f565b82106115fd576040517f08c379a00000000000000000000000000000000000000000000000000000000081526004016115f49061594f565b60405180910390fd5b600660008473ffffffffffffffffffffffffffffffffffffffff1673ffffffffffffffffffffffffffffffffffffffff168152602001908152602001600020600083815260200190815260200160002054905092915050565b60145481565b7f000000000000000000000000000000000000000000000000000000000000000073ffffffffffffffffffffffffffffffffffffffff166351cff8d9826040518263ffffffff1660e01b81526004016116b59190615825565b600060405180830381600087803b1580156116cf57600080fd5b505af11580156116e3573d6000803e3d6000fd5b5050505050565b6000601e60008373ffffffffffffffffffffffffffffffffffffffff1673ffffffffffffffffffffffffffffffffffffffff16815260200190815260200160002060009054906101000a900460ff169050919050565b611748613061565b73ffffffffffffffffffffffffffffffffffffffff166117666121a6565b73ffffffffffffffffffffffffffffffffffffffff16146117bc576040517f08c379a00000000000000000000000000000000000000000000000000000000081526004016117b390615b8f565b60405180910390fd5b6000601060009054906101000a900473ffffffffffffffffffffffffffffffffffffffff1673ffffffffffffffffffffffffffffffffffffffff1647604051611804906157f5565b60006040518083038185875af1925050503d8060008114611841576040519150601f19603f3d011682016040523d82523d6000602084013e611846565b606091505b505090508061185457600080fd5b50565b61187283838360405180602001604052806000815250612877565b505050565b6060600061188483611f8f565b905060008167ffffffffffffffff8111156118c8577f4e487b7100000000000000000000000000000000000000000000000000000000600052604160045260246000fd5b6040519080825280602002602001820160405280156118f65781602001602082028036833780820191505090505b50905060005b828110156119665761190e85826115b1565b828281518110611947577f4e487b7100000000000000000000000000000000000000000000000000000000600052603260045260246000fd5b602002602001018181525050808061195e906160e8565b9150506118fc565b508092505050919050565b600061197b61129b565b82106119bc576040517f08c379a00000000000000000000000000000000000000000000000000000000081526004016119b390615c8f565b60405180910390fd5b600882815481106119f6577f4e487b7100000000000000000000000000000000000000000000000000000000600052603260045260246000fd5b90600052602060002001549050919050565b601d60019054906101000a900460ff1681565b611a23613061565b73ffffffffffffffffffffffffffffffffffffffff16611a416121a6565b73ffffffffffffffffffffffffffffffffffffffff1614611a97576040517f08c379a0000000000000000000000000000000000000000000000000000000008152600401611a8e90615b8f565b60405180910390fd5b8060119080519060200190611aad929190614754565b5050565b611ab96147da565b611ac16147da565b601454816000018181525050601554816020018181525050601654816040018181525050601754816060018181525050611af961129b565b8160800181815250506019548160a00181815250506018548160c00181815250508091505090565b611b29613061565b73ffffffffffffffffffffffffffffffffffffffff16611b476121a6565b73ffffffffffffffffffffffffffffffffffffffff1614611b9d576040517f08c379a0000000000000000000000000000000000000000000000000000000008152600401611b9490615b8f565b60405180910390fd5b80601060006101000a81548173ffffffffffffffffffffffffffffffffffffffff021916908373ffffffffffffffffffffffffffffffffffffffff16021790555050565b601d60009054906101000a900460ff1681565b611bfc613061565b73ffffffffffffffffffffffffffffffffffffffff16611c1a6121a6565b73ffffffffffffffffffffffffffffffffffffffff1614611c70576040517f08c379a0000000000000000000000000000000000000000000000000000000008152600401611c6790615b8f565b60405180910390fd5b600082829050905060005b81811015611d3b576001601e6000868685818110611cc2577f4e487b7100000000000000000000000000000000000000000000000000000000600052603260045260246000fd5b9050602002016020810190611cd79190614b8e565b73ffffffffffffffffffffffffffffffffffffffff1673ffffffffffffffffffffffffffffffffffffffff16815260200190815260200160002060006101000a81548160ff0219169083151502179055508080611d33906160e8565b915050611c7b565b50505050565b611d49613061565b73ffffffffffffffffffffffffffffffffffffffff16611d676121a6565b73ffffffffffffffffffffffffffffffffffffffff1614611dbd576040517f08c379a0000000000000000000000000000000000000000000000000000000008152600401611db490615b8f565b60405180910390fd5b6000600190505b828111611e4a57601f60003373ffffffffffffffffffffffffffffffffffffffff1673ffffffffffffffffffffffffffffffffffffffff1681526020019081526020016000206000815480929190611e1b906160e8565b91905055506000611e2a61357c565b9050611e36838261370a565b508080611e42906160e8565b915050611dc4565b505050565b6000806002600084815260200190815260200160002060009054906101000a900473ffffffffffffffffffffffffffffffffffffffff169050600073ffffffffffffffffffffffffffffffffffffffff168173ffffffffffffffffffffffffffffffffffffffff161415611ef8576040517f08c379a0000000000000000000000000000000000000000000000000000000008152600401611eef90615aef565b60405180910390fd5b80915050919050565b60118054611f0e90616085565b80601f0160208091040260200160405190810160405280929190818152602001828054611f3a90616085565b8015611f875780601f10611f5c57610100808354040283529160200191611f87565b820191906000526020600020905b815481529060010190602001808311611f6a57829003601f168201915b505050505081565b60008073ffffffffffffffffffffffffffffffffffffffff168273ffffffffffffffffffffffffffffffffffffffff161415612000576040517f08c379a0000000000000000000000000000000000000000000000000000000008152600401611ff790615acf565b60405180910390fd5b600360008373ffffffffffffffffffffffffffffffffffffffff1673ffffffffffffffffffffffffffffffffffffffff168152602001908152602001600020549050919050565b61204f613061565b73ffffffffffffffffffffffffffffffffffffffff1661206d6121a6565b73ffffffffffffffffffffffffffffffffffffffff16146120c3576040517f08c379a00000000000000000000000000000000000000000000000000000000081526004016120ba90615b8f565b60405180910390fd5b6120cd6000613728565b565b6120d7613061565b73ffffffffffffffffffffffffffffffffffffffff166120f56121a6565b73ffffffffffffffffffffffffffffffffffffffff161461214b576040517f08c379a000000000000000000000000000000000000000000000000000000000815260040161214290615b8f565b60405180910390fd5b6001601e60008373ffffffffffffffffffffffffffffffffffffffff1673ffffffffffffffffffffffffffffffffffffffff16815260200190815260200160002060006101000a81548160ff02191690831515021790555050565b6000600a60009054906101000a900473ffffffffffffffffffffffffffffffffffffffff16905090565b601060009054906101000a900473ffffffffffffffffffffffffffffffffffffffff1681565b60606001805461220590616085565b80601f016020809104026020016040519081016040528092919081815260200182805461223190616085565b801561227e5780601f106122535761010080835404028352916020019161227e565b820191906000526020600020905b81548152906001019060200180831161226157829003601f168201915b5050505050905090565b612290613061565b73ffffffffffffffffffffffffffffffffffffffff166122ae6121a6565b73ffffffffffffffffffffffffffffffffffffffff1614612304576040517f08c379a00000000000000000000000000000000000000000000000000000000081526004016122fb90615b8f565b60405180910390fd5b8060158190555050565b600061231a600b6137ee565b905090565b60155481565b6000601d60009054906101000a900460ff1615612377576040517f08c379a000000000000000000000000000000000000000000000000000000000815260040161236e90615baf565b60405180910390fd5b600061238161129b565b9050600083116123c6576040517f08c379a00000000000000000000000000000000000000000000000000000000081526004016123bd90615caf565b60405180910390fd5b60185483111561240b576040517f08c379a000000000000000000000000000000000000000000000000000000000815260040161240290615a4f565b60405180910390fd5b601754838261241a9190615e9a565b111561245b576040517f08c379a000000000000000000000000000000000000000000000000000000000815260040161245290615b0f565b60405180910390fd5b6124636121a6565b73ffffffffffffffffffffffffffffffffffffffff163373ffffffffffffffffffffffffffffffffffffffff16146125a6576000601f60003373ffffffffffffffffffffffffffffffffffffffff1673ffffffffffffffffffffffffffffffffffffffff16815260200190815260200160002054905060195484826124e89190615e9a565b1115612529576040517f08c379a0000000000000000000000000000000000000000000000000000000008152600401612520906159cf565b60405180910390fd5b6000600190505b8481116125605761254033611561565b8461254b9190615e9a565b93508080612558906160e8565b915050612530565b50823410156125a4576040517f08c379a000000000000000000000000000000000000000000000000000000000815260040161259b90615c4f565b60405180910390fd5b505b6000600190505b83811161263357601f60003373ffffffffffffffffffffffffffffffffffffffff1673ffffffffffffffffffffffffffffffffffffffff1681526020019081526020016000206000815480929190612604906160e8565b9190505550600061261361357c565b905061261f338261370a565b50808061262b906160e8565b9150506125ad565b506000600f60009054906101000a900473ffffffffffffffffffffffffffffffffffffffff1690506000601b805490509050600080600090505b828110156127d2576126ed601c82815481106126b2577f4e487b7100000000000000000000000000000000000000000000000000000000600052603260045260246000fd5b90600052602060002090601091828204019190066002029054906101000a900461ffff1661ffff16612710886137fc9092919063ffffffff16565b91508373ffffffffffffffffffffffffffffffffffffffff16634065da6383601b8481548110612746577f4e487b7100000000000000000000000000000000000000000000000000000000600052603260045260246000fd5b9060005260206000200160009054906101000a900473ffffffffffffffffffffffffffffffffffffffff166040518363ffffffff1660e01b815260040161278d919061580a565b6000604051808303818588803b1580156127a657600080fd5b505af11580156127ba573d6000803e3d6000fd5b505050505080806127ca906160e8565b91505061266d565b50505050505050565b6127ed6127e6613061565b838361397b565b5050565b6127f9613061565b73ffffffffffffffffffffffffffffffffffffffff166128176121a6565b73ffffffffffffffffffffffffffffffffffffffff161461286d576040517f08c379a000000000000000000000000000000000000000000000000000000000815260040161286490615b8f565b60405180910390fd5b8060148190555050565b612888612882613061565b8361318e565b6128c7576040517f08c379a00000000000000000000000000000000000000000000000000000000081526004016128be90615c6f565b60405180910390fd5b6128d384848484613ae8565b50505050565b60195481565b60006018549050919050565b601280546128f890616085565b80601f016020809104026020016040519081016040528092919081815260200182805461292490616085565b80156129715780601f1061294657610100808354040283529160200191612971565b820191906000526020600020905b81548152906001019060200180831161295457829003601f168201915b505050505081565b606061298482613069565b6129c3576040517f08c379a00000000000000000000000000000000000000000000000000000000081526004016129ba90615bef565b60405180910390fd5b60001515601d60019054906101000a900460ff1615151415612a7157601380546129ec90616085565b80601f0160208091040260200160405190810160405280929190818152602001828054612a1890616085565b8015612a655780601f10612a3a57610100808354040283529160200191612a65565b820191906000526020600020905b815481529060010190602001808311612a4857829003601f168201915b50505050509050612acd565b6000612a7b613b44565b90506000815111612a9b5760405180602001604052806000815250612ac9565b80612aa584613bd6565b6012604051602001612ab9939291906157c4565b6040516020818303038152906040525b9150505b919050565b6000601754905090565b6060601c805480602002602001604051908101604052809291908181526020018280548015612b5257602002820191906000526020600020906000905b82829054906101000a900461ffff1661ffff1681526020019060020190602082600101049283019260010382029150808411612b195790505b5050505050905090565b6000612b6661230e565b612b6e610f48565b612b789190615f7b565b905090565b60007f000000000000000000000000000000000000000000000000000000000000000073ffffffffffffffffffffffffffffffffffffffff1663e3a9db1a836040518263ffffffff1660e01b8152600401612bd8919061580a565b60206040518083038186803b158015612bf057600080fd5b505afa158015612c04573d6000803e3d6000fd5b505050506040513d601f19601f82011682018060405250810190612c289190614f26565b9050919050565b60175481565b6000600560008473ffffffffffffffffffffffffffffffffffffffff1673ffffffffffffffffffffffffffffffffffffffff16815260200190815260200160002060008373ffffffffffffffffffffffffffffffffffffffff1673ffffffffffffffffffffffffffffffffffffffff16815260200190815260200160002060009054906101000a900460ff16905092915050565b612cd1613061565b73ffffffffffffffffffffffffffffffffffffffff16612cef6121a6565b73ffffffffffffffffffffffffffffffffffffffff1614612d45576040517f08c379a0000000000000000000000000000000000000000000000000000000008152600401612d3c90615b8f565b60405180910390fd5b6000848490501415612d8c576040517f08c379a0000000000000000000000000000000000000000000000000000000008152600401612d8390615a8f565b60405180910390fd5b818190508484905014612dd4576040517f08c379a0000000000000000000000000000000000000000000000000000000008152600401612dcb90615c0f565b60405180910390fd5b612e1e828280806020026020016040519081016040528093929190818152602001838360200280828437600081840152601f19601f82011690508083019250505050505050613d83565b612e5d576040517f08c379a0000000000000000000000000000000000000000000000000000000008152600401612e549061592f565b60405180910390fd5b8383601b9190612e6e929190614817565b508181601c9190612e809291906148b7565b5050505050565b612e8f613061565b73ffffffffffffffffffffffffffffffffffffffff16612ead6121a6565b73ffffffffffffffffffffffffffffffffffffffff1614612f03576040517f08c379a0000000000000000000000000000000000000000000000000000000008152600401612efa90615b8f565b60405180910390fd5b600073ffffffffffffffffffffffffffffffffffffffff168173ffffffffffffffffffffffffffffffffffffffff161415612f73576040517f08c379a0000000000000000000000000000000000000000000000000000000008152600401612f6a9061598f565b60405180910390fd5b612f7c81613728565b50565b60007f80ac58cd000000000000000000000000000000000000000000000000000000007bffffffffffffffffffffffffffffffffffffffffffffffffffffffff1916827bffffffffffffffffffffffffffffffffffffffffffffffffffffffff1916148061304a57507f5b5e139f000000000000000000000000000000000000000000000000000000007bffffffffffffffffffffffffffffffffffffffffffffffffffffffff1916827bffffffffffffffffffffffffffffffffffffffffffffffffffffffff1916145b8061305a575061305982613e0e565b5b9050919050565b600033905090565b60008073ffffffffffffffffffffffffffffffffffffffff166002600084815260200190815260200160002060009054906101000a900473ffffffffffffffffffffffffffffffffffffffff1673ffffffffffffffffffffffffffffffffffffffff1614159050919050565b816004600083815260200190815260200160002060006101000a81548173ffffffffffffffffffffffffffffffffffffffff021916908373ffffffffffffffffffffffffffffffffffffffff160217905550808273ffffffffffffffffffffffffffffffffffffffff1661314883611e4f565b73ffffffffffffffffffffffffffffffffffffffff167f8c5be1e5ebec7d5bd14f71427d1e84f3dd0314c0f7b2291e5b200ac8c7c3b92560405160405180910390a45050565b600061319982613069565b6131d8576040517f08c379a00000000000000000000000000000000000000000000000000000000081526004016131cf90615a6f565b60405180910390fd5b60006131e383611e4f565b90508073ffffffffffffffffffffffffffffffffffffffff168473ffffffffffffffffffffffffffffffffffffffff16148061325257508373ffffffffffffffffffffffffffffffffffffffff1661323a84610fe4565b73ffffffffffffffffffffffffffffffffffffffff16145b8061326357506132628185612c35565b5b91505092915050565b8273ffffffffffffffffffffffffffffffffffffffff1661328c82611e4f565b73ffffffffffffffffffffffffffffffffffffffff16146132e2576040517f08c379a00000000000000000000000000000000000000000000000000000000081526004016132d990615bcf565b60405180910390fd5b600073ffffffffffffffffffffffffffffffffffffffff168273ffffffffffffffffffffffffffffffffffffffff161415613352576040517f08c379a0000000000000000000000000000000000000000000000000000000008152600401613349906159ef565b60405180910390fd5b61335d838383613e78565b6133686000826130d5565b6001600360008573ffffffffffffffffffffffffffffffffffffffff1673ffffffffffffffffffffffffffffffffffffffff16815260200190815260200160002060008282546133b89190615f7b565b925050819055506001600360008473ffffffffffffffffffffffffffffffffffffffff1673ffffffffffffffffffffffffffffffffffffffff168152602001908152602001600020600082825461340f9190615e9a565b92505081905550816002600083815260200190815260200160002060006101000a81548173ffffffffffffffffffffffffffffffffffffffff021916908373ffffffffffffffffffffffffffffffffffffffff160217905550808273ffffffffffffffffffffffffffffffffffffffff168473ffffffffffffffffffffffffffffffffffffffff167fddf252ad1be2c89b69c2b068fc378daa952ba7f163c4a11628f55a4df523b3ef60405160405180910390a4505050565b6000600f60009054906101000a900473ffffffffffffffffffffffffffffffffffffffff1673ffffffffffffffffffffffffffffffffffffffff1663a230c524836040518263ffffffff1660e01b8152600401613525919061580a565b60206040518083038186803b15801561353d57600080fd5b505afa158015613551573d6000803e3d6000fd5b505050506040513d601f19601f820116820180604052508101906135759190614e41565b9050919050565b600080613587612b5c565b116135c7576040517f08c379a00000000000000000000000000000000000000000000000000000000081526004016135be90615a2f565b60405180910390fd5b60006135d161230e565b6135d9610f48565b6135e39190615f7b565b90506000813341444542604051602001613601959493929190615765565b6040516020818303038152906040528051906020012060001c6136249190616171565b9050600080600d600084815260200190815260200160002054141561364b57819050613662565b600d60008381526020019081526020016000205490505b6000600d60006001866136759190615f7b565b81526020019081526020016000205414156136b3576001836136979190615f7b565b600d6000848152602001908152602001600020819055506136eb565b600d60006001856136c49190615f7b565b815260200190815260200160002054600d6000848152602001908152602001600020819055505b6136f3613f8c565b50600e54816137029190615e9a565b935050505090565b613724828260405180602001604052806000815250613fac565b5050565b6000600a60009054906101000a900473ffffffffffffffffffffffffffffffffffffffff16905081600a60006101000a81548173ffffffffffffffffffffffffffffffffffffffff021916908373ffffffffffffffffffffffffffffffffffffffff1602179055508173ffffffffffffffffffffffffffffffffffffffff168173ffffffffffffffffffffffffffffffffffffffff167f8be0079c531659141344cd1fd0a4f28419497f9722a3daafe3b4186f6b6457e060405160405180910390a35050565b600081600001549050919050565b6000808211613840576040517f08c379a000000000000000000000000000000000000000000000000000000000815260040161383790615b6f565b60405180910390fd5b60008414156138525760009050613974565b600083856138609190615f21565b905083858261386f9190615ef0565b14156138895782816138819190615ef0565b915050613974565b600083866138979190615ef0565b9050600084876138a79190616171565b9050600085876138b79190615ef0565b9050600086886138c79190616171565b905061396c6138f1886138e3848761400790919063ffffffff16565b61401d90919063ffffffff16565b61395e613907858761400790919063ffffffff16565b61395061391d868a61400790919063ffffffff16565b6139428d6139348a8d61400790919063ffffffff16565b61400790919063ffffffff16565b61403390919063ffffffff16565b61403390919063ffffffff16565b61403390919063ffffffff16565b955050505050505b9392505050565b8173ffffffffffffffffffffffffffffffffffffffff168373ffffffffffffffffffffffffffffffffffffffff1614156139ea576040517f08c379a00000000000000000000000000000000000000000000000000000000081526004016139e190615a0f565b60405180910390fd5b80600560008573ffffffffffffffffffffffffffffffffffffffff1673ffffffffffffffffffffffffffffffffffffffff16815260200190815260200160002060008473ffffffffffffffffffffffffffffffffffffffff1673ffffffffffffffffffffffffffffffffffffffff16815260200190815260200160002060006101000a81548160ff0219169083151502179055508173ffffffffffffffffffffffffffffffffffffffff168373ffffffffffffffffffffffffffffffffffffffff167f17307eab39ab6107e8899845ad3d59bd9653f200f220920489ca2b5937696c3183604051613adb91906158f2565b60405180910390a3505050565b613af384848461326c565b613aff84848484614049565b613b3e576040517f08c379a0000000000000000000000000000000000000000000000000000000008152600401613b359061596f565b60405180910390fd5b50505050565b606060118054613b5390616085565b80601f0160208091040260200160405190810160405280929190818152602001828054613b7f90616085565b8015613bcc5780601f10613ba157610100808354040283529160200191613bcc565b820191906000526020600020905b815481529060010190602001808311613baf57829003601f168201915b5050505050905090565b60606000821415613c1e576040518060400160405280600181526020017f30000000000000000000000000000000000000000000000000000000000000008152509050613d7e565b600082905060005b60008214613c50578080613c39906160e8565b915050600a82613c499190615ef0565b9150613c26565b60008167ffffffffffffffff811115613c92577f4e487b7100000000000000000000000000000000000000000000000000000000600052604160045260246000fd5b6040519080825280601f01601f191660200182016040528015613cc45781602001600182028036833780820191505090505b5090505b60008514613d7757600182613cdd9190615f7b565b9150600a85613cec9190616171565b6030613cf89190615e9a565b60f81b818381518110613d34577f4e487b7100000000000000000000000000000000000000000000000000000000600052603260045260246000fd5b60200101907effffffffffffffffffffffffffffffffffffffffffffffffffffffffffffff1916908160001a905350600a85613d709190615ef0565b9450613cc8565b8093505050505b919050565b60008082519050600080600090505b82811015613dff57848181518110613dd3577f4e487b7100000000000000000000000000000000000000000000000000000000600052603260045260246000fd5b602002602001015161ffff1682613dea9190615e9a565b91508080613df7906160e8565b915050613d92565b50612710811492505050919050565b60007f01ffc9a7000000000000000000000000000000000000000000000000000000007bffffffffffffffffffffffffffffffffffffffffffffffffffffffff1916827bffffffffffffffffffffffffffffffffffffffffffffffffffffffff1916149050919050565b613e838383836141e0565b600073ffffffffffffffffffffffffffffffffffffffff168373ffffffffffffffffffffffffffffffffffffffff161415613ec657613ec1816141e5565b613f05565b8173ffffffffffffffffffffffffffffffffffffffff168373ffffffffffffffffffffffffffffffffffffffff1614613f0457613f03838261422e565b5b5b600073ffffffffffffffffffffffffffffffffffffffff168273ffffffffffffffffffffffffffffffffffffffff161415613f4857613f438161439b565b613f87565b8273ffffffffffffffffffffffffffffffffffffffff168273ffffffffffffffffffffffffffffffffffffffff1614613f8657613f8582826144de565b5b5b505050565b600080613f99600b6137ee565b9050613fa5600b61455d565b8091505090565b613fb68383614573565b613fc36000848484614049565b614002576040517f08c379a0000000000000000000000000000000000000000000000000000000008152600401613ff99061596f565b60405180910390fd5b505050565b600081836140159190615f21565b905092915050565b6000818361402b9190615ef0565b905092915050565b600081836140419190615e9a565b905092915050565b600061406a8473ffffffffffffffffffffffffffffffffffffffff16614741565b156141d3578373ffffffffffffffffffffffffffffffffffffffff1663150b7a02614093613061565b8786866040518563ffffffff1660e01b81526004016140b59493929190615840565b602060405180830381600087803b1580156140cf57600080fd5b505af192505050801561410057506040513d601f19601f820116820180604052508101906140fd9190614e93565b60015b614183573d8060008114614130576040519150601f19603f3d011682016040523d82523d6000602084013e614135565b606091505b5060008151141561417b576040517f08c379a00000000000000000000000000000000000000000000000000000000081526004016141729061596f565b60405180910390fd5b805181602001fd5b63150b7a0260e01b7bffffffffffffffffffffffffffffffffffffffffffffffffffffffff1916817bffffffffffffffffffffffffffffffffffffffffffffffffffffffff1916149150506141d8565b600190505b949350505050565b505050565b6008805490506009600083815260200190815260200160002081905550600881908060018154018082558091505060019003906000526020600020016000909190919091505550565b6000600161423b84611f8f565b6142459190615f7b565b905060006007600084815260200190815260200160002054905081811461432a576000600660008673ffffffffffffffffffffffffffffffffffffffff1673ffffffffffffffffffffffffffffffffffffffff168152602001908152602001600020600084815260200190815260200160002054905080600660008773ffffffffffffffffffffffffffffffffffffffff1673ffffffffffffffffffffffffffffffffffffffff168152602001908152602001600020600084815260200190815260200160002081905550816007600083815260200190815260200160002081905550505b6007600084815260200190815260200160002060009055600660008573ffffffffffffffffffffffffffffffffffffffff1673ffffffffffffffffffffffffffffffffffffffff16815260200190815260200160002060008381526020019081526020016000206000905550505050565b600060016008805490506143af9190615f7b565b9050600060096000848152602001908152602001600020549050600060088381548110614405577f4e487b7100000000000000000000000000000000000000000000000000000000600052603260045260246000fd5b90600052602060002001549050806008838154811061444d577f4e487b7100000000000000000000000000000000000000000000000000000000600052603260045260246000fd5b9060005260206000200181905550816009600083815260200190815260200160002081905550600960008581526020019081526020016000206000905560088054806144c2577f4e487b7100000000000000000000000000000000000000000000000000000000600052603160045260246000fd5b6001900381819060005260206000200160009055905550505050565b60006144e983611f8f565b905081600660008573ffffffffffffffffffffffffffffffffffffffff1673ffffffffffffffffffffffffffffffffffffffff168152602001908152602001600020600083815260200190815260200160002081905550806007600084815260200190815260200160002081905550505050565b6001816000016000828254019250508190555050565b600073ffffffffffffffffffffffffffffffffffffffff168273ffffffffffffffffffffffffffffffffffffffff1614156145e3576040517f08c379a00000000000000000000000000000000000000000000000000000000081526004016145da90615b2f565b60405180910390fd5b6145ec81613069565b1561462c576040517f08c379a0000000000000000000000000000000000000000000000000000000008152600401614623906159af565b60405180910390fd5b61463860008383613e78565b6001600360008473ffffffffffffffffffffffffffffffffffffffff1673ffffffffffffffffffffffffffffffffffffffff16815260200190815260200160002060008282546146889190615e9a565b92505081905550816002600083815260200190815260200160002060006101000a81548173ffffffffffffffffffffffffffffffffffffffff021916908373ffffffffffffffffffffffffffffffffffffffff160217905550808273ffffffffffffffffffffffffffffffffffffffff16600073ffffffffffffffffffffffffffffffffffffffff167fddf252ad1be2c89b69c2b068fc378daa952ba7f163c4a11628f55a4df523b3ef60405160405180910390a45050565b600080823b905060008111915050919050565b82805461476090616085565b90600052602060002090601f01602090048101928261478257600085556147c9565b82601f1061479b57805160ff19168380011785556147c9565b828001600101855582156147c9579182015b828111156147c85782518255916020019190600101906147ad565b5b5090506147d69190614965565b5090565b6040518060e00160405280600081526020016000815260200160008152602001600081526020016000815260200160008152602001600081525090565b8280548282559060005260206000209081019282156148a6579160200282015b828111156148a557823573ffffffffffffffffffffffffffffffffffffffff168260006101000a81548173ffffffffffffffffffffffffffffffffffffffff021916908373ffffffffffffffffffffffffffffffffffffffff16021790555091602001919060010190614837565b5b5090506148b39190614965565b5090565b82805482825590600052602060002090600f016010900481019282156149545791602002820160005b8382111561492457833561ffff1683826101000a81548161ffff021916908361ffff16021790555092602001926002016020816001010492830192600103026148e0565b80156149525782816101000a81549061ffff0219169055600201602081600101049283019260010302614924565b505b5090506149619190614965565b5090565b5b8082111561497e576000816000905550600101614966565b5090565b600061499561499084615d2a565b615d05565b9050828152602081018484840111156149ad57600080fd5b6149b8848285616043565b509392505050565b60006149d36149ce84615d5b565b615d05565b9050828152602081018484840111156149eb57600080fd5b6149f6848285616043565b509392505050565b600081359050614a0d8161695e565b92915050565b600081359050614a2281616975565b92915050565b60008083601f840112614a3a57600080fd5b8235905067ffffffffffffffff811115614a5357600080fd5b602083019150836020820283011115614a6b57600080fd5b9250929050565b60008083601f840112614a8457600080fd5b8235905067ffffffffffffffff811115614a9d57600080fd5b602083019150836020820283011115614ab557600080fd5b9250929050565b600081359050614acb8161698c565b92915050565b600081519050614ae08161698c565b92915050565b600081359050614af5816169a3565b92915050565b600081519050614b0a816169a3565b92915050565b600082601f830112614b2157600080fd5b8135614b31848260208601614982565b91505092915050565b600082601f830112614b4b57600080fd5b8135614b5b8482602086016149c0565b91505092915050565b600081359050614b73816169ba565b92915050565b600081519050614b88816169ba565b92915050565b600060208284031215614ba057600080fd5b6000614bae848285016149fe565b91505092915050565b600060208284031215614bc957600080fd5b6000614bd784828501614a13565b91505092915050565b60008060408385031215614bf357600080fd5b6000614c01858286016149fe565b9250506020614c12858286016149fe565b9150509250929050565b600080600060608486031215614c3157600080fd5b6000614c3f868287016149fe565b9350506020614c50868287016149fe565b9250506040614c6186828701614b64565b9150509250925092565b60008060008060808587031215614c8157600080fd5b6000614c8f878288016149fe565b9450506020614ca0878288016149fe565b9350506040614cb187828801614b64565b925050606085013567ffffffffffffffff811115614cce57600080fd5b614cda87828801614b10565b91505092959194509250565b60008060408385031215614cf957600080fd5b6000614d07858286016149fe565b9250506020614d1885828601614abc565b9150509250929050565b60008060408385031215614d3557600080fd5b6000614d43858286016149fe565b9250506020614d5485828601614b64565b9150509250929050565b60008060208385031215614d7157600080fd5b600083013567ffffffffffffffff811115614d8b57600080fd5b614d9785828601614a28565b92509250509250929050565b60008060008060408587031215614db957600080fd5b600085013567ffffffffffffffff811115614dd357600080fd5b614ddf87828801614a28565b9450945050602085013567ffffffffffffffff811115614dfe57600080fd5b614e0a87828801614a72565b925092505092959194509250565b600060208284031215614e2a57600080fd5b6000614e3884828501614abc565b91505092915050565b600060208284031215614e5357600080fd5b6000614e6184828501614ad1565b91505092915050565b600060208284031215614e7c57600080fd5b6000614e8a84828501614ae6565b91505092915050565b600060208284031215614ea557600080fd5b6000614eb384828501614afb565b91505092915050565b600060208284031215614ece57600080fd5b600082013567ffffffffffffffff811115614ee857600080fd5b614ef484828501614b3a565b91505092915050565b600060208284031215614f0f57600080fd5b6000614f1d84828501614b64565b91505092915050565b600060208284031215614f3857600080fd5b6000614f4684828501614b79565b91505092915050565b60008060408385031215614f6257600080fd5b6000614f7085828601614b64565b9250506020614f81858286016149fe565b9150509250929050565b6000614f978383614ff9565b60208301905092915050565b6000614faf8383615721565b60208301905092915050565b6000614fc78383615730565b60208301905092915050565b614fdc81615fc1565b82525050565b614ff3614fee82615fc1565b616143565b82525050565b61500281615faf565b82525050565b61501181615faf565b82525050565b61502861502382615faf565b616131565b82525050565b600061503982615dd1565b6150438185615e2f565b935061504e83615d8c565b8060005b8381101561507f5781516150668882614f8b565b975061507183615e08565b925050600181019050615052565b5085935050505092915050565b600061509782615ddc565b6150a18185615e40565b93506150ac83615d9c565b8060005b838110156150dd5781516150c48882614fa3565b97506150cf83615e15565b9250506001810190506150b0565b5085935050505092915050565b60006150f582615de7565b6150ff8185615e51565b935061510a83615dac565b8060005b8381101561513b5781516151228882614fbb565b975061512d83615e22565b92505060018101905061510e565b5085935050505092915050565b61515181615fd3565b82525050565b600061516282615df2565b61516c8185615e62565b935061517c818560208601616052565b6151858161625e565b840191505092915050565b600061519b82615dfd565b6151a58185615e7e565b93506151b5818560208601616052565b6151be8161625e565b840191505092915050565b60006151d482615dfd565b6151de8185615e8f565b93506151ee818560208601616052565b80840191505092915050565b6000815461520781616085565b6152118186615e8f565b9450600182166000811461522c576001811461523d57615270565b60ff19831686528186019350615270565b61524685615dbc565b60005b8381101561526857815481890152600182019150602081019050615249565b838801955050505b50505092915050565b6000615286600e83615e7e565b91506152918261627c565b602082019050919050565b60006152a9602b83615e7e565b91506152b4826162a5565b604082019050919050565b60006152cc603283615e7e565b91506152d7826162f4565b604082019050919050565b60006152ef602683615e7e565b91506152fa82616343565b604082019050919050565b6000615312601c83615e7e565b915061531d82616392565b602082019050919050565b6000615335601c83615e7e565b9150615340826163bb565b602082019050919050565b6000615358602483615e7e565b9150615363826163e4565b604082019050919050565b600061537b601983615e7e565b915061538682616433565b602082019050919050565b600061539e601883615e7e565b91506153a98261645c565b602082019050919050565b60006153c1602883615e7e565b91506153cc82616485565b604082019050919050565b60006153e4602c83615e7e565b91506153ef826164d4565b604082019050919050565b6000615407600c83615e7e565b915061541282616523565b602082019050919050565b600061542a603883615e7e565b91506154358261654c565b604082019050919050565b600061544d602a83615e7e565b91506154588261659b565b604082019050919050565b6000615470602983615e7e565b915061547b826165ea565b604082019050919050565b6000615493601683615e7e565b915061549e82616639565b602082019050919050565b60006154b6602083615e7e565b91506154c182616662565b602082019050919050565b60006154d9602c83615e7e565b91506154e48261668b565b604082019050919050565b60006154fc601083615e7e565b9150615507826166da565b602082019050919050565b600061551f602083615e7e565b915061552a82616703565b602082019050919050565b6000615542601683615e7e565b915061554d8261672c565b602082019050919050565b6000615565602983615e7e565b915061557082616755565b604082019050919050565b6000615588602f83615e7e565b9150615593826167a4565b604082019050919050565b60006155ab601383615e7e565b91506155b6826167f3565b602082019050919050565b60006155ce602183615e7e565b91506155d98261681c565b604082019050919050565b60006155f1600083615e73565b91506155fc8261686b565b600082019050919050565b6000615614601283615e7e565b915061561f8261686e565b602082019050919050565b6000615637603183615e7e565b915061564282616897565b604082019050919050565b600061565a602c83615e7e565b9150615665826168e6565b604082019050919050565b600061567d601b83615e7e565b915061568882616935565b602082019050919050565b60e0820160008201516156a96000850182615730565b5060208201516156bc6020850182615730565b5060408201516156cf6040850182615730565b5060608201516156e26060850182615730565b5060808201516156f56080850182615730565b5060a082015161570860a0850182615730565b5060c082015161571b60c0850182615730565b50505050565b61572a8161600b565b82525050565b61573981616039565b82525050565b61574881616039565b82525050565b61575f61575a82616039565b616167565b82525050565b60006157718288615017565b6014820191506157818287614fe2565b601482019150615791828661574e565b6020820191506157a1828561574e565b6020820191506157b1828461574e565b6020820191508190509695505050505050565b60006157d082866151c9565b91506157dc82856151c9565b91506157e882846151fa565b9150819050949350505050565b6000615800826155e4565b9150819050919050565b600060208201905061581f6000830184615008565b92915050565b600060208201905061583a6000830184614fd3565b92915050565b60006080820190506158556000830187615008565b6158626020830186615008565b61586f604083018561573f565b81810360608301526158818184615157565b905095945050505050565b600060208201905081810360008301526158a6818461502e565b905092915050565b600060208201905081810360008301526158c8818461508c565b905092915050565b600060208201905081810360008301526158ea81846150ea565b905092915050565b60006020820190506159076000830184615148565b92915050565b600060208201905081810360008301526159278184615190565b905092915050565b6000602082019050818103600083015261594881615279565b9050919050565b600060208201905081810360008301526159688161529c565b9050919050565b60006020820190508181036000830152615988816152bf565b9050919050565b600060208201905081810360008301526159a8816152e2565b9050919050565b600060208201905081810360008301526159c881615305565b9050919050565b600060208201905081810360008301526159e881615328565b9050919050565b60006020820190508181036000830152615a088161534b565b9050919050565b60006020820190508181036000830152615a288161536e565b9050919050565b60006020820190508181036000830152615a4881615391565b9050919050565b60006020820190508181036000830152615a68816153b4565b9050919050565b60006020820190508181036000830152615a88816153d7565b9050919050565b60006020820190508181036000830152615aa8816153fa565b9050919050565b60006020820190508181036000830152615ac88161541d565b9050919050565b60006020820190508181036000830152615ae881615440565b9050919050565b60006020820190508181036000830152615b0881615463565b9050919050565b60006020820190508181036000830152615b2881615486565b9050919050565b60006020820190508181036000830152615b48816154a9565b9050919050565b60006020820190508181036000830152615b68816154cc565b9050919050565b60006020820190508181036000830152615b88816154ef565b9050919050565b60006020820190508181036000830152615ba881615512565b9050919050565b60006020820190508181036000830152615bc881615535565b9050919050565b60006020820190508181036000830152615be881615558565b9050919050565b60006020820190508181036000830152615c088161557b565b9050919050565b60006020820190508181036000830152615c288161559e565b9050919050565b60006020820190508181036000830152615c48816155c1565b9050919050565b60006020820190508181036000830152615c6881615607565b9050919050565b60006020820190508181036000830152615c888161562a565b9050919050565b60006020820190508181036000830152615ca88161564d565b9050919050565b60006020820190508181036000830152615cc881615670565b9050919050565b600060e082019050615ce46000830184615693565b92915050565b6000602082019050615cff600083018461573f565b92915050565b6000615d0f615d20565b9050615d1b82826160b7565b919050565b6000604051905090565b600067ffffffffffffffff821115615d4557615d4461622f565b5b615d4e8261625e565b9050602081019050919050565b600067ffffffffffffffff821115615d7657615d7561622f565b5b615d7f8261625e565b9050602081019050919050565b6000819050602082019050919050565b6000819050602082019050919050565b6000819050602082019050919050565b60008190508160005260206000209050919050565b600081519050919050565b600081519050919050565b600081519050919050565b600081519050919050565b600081519050919050565b6000602082019050919050565b6000602082019050919050565b6000602082019050919050565b600082825260208201905092915050565b600082825260208201905092915050565b600082825260208201905092915050565b600082825260208201905092915050565b600081905092915050565b600082825260208201905092915050565b600081905092915050565b6000615ea582616039565b9150615eb083616039565b9250827fffffffffffffffffffffffffffffffffffffffffffffffffffffffffffffffff03821115615ee557615ee46161a2565b5b828201905092915050565b6000615efb82616039565b9150615f0683616039565b925082615f1657615f156161d1565b5b828204905092915050565b6000615f2c82616039565b9150615f3783616039565b9250817fffffffffffffffffffffffffffffffffffffffffffffffffffffffffffffffff0483118215151615615f7057615f6f6161a2565b5b828202905092915050565b6000615f8682616039565b9150615f9183616039565b925082821015615fa457615fa36161a2565b5b828203905092915050565b6000615fba82616019565b9050919050565b6000615fcc82616019565b9050919050565b60008115159050919050565b60007fffffffff0000000000000000000000000000000000000000000000000000000082169050919050565b600061ffff82169050919050565b600073ffffffffffffffffffffffffffffffffffffffff82169050919050565b6000819050919050565b82818337600083830152505050565b60005b83811015616070578082015181840152602081019050616055565b8381111561607f576000848401525b50505050565b6000600282049050600182168061609d57607f821691505b602082108114156160b1576160b0616200565b5b50919050565b6160c08261625e565b810181811067ffffffffffffffff821117156160df576160de61622f565b5b80604052505050565b60006160f382616039565b91507fffffffffffffffffffffffffffffffffffffffffffffffffffffffffffffffff821415616126576161256161a2565b5b600182019050919050565b600061613c82616155565b9050919050565b600061614e82616155565b9050919050565b60006161608261626f565b9050919050565b6000819050919050565b600061617c82616039565b915061618783616039565b925082616197576161966161d1565b5b828206905092915050565b7f4e487b7100000000000000000000000000000000000000000000000000000000600052601160045260246000fd5b7f4e487b7100000000000000000000000000000000000000000000000000000000600052601260045260246000fd5b7f4e487b7100000000000000000000000000000000000000000000000000000000600052602260045260246000fd5b7f4e487b7100000000000000000000000000000000000000000000000000000000600052604160045260246000fd5b6000601f19601f8301169050919050565b60008160601b9050919050565b7f696e76616c696420736861726573000000000000000000000000000000000000600082015250565b7f455243373231456e756d657261626c653a206f776e657220696e646578206f7560008201527f74206f6620626f756e6473000000000000000000000000000000000000000000602082015250565b7f4552433732313a207472616e7366657220746f206e6f6e20455243373231526560008201527f63656976657220696d706c656d656e7465720000000000000000000000000000602082015250565b7f4f776e61626c653a206e6577206f776e657220697320746865207a65726f206160008201527f6464726573730000000000000000000000000000000000000000000000000000602082015250565b7f4552433732313a20746f6b656e20616c7265616479206d696e74656400000000600082015250565b7f6d6178204e465420706572206164647265737320657863656564656400000000600082015250565b7f4552433732313a207472616e7366657220746f20746865207a65726f2061646460008201527f7265737300000000000000000000000000000000000000000000000000000000602082015250565b7f4552433732313a20617070726f766520746f2063616c6c657200000000000000600082015250565b7f4e6f206d6f726520746f6b656e7320617661696c61626c650000000000000000600082015250565b7f6d6178206d696e7420616d6f756e7420706572207472616e73616374696f6e2060008201527f6578636565646564000000000000000000000000000000000000000000000000602082015250565b7f4552433732313a206f70657261746f7220717565727920666f72206e6f6e657860008201527f697374656e7420746f6b656e0000000000000000000000000000000000000000602082015250565b7f656d707479207061796565730000000000000000000000000000000000000000600082015250565b7f4552433732313a20617070726f76652063616c6c6572206973206e6f74206f7760008201527f6e6572206e6f7220617070726f76656420666f7220616c6c0000000000000000602082015250565b7f4552433732313a2062616c616e636520717565727920666f7220746865207a6560008201527f726f206164647265737300000000000000000000000000000000000000000000602082015250565b7f4552433732313a206f776e657220717565727920666f72206e6f6e657869737460008201527f656e7420746f6b656e0000000000000000000000000000000000000000000000602082015250565b7f6d6178204e4654206c696d697420657863656564656400000000000000000000600082015250565b7f4552433732313a206d696e7420746f20746865207a65726f2061646472657373600082015250565b7f4552433732313a20617070726f76656420717565727920666f72206e6f6e657860008201527f697374656e7420746f6b656e0000000000000000000000000000000000000000602082015250565b7f4469766973696f6e206279207a65726f00000000000000000000000000000000600082015250565b7f4f776e61626c653a2063616c6c6572206973206e6f7420746865206f776e6572600082015250565b7f74686520636f6e74726163742069732070617573656400000000000000000000600082015250565b7f4552433732313a207472616e73666572206f6620746f6b656e2074686174206960008201527f73206e6f74206f776e0000000000000000000000000000000000000000000000602082015250565b7f4552433732314d657461646174613a2055524920717565727920666f72206e6f60008201527f6e6578697374656e7420746f6b656e0000000000000000000000000000000000602082015250565b7f77726f6e67207061796565206e756d6265727300000000000000000000000000600082015250565b7f4552433732313a20617070726f76616c20746f2063757272656e74206f776e6560008201527f7200000000000000000000000000000000000000000000000000000000000000602082015250565b50565b7f696e73756666696369656e742066756e64730000000000000000000000000000600082015250565b7f4552433732313a207472616e736665722063616c6c6572206973206e6f74206f60008201527f776e6572206e6f7220617070726f766564000000000000000000000000000000602082015250565b7f455243373231456e756d657261626c653a20676c6f62616c20696e646578206f60008201527f7574206f6620626f756e64730000000000000000000000000000000000000000602082015250565b7f6e65656420746f206d696e74206174206c656173742031204e46540000000000600082015250565b61696781615faf565b811461697257600080fd5b50565b61697e81615fc1565b811461698957600080fd5b50565b61699581615fd3565b81146169a057600080fd5b50565b6169ac81615fdf565b81146169b757600080fd5b50565b6169c381616039565b81146169ce57600080fd5b5056fea26469706673582212204f8f237b9e8bb219a955d852c1fd1fed130930530939ee54463b4a048799ae2164736f6c63430008040033608060405234801561001057600080fd5b5061002d61002261003260201b60201c565b61003a60201b60201c565b6100fe565b600033905090565b60008060009054906101000a900473ffffffffffffffffffffffffffffffffffffffff169050816000806101000a81548173ffffffffffffffffffffffffffffffffffffffff021916908373ffffffffffffffffffffffffffffffffffffffff1602179055508173ffffffffffffffffffffffffffffffffffffffff168173ffffffffffffffffffffffffffffffffffffffff167f8be0079c531659141344cd1fd0a4f28419497f9722a3daafe3b4186f6b6457e060405160405180910390a35050565b610bfc8061010d6000396000f3fe6080604052600436106100555760003560e01c806351cff8d91461005a578063715018a6146100835780638da5cb5b1461009a578063e3a9db1a146100c5578063f2fde38b14610102578063f340fa011461012b575b600080fd5b34801561006657600080fd5b50610081600480360381019061007c91906107f5565b610147565b005b34801561008f57600080fd5b506100986102c7565b005b3480156100a657600080fd5b506100af61034f565b6040516100bc9190610900565b60405180910390f35b3480156100d157600080fd5b506100ec60048036038101906100e791906107cc565b610378565b6040516100f9919061099b565b60405180910390f35b34801561010e57600080fd5b50610129600480360381019061012491906107cc565b6103c1565b005b610145600480360381019061014091906107cc565b6104b9565b005b61014f6105e2565b73ffffffffffffffffffffffffffffffffffffffff1661016d61034f565b73ffffffffffffffffffffffffffffffffffffffff16146101c3576040517f08c379a00000000000000000000000000000000000000000000000000000000081526004016101ba9061097b565b60405180910390fd5b6000600160008373ffffffffffffffffffffffffffffffffffffffff1673ffffffffffffffffffffffffffffffffffffffff1681526020019081526020016000205490506000600160008473ffffffffffffffffffffffffffffffffffffffff1673ffffffffffffffffffffffffffffffffffffffff16815260200190815260200160002081905550610275818373ffffffffffffffffffffffffffffffffffffffff166105ea90919063ffffffff16565b8173ffffffffffffffffffffffffffffffffffffffff167f7084f5476618d8e60b11ef0d7d3f06914655adb8793e28ff7f018d4c76d505d5826040516102bb919061099b565b60405180910390a25050565b6102cf6105e2565b73ffffffffffffffffffffffffffffffffffffffff166102ed61034f565b73ffffffffffffffffffffffffffffffffffffffff1614610343576040517f08c379a000000000000000000000000000000000000000000000000000000000815260040161033a9061097b565b60405180910390fd5b61034d60006106de565b565b60008060009054906101000a900473ffffffffffffffffffffffffffffffffffffffff16905090565b6000600160008373ffffffffffffffffffffffffffffffffffffffff1673ffffffffffffffffffffffffffffffffffffffff168152602001908152602001600020549050919050565b6103c96105e2565b73ffffffffffffffffffffffffffffffffffffffff166103e761034f565b73ffffffffffffffffffffffffffffffffffffffff161461043d576040517f08c379a00000000000000000000000000000000000000000000000000000000081526004016104349061097b565b60405180910390fd5b600073ffffffffffffffffffffffffffffffffffffffff168173ffffffffffffffffffffffffffffffffffffffff1614156104ad576040517f08c379a00000000000000000000000000000000000000000000000000000000081526004016104a49061091b565b60405180910390fd5b6104b6816106de565b50565b6104c16105e2565b73ffffffffffffffffffffffffffffffffffffffff166104df61034f565b73ffffffffffffffffffffffffffffffffffffffff1614610535576040517f08c379a000000000000000000000000000000000000000000000000000000000815260040161052c9061097b565b60405180910390fd5b600034905080600160008473ffffffffffffffffffffffffffffffffffffffff1673ffffffffffffffffffffffffffffffffffffffff168152602001908152602001600020600082825461058991906109d2565b925050819055508173ffffffffffffffffffffffffffffffffffffffff167f2da466a7b24304f47e87fa2e1e5a81b9831ce54fec19055ce277ca2f39ba42c4826040516105d6919061099b565b60405180910390a25050565b600033905090565b8047101561062d576040517f08c379a00000000000000000000000000000000000000000000000000000000081526004016106249061095b565b60405180910390fd5b60008273ffffffffffffffffffffffffffffffffffffffff1682604051610653906108eb565b60006040518083038185875af1925050503d8060008114610690576040519150601f19603f3d011682016040523d82523d6000602084013e610695565b606091505b50509050806106d9576040517f08c379a00000000000000000000000000000000000000000000000000000000081526004016106d09061093b565b60405180910390fd5b505050565b60008060009054906101000a900473ffffffffffffffffffffffffffffffffffffffff169050816000806101000a81548173ffffffffffffffffffffffffffffffffffffffff021916908373ffffffffffffffffffffffffffffffffffffffff1602179055508173ffffffffffffffffffffffffffffffffffffffff168173ffffffffffffffffffffffffffffffffffffffff167f8be0079c531659141344cd1fd0a4f28419497f9722a3daafe3b4186f6b6457e060405160405180910390a35050565b6000813590506107b181610b98565b92915050565b6000813590506107c681610baf565b92915050565b6000602082840312156107de57600080fd5b60006107ec848285016107a2565b91505092915050565b60006020828403121561080757600080fd5b6000610815848285016107b7565b91505092915050565b61082781610a28565b82525050565b600061083a6026836109c1565b915061084582610aa5565b604082019050919050565b600061085d603a836109c1565b915061086882610af4565b604082019050919050565b6000610880601d836109c1565b915061088b82610b43565b602082019050919050565b60006108a36020836109c1565b91506108ae82610b6c565b602082019050919050565b60006108c66000836109b6565b91506108d182610b95565b600082019050919050565b6108e581610a6c565b82525050565b60006108f6826108b9565b9150819050919050565b6000602082019050610915600083018461081e565b92915050565b600060208201905081810360008301526109348161082d565b9050919050565b6000602082019050818103600083015261095481610850565b9050919050565b6000602082019050818103600083015261097481610873565b9050919050565b6000602082019050818103600083015261099481610896565b9050919050565b60006020820190506109b060008301846108dc565b92915050565b600081905092915050565b600082825260208201905092915050565b60006109dd82610a6c565b91506109e883610a6c565b9250827fffffffffffffffffffffffffffffffffffffffffffffffffffffffffffffffff03821115610a1d57610a1c610a76565b5b828201905092915050565b6000610a3382610a4c565b9050919050565b6000610a4582610a4c565b9050919050565b600073ffffffffffffffffffffffffffffffffffffffff82169050919050565b6000819050919050565b7f4e487b7100000000000000000000000000000000000000000000000000000000600052601160045260246000fd5b7f4f776e61626c653a206e6577206f776e657220697320746865207a65726f206160008201527f6464726573730000000000000000000000000000000000000000000000000000602082015250565b7f416464726573733a20756e61626c6520746f2073656e642076616c75652c207260008201527f6563697069656e74206d61792068617665207265766572746564000000000000602082015250565b7f416464726573733a20696e73756666696369656e742062616c616e6365000000600082015250565b7f4f776e61626c653a2063616c6c6572206973206e6f7420746865206f776e6572600082015250565b50565b610ba181610a28565b8114610bac57600080fd5b50565b610bb881610a3a565b8114610bc357600080fd5b5056fea2646970667358221220f997bbcbd0c53ae81176910f0a19ca9fe74847cfa83c3495d5c6ee1a61ff101e64736f6c63430008040033",
  "linkReferences": {},
  "deployedLinkReferences": {}
}