{
  "_format": "hh-sol-artifact-1",
  "contractName": "Marketplace",
  "sourceName": "contracts/Market.sol",
  "abi": [
    {
      "inputs": [
        {
          "internalType": "address",
          "name": "_testAddress",
          "type": "address"
        }
      ],
      "stateMutability": "nonpayable",
      "type": "constructor"
    },
    {
      "inputs": [
        {
          "internalType": "address",
          "name": "_user",
          "type": "address"
        }
      ],
      "name": "addToEscrow",
      "outputs": [],
      "stateMutability": "payable",
      "type": "function"
    },
    {
      "inputs": [
        {
          "internalType": "address",
          "name": "user",
          "type": "address"
        }
      ],
      "name": "isMember",
      "outputs": [
        {
          "internalType": "bool",
          "name": "",
          "type": "bool"
        }
      ],
      "stateMutability": "view",
      "type": "function"
    },
    {
      "inputs": [
        {
          "internalType": "address",
          "name": "",
          "type": "address"
        }
      ],
      "name": "payment",
      "outputs": [
        {
          "internalType": "uint256",
          "name": "",
          "type": "uint256"
        }
      ],
      "stateMutability": "view",
      "type": "function"
    }
  ],
  "bytecode": "0x608060405234801561001057600080fd5b506040516104643803806104648339818101604052810190610032919061008d565b806000806101000a81548173ffffffffffffffffffffffffffffffffffffffff021916908373ffffffffffffffffffffffffffffffffffffffff160217905550506100ff565b600081519050610087816100e8565b92915050565b60006020828403121561009f57600080fd5b60006100ad84828501610078565b91505092915050565b60006100c1826100c8565b9050919050565b600073ffffffffffffffffffffffffffffffffffffffff82169050919050565b6100f1816100b6565b81146100fc57600080fd5b50565b6103568061010e6000396000f3fe6080604052600436106100345760003560e01c80633b92f3df146100395780634065da6314610076578063a230c52414610092575b600080fd5b34801561004557600080fd5b50610060600480360381019061005b91906101bf565b6100cf565b60405161006d9190610221565b60405180910390f35b610090600480360381019061008b91906101bf565b6100e7565b005b34801561009e57600080fd5b506100b960048036038101906100b491906101bf565b610140565b6040516100c69190610206565b60405180910390f35b60016020528060005260406000206000915090505481565b34600160008373ffffffffffffffffffffffffffffffffffffffff1673ffffffffffffffffffffffffffffffffffffffff1681526020019081526020016000206000828254610136919061023c565b9250508190555050565b60008060009054906101000a900473ffffffffffffffffffffffffffffffffffffffff1673ffffffffffffffffffffffffffffffffffffffff168273ffffffffffffffffffffffffffffffffffffffff1614156101a057600190506101a5565b600090505b919050565b6000813590506101b981610309565b92915050565b6000602082840312156101d157600080fd5b60006101df848285016101aa565b91505092915050565b6101f1816102a4565b82525050565b610200816102d0565b82525050565b600060208201905061021b60008301846101e8565b92915050565b600060208201905061023660008301846101f7565b92915050565b6000610247826102d0565b9150610252836102d0565b9250827fffffffffffffffffffffffffffffffffffffffffffffffffffffffffffffffff03821115610287576102866102da565b5b828201905092915050565b600061029d826102b0565b9050919050565b60008115159050919050565b600073ffffffffffffffffffffffffffffffffffffffff82169050919050565b6000819050919050565b7f4e487b7100000000000000000000000000000000000000000000000000000000600052601160045260246000fd5b61031281610292565b811461031d57600080fd5b5056fea26469706673582212203f2cfe2803ac486402bf4a72db8a4552dcf712a0f3ec0a2ad96c3c1ad0d7292e64736f6c63430008040033",
  "linkReferences": {},
  "deployedLinkReferences": {}
}