{
  "_format": "hh-sol-artifact-1",
  "contractName": "Dev",
  "sourceName": "contracts/dev.sol",
  "abi": [
    {
      "inputs": [
        {
          "internalType": "string",
          "name": "_name",
          "type": "string"
        },
        {
          "internalType": "string",
          "name": "_symbol",
          "type": "string"
        },
        {
          "internalType": "string",
          "name": "_initBaseURI",
          "type": "string"
        }
      ],
      "stateMutability": "nonpayable",
      "type": "constructor"
    },
    {
      "anonymous": false,
      "inputs": [
        {
          "indexed": true,
          "internalType": "address",
          "name": "owner",
          "type": "address"
        },
        {
          "indexed": true,
          "internalType": "address",
          "name": "approved",
          "type": "address"
        },
        {
          "indexed": true,
          "internalType": "uint256",
          "name": "tokenId",
          "type": "uint256"
        }
      ],
      "name": "Approval",
      "type": "event"
    },
    {
      "anonymous": false,
      "inputs": [
        {
          "indexed": true,
          "internalType": "address",
          "name": "owner",
          "type": "address"
        },
        {
          "indexed": true,
          "internalType": "address",
          "name": "operator",
          "type": "address"
        },
        {
          "indexed": false,
          "internalType": "bool",
          "name": "approved",
          "type": "bool"
        }
      ],
      "name": "ApprovalForAll",
      "type": "event"
    },
    {
      "anonymous": false,
      "inputs": [
        {
          "indexed": true,
          "internalType": "address",
          "name": "previousOwner",
          "type": "address"
        },
        {
          "indexed": true,
          "internalType": "address",
          "name": "newOwner",
          "type": "address"
        }
      ],
      "name": "OwnershipTransferred",
      "type": "event"
    },
    {
      "anonymous": false,
      "inputs": [
        {
          "indexed": true,
          "internalType": "uint256",
          "name": "supply",
          "type": "uint256"
        }
      ],
      "name": "SupplyChanged",
      "type": "event"
    },
    {
      "anonymous": false,
      "inputs": [
        {
          "indexed": true,
          "internalType": "address",
          "name": "from",
          "type": "address"
        },
        {
          "indexed": true,
          "internalType": "address",
          "name": "to",
          "type": "address"
        },
        {
          "indexed": true,
          "internalType": "uint256",
          "name": "tokenId",
          "type": "uint256"
        }
      ],
      "name": "Transfer",
      "type": "event"
    },
    {
      "inputs": [
        {
          "internalType": "address[]",
          "name": "_addresses",
          "type": "address[]"
        }
      ],
      "name": "addWhiteList",
      "outputs": [],
      "stateMutability": "nonpayable",
      "type": "function"
    },
    {
      "inputs": [
        {
          "internalType": "address",
          "name": "",
          "type": "address"
        }
      ],
      "name": "addressMintedBalance",
      "outputs": [
        {
          "internalType": "uint256",
          "name": "",
          "type": "uint256"
        }
      ],
      "stateMutability": "view",
      "type": "function"
    },
    {
      "inputs": [
        {
          "internalType": "address",
          "name": "to",
          "type": "address"
        },
        {
          "internalType": "uint256",
          "name": "tokenId",
          "type": "uint256"
        }
      ],
      "name": "approve",
      "outputs": [],
      "stateMutability": "nonpayable",
      "type": "function"
    },
    {
      "inputs": [],
      "name": "availableTokenCount",
      "outputs": [
        {
          "internalType": "uint256",
          "name": "",
          "type": "uint256"
        }
      ],
      "stateMutability": "view",
      "type": "function"
    },
    {
      "inputs": [
        {
          "internalType": "address",
          "name": "owner",
          "type": "address"
        }
      ],
      "name": "balanceOf",
      "outputs": [
        {
          "internalType": "uint256",
          "name": "",
          "type": "uint256"
        }
      ],
      "stateMutability": "view",
      "type": "function"
    },
    {
      "inputs": [],
      "name": "baseExtension",
      "outputs": [
        {
          "internalType": "string",
          "name": "",
          "type": "string"
        }
      ],
      "stateMutability": "view",
      "type": "function"
    },
    {
      "inputs": [],
      "name": "baseURI",
      "outputs": [
        {
          "internalType": "string",
          "name": "",
          "type": "string"
        }
      ],
      "stateMutability": "view",
      "type": "function"
    },
    {
      "inputs": [
        {
          "internalType": "address",
          "name": "",
          "type": "address"
        }
      ],
      "name": "canMint",
      "outputs": [
        {
          "internalType": "uint256",
          "name": "",
          "type": "uint256"
        }
      ],
      "stateMutability": "view",
      "type": "function"
    },
    {
      "inputs": [
        {
          "internalType": "uint256",
          "name": "tokenId",
          "type": "uint256"
        }
      ],
      "name": "getApproved",
      "outputs": [
        {
          "internalType": "address",
          "name": "",
          "type": "address"
        }
      ],
      "stateMutability": "view",
      "type": "function"
    },
    {
      "inputs": [],
      "name": "getInfo",
      "outputs": [
        {
          "components": [
            {
              "internalType": "uint256",
              "name": "regularCost",
              "type": "uint256"
            },
            {
              "internalType": "uint256",
              "name": "memberCost",
              "type": "uint256"
            },
            {
              "internalType": "uint256",
              "name": "whitelistCost",
              "type": "uint256"
            },
            {
              "internalType": "uint256",
              "name": "maxSupply",
              "type": "uint256"
            },
            {
              "internalType": "uint256",
              "name": "totalSupply",
              "type": "uint256"
            },
            {
              "internalType": "uint256",
              "name": "maxMintPerAddress",
              "type": "uint256"
            },
            {
              "internalType": "uint256",
              "name": "maxMintPerTx",
              "type": "uint256"
            }
          ],
          "internalType": "struct IDrop.Info",
          "name": "",
          "type": "tuple"
        }
      ],
      "stateMutability": "view",
      "type": "function"
    },
    {
      "inputs": [],
      "name": "getPayees",
      "outputs": [
        {
          "internalType": "address[]",
          "name": "",
          "type": "address[]"
        }
      ],
      "stateMutability": "view",
      "type": "function"
    },
    {
      "inputs": [],
      "name": "getShares",
      "outputs": [
        {
          "internalType": "uint16[]",
          "name": "",
          "type": "uint16[]"
        }
      ],
      "stateMutability": "view",
      "type": "function"
    },
    {
      "inputs": [
        {
          "internalType": "address",
          "name": "owner",
          "type": "address"
        },
        {
          "internalType": "address",
          "name": "operator",
          "type": "address"
        }
      ],
      "name": "isApprovedForAll",
      "outputs": [
        {
          "internalType": "bool",
          "name": "",
          "type": "bool"
        }
      ],
      "stateMutability": "view",
      "type": "function"
    },
    {
      "inputs": [
        {
          "internalType": "address",
          "name": "_user",
          "type": "address"
        }
      ],
      "name": "isWhitelisted",
      "outputs": [
        {
          "internalType": "bool",
          "name": "",
          "type": "bool"
        }
      ],
      "stateMutability": "view",
      "type": "function"
    },
    {
      "inputs": [],
      "name": "maxMintAmount",
      "outputs": [
        {
          "internalType": "uint256",
          "name": "",
          "type": "uint256"
        }
      ],
      "stateMutability": "view",
      "type": "function"
    },
    {
      "inputs": [],
      "name": "maxSupply",
      "outputs": [
        {
          "internalType": "uint256",
          "name": "",
          "type": "uint256"
        }
      ],
      "stateMutability": "view",
      "type": "function"
    },
    {
      "inputs": [],
      "name": "maxTokens",
      "outputs": [
        {
          "internalType": "uint256",
          "name": "",
          "type": "uint256"
        }
      ],
      "stateMutability": "view",
      "type": "function"
    },
    {
      "inputs": [],
      "name": "maximumSupply",
      "outputs": [
        {
          "internalType": "uint256",
          "name": "",
          "type": "uint256"
        }
      ],
      "stateMutability": "view",
      "type": "function"
    },
    {
      "inputs": [],
      "name": "memCost",
      "outputs": [
        {
          "internalType": "uint256",
          "name": "",
          "type": "uint256"
        }
      ],
      "stateMutability": "view",
      "type": "function"
    },
    {
      "inputs": [
        {
          "internalType": "uint256",
          "name": "_mintAmount",
          "type": "uint256"
        }
      ],
      "name": "mint",
      "outputs": [],
      "stateMutability": "payable",
      "type": "function"
    },
    {
      "inputs": [
        {
          "internalType": "address",
          "name": "_minter",
          "type": "address"
        }
      ],
      "name": "mintCost",
      "outputs": [
        {
          "internalType": "uint256",
          "name": "",
          "type": "uint256"
        }
      ],
      "stateMutability": "view",
      "type": "function"
    },
    {
      "inputs": [],
      "name": "name",
      "outputs": [
        {
          "internalType": "string",
          "name": "",
          "type": "string"
        }
      ],
      "stateMutability": "view",
      "type": "function"
    },
    {
      "inputs": [],
      "name": "nftPerAddressLimit",
      "outputs": [
        {
          "internalType": "uint256",
          "name": "",
          "type": "uint256"
        }
      ],
      "stateMutability": "view",
      "type": "function"
    },
    {
      "inputs": [],
      "name": "nftPerWhitelistAddress",
      "outputs": [
        {
          "internalType": "uint256",
          "name": "",
          "type": "uint256"
        }
      ],
      "stateMutability": "view",
      "type": "function"
    },
    {
      "inputs": [],
      "name": "notRevealedUri",
      "outputs": [
        {
          "internalType": "string",
          "name": "",
          "type": "string"
        }
      ],
      "stateMutability": "view",
      "type": "function"
    },
    {
      "inputs": [],
      "name": "owner",
      "outputs": [
        {
          "internalType": "address",
          "name": "",
          "type": "address"
        }
      ],
      "stateMutability": "view",
      "type": "function"
    },
    {
      "inputs": [],
      "name": "ownerAddress",
      "outputs": [
        {
          "internalType": "address",
          "name": "",
          "type": "address"
        }
      ],
      "stateMutability": "view",
      "type": "function"
    },
    {
      "inputs": [
        {
          "internalType": "address",
          "name": "_ownerAddress",
          "type": "address"
        }
      ],
      "name": "ownerAddressChange",
      "outputs": [],
      "stateMutability": "nonpayable",
      "type": "function"
    },
    {
      "inputs": [
        {
          "internalType": "uint256",
          "name": "tokenId",
          "type": "uint256"
        }
      ],
      "name": "ownerOf",
      "outputs": [
        {
          "internalType": "address",
          "name": "",
          "type": "address"
        }
      ],
      "stateMutability": "view",
      "type": "function"
    },
    {
      "inputs": [
        {
          "internalType": "bool",
          "name": "_state",
          "type": "bool"
        }
      ],
      "name": "pause",
      "outputs": [],
      "stateMutability": "nonpayable",
      "type": "function"
    },
    {
      "inputs": [],
      "name": "paused",
      "outputs": [
        {
          "internalType": "bool",
          "name": "",
          "type": "bool"
        }
      ],
      "stateMutability": "view",
      "type": "function"
    },
    {
      "inputs": [
        {
          "internalType": "address",
          "name": "dest",
          "type": "address"
        }
      ],
      "name": "payments",
      "outputs": [
        {
          "internalType": "uint256",
          "name": "",
          "type": "uint256"
        }
      ],
      "stateMutability": "view",
      "type": "function"
    },
    {
      "inputs": [],
      "name": "regCost",
      "outputs": [
        {
          "internalType": "uint256",
          "name": "",
          "type": "uint256"
        }
      ],
      "stateMutability": "view",
      "type": "function"
    },
    {
      "inputs": [
        {
          "internalType": "address",
          "name": "_address",
          "type": "address"
        }
      ],
      "name": "removeWhiteList",
      "outputs": [],
      "stateMutability": "nonpayable",
      "type": "function"
    },
    {
      "inputs": [],
      "name": "renounceOwnership",
      "outputs": [],
      "stateMutability": "nonpayable",
      "type": "function"
    },
    {
      "inputs": [
        {
          "internalType": "uint256",
          "name": "_mintAmount",
          "type": "uint256"
        },
        {
          "internalType": "address",
          "name": "_to",
          "type": "address"
        }
      ],
      "name": "reserveMint",
      "outputs": [],
      "stateMutability": "payable",
      "type": "function"
    },
    {
      "inputs": [],
      "name": "revealed",
      "outputs": [
        {
          "internalType": "bool",
          "name": "",
          "type": "bool"
        }
      ],
      "stateMutability": "view",
      "type": "function"
    },
    {
      "inputs": [
        {
          "internalType": "address",
          "name": "from",
          "type": "address"
        },
        {
          "internalType": "address",
          "name": "to",
          "type": "address"
        },
        {
          "internalType": "uint256",
          "name": "tokenId",
          "type": "uint256"
        }
      ],
      "name": "safeTransferFrom",
      "outputs": [],
      "stateMutability": "nonpayable",
      "type": "function"
    },
    {
      "inputs": [
        {
          "internalType": "address",
          "name": "from",
          "type": "address"
        },
        {
          "internalType": "address",
          "name": "to",
          "type": "address"
        },
        {
          "internalType": "uint256",
          "name": "tokenId",
          "type": "uint256"
        },
        {
          "internalType": "bytes",
          "name": "_data",
          "type": "bytes"
        }
      ],
      "name": "safeTransferFrom",
      "outputs": [],
      "stateMutability": "nonpayable",
      "type": "function"
    },
    {
      "inputs": [
        {
          "internalType": "address",
          "name": "operator",
          "type": "address"
        },
        {
          "internalType": "bool",
          "name": "approved",
          "type": "bool"
        }
      ],
      "name": "setApprovalForAll",
      "outputs": [],
      "stateMutability": "nonpayable",
      "type": "function"
    },
    {
      "inputs": [
        {
          "internalType": "string",
          "name": "_newBaseURI",
          "type": "string"
        }
      ],
      "name": "setBaseURI",
      "outputs": [],
      "stateMutability": "nonpayable",
      "type": "function"
    },
    {
      "inputs": [
        {
          "internalType": "uint256",
          "name": "_newmaxMintAmount",
          "type": "uint256"
        }
      ],
      "name": "setMaxMintAmount",
      "outputs": [],
      "stateMutability": "nonpayable",
      "type": "function"
    },
    {
      "inputs": [
        {
          "internalType": "uint256",
          "name": "_newCost",
          "type": "uint256"
        }
      ],
      "name": "setMemCost",
      "outputs": [],
      "stateMutability": "nonpayable",
      "type": "function"
    },
    {
      "inputs": [
        {
          "internalType": "address[]",
          "name": "_newPayees",
          "type": "address[]"
        },
        {
          "internalType": "uint16[]",
          "name": "_newShares",
          "type": "uint16[]"
        }
      ],
      "name": "setPaymentShares",
      "outputs": [],
      "stateMutability": "nonpayable",
      "type": "function"
    },
    {
      "inputs": [
        {
          "internalType": "uint256",
          "name": "_newCost",
          "type": "uint256"
        }
      ],
      "name": "setRegCost",
      "outputs": [],
      "stateMutability": "nonpayable",
      "type": "function"
    },
    {
      "inputs": [
        {
          "internalType": "uint256",
          "name": "_newCost",
          "type": "uint256"
        }
      ],
      "name": "setWhiteCost",
      "outputs": [],
      "stateMutability": "nonpayable",
      "type": "function"
    },
    {
      "inputs": [
        {
          "internalType": "bytes4",
          "name": "interfaceId",
          "type": "bytes4"
        }
      ],
      "name": "supportsInterface",
      "outputs": [
        {
          "internalType": "bool",
          "name": "",
          "type": "bool"
        }
      ],
      "stateMutability": "view",
      "type": "function"
    },
    {
      "inputs": [],
      "name": "symbol",
      "outputs": [
        {
          "internalType": "string",
          "name": "",
          "type": "string"
        }
      ],
      "stateMutability": "view",
      "type": "function"
    },
    {
      "inputs": [
        {
          "internalType": "uint256",
          "name": "index",
          "type": "uint256"
        }
      ],
      "name": "tokenByIndex",
      "outputs": [
        {
          "internalType": "uint256",
          "name": "",
          "type": "uint256"
        }
      ],
      "stateMutability": "view",
      "type": "function"
    },
    {
      "inputs": [],
      "name": "tokenCount",
      "outputs": [
        {
          "internalType": "uint256",
          "name": "",
          "type": "uint256"
        }
      ],
      "stateMutability": "view",
      "type": "function"
    },
    {
      "inputs": [
        {
          "internalType": "address",
          "name": "owner",
          "type": "address"
        },
        {
          "internalType": "uint256",
          "name": "index",
          "type": "uint256"
        }
      ],
      "name": "tokenOfOwnerByIndex",
      "outputs": [
        {
          "internalType": "uint256",
          "name": "",
          "type": "uint256"
        }
      ],
      "stateMutability": "view",
      "type": "function"
    },
    {
      "inputs": [
        {
          "internalType": "uint256",
          "name": "tokenId",
          "type": "uint256"
        }
      ],
      "name": "tokenURI",
      "outputs": [
        {
          "internalType": "string",
          "name": "",
          "type": "string"
        }
      ],
      "stateMutability": "view",
      "type": "function"
    },
    {
      "inputs": [],
      "name": "totalSupply",
      "outputs": [
        {
          "internalType": "uint256",
          "name": "",
          "type": "uint256"
        }
      ],
      "stateMutability": "view",
      "type": "function"
    },
    {
      "inputs": [
        {
          "internalType": "address",
          "name": "from",
          "type": "address"
        },
        {
          "internalType": "address",
          "name": "to",
          "type": "address"
        },
        {
          "internalType": "uint256",
          "name": "tokenId",
          "type": "uint256"
        }
      ],
      "name": "transferFrom",
      "outputs": [],
      "stateMutability": "nonpayable",
      "type": "function"
    },
    {
      "inputs": [
        {
          "internalType": "address",
          "name": "newOwner",
          "type": "address"
        }
      ],
      "name": "transferOwnership",
      "outputs": [],
      "stateMutability": "nonpayable",
      "type": "function"
    },
    {
      "inputs": [
        {
          "internalType": "address",
          "name": "_owner",
          "type": "address"
        }
      ],
      "name": "walletOfOwner",
      "outputs": [
        {
          "internalType": "uint256[]",
          "name": "",
          "type": "uint256[]"
        }
      ],
      "stateMutability": "view",
      "type": "function"
    },
    {
      "inputs": [],
      "name": "whiteCost",
      "outputs": [
        {
          "internalType": "uint256",
          "name": "",
          "type": "uint256"
        }
      ],
      "stateMutability": "view",
      "type": "function"
    },
    {
      "inputs": [],
      "name": "withdraw",
      "outputs": [],
      "stateMutability": "payable",
      "type": "function"
    },
    {
      "inputs": [
        {
          "internalType": "address payable",
          "name": "payee",
          "type": "address"
        }
      ],
      "name": "withdrawPayments",
      "outputs": [],
      "stateMutability": "nonpayable",
      "type": "function"
    }
  ],
  "bytecode": "0x60a060405273194d51cc109bfb17887cd7731cf967ca27ed2e21600f60006101000a81548173ffffffffffffffffffffffffffffffffffffffff021916908373ffffffffffffffffffffffffffffffffffffffff1602179055506040518060400160405280600581526020017f2e6a736f6e00000000000000000000000000000000000000000000000000000081525060119080519060200190620000a6929190620003d4565b506729a2241af62c0000601355671bc16d674ec80000601455670de0b6b3a764000060155560646016556005601755606460185560056019556001601c60006101000a81548160ff0219169083151502179055506001601c60016101000a81548160ff0219169083151502179055503480156200012257600080fd5b506040516200789038038062007890833981810160405281019062000148919062000504565b6115b36001818585816000908051906020019062000168929190620003d4565b50806001908051906020019062000181929190620003d4565b505050620001a4620001986200023160201b60201c565b6200023960201b60201c565b604051620001b29062000465565b604051809103906000f080158015620001cf573d6000803e3d6000fd5b5073ffffffffffffffffffffffffffffffffffffffff1660808173ffffffffffffffffffffffffffffffffffffffff1660601b8152505080600c819055505080600e8190555050506200022881620002ff60201b60201c565b50505062000798565b600033905090565b6000600a60009054906101000a900473ffffffffffffffffffffffffffffffffffffffff16905081600a60006101000a81548173ffffffffffffffffffffffffffffffffffffffff021916908373ffffffffffffffffffffffffffffffffffffffff1602179055508173ffffffffffffffffffffffffffffffffffffffff168173ffffffffffffffffffffffffffffffffffffffff167f8be0079c531659141344cd1fd0a4f28419497f9722a3daafe3b4186f6b6457e060405160405180910390a35050565b6200030f6200023160201b60201c565b73ffffffffffffffffffffffffffffffffffffffff1662000335620003aa60201b60201c565b73ffffffffffffffffffffffffffffffffffffffff16146200038e576040517f08c379a00000000000000000000000000000000000000000000000000000000081526004016200038590620005cc565b60405180910390fd5b8060109080519060200190620003a6929190620003d4565b5050565b6000600a60009054906101000a900473ffffffffffffffffffffffffffffffffffffffff16905090565b828054620003e29062000694565b90600052602060002090601f01602090048101928262000406576000855562000452565b82601f106200042157805160ff191683800117855562000452565b8280016001018555821562000452579182015b828111156200045157825182559160200191906001019062000434565b5b50905062000461919062000473565b5090565b610d098062006b8783390190565b5b808211156200048e57600081600090555060010162000474565b5090565b6000620004a9620004a38462000617565b620005ee565b905082815260208101848484011115620004c257600080fd5b620004cf8482856200065e565b509392505050565b600082601f830112620004e957600080fd5b8151620004fb84826020860162000492565b91505092915050565b6000806000606084860312156200051a57600080fd5b600084015167ffffffffffffffff8111156200053557600080fd5b6200054386828701620004d7565b935050602084015167ffffffffffffffff8111156200056157600080fd5b6200056f86828701620004d7565b925050604084015167ffffffffffffffff8111156200058d57600080fd5b6200059b86828701620004d7565b9150509250925092565b6000620005b46020836200064d565b9150620005c1826200076f565b602082019050919050565b60006020820190508181036000830152620005e781620005a5565b9050919050565b6000620005fa6200060d565b9050620006088282620006ca565b919050565b6000604051905090565b600067ffffffffffffffff8211156200063557620006346200072f565b5b62000640826200075e565b9050602081019050919050565b600082825260208201905092915050565b60005b838110156200067e57808201518184015260208101905062000661565b838111156200068e576000848401525b50505050565b60006002820490506001821680620006ad57607f821691505b60208210811415620006c457620006c362000700565b5b50919050565b620006d5826200075e565b810181811067ffffffffffffffff82111715620006f757620006f66200072f565b5b80604052505050565b7f4e487b7100000000000000000000000000000000000000000000000000000000600052602260045260246000fd5b7f4e487b7100000000000000000000000000000000000000000000000000000000600052604160045260246000fd5b6000601f19601f8301169050919050565b7f4f776e61626c653a2063616c6c6572206973206e6f7420746865206f776e6572600082015250565b60805160601c6163c9620007be6000396000818161161201526128bc01526163c96000f3fe60806040526004361061038c5760003560e01c80635b3aaf1f116101dc578063a22cb46511610102578063d5abeb01116100a0578063e83157421161006f578063e831574214610d47578063e985e9c514610d72578063eba830d814610daf578063f2fde38b14610dd85761038c565b8063d5abeb0114610c89578063d73fe0aa14610cb4578063e14ca35314610cdf578063e2982c2114610d0a5761038c565b8063ba7d2c76116100dc578063ba7d2c7614610bb9578063c2ba474414610be4578063c668286214610c21578063c87b56dd14610c4c5761038c565b8063a22cb46514610b3e578063ab762e1614610b67578063b88d4fde14610b905761038c565b8063715018a61161017a57806398221858116101495780639822185814610aa35780639f181b5e14610acc5780639fb362ae14610af7578063a0712d6814610b225761038c565b8063715018a614610a0b5780638da5cb5b14610a225780638f84aa0914610a4d57806395d89b4114610a785761038c565b806360b02f70116101b657806360b02f701461094a5780636352211e146109665780636c0360eb146109a357806370a08231146109ce5761038c565b80635b3aaf1f146108cd5780635c975abb146108f65780635e1045ec146109215761038c565b806323b872dd116102c15780633af32abf1161025f5780634f6ccce71161022e5780634f6ccce714610811578063518302271461084e57806355f804b3146108795780635a9b0b89146108a25761038c565b80633af32abf146107645780633ccfd60b146107a157806342842e0e146107ab578063438b6300146107d45761038c565b80632acc659e1161029b5780632acc659e146106965780632f745c59146106d357806331a18f7d1461071057806331b3eb941461073b5761038c565b806323b872dd1461061757806323b89cd21461064057806327f381131461066b5761038c565b8063095ea7b31161032e57806318cae2691161030857806318cae2691461055d5780631cac1a5f1461059a5780632042e5c2146105c3578063239c70ae146105ec5761038c565b8063095ea7b3146104de5780630ce6e9421461050757806318160ddd146105325761038c565b806306fdde031161036a57806306fdde0314610422578063081812fc1461044d578063081c8c441461048a578063088a4ed0146104b55761038c565b806301ffc9a71461039157806302329a29146103ce5780630480e58b146103f7575b600080fd5b34801561039d57600080fd5b506103b860048036038101906103b391906148f2565b610e01565b6040516103c59190615357565b60405180910390f35b3480156103da57600080fd5b506103f560048036038101906103f091906148c9565b610e7b565b005b34801561040357600080fd5b5061040c610f14565b604051610419919061572f565b60405180910390f35b34801561042e57600080fd5b50610437610f1e565b6040516104449190615372565b60405180910390f35b34801561045957600080fd5b50610474600480360381019061046f9190614985565b610fb0565b604051610481919061526f565b60405180910390f35b34801561049657600080fd5b5061049f611035565b6040516104ac9190615372565b60405180910390f35b3480156104c157600080fd5b506104dc60048036038101906104d79190614985565b6110c3565b005b3480156104ea57600080fd5b50610505600480360381019061050091906147d3565b611149565b005b34801561051357600080fd5b5061051c611261565b604051610529919061572f565b60405180910390f35b34801561053e57600080fd5b50610547611267565b604051610554919061572f565b60405180910390f35b34801561056957600080fd5b50610584600480360381019061057f919061463f565b611274565b604051610591919061572f565b60405180910390f35b3480156105a657600080fd5b506105c160048036038101906105bc9190614985565b61128c565b005b3480156105cf57600080fd5b506105ea60048036038101906105e5919061463f565b611312565b005b3480156105f857600080fd5b50610601611433565b60405161060e919061572f565b60405180910390f35b34801561062357600080fd5b5061063e600480360381019061063991906146cd565b611439565b005b34801561064c57600080fd5b50610655611499565b604051610662919061572f565b60405180910390f35b34801561067757600080fd5b5061068061149f565b60405161068d91906152f1565b60405180910390f35b3480156106a257600080fd5b506106bd60048036038101906106b8919061463f565b61152d565b6040516106ca919061572f565b60405180910390f35b3480156106df57600080fd5b506106fa60048036038101906106f591906147d3565b611565565b604051610707919061572f565b60405180910390f35b34801561071c57600080fd5b5061072561160a565b604051610732919061572f565b60405180910390f35b34801561074757600080fd5b50610762600480360381019061075d9190614668565b611610565b005b34801561077057600080fd5b5061078b6004803603810190610786919061463f565b61169e565b6040516107989190615357565b60405180910390f35b6107a96116f4565b005b3480156107b757600080fd5b506107d260048036038101906107cd91906146cd565b61180b565b005b3480156107e057600080fd5b506107fb60048036038101906107f6919061463f565b61182b565b6040516108089190615335565b60405180910390f35b34801561081d57600080fd5b5061083860048036038101906108339190614985565b611925565b604051610845919061572f565b60405180910390f35b34801561085a57600080fd5b506108636119bc565b6040516108709190615357565b60405180910390f35b34801561088557600080fd5b506108a0600480360381019061089b9190614944565b6119cf565b005b3480156108ae57600080fd5b506108b7611a65565b6040516108c49190615714565b60405180910390f35b3480156108d957600080fd5b506108f460048036038101906108ef919061463f565b611ad5565b005b34801561090257600080fd5b5061090b611b95565b6040516109189190615357565b60405180910390f35b34801561092d57600080fd5b506109486004803603810190610943919061480f565b611ba8565b005b610964600480360381019061095f91906149d7565b611cf5565b005b34801561097257600080fd5b5061098d60048036038101906109889190614985565b611e03565b60405161099a919061526f565b60405180910390f35b3480156109af57600080fd5b506109b8611eb5565b6040516109c59190615372565b60405180910390f35b3480156109da57600080fd5b506109f560048036038101906109f0919061463f565b611f43565b604051610a02919061572f565b60405180910390f35b348015610a1757600080fd5b50610a20611ffb565b005b348015610a2e57600080fd5b50610a37612083565b604051610a44919061526f565b60405180910390f35b348015610a5957600080fd5b50610a626120ad565b604051610a6f919061526f565b60405180910390f35b348015610a8457600080fd5b50610a8d6120d3565b604051610a9a9190615372565b60405180910390f35b348015610aaf57600080fd5b50610aca6004803603810190610ac59190614985565b612165565b005b348015610ad857600080fd5b50610ae16121eb565b604051610aee919061572f565b60405180910390f35b348015610b0357600080fd5b50610b0c6121fc565b604051610b19919061572f565b60405180910390f35b610b3c6004803603810190610b379190614985565b612202565b005b348015610b4a57600080fd5b50610b656004803603810190610b609190614797565b612516565b005b348015610b7357600080fd5b50610b8e6004803603810190610b899190614985565b61252c565b005b348015610b9c57600080fd5b50610bb76004803603810190610bb2919061471c565b6125b2565b005b348015610bc557600080fd5b50610bce612614565b604051610bdb919061572f565b60405180910390f35b348015610bf057600080fd5b50610c0b6004803603810190610c06919061463f565b61261a565b604051610c18919061572f565b60405180910390f35b348015610c2d57600080fd5b50610c36612626565b604051610c439190615372565b60405180910390f35b348015610c5857600080fd5b50610c736004803603810190610c6e9190614985565b6126b4565b604051610c809190615372565b60405180910390f35b348015610c9557600080fd5b50610c9e61280d565b604051610cab919061572f565b60405180910390f35b348015610cc057600080fd5b50610cc9612817565b604051610cd69190615313565b60405180910390f35b348015610ceb57600080fd5b50610cf4612897565b604051610d01919061572f565b60405180910390f35b348015610d1657600080fd5b50610d316004803603810190610d2c919061463f565b6128b8565b604051610d3e919061572f565b60405180910390f35b348015610d5357600080fd5b50610d5c61296a565b604051610d69919061572f565b60405180910390f35b348015610d7e57600080fd5b50610d996004803603810190610d949190614691565b612970565b604051610da69190615357565b60405180910390f35b348015610dbb57600080fd5b50610dd66004803603810190610dd19190614854565b612a04565b005b348015610de457600080fd5b50610dff6004803603810190610dfa919061463f565b612bc2565b005b60007f780e9d63000000000000000000000000000000000000000000000000000000007bffffffffffffffffffffffffffffffffffffffffffffffffffffffff1916827bffffffffffffffffffffffffffffffffffffffffffffffffffffffff19161480610e745750610e7382612cba565b5b9050919050565b610e83612d9c565b73ffffffffffffffffffffffffffffffffffffffff16610ea1612083565b73ffffffffffffffffffffffffffffffffffffffff1614610ef7576040517f08c379a0000000000000000000000000000000000000000000000000000000008152600401610eee906155d4565b60405180910390fd5b80601c60006101000a81548160ff02191690831515021790555050565b6000600c54905090565b606060008054610f2d90615a70565b80601f0160208091040260200160405190810160405280929190818152602001828054610f5990615a70565b8015610fa65780601f10610f7b57610100808354040283529160200191610fa6565b820191906000526020600020905b815481529060010190602001808311610f8957829003601f168201915b5050505050905090565b6000610fbb82612da4565b610ffa576040517f08c379a0000000000000000000000000000000000000000000000000000000008152600401610ff1906155b4565b60405180910390fd5b6004600083815260200190815260200160002060009054906101000a900473ffffffffffffffffffffffffffffffffffffffff169050919050565b6012805461104290615a70565b80601f016020809104026020016040519081016040528092919081815260200182805461106e90615a70565b80156110bb5780601f10611090576101008083540402835291602001916110bb565b820191906000526020600020905b81548152906001019060200180831161109e57829003601f168201915b505050505081565b6110cb612d9c565b73ffffffffffffffffffffffffffffffffffffffff166110e9612083565b73ffffffffffffffffffffffffffffffffffffffff161461113f576040517f08c379a0000000000000000000000000000000000000000000000000000000008152600401611136906155d4565b60405180910390fd5b8060178190555050565b600061115482611e03565b90508073ffffffffffffffffffffffffffffffffffffffff168373ffffffffffffffffffffffffffffffffffffffff1614156111c5576040517f08c379a00000000000000000000000000000000000000000000000000000000081526004016111bc90615674565b60405180910390fd5b8073ffffffffffffffffffffffffffffffffffffffff166111e4612d9c565b73ffffffffffffffffffffffffffffffffffffffff16148061121357506112128161120d612d9c565b612970565b5b611252576040517f08c379a000000000000000000000000000000000000000000000000000000000815260040161124990615514565b60405180910390fd5b61125c8383612e10565b505050565b60195481565b6000600880549050905090565b601e6020528060005260406000206000915090505481565b611294612d9c565b73ffffffffffffffffffffffffffffffffffffffff166112b2612083565b73ffffffffffffffffffffffffffffffffffffffff1614611308576040517f08c379a00000000000000000000000000000000000000000000000000000000081526004016112ff906155d4565b60405180910390fd5b8060158190555050565b61131a612d9c565b73ffffffffffffffffffffffffffffffffffffffff16611338612083565b73ffffffffffffffffffffffffffffffffffffffff161461138e576040517f08c379a0000000000000000000000000000000000000000000000000000000008152600401611385906155d4565b60405180910390fd5b601d60008273ffffffffffffffffffffffffffffffffffffffff1673ffffffffffffffffffffffffffffffffffffffff16815260200190815260200160002060009054906101000a900460ff161561143057601d60008273ffffffffffffffffffffffffffffffffffffffff1673ffffffffffffffffffffffffffffffffffffffff16815260200190815260200160002060006101000a81549060ff02191690555b50565b60175481565b61144a611444612d9c565b82612ec9565b611489576040517f08c379a0000000000000000000000000000000000000000000000000000000008152600401611480906156b4565b60405180910390fd5b611494838383612fa7565b505050565b60155481565b6060601a80548060200260200160405190810160405280929190818152602001828054801561152357602002820191906000526020600020905b8160009054906101000a900473ffffffffffffffffffffffffffffffffffffffff1673ffffffffffffffffffffffffffffffffffffffff16815260200190600101908083116114d9575b5050505050905090565b60006115388261169e565b1561155a5760195461154983611f43565b1015611559576015549050611560565b5b60135490505b919050565b600061157083611f43565b82106115b1576040517f08c379a00000000000000000000000000000000000000000000000000000000081526004016115a8906153b4565b60405180910390fd5b600660008473ffffffffffffffffffffffffffffffffffffffff1673ffffffffffffffffffffffffffffffffffffffff168152602001908152602001600020600083815260200190815260200160002054905092915050565b60135481565b7f000000000000000000000000000000000000000000000000000000000000000073ffffffffffffffffffffffffffffffffffffffff166351cff8d9826040518263ffffffff1660e01b8152600401611669919061528a565b600060405180830381600087803b15801561168357600080fd5b505af1158015611697573d6000803e3d6000fd5b5050505050565b6000601d60008373ffffffffffffffffffffffffffffffffffffffff1673ffffffffffffffffffffffffffffffffffffffff16815260200190815260200160002060009054906101000a900460ff169050919050565b6116fc612d9c565b73ffffffffffffffffffffffffffffffffffffffff1661171a612083565b73ffffffffffffffffffffffffffffffffffffffff1614611770576040517f08c379a0000000000000000000000000000000000000000000000000000000008152600401611767906155d4565b60405180910390fd5b6000600f60009054906101000a900473ffffffffffffffffffffffffffffffffffffffff1673ffffffffffffffffffffffffffffffffffffffff16476040516117b89061525a565b60006040518083038185875af1925050503d80600081146117f5576040519150601f19603f3d011682016040523d82523d6000602084013e6117fa565b606091505b505090508061180857600080fd5b50565b611826838383604051806020016040528060008152506125b2565b505050565b6060600061183883611f43565b905060008167ffffffffffffffff81111561187c577f4e487b7100000000000000000000000000000000000000000000000000000000600052604160045260246000fd5b6040519080825280602002602001820160405280156118aa5781602001602082028036833780820191505090505b50905060005b8281101561191a576118c28582611565565b8282815181106118fb577f4e487b7100000000000000000000000000000000000000000000000000000000600052603260045260246000fd5b602002602001018181525050808061191290615ad3565b9150506118b0565b508092505050919050565b600061192f611267565b8210611970576040517f08c379a0000000000000000000000000000000000000000000000000000000008152600401611967906156d4565b60405180910390fd5b600882815481106119aa577f4e487b7100000000000000000000000000000000000000000000000000000000600052603260045260246000fd5b90600052602060002001549050919050565b601c60019054906101000a900460ff1681565b6119d7612d9c565b73ffffffffffffffffffffffffffffffffffffffff166119f5612083565b73ffffffffffffffffffffffffffffffffffffffff1614611a4b576040517f08c379a0000000000000000000000000000000000000000000000000000000008152600401611a42906155d4565b60405180910390fd5b8060109080519060200190611a6192919061421a565b5050565b611a6d6142a0565b611a756142a0565b601354816000018181525050601454816020018181525050601554816040018181525050601654816060018181525050611aad611267565b8160800181815250506018548160a00181815250506017548160c00181815250508091505090565b611add612d9c565b73ffffffffffffffffffffffffffffffffffffffff16611afb612083565b73ffffffffffffffffffffffffffffffffffffffff1614611b51576040517f08c379a0000000000000000000000000000000000000000000000000000000008152600401611b48906155d4565b60405180910390fd5b80600f60006101000a81548173ffffffffffffffffffffffffffffffffffffffff021916908373ffffffffffffffffffffffffffffffffffffffff16021790555050565b601c60009054906101000a900460ff1681565b611bb0612d9c565b73ffffffffffffffffffffffffffffffffffffffff16611bce612083565b73ffffffffffffffffffffffffffffffffffffffff1614611c24576040517f08c379a0000000000000000000000000000000000000000000000000000000008152600401611c1b906155d4565b60405180910390fd5b600082829050905060005b81811015611cef576001601d6000868685818110611c76577f4e487b7100000000000000000000000000000000000000000000000000000000600052603260045260246000fd5b9050602002016020810190611c8b919061463f565b73ffffffffffffffffffffffffffffffffffffffff1673ffffffffffffffffffffffffffffffffffffffff16815260200190815260200160002060006101000a81548160ff0219169083151502179055508080611ce790615ad3565b915050611c2f565b50505050565b611cfd612d9c565b73ffffffffffffffffffffffffffffffffffffffff16611d1b612083565b73ffffffffffffffffffffffffffffffffffffffff1614611d71576040517f08c379a0000000000000000000000000000000000000000000000000000000008152600401611d68906155d4565b60405180910390fd5b6000600190505b828111611dfe57601e60003373ffffffffffffffffffffffffffffffffffffffff1673ffffffffffffffffffffffffffffffffffffffff1681526020019081526020016000206000815480929190611dcf90615ad3565b91905055506000611dde613203565b9050611dea8382613391565b508080611df690615ad3565b915050611d78565b505050565b6000806002600084815260200190815260200160002060009054906101000a900473ffffffffffffffffffffffffffffffffffffffff169050600073ffffffffffffffffffffffffffffffffffffffff168173ffffffffffffffffffffffffffffffffffffffff161415611eac576040517f08c379a0000000000000000000000000000000000000000000000000000000008152600401611ea390615554565b60405180910390fd5b80915050919050565b60108054611ec290615a70565b80601f0160208091040260200160405190810160405280929190818152602001828054611eee90615a70565b8015611f3b5780601f10611f1057610100808354040283529160200191611f3b565b820191906000526020600020905b815481529060010190602001808311611f1e57829003601f168201915b505050505081565b60008073ffffffffffffffffffffffffffffffffffffffff168273ffffffffffffffffffffffffffffffffffffffff161415611fb4576040517f08c379a0000000000000000000000000000000000000000000000000000000008152600401611fab90615534565b60405180910390fd5b600360008373ffffffffffffffffffffffffffffffffffffffff1673ffffffffffffffffffffffffffffffffffffffff168152602001908152602001600020549050919050565b612003612d9c565b73ffffffffffffffffffffffffffffffffffffffff16612021612083565b73ffffffffffffffffffffffffffffffffffffffff1614612077576040517f08c379a000000000000000000000000000000000000000000000000000000000815260040161206e906155d4565b60405180910390fd5b61208160006133af565b565b6000600a60009054906101000a900473ffffffffffffffffffffffffffffffffffffffff16905090565b600f60009054906101000a900473ffffffffffffffffffffffffffffffffffffffff1681565b6060600180546120e290615a70565b80601f016020809104026020016040519081016040528092919081815260200182805461210e90615a70565b801561215b5780601f106121305761010080835404028352916020019161215b565b820191906000526020600020905b81548152906001019060200180831161213e57829003601f168201915b5050505050905090565b61216d612d9c565b73ffffffffffffffffffffffffffffffffffffffff1661218b612083565b73ffffffffffffffffffffffffffffffffffffffff16146121e1576040517f08c379a00000000000000000000000000000000000000000000000000000000081526004016121d8906155d4565b60405180910390fd5b8060148190555050565b60006121f7600b613475565b905090565b60145481565b6000601c60009054906101000a900460ff1615612254576040517f08c379a000000000000000000000000000000000000000000000000000000000815260040161224b906155f4565b60405180910390fd5b600061225e611267565b9050600083116122a3576040517f08c379a000000000000000000000000000000000000000000000000000000000815260040161229a906156f4565b60405180910390fd5b6017548311156122e8576040517f08c379a00000000000000000000000000000000000000000000000000000000081526004016122df906154b4565b60405180910390fd5b60165483826122f791906158df565b1115612338576040517f08c379a000000000000000000000000000000000000000000000000000000000815260040161232f90615574565b60405180910390fd5b612340612083565b73ffffffffffffffffffffffffffffffffffffffff163373ffffffffffffffffffffffffffffffffffffffff1614612483576000601e60003373ffffffffffffffffffffffffffffffffffffffff1673ffffffffffffffffffffffffffffffffffffffff16815260200190815260200160002054905060185484826123c591906158df565b1115612406576040517f08c379a00000000000000000000000000000000000000000000000000000000081526004016123fd90615434565b60405180910390fd5b6000600190505b84811161243d5761241d3361152d565b8461242891906158df565b9350808061243590615ad3565b91505061240d565b5082341015612481576040517f08c379a000000000000000000000000000000000000000000000000000000000815260040161247890615694565b60405180910390fd5b505b6000600190505b83811161251057601e60003373ffffffffffffffffffffffffffffffffffffffff1673ffffffffffffffffffffffffffffffffffffffff16815260200190815260200160002060008154809291906124e190615ad3565b919050555060006124f0613203565b90506124fc3382613391565b50808061250890615ad3565b91505061248a565b50505050565b612528612521612d9c565b8383613483565b5050565b612534612d9c565b73ffffffffffffffffffffffffffffffffffffffff16612552612083565b73ffffffffffffffffffffffffffffffffffffffff16146125a8576040517f08c379a000000000000000000000000000000000000000000000000000000000815260040161259f906155d4565b60405180910390fd5b8060138190555050565b6125c36125bd612d9c565b83612ec9565b612602576040517f08c379a00000000000000000000000000000000000000000000000000000000081526004016125f9906156b4565b60405180910390fd5b61260e848484846135f0565b50505050565b60185481565b60006017549050919050565b6011805461263390615a70565b80601f016020809104026020016040519081016040528092919081815260200182805461265f90615a70565b80156126ac5780601f10612681576101008083540402835291602001916126ac565b820191906000526020600020905b81548152906001019060200180831161268f57829003601f168201915b505050505081565b60606126bf82612da4565b6126fe576040517f08c379a00000000000000000000000000000000000000000000000000000000081526004016126f590615634565b60405180910390fd5b60001515601c60019054906101000a900460ff16151514156127ac576012805461272790615a70565b80601f016020809104026020016040519081016040528092919081815260200182805461275390615a70565b80156127a05780601f10612775576101008083540402835291602001916127a0565b820191906000526020600020905b81548152906001019060200180831161278357829003601f168201915b50505050509050612808565b60006127b661364c565b905060008151116127d65760405180602001604052806000815250612804565b806127e0846136de565b60116040516020016127f493929190615229565b6040516020818303038152906040525b9150505b919050565b6000601654905090565b6060601b80548060200260200160405190810160405280929190818152602001828054801561288d57602002820191906000526020600020906000905b82829054906101000a900461ffff1661ffff16815260200190600201906020826001010492830192600103820291508084116128545790505b5050505050905090565b60006128a16121eb565b6128a9610f14565b6128b39190615966565b905090565b60007f000000000000000000000000000000000000000000000000000000000000000073ffffffffffffffffffffffffffffffffffffffff1663e3a9db1a836040518263ffffffff1660e01b8152600401612913919061526f565b60206040518083038186803b15801561292b57600080fd5b505afa15801561293f573d6000803e3d6000fd5b505050506040513d601f19601f8201168201806040525081019061296391906149ae565b9050919050565b60165481565b6000600560008473ffffffffffffffffffffffffffffffffffffffff1673ffffffffffffffffffffffffffffffffffffffff16815260200190815260200160002060008373ffffffffffffffffffffffffffffffffffffffff1673ffffffffffffffffffffffffffffffffffffffff16815260200190815260200160002060009054906101000a900460ff16905092915050565b612a0c612d9c565b73ffffffffffffffffffffffffffffffffffffffff16612a2a612083565b73ffffffffffffffffffffffffffffffffffffffff1614612a80576040517f08c379a0000000000000000000000000000000000000000000000000000000008152600401612a77906155d4565b60405180910390fd5b6000848490501415612ac7576040517f08c379a0000000000000000000000000000000000000000000000000000000008152600401612abe906154f4565b60405180910390fd5b818190508484905014612b0f576040517f08c379a0000000000000000000000000000000000000000000000000000000008152600401612b0690615654565b60405180910390fd5b612b59828280806020026020016040519081016040528093929190818152602001838360200280828437600081840152601f19601f8201169050808301925050505050505061388b565b612b98576040517f08c379a0000000000000000000000000000000000000000000000000000000008152600401612b8f90615394565b60405180910390fd5b8383601a9190612ba99291906142dd565b508181601b9190612bbb92919061437d565b5050505050565b612bca612d9c565b73ffffffffffffffffffffffffffffffffffffffff16612be8612083565b73ffffffffffffffffffffffffffffffffffffffff1614612c3e576040517f08c379a0000000000000000000000000000000000000000000000000000000008152600401612c35906155d4565b60405180910390fd5b600073ffffffffffffffffffffffffffffffffffffffff168173ffffffffffffffffffffffffffffffffffffffff161415612cae576040517f08c379a0000000000000000000000000000000000000000000000000000000008152600401612ca5906153f4565b60405180910390fd5b612cb7816133af565b50565b60007f80ac58cd000000000000000000000000000000000000000000000000000000007bffffffffffffffffffffffffffffffffffffffffffffffffffffffff1916827bffffffffffffffffffffffffffffffffffffffffffffffffffffffff19161480612d8557507f5b5e139f000000000000000000000000000000000000000000000000000000007bffffffffffffffffffffffffffffffffffffffffffffffffffffffff1916827bffffffffffffffffffffffffffffffffffffffffffffffffffffffff1916145b80612d955750612d9482613916565b5b9050919050565b600033905090565b60008073ffffffffffffffffffffffffffffffffffffffff166002600084815260200190815260200160002060009054906101000a900473ffffffffffffffffffffffffffffffffffffffff1673ffffffffffffffffffffffffffffffffffffffff1614159050919050565b816004600083815260200190815260200160002060006101000a81548173ffffffffffffffffffffffffffffffffffffffff021916908373ffffffffffffffffffffffffffffffffffffffff160217905550808273ffffffffffffffffffffffffffffffffffffffff16612e8383611e03565b73ffffffffffffffffffffffffffffffffffffffff167f8c5be1e5ebec7d5bd14f71427d1e84f3dd0314c0f7b2291e5b200ac8c7c3b92560405160405180910390a45050565b6000612ed482612da4565b612f13576040517f08c379a0000000000000000000000000000000000000000000000000000000008152600401612f0a906154d4565b60405180910390fd5b6000612f1e83611e03565b90508073ffffffffffffffffffffffffffffffffffffffff168473ffffffffffffffffffffffffffffffffffffffff161480612f8d57508373ffffffffffffffffffffffffffffffffffffffff16612f7584610fb0565b73ffffffffffffffffffffffffffffffffffffffff16145b80612f9e5750612f9d8185612970565b5b91505092915050565b8273ffffffffffffffffffffffffffffffffffffffff16612fc782611e03565b73ffffffffffffffffffffffffffffffffffffffff161461301d576040517f08c379a000000000000000000000000000000000000000000000000000000000815260040161301490615614565b60405180910390fd5b600073ffffffffffffffffffffffffffffffffffffffff168273ffffffffffffffffffffffffffffffffffffffff16141561308d576040517f08c379a000000000000000000000000000000000000000000000000000000000815260040161308490615454565b60405180910390fd5b613098838383613980565b6130a3600082612e10565b6001600360008573ffffffffffffffffffffffffffffffffffffffff1673ffffffffffffffffffffffffffffffffffffffff16815260200190815260200160002060008282546130f39190615966565b925050819055506001600360008473ffffffffffffffffffffffffffffffffffffffff1673ffffffffffffffffffffffffffffffffffffffff168152602001908152602001600020600082825461314a91906158df565b92505081905550816002600083815260200190815260200160002060006101000a81548173ffffffffffffffffffffffffffffffffffffffff021916908373ffffffffffffffffffffffffffffffffffffffff160217905550808273ffffffffffffffffffffffffffffffffffffffff168473ffffffffffffffffffffffffffffffffffffffff167fddf252ad1be2c89b69c2b068fc378daa952ba7f163c4a11628f55a4df523b3ef60405160405180910390a4505050565b60008061320e612897565b1161324e576040517f08c379a000000000000000000000000000000000000000000000000000000000815260040161324590615494565b60405180910390fd5b60006132586121eb565b613260610f14565b61326a9190615966565b905060008133414445426040516020016132889594939291906151ca565b6040516020818303038152906040528051906020012060001c6132ab9190615b5c565b9050600080600d60008481526020019081526020016000205414156132d2578190506132e9565b600d60008381526020019081526020016000205490505b6000600d60006001866132fc9190615966565b815260200190815260200160002054141561333a5760018361331e9190615966565b600d600084815260200190815260200160002081905550613372565b600d600060018561334b9190615966565b815260200190815260200160002054600d6000848152602001908152602001600020819055505b61337a613a94565b50600e548161338991906158df565b935050505090565b6133ab828260405180602001604052806000815250613ab4565b5050565b6000600a60009054906101000a900473ffffffffffffffffffffffffffffffffffffffff16905081600a60006101000a81548173ffffffffffffffffffffffffffffffffffffffff021916908373ffffffffffffffffffffffffffffffffffffffff1602179055508173ffffffffffffffffffffffffffffffffffffffff168173ffffffffffffffffffffffffffffffffffffffff167f8be0079c531659141344cd1fd0a4f28419497f9722a3daafe3b4186f6b6457e060405160405180910390a35050565b600081600001549050919050565b8173ffffffffffffffffffffffffffffffffffffffff168373ffffffffffffffffffffffffffffffffffffffff1614156134f2576040517f08c379a00000000000000000000000000000000000000000000000000000000081526004016134e990615474565b60405180910390fd5b80600560008573ffffffffffffffffffffffffffffffffffffffff1673ffffffffffffffffffffffffffffffffffffffff16815260200190815260200160002060008473ffffffffffffffffffffffffffffffffffffffff1673ffffffffffffffffffffffffffffffffffffffff16815260200190815260200160002060006101000a81548160ff0219169083151502179055508173ffffffffffffffffffffffffffffffffffffffff168373ffffffffffffffffffffffffffffffffffffffff167f17307eab39ab6107e8899845ad3d59bd9653f200f220920489ca2b5937696c31836040516135e39190615357565b60405180910390a3505050565b6135fb848484612fa7565b61360784848484613b0f565b613646576040517f08c379a000000000000000000000000000000000000000000000000000000000815260040161363d906153d4565b60405180910390fd5b50505050565b60606010805461365b90615a70565b80601f016020809104026020016040519081016040528092919081815260200182805461368790615a70565b80156136d45780601f106136a9576101008083540402835291602001916136d4565b820191906000526020600020905b8154815290600101906020018083116136b757829003601f168201915b5050505050905090565b60606000821415613726576040518060400160405280600181526020017f30000000000000000000000000000000000000000000000000000000000000008152509050613886565b600082905060005b6000821461375857808061374190615ad3565b915050600a826137519190615935565b915061372e565b60008167ffffffffffffffff81111561379a577f4e487b7100000000000000000000000000000000000000000000000000000000600052604160045260246000fd5b6040519080825280601f01601f1916602001820160405280156137cc5781602001600182028036833780820191505090505b5090505b6000851461387f576001826137e59190615966565b9150600a856137f49190615b5c565b603061380091906158df565b60f81b81838151811061383c577f4e487b7100000000000000000000000000000000000000000000000000000000600052603260045260246000fd5b60200101907effffffffffffffffffffffffffffffffffffffffffffffffffffffffffffff1916908160001a905350600a856138789190615935565b94506137d0565b8093505050505b919050565b60008082519050600080600090505b82811015613907578481815181106138db577f4e487b7100000000000000000000000000000000000000000000000000000000600052603260045260246000fd5b602002602001015161ffff16826138f291906158df565b915080806138ff90615ad3565b91505061389a565b50612710811492505050919050565b60007f01ffc9a7000000000000000000000000000000000000000000000000000000007bffffffffffffffffffffffffffffffffffffffffffffffffffffffff1916827bffffffffffffffffffffffffffffffffffffffffffffffffffffffff1916149050919050565b61398b838383613ca6565b600073ffffffffffffffffffffffffffffffffffffffff168373ffffffffffffffffffffffffffffffffffffffff1614156139ce576139c981613cab565b613a0d565b8173ffffffffffffffffffffffffffffffffffffffff168373ffffffffffffffffffffffffffffffffffffffff1614613a0c57613a0b8382613cf4565b5b5b600073ffffffffffffffffffffffffffffffffffffffff168273ffffffffffffffffffffffffffffffffffffffff161415613a5057613a4b81613e61565b613a8f565b8273ffffffffffffffffffffffffffffffffffffffff168273ffffffffffffffffffffffffffffffffffffffff1614613a8e57613a8d8282613fa4565b5b5b505050565b600080613aa1600b613475565b9050613aad600b614023565b8091505090565b613abe8383614039565b613acb6000848484613b0f565b613b0a576040517f08c379a0000000000000000000000000000000000000000000000000000000008152600401613b01906153d4565b60405180910390fd5b505050565b6000613b308473ffffffffffffffffffffffffffffffffffffffff16614207565b15613c99578373ffffffffffffffffffffffffffffffffffffffff1663150b7a02613b59612d9c565b8786866040518563ffffffff1660e01b8152600401613b7b94939291906152a5565b602060405180830381600087803b158015613b9557600080fd5b505af1925050508015613bc657506040513d601f19601f82011682018060405250810190613bc3919061491b565b60015b613c49573d8060008114613bf6576040519150601f19603f3d011682016040523d82523d6000602084013e613bfb565b606091505b50600081511415613c41576040517f08c379a0000000000000000000000000000000000000000000000000000000008152600401613c38906153d4565b60405180910390fd5b805181602001fd5b63150b7a0260e01b7bffffffffffffffffffffffffffffffffffffffffffffffffffffffff1916817bffffffffffffffffffffffffffffffffffffffffffffffffffffffff191614915050613c9e565b600190505b949350505050565b505050565b6008805490506009600083815260200190815260200160002081905550600881908060018154018082558091505060019003906000526020600020016000909190919091505550565b60006001613d0184611f43565b613d0b9190615966565b9050600060076000848152602001908152602001600020549050818114613df0576000600660008673ffffffffffffffffffffffffffffffffffffffff1673ffffffffffffffffffffffffffffffffffffffff168152602001908152602001600020600084815260200190815260200160002054905080600660008773ffffffffffffffffffffffffffffffffffffffff1673ffffffffffffffffffffffffffffffffffffffff168152602001908152602001600020600084815260200190815260200160002081905550816007600083815260200190815260200160002081905550505b6007600084815260200190815260200160002060009055600660008573ffffffffffffffffffffffffffffffffffffffff1673ffffffffffffffffffffffffffffffffffffffff16815260200190815260200160002060008381526020019081526020016000206000905550505050565b60006001600880549050613e759190615966565b9050600060096000848152602001908152602001600020549050600060088381548110613ecb577f4e487b7100000000000000000000000000000000000000000000000000000000600052603260045260246000fd5b906000526020600020015490508060088381548110613f13577f4e487b7100000000000000000000000000000000000000000000000000000000600052603260045260246000fd5b906000526020600020018190555081600960008381526020019081526020016000208190555060096000858152602001908152602001600020600090556008805480613f88577f4e487b7100000000000000000000000000000000000000000000000000000000600052603160045260246000fd5b6001900381819060005260206000200160009055905550505050565b6000613faf83611f43565b905081600660008573ffffffffffffffffffffffffffffffffffffffff1673ffffffffffffffffffffffffffffffffffffffff168152602001908152602001600020600083815260200190815260200160002081905550806007600084815260200190815260200160002081905550505050565b6001816000016000828254019250508190555050565b600073ffffffffffffffffffffffffffffffffffffffff168273ffffffffffffffffffffffffffffffffffffffff1614156140a9576040517f08c379a00000000000000000000000000000000000000000000000000000000081526004016140a090615594565b60405180910390fd5b6140b281612da4565b156140f2576040517f08c379a00000000000000000000000000000000000000000000000000000000081526004016140e990615414565b60405180910390fd5b6140fe60008383613980565b6001600360008473ffffffffffffffffffffffffffffffffffffffff1673ffffffffffffffffffffffffffffffffffffffff168152602001908152602001600020600082825461414e91906158df565b92505081905550816002600083815260200190815260200160002060006101000a81548173ffffffffffffffffffffffffffffffffffffffff021916908373ffffffffffffffffffffffffffffffffffffffff160217905550808273ffffffffffffffffffffffffffffffffffffffff16600073ffffffffffffffffffffffffffffffffffffffff167fddf252ad1be2c89b69c2b068fc378daa952ba7f163c4a11628f55a4df523b3ef60405160405180910390a45050565b600080823b905060008111915050919050565b82805461422690615a70565b90600052602060002090601f016020900481019282614248576000855561428f565b82601f1061426157805160ff191683800117855561428f565b8280016001018555821561428f579182015b8281111561428e578251825591602001919060010190614273565b5b50905061429c919061442b565b5090565b6040518060e00160405280600081526020016000815260200160008152602001600081526020016000815260200160008152602001600081525090565b82805482825590600052602060002090810192821561436c579160200282015b8281111561436b57823573ffffffffffffffffffffffffffffffffffffffff168260006101000a81548173ffffffffffffffffffffffffffffffffffffffff021916908373ffffffffffffffffffffffffffffffffffffffff160217905550916020019190600101906142fd565b5b509050614379919061442b565b5090565b82805482825590600052602060002090600f0160109004810192821561441a5791602002820160005b838211156143ea57833561ffff1683826101000a81548161ffff021916908361ffff16021790555092602001926002016020816001010492830192600103026143a6565b80156144185782816101000a81549061ffff02191690556002016020816001010492830192600103026143ea565b505b509050614427919061442b565b5090565b5b8082111561444457600081600090555060010161442c565b5090565b600061445b6144568461576f565b61574a565b90508281526020810184848401111561447357600080fd5b61447e848285615a2e565b509392505050565b6000614499614494846157a0565b61574a565b9050828152602081018484840111156144b157600080fd5b6144bc848285615a2e565b509392505050565b6000813590506144d381616320565b92915050565b6000813590506144e881616337565b92915050565b60008083601f84011261450057600080fd5b8235905067ffffffffffffffff81111561451957600080fd5b60208301915083602082028301111561453157600080fd5b9250929050565b60008083601f84011261454a57600080fd5b8235905067ffffffffffffffff81111561456357600080fd5b60208301915083602082028301111561457b57600080fd5b9250929050565b6000813590506145918161634e565b92915050565b6000813590506145a681616365565b92915050565b6000815190506145bb81616365565b92915050565b600082601f8301126145d257600080fd5b81356145e2848260208601614448565b91505092915050565b600082601f8301126145fc57600080fd5b813561460c848260208601614486565b91505092915050565b6000813590506146248161637c565b92915050565b6000815190506146398161637c565b92915050565b60006020828403121561465157600080fd5b600061465f848285016144c4565b91505092915050565b60006020828403121561467a57600080fd5b6000614688848285016144d9565b91505092915050565b600080604083850312156146a457600080fd5b60006146b2858286016144c4565b92505060206146c3858286016144c4565b9150509250929050565b6000806000606084860312156146e257600080fd5b60006146f0868287016144c4565b9350506020614701868287016144c4565b925050604061471286828701614615565b9150509250925092565b6000806000806080858703121561473257600080fd5b6000614740878288016144c4565b9450506020614751878288016144c4565b935050604061476287828801614615565b925050606085013567ffffffffffffffff81111561477f57600080fd5b61478b878288016145c1565b91505092959194509250565b600080604083850312156147aa57600080fd5b60006147b8858286016144c4565b92505060206147c985828601614582565b9150509250929050565b600080604083850312156147e657600080fd5b60006147f4858286016144c4565b925050602061480585828601614615565b9150509250929050565b6000806020838503121561482257600080fd5b600083013567ffffffffffffffff81111561483c57600080fd5b614848858286016144ee565b92509250509250929050565b6000806000806040858703121561486a57600080fd5b600085013567ffffffffffffffff81111561488457600080fd5b614890878288016144ee565b9450945050602085013567ffffffffffffffff8111156148af57600080fd5b6148bb87828801614538565b925092505092959194509250565b6000602082840312156148db57600080fd5b60006148e984828501614582565b91505092915050565b60006020828403121561490457600080fd5b600061491284828501614597565b91505092915050565b60006020828403121561492d57600080fd5b600061493b848285016145ac565b91505092915050565b60006020828403121561495657600080fd5b600082013567ffffffffffffffff81111561497057600080fd5b61497c848285016145eb565b91505092915050565b60006020828403121561499757600080fd5b60006149a584828501614615565b91505092915050565b6000602082840312156149c057600080fd5b60006149ce8482850161462a565b91505092915050565b600080604083850312156149ea57600080fd5b60006149f885828601614615565b9250506020614a09858286016144c4565b9150509250929050565b6000614a1f8383614a81565b60208301905092915050565b6000614a378383615186565b60208301905092915050565b6000614a4f8383615195565b60208301905092915050565b614a64816159ac565b82525050565b614a7b614a76826159ac565b615b2e565b82525050565b614a8a8161599a565b82525050565b614a998161599a565b82525050565b614ab0614aab8261599a565b615b1c565b82525050565b6000614ac182615816565b614acb8185615874565b9350614ad6836157d1565b8060005b83811015614b07578151614aee8882614a13565b9750614af98361584d565b925050600181019050614ada565b5085935050505092915050565b6000614b1f82615821565b614b298185615885565b9350614b34836157e1565b8060005b83811015614b65578151614b4c8882614a2b565b9750614b578361585a565b925050600181019050614b38565b5085935050505092915050565b6000614b7d8261582c565b614b878185615896565b9350614b92836157f1565b8060005b83811015614bc3578151614baa8882614a43565b9750614bb583615867565b925050600181019050614b96565b5085935050505092915050565b614bd9816159be565b82525050565b6000614bea82615837565b614bf481856158a7565b9350614c04818560208601615a3d565b614c0d81615c49565b840191505092915050565b6000614c2382615842565b614c2d81856158c3565b9350614c3d818560208601615a3d565b614c4681615c49565b840191505092915050565b6000614c5c82615842565b614c6681856158d4565b9350614c76818560208601615a3d565b80840191505092915050565b60008154614c8f81615a70565b614c9981866158d4565b94506001821660008114614cb45760018114614cc557614cf8565b60ff19831686528186019350614cf8565b614cce85615801565b60005b83811015614cf057815481890152600182019150602081019050614cd1565b838801955050505b50505092915050565b6000614d0e600e836158c3565b9150614d1982615c67565b602082019050919050565b6000614d31602b836158c3565b9150614d3c82615c90565b604082019050919050565b6000614d546032836158c3565b9150614d5f82615cdf565b604082019050919050565b6000614d776026836158c3565b9150614d8282615d2e565b604082019050919050565b6000614d9a601c836158c3565b9150614da582615d7d565b602082019050919050565b6000614dbd601c836158c3565b9150614dc882615da6565b602082019050919050565b6000614de06024836158c3565b9150614deb82615dcf565b604082019050919050565b6000614e036019836158c3565b9150614e0e82615e1e565b602082019050919050565b6000614e266018836158c3565b9150614e3182615e47565b602082019050919050565b6000614e496028836158c3565b9150614e5482615e70565b604082019050919050565b6000614e6c602c836158c3565b9150614e7782615ebf565b604082019050919050565b6000614e8f600c836158c3565b9150614e9a82615f0e565b602082019050919050565b6000614eb26038836158c3565b9150614ebd82615f37565b604082019050919050565b6000614ed5602a836158c3565b9150614ee082615f86565b604082019050919050565b6000614ef86029836158c3565b9150614f0382615fd5565b604082019050919050565b6000614f1b6016836158c3565b9150614f2682616024565b602082019050919050565b6000614f3e6020836158c3565b9150614f498261604d565b602082019050919050565b6000614f61602c836158c3565b9150614f6c82616076565b604082019050919050565b6000614f846020836158c3565b9150614f8f826160c5565b602082019050919050565b6000614fa76016836158c3565b9150614fb2826160ee565b602082019050919050565b6000614fca6029836158c3565b9150614fd582616117565b604082019050919050565b6000614fed602f836158c3565b9150614ff882616166565b604082019050919050565b60006150106013836158c3565b915061501b826161b5565b602082019050919050565b60006150336021836158c3565b915061503e826161de565b604082019050919050565b60006150566000836158b8565b91506150618261622d565b600082019050919050565b60006150796012836158c3565b915061508482616230565b602082019050919050565b600061509c6031836158c3565b91506150a782616259565b604082019050919050565b60006150bf602c836158c3565b91506150ca826162a8565b604082019050919050565b60006150e2601b836158c3565b91506150ed826162f7565b602082019050919050565b60e08201600082015161510e6000850182615195565b5060208201516151216020850182615195565b5060408201516151346040850182615195565b5060608201516151476060850182615195565b50608082015161515a6080850182615195565b5060a082015161516d60a0850182615195565b5060c082015161518060c0850182615195565b50505050565b61518f816159f6565b82525050565b61519e81615a24565b82525050565b6151ad81615a24565b82525050565b6151c46151bf82615a24565b615b52565b82525050565b60006151d68288614a9f565b6014820191506151e68287614a6a565b6014820191506151f682866151b3565b60208201915061520682856151b3565b60208201915061521682846151b3565b6020820191508190509695505050505050565b60006152358286614c51565b91506152418285614c51565b915061524d8284614c82565b9150819050949350505050565b600061526582615049565b9150819050919050565b60006020820190506152846000830184614a90565b92915050565b600060208201905061529f6000830184614a5b565b92915050565b60006080820190506152ba6000830187614a90565b6152c76020830186614a90565b6152d460408301856151a4565b81810360608301526152e68184614bdf565b905095945050505050565b6000602082019050818103600083015261530b8184614ab6565b905092915050565b6000602082019050818103600083015261532d8184614b14565b905092915050565b6000602082019050818103600083015261534f8184614b72565b905092915050565b600060208201905061536c6000830184614bd0565b92915050565b6000602082019050818103600083015261538c8184614c18565b905092915050565b600060208201905081810360008301526153ad81614d01565b9050919050565b600060208201905081810360008301526153cd81614d24565b9050919050565b600060208201905081810360008301526153ed81614d47565b9050919050565b6000602082019050818103600083015261540d81614d6a565b9050919050565b6000602082019050818103600083015261542d81614d8d565b9050919050565b6000602082019050818103600083015261544d81614db0565b9050919050565b6000602082019050818103600083015261546d81614dd3565b9050919050565b6000602082019050818103600083015261548d81614df6565b9050919050565b600060208201905081810360008301526154ad81614e19565b9050919050565b600060208201905081810360008301526154cd81614e3c565b9050919050565b600060208201905081810360008301526154ed81614e5f565b9050919050565b6000602082019050818103600083015261550d81614e82565b9050919050565b6000602082019050818103600083015261552d81614ea5565b9050919050565b6000602082019050818103600083015261554d81614ec8565b9050919050565b6000602082019050818103600083015261556d81614eeb565b9050919050565b6000602082019050818103600083015261558d81614f0e565b9050919050565b600060208201905081810360008301526155ad81614f31565b9050919050565b600060208201905081810360008301526155cd81614f54565b9050919050565b600060208201905081810360008301526155ed81614f77565b9050919050565b6000602082019050818103600083015261560d81614f9a565b9050919050565b6000602082019050818103600083015261562d81614fbd565b9050919050565b6000602082019050818103600083015261564d81614fe0565b9050919050565b6000602082019050818103600083015261566d81615003565b9050919050565b6000602082019050818103600083015261568d81615026565b9050919050565b600060208201905081810360008301526156ad8161506c565b9050919050565b600060208201905081810360008301526156cd8161508f565b9050919050565b600060208201905081810360008301526156ed816150b2565b9050919050565b6000602082019050818103600083015261570d816150d5565b9050919050565b600060e08201905061572960008301846150f8565b92915050565b600060208201905061574460008301846151a4565b92915050565b6000615754615765565b90506157608282615aa2565b919050565b6000604051905090565b600067ffffffffffffffff82111561578a57615789615c1a565b5b61579382615c49565b9050602081019050919050565b600067ffffffffffffffff8211156157bb576157ba615c1a565b5b6157c482615c49565b9050602081019050919050565b6000819050602082019050919050565b6000819050602082019050919050565b6000819050602082019050919050565b60008190508160005260206000209050919050565b600081519050919050565b600081519050919050565b600081519050919050565b600081519050919050565b600081519050919050565b6000602082019050919050565b6000602082019050919050565b6000602082019050919050565b600082825260208201905092915050565b600082825260208201905092915050565b600082825260208201905092915050565b600082825260208201905092915050565b600081905092915050565b600082825260208201905092915050565b600081905092915050565b60006158ea82615a24565b91506158f583615a24565b9250827fffffffffffffffffffffffffffffffffffffffffffffffffffffffffffffffff0382111561592a57615929615b8d565b5b828201905092915050565b600061594082615a24565b915061594b83615a24565b92508261595b5761595a615bbc565b5b828204905092915050565b600061597182615a24565b915061597c83615a24565b92508282101561598f5761598e615b8d565b5b828203905092915050565b60006159a582615a04565b9050919050565b60006159b782615a04565b9050919050565b60008115159050919050565b60007fffffffff0000000000000000000000000000000000000000000000000000000082169050919050565b600061ffff82169050919050565b600073ffffffffffffffffffffffffffffffffffffffff82169050919050565b6000819050919050565b82818337600083830152505050565b60005b83811015615a5b578082015181840152602081019050615a40565b83811115615a6a576000848401525b50505050565b60006002820490506001821680615a8857607f821691505b60208210811415615a9c57615a9b615beb565b5b50919050565b615aab82615c49565b810181811067ffffffffffffffff82111715615aca57615ac9615c1a565b5b80604052505050565b6000615ade82615a24565b91507fffffffffffffffffffffffffffffffffffffffffffffffffffffffffffffffff821415615b1157615b10615b8d565b5b600182019050919050565b6000615b2782615b40565b9050919050565b6000615b3982615b40565b9050919050565b6000615b4b82615c5a565b9050919050565b6000819050919050565b6000615b6782615a24565b9150615b7283615a24565b925082615b8257615b81615bbc565b5b828206905092915050565b7f4e487b7100000000000000000000000000000000000000000000000000000000600052601160045260246000fd5b7f4e487b7100000000000000000000000000000000000000000000000000000000600052601260045260246000fd5b7f4e487b7100000000000000000000000000000000000000000000000000000000600052602260045260246000fd5b7f4e487b7100000000000000000000000000000000000000000000000000000000600052604160045260246000fd5b6000601f19601f8301169050919050565b60008160601b9050919050565b7f696e76616c696420736861726573000000000000000000000000000000000000600082015250565b7f455243373231456e756d657261626c653a206f776e657220696e646578206f7560008201527f74206f6620626f756e6473000000000000000000000000000000000000000000602082015250565b7f4552433732313a207472616e7366657220746f206e6f6e20455243373231526560008201527f63656976657220696d706c656d656e7465720000000000000000000000000000602082015250565b7f4f776e61626c653a206e6577206f776e657220697320746865207a65726f206160008201527f6464726573730000000000000000000000000000000000000000000000000000602082015250565b7f4552433732313a20746f6b656e20616c7265616479206d696e74656400000000600082015250565b7f6d6178204e465420706572206164647265737320657863656564656400000000600082015250565b7f4552433732313a207472616e7366657220746f20746865207a65726f2061646460008201527f7265737300000000000000000000000000000000000000000000000000000000602082015250565b7f4552433732313a20617070726f766520746f2063616c6c657200000000000000600082015250565b7f4e6f206d6f726520746f6b656e7320617661696c61626c650000000000000000600082015250565b7f6d6178206d696e7420616d6f756e7420706572207472616e73616374696f6e2060008201527f6578636565646564000000000000000000000000000000000000000000000000602082015250565b7f4552433732313a206f70657261746f7220717565727920666f72206e6f6e657860008201527f697374656e7420746f6b656e0000000000000000000000000000000000000000602082015250565b7f656d707479207061796565730000000000000000000000000000000000000000600082015250565b7f4552433732313a20617070726f76652063616c6c6572206973206e6f74206f7760008201527f6e6572206e6f7220617070726f76656420666f7220616c6c0000000000000000602082015250565b7f4552433732313a2062616c616e636520717565727920666f7220746865207a6560008201527f726f206164647265737300000000000000000000000000000000000000000000602082015250565b7f4552433732313a206f776e657220717565727920666f72206e6f6e657869737460008201527f656e7420746f6b656e0000000000000000000000000000000000000000000000602082015250565b7f6d6178204e4654206c696d697420657863656564656400000000000000000000600082015250565b7f4552433732313a206d696e7420746f20746865207a65726f2061646472657373600082015250565b7f4552433732313a20617070726f76656420717565727920666f72206e6f6e657860008201527f697374656e7420746f6b656e0000000000000000000000000000000000000000602082015250565b7f4f776e61626c653a2063616c6c6572206973206e6f7420746865206f776e6572600082015250565b7f74686520636f6e74726163742069732070617573656400000000000000000000600082015250565b7f4552433732313a207472616e73666572206f6620746f6b656e2074686174206960008201527f73206e6f74206f776e0000000000000000000000000000000000000000000000602082015250565b7f4552433732314d657461646174613a2055524920717565727920666f72206e6f60008201527f6e6578697374656e7420746f6b656e0000000000000000000000000000000000602082015250565b7f77726f6e67207061796565206e756d6265727300000000000000000000000000600082015250565b7f4552433732313a20617070726f76616c20746f2063757272656e74206f776e6560008201527f7200000000000000000000000000000000000000000000000000000000000000602082015250565b50565b7f696e73756666696369656e742066756e64730000000000000000000000000000600082015250565b7f4552433732313a207472616e736665722063616c6c6572206973206e6f74206f60008201527f776e6572206e6f7220617070726f766564000000000000000000000000000000602082015250565b7f455243373231456e756d657261626c653a20676c6f62616c20696e646578206f60008201527f7574206f6620626f756e64730000000000000000000000000000000000000000602082015250565b7f6e65656420746f206d696e74206174206c656173742031204e46540000000000600082015250565b6163298161599a565b811461633457600080fd5b50565b616340816159ac565b811461634b57600080fd5b50565b616357816159be565b811461636257600080fd5b50565b61636e816159ca565b811461637957600080fd5b50565b61638581615a24565b811461639057600080fd5b5056fea2646970667358221220da1edd1a3ea1888a134336ae284a038a06c16eff3532e3895c8a8f60c9f9571c64736f6c63430008040033608060405234801561001057600080fd5b5061002d61002261003260201b60201c565b61003a60201b60201c565b6100fe565b600033905090565b60008060009054906101000a900473ffffffffffffffffffffffffffffffffffffffff169050816000806101000a81548173ffffffffffffffffffffffffffffffffffffffff021916908373ffffffffffffffffffffffffffffffffffffffff1602179055508173ffffffffffffffffffffffffffffffffffffffff168173ffffffffffffffffffffffffffffffffffffffff167f8be0079c531659141344cd1fd0a4f28419497f9722a3daafe3b4186f6b6457e060405160405180910390a35050565b610bfc8061010d6000396000f3fe6080604052600436106100555760003560e01c806351cff8d91461005a578063715018a6146100835780638da5cb5b1461009a578063e3a9db1a146100c5578063f2fde38b14610102578063f340fa011461012b575b600080fd5b34801561006657600080fd5b50610081600480360381019061007c91906107f5565b610147565b005b34801561008f57600080fd5b506100986102c7565b005b3480156100a657600080fd5b506100af61034f565b6040516100bc9190610900565b60405180910390f35b3480156100d157600080fd5b506100ec60048036038101906100e791906107cc565b610378565b6040516100f9919061099b565b60405180910390f35b34801561010e57600080fd5b50610129600480360381019061012491906107cc565b6103c1565b005b610145600480360381019061014091906107cc565b6104b9565b005b61014f6105e2565b73ffffffffffffffffffffffffffffffffffffffff1661016d61034f565b73ffffffffffffffffffffffffffffffffffffffff16146101c3576040517f08c379a00000000000000000000000000000000000000000000000000000000081526004016101ba9061097b565b60405180910390fd5b6000600160008373ffffffffffffffffffffffffffffffffffffffff1673ffffffffffffffffffffffffffffffffffffffff1681526020019081526020016000205490506000600160008473ffffffffffffffffffffffffffffffffffffffff1673ffffffffffffffffffffffffffffffffffffffff16815260200190815260200160002081905550610275818373ffffffffffffffffffffffffffffffffffffffff166105ea90919063ffffffff16565b8173ffffffffffffffffffffffffffffffffffffffff167f7084f5476618d8e60b11ef0d7d3f06914655adb8793e28ff7f018d4c76d505d5826040516102bb919061099b565b60405180910390a25050565b6102cf6105e2565b73ffffffffffffffffffffffffffffffffffffffff166102ed61034f565b73ffffffffffffffffffffffffffffffffffffffff1614610343576040517f08c379a000000000000000000000000000000000000000000000000000000000815260040161033a9061097b565b60405180910390fd5b61034d60006106de565b565b60008060009054906101000a900473ffffffffffffffffffffffffffffffffffffffff16905090565b6000600160008373ffffffffffffffffffffffffffffffffffffffff1673ffffffffffffffffffffffffffffffffffffffff168152602001908152602001600020549050919050565b6103c96105e2565b73ffffffffffffffffffffffffffffffffffffffff166103e761034f565b73ffffffffffffffffffffffffffffffffffffffff161461043d576040517f08c379a00000000000000000000000000000000000000000000000000000000081526004016104349061097b565b60405180910390fd5b600073ffffffffffffffffffffffffffffffffffffffff168173ffffffffffffffffffffffffffffffffffffffff1614156104ad576040517f08c379a00000000000000000000000000000000000000000000000000000000081526004016104a49061091b565b60405180910390fd5b6104b6816106de565b50565b6104c16105e2565b73ffffffffffffffffffffffffffffffffffffffff166104df61034f565b73ffffffffffffffffffffffffffffffffffffffff1614610535576040517f08c379a000000000000000000000000000000000000000000000000000000000815260040161052c9061097b565b60405180910390fd5b600034905080600160008473ffffffffffffffffffffffffffffffffffffffff1673ffffffffffffffffffffffffffffffffffffffff168152602001908152602001600020600082825461058991906109d2565b925050819055508173ffffffffffffffffffffffffffffffffffffffff167f2da466a7b24304f47e87fa2e1e5a81b9831ce54fec19055ce277ca2f39ba42c4826040516105d6919061099b565b60405180910390a25050565b600033905090565b8047101561062d576040517f08c379a00000000000000000000000000000000000000000000000000000000081526004016106249061095b565b60405180910390fd5b60008273ffffffffffffffffffffffffffffffffffffffff1682604051610653906108eb565b60006040518083038185875af1925050503d8060008114610690576040519150601f19603f3d011682016040523d82523d6000602084013e610695565b606091505b50509050806106d9576040517f08c379a00000000000000000000000000000000000000000000000000000000081526004016106d09061093b565b60405180910390fd5b505050565b60008060009054906101000a900473ffffffffffffffffffffffffffffffffffffffff169050816000806101000a81548173ffffffffffffffffffffffffffffffffffffffff021916908373ffffffffffffffffffffffffffffffffffffffff1602179055508173ffffffffffffffffffffffffffffffffffffffff168173ffffffffffffffffffffffffffffffffffffffff167f8be0079c531659141344cd1fd0a4f28419497f9722a3daafe3b4186f6b6457e060405160405180910390a35050565b6000813590506107b181610b98565b92915050565b6000813590506107c681610baf565b92915050565b6000602082840312156107de57600080fd5b60006107ec848285016107a2565b91505092915050565b60006020828403121561080757600080fd5b6000610815848285016107b7565b91505092915050565b61082781610a28565b82525050565b600061083a6026836109c1565b915061084582610aa5565b604082019050919050565b600061085d603a836109c1565b915061086882610af4565b604082019050919050565b6000610880601d836109c1565b915061088b82610b43565b602082019050919050565b60006108a36020836109c1565b91506108ae82610b6c565b602082019050919050565b60006108c66000836109b6565b91506108d182610b95565b600082019050919050565b6108e581610a6c565b82525050565b60006108f6826108b9565b9150819050919050565b6000602082019050610915600083018461081e565b92915050565b600060208201905081810360008301526109348161082d565b9050919050565b6000602082019050818103600083015261095481610850565b9050919050565b6000602082019050818103600083015261097481610873565b9050919050565b6000602082019050818103600083015261099481610896565b9050919050565b60006020820190506109b060008301846108dc565b92915050565b600081905092915050565b600082825260208201905092915050565b60006109dd82610a6c565b91506109e883610a6c565b9250827fffffffffffffffffffffffffffffffffffffffffffffffffffffffffffffffff03821115610a1d57610a1c610a76565b5b828201905092915050565b6000610a3382610a4c565b9050919050565b6000610a4582610a4c565b9050919050565b600073ffffffffffffffffffffffffffffffffffffffff82169050919050565b6000819050919050565b7f4e487b7100000000000000000000000000000000000000000000000000000000600052601160045260246000fd5b7f4f776e61626c653a206e6577206f776e657220697320746865207a65726f206160008201527f6464726573730000000000000000000000000000000000000000000000000000602082015250565b7f416464726573733a20756e61626c6520746f2073656e642076616c75652c207260008201527f6563697069656e74206d61792068617665207265766572746564000000000000602082015250565b7f416464726573733a20696e73756666696369656e742062616c616e6365000000600082015250565b7f4f776e61626c653a2063616c6c6572206973206e6f7420746865206f776e6572600082015250565b50565b610ba181610a28565b8114610bac57600080fd5b50565b610bb881610a3a565b8114610bc357600080fd5b5056fea2646970667358221220197e17099ba6200bd63aa66e6097faee7200492783a453c4bcda5bca74455f3964736f6c63430008040033",
  "linkReferences": {},
  "deployedLinkReferences": {}
}