{
  "_format": "hh-sol-artifact-1",
  "contractName": "V2Fighters",
  "sourceName": "contracts/V2Fighters.sol",
  "abi": [
    {
      "inputs": [
        {
          "internalType": "string",
          "name": "_name",
          "type": "string"
        },
        {
          "internalType": "string",
          "name": "_symbol",
          "type": "string"
        },
        {
          "internalType": "string",
          "name": "_initBaseURI",
          "type": "string"
        },
        {
          "internalType": "address",
          "name": "_marketAddress",
          "type": "address"
        },
        {
          "internalType": "address",
          "name": "_ebisusPaymentAddress",
          "type": "address"
        },
        {
          "internalType": "address",
          "name": "_V1Address",
          "type": "address"
        },
        {
          "internalType": "address",
          "name": "_dwsPaymentAddress",
          "type": "address"
        },
        {
          "internalType": "address",
          "name": "_fightersPaymentAddress",
          "type": "address"
        }
      ],
      "stateMutability": "nonpayable",
      "type": "constructor"
    },
    {
      "anonymous": false,
      "inputs": [
        {
          "indexed": true,
          "internalType": "address",
          "name": "owner",
          "type": "address"
        },
        {
          "indexed": true,
          "internalType": "address",
          "name": "approved",
          "type": "address"
        },
        {
          "indexed": true,
          "internalType": "uint256",
          "name": "tokenId",
          "type": "uint256"
        }
      ],
      "name": "Approval",
      "type": "event"
    },
    {
      "anonymous": false,
      "inputs": [
        {
          "indexed": true,
          "internalType": "address",
          "name": "owner",
          "type": "address"
        },
        {
          "indexed": true,
          "internalType": "address",
          "name": "operator",
          "type": "address"
        },
        {
          "indexed": false,
          "internalType": "bool",
          "name": "approved",
          "type": "bool"
        }
      ],
      "name": "ApprovalForAll",
      "type": "event"
    },
    {
      "anonymous": false,
      "inputs": [
        {
          "indexed": true,
          "internalType": "address",
          "name": "previousOwner",
          "type": "address"
        },
        {
          "indexed": true,
          "internalType": "address",
          "name": "newOwner",
          "type": "address"
        }
      ],
      "name": "OwnershipTransferred",
      "type": "event"
    },
    {
      "anonymous": false,
      "inputs": [
        {
          "indexed": true,
          "internalType": "uint256",
          "name": "supply",
          "type": "uint256"
        }
      ],
      "name": "SupplyChanged",
      "type": "event"
    },
    {
      "anonymous": false,
      "inputs": [
        {
          "indexed": true,
          "internalType": "address",
          "name": "from",
          "type": "address"
        },
        {
          "indexed": true,
          "internalType": "address",
          "name": "to",
          "type": "address"
        },
        {
          "indexed": true,
          "internalType": "uint256",
          "name": "tokenId",
          "type": "uint256"
        }
      ],
      "name": "Transfer",
      "type": "event"
    },
    {
      "inputs": [],
      "name": "V1Address",
      "outputs": [
        {
          "internalType": "address",
          "name": "",
          "type": "address"
        }
      ],
      "stateMutability": "view",
      "type": "function"
    },
    {
      "inputs": [
        {
          "internalType": "address[]",
          "name": "_addresses",
          "type": "address[]"
        }
      ],
      "name": "addWhiteList",
      "outputs": [],
      "stateMutability": "nonpayable",
      "type": "function"
    },
    {
      "inputs": [
        {
          "internalType": "address",
          "name": "to",
          "type": "address"
        },
        {
          "internalType": "uint256",
          "name": "tokenId",
          "type": "uint256"
        }
      ],
      "name": "approve",
      "outputs": [],
      "stateMutability": "nonpayable",
      "type": "function"
    },
    {
      "inputs": [],
      "name": "availableTokenCount",
      "outputs": [
        {
          "internalType": "uint256",
          "name": "",
          "type": "uint256"
        }
      ],
      "stateMutability": "view",
      "type": "function"
    },
    {
      "inputs": [
        {
          "internalType": "address",
          "name": "owner",
          "type": "address"
        }
      ],
      "name": "balanceOf",
      "outputs": [
        {
          "internalType": "uint256",
          "name": "",
          "type": "uint256"
        }
      ],
      "stateMutability": "view",
      "type": "function"
    },
    {
      "inputs": [],
      "name": "baseExtension",
      "outputs": [
        {
          "internalType": "string",
          "name": "",
          "type": "string"
        }
      ],
      "stateMutability": "view",
      "type": "function"
    },
    {
      "inputs": [],
      "name": "baseURI",
      "outputs": [
        {
          "internalType": "string",
          "name": "",
          "type": "string"
        }
      ],
      "stateMutability": "view",
      "type": "function"
    },
    {
      "inputs": [
        {
          "internalType": "address",
          "name": "",
          "type": "address"
        }
      ],
      "name": "canMint",
      "outputs": [
        {
          "internalType": "uint256",
          "name": "",
          "type": "uint256"
        }
      ],
      "stateMutability": "view",
      "type": "function"
    },
    {
      "inputs": [],
      "name": "claim",
      "outputs": [],
      "stateMutability": "nonpayable",
      "type": "function"
    },
    {
      "inputs": [
        {
          "internalType": "bool",
          "name": "_state",
          "type": "bool"
        }
      ],
      "name": "claimPause",
      "outputs": [],
      "stateMutability": "nonpayable",
      "type": "function"
    },
    {
      "inputs": [],
      "name": "claimPaused",
      "outputs": [
        {
          "internalType": "bool",
          "name": "",
          "type": "bool"
        }
      ],
      "stateMutability": "view",
      "type": "function"
    },
    {
      "inputs": [],
      "name": "dwsPaymentAddress",
      "outputs": [
        {
          "internalType": "address",
          "name": "",
          "type": "address"
        }
      ],
      "stateMutability": "view",
      "type": "function"
    },
    {
      "inputs": [],
      "name": "dwsPaymentTotal",
      "outputs": [
        {
          "internalType": "uint256",
          "name": "",
          "type": "uint256"
        }
      ],
      "stateMutability": "view",
      "type": "function"
    },
    {
      "inputs": [],
      "name": "ebisusPaymentAddress",
      "outputs": [
        {
          "internalType": "address",
          "name": "",
          "type": "address"
        }
      ],
      "stateMutability": "view",
      "type": "function"
    },
    {
      "inputs": [],
      "name": "fightersPaymentAddress",
      "outputs": [
        {
          "internalType": "address",
          "name": "",
          "type": "address"
        }
      ],
      "stateMutability": "view",
      "type": "function"
    },
    {
      "inputs": [
        {
          "internalType": "uint256",
          "name": "tokenId",
          "type": "uint256"
        }
      ],
      "name": "getApproved",
      "outputs": [
        {
          "internalType": "address",
          "name": "",
          "type": "address"
        }
      ],
      "stateMutability": "view",
      "type": "function"
    },
    {
      "inputs": [],
      "name": "getInfo",
      "outputs": [
        {
          "components": [
            {
              "internalType": "uint256",
              "name": "regularCost",
              "type": "uint256"
            },
            {
              "internalType": "uint256",
              "name": "memberCost",
              "type": "uint256"
            },
            {
              "internalType": "uint256",
              "name": "whitelistCost",
              "type": "uint256"
            },
            {
              "internalType": "uint256",
              "name": "maxSupply",
              "type": "uint256"
            },
            {
              "internalType": "uint256",
              "name": "totalSupply",
              "type": "uint256"
            },
            {
              "internalType": "uint256",
              "name": "maxMintPerAddress",
              "type": "uint256"
            },
            {
              "internalType": "uint256",
              "name": "maxMintPerTx",
              "type": "uint256"
            }
          ],
          "internalType": "struct IDrop.Info",
          "name": "",
          "type": "tuple"
        }
      ],
      "stateMutability": "view",
      "type": "function"
    },
    {
      "inputs": [
        {
          "internalType": "address",
          "name": "owner",
          "type": "address"
        },
        {
          "internalType": "address",
          "name": "operator",
          "type": "address"
        }
      ],
      "name": "isApprovedForAll",
      "outputs": [
        {
          "internalType": "bool",
          "name": "",
          "type": "bool"
        }
      ],
      "stateMutability": "view",
      "type": "function"
    },
    {
      "inputs": [
        {
          "internalType": "address",
          "name": "_address",
          "type": "address"
        }
      ],
      "name": "isEbisusBayMember",
      "outputs": [
        {
          "internalType": "bool",
          "name": "",
          "type": "bool"
        }
      ],
      "stateMutability": "view",
      "type": "function"
    },
    {
      "inputs": [],
      "name": "marketAddress",
      "outputs": [
        {
          "internalType": "address",
          "name": "",
          "type": "address"
        }
      ],
      "stateMutability": "view",
      "type": "function"
    },
    {
      "inputs": [],
      "name": "maxMintAmount",
      "outputs": [
        {
          "internalType": "uint256",
          "name": "",
          "type": "uint256"
        }
      ],
      "stateMutability": "view",
      "type": "function"
    },
    {
      "inputs": [],
      "name": "maxSupply",
      "outputs": [
        {
          "internalType": "uint256",
          "name": "",
          "type": "uint256"
        }
      ],
      "stateMutability": "view",
      "type": "function"
    },
    {
      "inputs": [],
      "name": "maxTokens",
      "outputs": [
        {
          "internalType": "uint256",
          "name": "",
          "type": "uint256"
        }
      ],
      "stateMutability": "view",
      "type": "function"
    },
    {
      "inputs": [],
      "name": "maximumSupply",
      "outputs": [
        {
          "internalType": "uint256",
          "name": "",
          "type": "uint256"
        }
      ],
      "stateMutability": "view",
      "type": "function"
    },
    {
      "inputs": [],
      "name": "memCost",
      "outputs": [
        {
          "internalType": "uint256",
          "name": "",
          "type": "uint256"
        }
      ],
      "stateMutability": "view",
      "type": "function"
    },
    {
      "inputs": [
        {
          "internalType": "uint256",
          "name": "_mintAmount",
          "type": "uint256"
        }
      ],
      "name": "mint",
      "outputs": [],
      "stateMutability": "payable",
      "type": "function"
    },
    {
      "inputs": [
        {
          "internalType": "address",
          "name": "_minter",
          "type": "address"
        }
      ],
      "name": "mintCost",
      "outputs": [
        {
          "internalType": "uint256",
          "name": "",
          "type": "uint256"
        }
      ],
      "stateMutability": "view",
      "type": "function"
    },
    {
      "inputs": [
        {
          "internalType": "bool",
          "name": "_state",
          "type": "bool"
        }
      ],
      "name": "mintPause",
      "outputs": [],
      "stateMutability": "nonpayable",
      "type": "function"
    },
    {
      "inputs": [],
      "name": "mintPaused",
      "outputs": [
        {
          "internalType": "bool",
          "name": "",
          "type": "bool"
        }
      ],
      "stateMutability": "view",
      "type": "function"
    },
    {
      "inputs": [],
      "name": "name",
      "outputs": [
        {
          "internalType": "string",
          "name": "",
          "type": "string"
        }
      ],
      "stateMutability": "view",
      "type": "function"
    },
    {
      "inputs": [],
      "name": "nftPerAddressLimit",
      "outputs": [
        {
          "internalType": "uint256",
          "name": "",
          "type": "uint256"
        }
      ],
      "stateMutability": "view",
      "type": "function"
    },
    {
      "inputs": [],
      "name": "nftPerWhitelistAddress",
      "outputs": [
        {
          "internalType": "uint256",
          "name": "",
          "type": "uint256"
        }
      ],
      "stateMutability": "view",
      "type": "function"
    },
    {
      "inputs": [],
      "name": "owner",
      "outputs": [
        {
          "internalType": "address",
          "name": "",
          "type": "address"
        }
      ],
      "stateMutability": "view",
      "type": "function"
    },
    {
      "inputs": [
        {
          "internalType": "uint256",
          "name": "tokenId",
          "type": "uint256"
        }
      ],
      "name": "ownerOf",
      "outputs": [
        {
          "internalType": "address",
          "name": "",
          "type": "address"
        }
      ],
      "stateMutability": "view",
      "type": "function"
    },
    {
      "inputs": [
        {
          "internalType": "address",
          "name": "dest",
          "type": "address"
        }
      ],
      "name": "payments",
      "outputs": [
        {
          "internalType": "uint256",
          "name": "",
          "type": "uint256"
        }
      ],
      "stateMutability": "view",
      "type": "function"
    },
    {
      "inputs": [],
      "name": "regCost",
      "outputs": [
        {
          "internalType": "uint256",
          "name": "",
          "type": "uint256"
        }
      ],
      "stateMutability": "view",
      "type": "function"
    },
    {
      "inputs": [
        {
          "internalType": "address",
          "name": "_address",
          "type": "address"
        }
      ],
      "name": "removeWhiteList",
      "outputs": [],
      "stateMutability": "nonpayable",
      "type": "function"
    },
    {
      "inputs": [],
      "name": "renounceOwnership",
      "outputs": [],
      "stateMutability": "nonpayable",
      "type": "function"
    },
    {
      "inputs": [
        {
          "internalType": "uint256",
          "name": "_mintAmount",
          "type": "uint256"
        },
        {
          "internalType": "address",
          "name": "_to",
          "type": "address"
        }
      ],
      "name": "reserveMint",
      "outputs": [],
      "stateMutability": "nonpayable",
      "type": "function"
    },
    {
      "inputs": [],
      "name": "reserveMintEnd",
      "outputs": [
        {
          "internalType": "uint256",
          "name": "",
          "type": "uint256"
        }
      ],
      "stateMutability": "view",
      "type": "function"
    },
    {
      "inputs": [
        {
          "internalType": "address",
          "name": "from",
          "type": "address"
        },
        {
          "internalType": "address",
          "name": "to",
          "type": "address"
        },
        {
          "internalType": "uint256",
          "name": "tokenId",
          "type": "uint256"
        }
      ],
      "name": "safeTransferFrom",
      "outputs": [],
      "stateMutability": "nonpayable",
      "type": "function"
    },
    {
      "inputs": [
        {
          "internalType": "address",
          "name": "from",
          "type": "address"
        },
        {
          "internalType": "address",
          "name": "to",
          "type": "address"
        },
        {
          "internalType": "uint256",
          "name": "tokenId",
          "type": "uint256"
        },
        {
          "internalType": "bytes",
          "name": "_data",
          "type": "bytes"
        }
      ],
      "name": "safeTransferFrom",
      "outputs": [],
      "stateMutability": "nonpayable",
      "type": "function"
    },
    {
      "inputs": [
        {
          "internalType": "address",
          "name": "operator",
          "type": "address"
        },
        {
          "internalType": "bool",
          "name": "approved",
          "type": "bool"
        }
      ],
      "name": "setApprovalForAll",
      "outputs": [],
      "stateMutability": "nonpayable",
      "type": "function"
    },
    {
      "inputs": [
        {
          "internalType": "string",
          "name": "_newBaseURI",
          "type": "string"
        }
      ],
      "name": "setBaseURI",
      "outputs": [],
      "stateMutability": "nonpayable",
      "type": "function"
    },
    {
      "inputs": [
        {
          "internalType": "address",
          "name": "_address",
          "type": "address"
        }
      ],
      "name": "setDWSAddress",
      "outputs": [],
      "stateMutability": "nonpayable",
      "type": "function"
    },
    {
      "inputs": [
        {
          "internalType": "uint256",
          "name": "_payment",
          "type": "uint256"
        }
      ],
      "name": "setDWSPaymentTotal",
      "outputs": [],
      "stateMutability": "nonpayable",
      "type": "function"
    },
    {
      "inputs": [
        {
          "internalType": "uint256",
          "name": "_mintAmount",
          "type": "uint256"
        }
      ],
      "name": "setMaxMintAmount",
      "outputs": [],
      "stateMutability": "nonpayable",
      "type": "function"
    },
    {
      "inputs": [
        {
          "internalType": "uint256",
          "name": "_newCost",
          "type": "uint256"
        }
      ],
      "name": "setMemCost",
      "outputs": [],
      "stateMutability": "nonpayable",
      "type": "function"
    },
    {
      "inputs": [
        {
          "internalType": "uint256",
          "name": "_newCost",
          "type": "uint256"
        }
      ],
      "name": "setRegCost",
      "outputs": [],
      "stateMutability": "nonpayable",
      "type": "function"
    },
    {
      "inputs": [
        {
          "internalType": "uint256",
          "name": "_newCost",
          "type": "uint256"
        }
      ],
      "name": "setWhiteCost",
      "outputs": [],
      "stateMutability": "nonpayable",
      "type": "function"
    },
    {
      "inputs": [
        {
          "internalType": "bytes4",
          "name": "interfaceId",
          "type": "bytes4"
        }
      ],
      "name": "supportsInterface",
      "outputs": [
        {
          "internalType": "bool",
          "name": "",
          "type": "bool"
        }
      ],
      "stateMutability": "view",
      "type": "function"
    },
    {
      "inputs": [],
      "name": "symbol",
      "outputs": [
        {
          "internalType": "string",
          "name": "",
          "type": "string"
        }
      ],
      "stateMutability": "view",
      "type": "function"
    },
    {
      "inputs": [
        {
          "internalType": "uint256",
          "name": "index",
          "type": "uint256"
        }
      ],
      "name": "tokenByIndex",
      "outputs": [
        {
          "internalType": "uint256",
          "name": "",
          "type": "uint256"
        }
      ],
      "stateMutability": "view",
      "type": "function"
    },
    {
      "inputs": [],
      "name": "tokenCount",
      "outputs": [
        {
          "internalType": "uint256",
          "name": "",
          "type": "uint256"
        }
      ],
      "stateMutability": "view",
      "type": "function"
    },
    {
      "inputs": [
        {
          "internalType": "address",
          "name": "owner",
          "type": "address"
        },
        {
          "internalType": "uint256",
          "name": "index",
          "type": "uint256"
        }
      ],
      "name": "tokenOfOwnerByIndex",
      "outputs": [
        {
          "internalType": "uint256",
          "name": "",
          "type": "uint256"
        }
      ],
      "stateMutability": "view",
      "type": "function"
    },
    {
      "inputs": [
        {
          "internalType": "uint256",
          "name": "tokenId",
          "type": "uint256"
        }
      ],
      "name": "tokenURI",
      "outputs": [
        {
          "internalType": "string",
          "name": "",
          "type": "string"
        }
      ],
      "stateMutability": "view",
      "type": "function"
    },
    {
      "inputs": [],
      "name": "totalSupply",
      "outputs": [
        {
          "internalType": "uint256",
          "name": "",
          "type": "uint256"
        }
      ],
      "stateMutability": "view",
      "type": "function"
    },
    {
      "inputs": [
        {
          "internalType": "address",
          "name": "from",
          "type": "address"
        },
        {
          "internalType": "address",
          "name": "to",
          "type": "address"
        },
        {
          "internalType": "uint256",
          "name": "tokenId",
          "type": "uint256"
        }
      ],
      "name": "transferFrom",
      "outputs": [],
      "stateMutability": "nonpayable",
      "type": "function"
    },
    {
      "inputs": [
        {
          "internalType": "address",
          "name": "newOwner",
          "type": "address"
        }
      ],
      "name": "transferOwnership",
      "outputs": [],
      "stateMutability": "nonpayable",
      "type": "function"
    },
    {
      "inputs": [
        {
          "internalType": "address",
          "name": "_owner",
          "type": "address"
        }
      ],
      "name": "walletOfOwner",
      "outputs": [
        {
          "internalType": "uint256[]",
          "name": "",
          "type": "uint256[]"
        }
      ],
      "stateMutability": "view",
      "type": "function"
    },
    {
      "inputs": [],
      "name": "whiteCost",
      "outputs": [
        {
          "internalType": "uint256",
          "name": "",
          "type": "uint256"
        }
      ],
      "stateMutability": "view",
      "type": "function"
    },
    {
      "inputs": [
        {
          "internalType": "address",
          "name": "",
          "type": "address"
        }
      ],
      "name": "whitelistedAddresses",
      "outputs": [
        {
          "internalType": "bool",
          "name": "",
          "type": "bool"
        }
      ],
      "stateMutability": "view",
      "type": "function"
    },
    {
      "inputs": [],
      "name": "withdraw",
      "outputs": [],
      "stateMutability": "payable",
      "type": "function"
    },
    {
      "inputs": [
        {
          "internalType": "address payable",
          "name": "payee",
          "type": "address"
        }
      ],
      "name": "withdrawPayments",
      "outputs": [],
      "stateMutability": "nonpayable",
      "type": "function"
    }
  ],
  "bytecode": "0x60a0604052737a3cdb2364f92369a602cae81167d0679087e6a3601060006101000a81548173ffffffffffffffffffffffffffffffffffffffff021916908373ffffffffffffffffffffffffffffffffffffffff16021790555073454cfaa623a629cc0b4017aeb85d54c42e91479d601160006101000a81548173ffffffffffffffffffffffffffffffffffffffff021916908373ffffffffffffffffffffffffffffffffffffffff160217905550730e8f883124c1c234d64ec566adc5966f1832d207601260006101000a81548173ffffffffffffffffffffffffffffffffffffffff021916908373ffffffffffffffffffffffffffffffffffffffff16021790555073e024bb3e3bd1b68c101f604f742cea66ecc4a2d2601360006101000a81548173ffffffffffffffffffffffffffffffffffffffff021916908373ffffffffffffffffffffffffffffffffffffffff160217905550737c53098aed50e7d2b5d0a4a89ef5b9c31a7b6aee601460006101000a81548173ffffffffffffffffffffffffffffffffffffffff021916908373ffffffffffffffffffffffffffffffffffffffff1602179055506932258ccefd8c854c00006015556040518060400160405280600581526020017f2e6a736f6e0000000000000000000000000000000000000000000000000000008152506017908051906020019062000208929190620006c5565b50681569b9e733474c0000601855680ffdf28905e43c0000601955680ffdf28905e43c0000601a55610fa0601b556005601c55610fa0601d556005601e556103e8601f55611d4c6020556127106021556000602255604b6023556001602460006101000a81548160ff0219169083151502179055506001602460016101000a81548160ff0219169083151502179055506000602460026101000a81548160ff021916908315150217905550348015620002c057600080fd5b5060405162007da838038062007da88339818101604052810190620002e691906200080c565b601b54602354818a8a816000908051906020019062000307929190620006c5565b50806001908051906020019062000320929190620006c5565b50505062000343620003376200052260201b60201c565b6200052a60201b60201c565b80600c819055505080600e819055505050604051620003629062000756565b604051809103906000f0801580156200037f573d6000803e3d6000fd5b5073ffffffffffffffffffffffffffffffffffffffff1660808173ffffffffffffffffffffffffffffffffffffffff1660601b815250506001600f81905550620003cf86620005f060201b60201c565b84601060006101000a81548173ffffffffffffffffffffffffffffffffffffffff021916908373ffffffffffffffffffffffffffffffffffffffff16021790555083601160006101000a81548173ffffffffffffffffffffffffffffffffffffffff021916908373ffffffffffffffffffffffffffffffffffffffff16021790555082601260006101000a81548173ffffffffffffffffffffffffffffffffffffffff021916908373ffffffffffffffffffffffffffffffffffffffff16021790555081601360006101000a81548173ffffffffffffffffffffffffffffffffffffffff021916908373ffffffffffffffffffffffffffffffffffffffff16021790555080601460006101000a81548173ffffffffffffffffffffffffffffffffffffffff021916908373ffffffffffffffffffffffffffffffffffffffff160217905550505050505050505062000b5b565b600033905090565b6000600a60009054906101000a900473ffffffffffffffffffffffffffffffffffffffff16905081600a60006101000a81548173ffffffffffffffffffffffffffffffffffffffff021916908373ffffffffffffffffffffffffffffffffffffffff1602179055508173ffffffffffffffffffffffffffffffffffffffff168173ffffffffffffffffffffffffffffffffffffffff167f8be0079c531659141344cd1fd0a4f28419497f9722a3daafe3b4186f6b6457e060405160405180910390a35050565b620006006200052260201b60201c565b73ffffffffffffffffffffffffffffffffffffffff16620006266200069b60201b60201c565b73ffffffffffffffffffffffffffffffffffffffff16146200067f576040517f08c379a0000000000000000000000000000000000000000000000000000000008152600401620006769062000941565b60405180910390fd5b806016908051906020019062000697929190620006c5565b5050565b6000600a60009054906101000a900473ffffffffffffffffffffffffffffffffffffffff16905090565b828054620006d39062000a3d565b90600052602060002090601f016020900481019282620006f7576000855562000743565b82601f106200071257805160ff191683800117855562000743565b8280016001018555821562000743579182015b828111156200074257825182559160200191906001019062000725565b5b50905062000752919062000764565b5090565b610d09806200709f83390190565b5b808211156200077f57600081600090555060010162000765565b5090565b60006200079a62000794846200098c565b62000963565b905082815260208101848484011115620007b357600080fd5b620007c084828562000a07565b509392505050565b600081519050620007d98162000b41565b92915050565b600082601f830112620007f157600080fd5b81516200080384826020860162000783565b91505092915050565b600080600080600080600080610100898b0312156200082a57600080fd5b600089015167ffffffffffffffff8111156200084557600080fd5b620008538b828c01620007df565b985050602089015167ffffffffffffffff8111156200087157600080fd5b6200087f8b828c01620007df565b975050604089015167ffffffffffffffff8111156200089d57600080fd5b620008ab8b828c01620007df565b9650506060620008be8b828c01620007c8565b9550506080620008d18b828c01620007c8565b94505060a0620008e48b828c01620007c8565b93505060c0620008f78b828c01620007c8565b92505060e06200090a8b828c01620007c8565b9150509295985092959890939650565b600062000929602083620009c2565b9150620009368262000b18565b602082019050919050565b600060208201905081810360008301526200095c816200091a565b9050919050565b60006200096f62000982565b90506200097d828262000a73565b919050565b6000604051905090565b600067ffffffffffffffff821115620009aa57620009a962000ad8565b5b620009b58262000b07565b9050602081019050919050565b600082825260208201905092915050565b6000620009e082620009e7565b9050919050565b600073ffffffffffffffffffffffffffffffffffffffff82169050919050565b60005b8381101562000a2757808201518184015260208101905062000a0a565b8381111562000a37576000848401525b50505050565b6000600282049050600182168062000a5657607f821691505b6020821081141562000a6d5762000a6c62000aa9565b5b50919050565b62000a7e8262000b07565b810181811067ffffffffffffffff8211171562000aa05762000a9f62000ad8565b5b80604052505050565b7f4e487b7100000000000000000000000000000000000000000000000000000000600052602260045260246000fd5b7f4e487b7100000000000000000000000000000000000000000000000000000000600052604160045260246000fd5b6000601f19601f8301169050919050565b7f4f776e61626c653a2063616c6c6572206973206e6f7420746865206f776e6572600082015250565b62000b4c81620009d3565b811462000b5857600080fd5b50565b60805160601c61651762000b88600039600081816116a601528181612d1101526138f501526165176000f3fe6080604052600436106103c35760003560e01c80636c0360eb116101f2578063ace6c6ad1161010d578063cf6b6736116100a0578063e2982c211161006f578063e2982c2114610e38578063e831574214610e75578063e985e9c514610ea0578063f2fde38b14610edd576103c3565b8063cf6b673614610d90578063d5abeb0114610db9578063e14ca35314610de4578063e17d705914610e0f576103c3565b8063c0005082116100dc578063c000508214610cc0578063c2ba474414610ceb578063c668286214610d28578063c87b56dd14610d53576103c3565b8063ace6c6ad14610c18578063b88d4fde14610c43578063b957fa7314610c6c578063ba7d2c7614610c95576103c3565b806395d89b4111610185578063a0712d6811610154578063a0712d6814610b7f578063a22cb46514610b9b578063ab5e124a14610bc4578063ab762e1614610bef576103c3565b806395d89b4114610ad55780639822185814610b005780639f181b5e14610b295780639fb362ae14610b54576103c3565b80638c81ffe4116101c15780638c81ffe414610a2b5780638da5cb5b14610a565780638ee9afe514610a815780639562364114610aaa576103c3565b80636c0360eb1461098157806370a08231146109ac578063715018a6146109e95780637e4831d314610a00576103c3565b80632acc659e116102e25780634e71d92d116102755780635b2ad8b0116102445780635b2ad8b0146108c75780635e1045ec146108f257806360b02f701461091b5780636352211e14610944576103c3565b80634e71d92d1461081f5780634f6ccce71461083657806355f804b3146108735780635a9b0b891461089c576103c3565b806331b3eb94116102b157806331b3eb94146107865780633ccfd60b146107af57806342842e0e146107b9578063438b6300146107e2576103c3565b80632acc659e146106b65780632e75d354146106f35780632f745c591461071e57806331a18f7d1461075b576103c3565b806318160ddd1161035a578063239c70ae11610329578063239c70ae1461060c57806323b872dd1461063757806323b89cd214610660578063278882c51461068b576103c3565b806318160ddd146105525780631c838bd01461057d5780631cac1a5f146105ba5780632042e5c2146105e3576103c3565b8063081812fc11610396578063081812fc14610498578063088a4ed0146104d5578063095ea7b3146104fe5780630ce6e94214610527576103c3565b806301ffc9a7146103c85780630480e58b1461040557806306c933d81461043057806306fdde031461046d575b600080fd5b3480156103d457600080fd5b506103ef60048036038101906103ea9190614b48565b610f06565b6040516103fc9190615482565b60405180910390f35b34801561041157600080fd5b5061041a610f80565b604051610427919061587a565b60405180910390f35b34801561043c57600080fd5b50610457600480360381019061045291906148e1565b610f8a565b6040516104649190615482565b60405180910390f35b34801561047957600080fd5b50610482610faa565b60405161048f919061549d565b60405180910390f35b3480156104a457600080fd5b506104bf60048036038101906104ba9190614bdb565b61103c565b6040516104cc91906153de565b60405180910390f35b3480156104e157600080fd5b506104fc60048036038101906104f79190614bdb565b6110c1565b005b34801561050a57600080fd5b5061052560048036038101906105209190614a75565b611147565b005b34801561053357600080fd5b5061053c61125f565b604051610549919061587a565b60405180910390f35b34801561055e57600080fd5b50610567611265565b604051610574919061587a565b60405180910390f35b34801561058957600080fd5b506105a4600480360381019061059f91906148e1565b611272565b6040516105b19190615482565b60405180910390f35b3480156105c657600080fd5b506105e160048036038101906105dc9190614bdb565b611326565b005b3480156105ef57600080fd5b5061060a600480360381019061060591906148e1565b6113ac565b005b34801561061857600080fd5b506106216114cd565b60405161062e919061587a565b60405180910390f35b34801561064357600080fd5b5061065e6004803603810190610659919061496f565b6114d3565b005b34801561066c57600080fd5b50610675611533565b604051610682919061587a565b60405180910390f35b34801561069757600080fd5b506106a0611539565b6040516106ad91906153de565b60405180910390f35b3480156106c257600080fd5b506106dd60048036038101906106d891906148e1565b61155f565b6040516106ea919061587a565b60405180910390f35b3480156106ff57600080fd5b506107086115f3565b604051610715919061587a565b60405180910390f35b34801561072a57600080fd5b5061074560048036038101906107409190614a75565b6115f9565b604051610752919061587a565b60405180910390f35b34801561076757600080fd5b5061077061169e565b60405161077d919061587a565b60405180910390f35b34801561079257600080fd5b506107ad60048036038101906107a8919061490a565b6116a4565b005b6107b7611732565b005b3480156107c557600080fd5b506107e060048036038101906107db919061496f565b611849565b005b3480156107ee57600080fd5b50610809600480360381019061080491906148e1565b611869565b6040516108169190615460565b60405180910390f35b34801561082b57600080fd5b50610834611963565b005b34801561084257600080fd5b5061085d60048036038101906108589190614bdb565b611bea565b60405161086a919061587a565b60405180910390f35b34801561087f57600080fd5b5061089a60048036038101906108959190614b9a565b611c81565b005b3480156108a857600080fd5b506108b1611d17565b6040516108be919061585f565b60405180910390f35b3480156108d357600080fd5b506108dc611d87565b6040516108e991906153de565b60405180910390f35b3480156108fe57600080fd5b5061091960048036038101906109149190614ab1565b611dad565b005b34801561092757600080fd5b50610942600480360381019061093d9190614c2d565b611efa565b005b34801561095057600080fd5b5061096b60048036038101906109669190614bdb565b611fde565b60405161097891906153de565b60405180910390f35b34801561098d57600080fd5b50610996612090565b6040516109a3919061549d565b60405180910390f35b3480156109b857600080fd5b506109d360048036038101906109ce91906148e1565b61211e565b6040516109e0919061587a565b60405180910390f35b3480156109f557600080fd5b506109fe6121d6565b005b348015610a0c57600080fd5b50610a1561225e565b604051610a229190615482565b60405180910390f35b348015610a3757600080fd5b50610a40612271565b604051610a4d919061587a565b60405180910390f35b348015610a6257600080fd5b50610a6b612277565b604051610a7891906153de565b60405180910390f35b348015610a8d57600080fd5b50610aa86004803603810190610aa39190614af6565b6122a1565b005b348015610ab657600080fd5b50610abf61233a565b604051610acc91906153de565b60405180910390f35b348015610ae157600080fd5b50610aea612360565b604051610af7919061549d565b60405180910390f35b348015610b0c57600080fd5b50610b276004803603810190610b229190614bdb565b6123f2565b005b348015610b3557600080fd5b50610b3e612478565b604051610b4b919061587a565b60405180910390f35b348015610b6057600080fd5b50610b69612489565b604051610b76919061587a565b60405180910390f35b610b996004803603810190610b949190614bdb565b61248f565b005b348015610ba757600080fd5b50610bc26004803603810190610bbd9190614a39565b61285b565b005b348015610bd057600080fd5b50610bd9612871565b604051610be69190615482565b60405180910390f35b348015610bfb57600080fd5b50610c166004803603810190610c119190614bdb565b612884565b005b348015610c2457600080fd5b50610c2d61290a565b604051610c3a91906153de565b60405180910390f35b348015610c4f57600080fd5b50610c6a6004803603810190610c6591906149be565b612930565b005b348015610c7857600080fd5b50610c936004803603810190610c8e91906148e1565b612992565b005b348015610ca157600080fd5b50610caa612a52565b604051610cb7919061587a565b60405180910390f35b348015610ccc57600080fd5b50610cd5612a58565b604051610ce291906153de565b60405180910390f35b348015610cf757600080fd5b50610d126004803603810190610d0d91906148e1565b612a7e565b604051610d1f919061587a565b60405180910390f35b348015610d3457600080fd5b50610d3d612a8a565b604051610d4a919061549d565b60405180910390f35b348015610d5f57600080fd5b50610d7a6004803603810190610d759190614bdb565b612b18565b604051610d87919061549d565b60405180910390f35b348015610d9c57600080fd5b50610db76004803603810190610db29190614af6565b612bc3565b005b348015610dc557600080fd5b50610dce612c5c565b604051610ddb919061587a565b60405180910390f35b348015610df057600080fd5b50610df9612c66565b604051610e06919061587a565b60405180910390f35b348015610e1b57600080fd5b50610e366004803603810190610e319190614bdb565b612c87565b005b348015610e4457600080fd5b50610e5f6004803603810190610e5a91906148e1565b612d0d565b604051610e6c919061587a565b60405180910390f35b348015610e8157600080fd5b50610e8a612dbf565b604051610e97919061587a565b60405180910390f35b348015610eac57600080fd5b50610ec76004803603810190610ec29190614933565b612dc5565b604051610ed49190615482565b60405180910390f35b348015610ee957600080fd5b50610f046004803603810190610eff91906148e1565b612e59565b005b60007f780e9d63000000000000000000000000000000000000000000000000000000007bffffffffffffffffffffffffffffffffffffffffffffffffffffffff1916827bffffffffffffffffffffffffffffffffffffffffffffffffffffffff19161480610f795750610f7882612f51565b5b9050919050565b6000600c54905090565b60256020528060005260406000206000915054906101000a900460ff1681565b606060008054610fb990615b95565b80601f0160208091040260200160405190810160405280929190818152602001828054610fe590615b95565b80156110325780601f1061100757610100808354040283529160200191611032565b820191906000526020600020905b81548152906001019060200180831161101557829003601f168201915b5050505050905090565b600061104782613033565b611086576040517f08c379a000000000000000000000000000000000000000000000000000000000815260040161107d906156df565b60405180910390fd5b6004600083815260200190815260200160002060009054906101000a900473ffffffffffffffffffffffffffffffffffffffff169050919050565b6110c961309f565b73ffffffffffffffffffffffffffffffffffffffff166110e7612277565b73ffffffffffffffffffffffffffffffffffffffff161461113d576040517f08c379a00000000000000000000000000000000000000000000000000000000081526004016111349061571f565b60405180910390fd5b80601c8190555050565b600061115282611fde565b90508073ffffffffffffffffffffffffffffffffffffffff168373ffffffffffffffffffffffffffffffffffffffff1614156111c3576040517f08c379a00000000000000000000000000000000000000000000000000000000081526004016111ba9061577f565b60405180910390fd5b8073ffffffffffffffffffffffffffffffffffffffff166111e261309f565b73ffffffffffffffffffffffffffffffffffffffff16148061121157506112108161120b61309f565b612dc5565b5b611250576040517f08c379a0000000000000000000000000000000000000000000000000000000008152600401611247906155ff565b60405180910390fd5b61125a83836130a7565b505050565b601e5481565b6000600880549050905090565b6000601060009054906101000a900473ffffffffffffffffffffffffffffffffffffffff1673ffffffffffffffffffffffffffffffffffffffff1663a230c524836040518263ffffffff1660e01b81526004016112cf91906153de565b60206040518083038186803b1580156112e757600080fd5b505afa1580156112fb573d6000803e3d6000fd5b505050506040513d601f19601f8201168201806040525081019061131f9190614b1f565b9050919050565b61132e61309f565b73ffffffffffffffffffffffffffffffffffffffff1661134c612277565b73ffffffffffffffffffffffffffffffffffffffff16146113a2576040517f08c379a00000000000000000000000000000000000000000000000000000000081526004016113999061571f565b60405180910390fd5b80601a8190555050565b6113b461309f565b73ffffffffffffffffffffffffffffffffffffffff166113d2612277565b73ffffffffffffffffffffffffffffffffffffffff1614611428576040517f08c379a000000000000000000000000000000000000000000000000000000000815260040161141f9061571f565b60405180910390fd5b602560008273ffffffffffffffffffffffffffffffffffffffff1673ffffffffffffffffffffffffffffffffffffffff16815260200190815260200160002060009054906101000a900460ff16156114ca57602560008273ffffffffffffffffffffffffffffffffffffffff1673ffffffffffffffffffffffffffffffffffffffff16815260200190815260200160002060006101000a81549060ff02191690555b50565b601c5481565b6114e46114de61309f565b82613160565b611523576040517f08c379a000000000000000000000000000000000000000000000000000000000815260040161151a906157df565b60405180910390fd5b61152e83838361323e565b505050565b601a5481565b601360009054906101000a900473ffffffffffffffffffffffffffffffffffffffff1681565b6000602560008373ffffffffffffffffffffffffffffffffffffffff1673ffffffffffffffffffffffffffffffffffffffff16815260200190815260200160002060009054906101000a900460ff16156115d057601e546115bf8361211e565b10156115cf57601a5490506115ee565b5b6115d982611272565b156115e85760195490506115ee565b60185490505b919050565b60155481565b60006116048361211e565b8210611645576040517f08c379a000000000000000000000000000000000000000000000000000000000815260040161163c906154df565b60405180910390fd5b600660008473ffffffffffffffffffffffffffffffffffffffff1673ffffffffffffffffffffffffffffffffffffffff168152602001908152602001600020600083815260200190815260200160002054905092915050565b60185481565b7f000000000000000000000000000000000000000000000000000000000000000073ffffffffffffffffffffffffffffffffffffffff166351cff8d9826040518263ffffffff1660e01b81526004016116fd91906153f9565b600060405180830381600087803b15801561171757600080fd5b505af115801561172b573d6000803e3d6000fd5b5050505050565b61173a61309f565b73ffffffffffffffffffffffffffffffffffffffff16611758612277565b73ffffffffffffffffffffffffffffffffffffffff16146117ae576040517f08c379a00000000000000000000000000000000000000000000000000000000081526004016117a59061571f565b60405180910390fd5b6000601460009054906101000a900473ffffffffffffffffffffffffffffffffffffffff1673ffffffffffffffffffffffffffffffffffffffff16476040516117f6906153c9565b60006040518083038185875af1925050503d8060008114611833576040519150601f19603f3d011682016040523d82523d6000602084013e611838565b606091505b505090508061184657600080fd5b50565b61186483838360405180602001604052806000815250612930565b505050565b606060006118768361211e565b905060008167ffffffffffffffff8111156118ba577f4e487b7100000000000000000000000000000000000000000000000000000000600052604160045260246000fd5b6040519080825280602002602001820160405280156118e85781602001602082028036833780820191505090505b50905060005b828110156119585761190085826115f9565b828281518110611939577f4e487b7100000000000000000000000000000000000000000000000000000000600052603260045260246000fd5b602002602001018181525050808061195090615bf8565b9150506118ee565b508092505050919050565b61196b61349a565b602460019054906101000a900460ff16156119bb576040517f08c379a00000000000000000000000000000000000000000000000000000000081526004016119b2906156bf565b60405180910390fd5b602660003373ffffffffffffffffffffffffffffffffffffffff1673ffffffffffffffffffffffffffffffffffffffff16815260200190815260200160002060009054906101000a900460ff1615611a48576040517f08c379a0000000000000000000000000000000000000000000000000000000008152600401611a3f906154bf565b60405180910390fd5b6000611a52611265565b90506000601260009054906101000a900473ffffffffffffffffffffffffffffffffffffffff1673ffffffffffffffffffffffffffffffffffffffff166370a08231336040518263ffffffff1660e01b8152600401611ab191906153de565b60206040518083038186803b158015611ac957600080fd5b505afa158015611add573d6000803e3d6000fd5b505050506040513d601f19601f82011682018060405250810190611b019190614c04565b90506000600382611b129190615a0e565b9050601b548382611b2391906159b8565b1115611b64576040517f08c379a0000000000000000000000000000000000000000000000000000000008152600401611b5b9061567f565b60405180910390fd5b6001602660003373ffffffffffffffffffffffffffffffffffffffff1673ffffffffffffffffffffffffffffffffffffffff16815260200190815260200160002060006101000a81548160ff0219169083151502179055506000811115611bdd576000611bcf6134ea565b9050611bdb3382613678565b505b505050611be8613696565b565b6000611bf4611265565b8210611c35576040517f08c379a0000000000000000000000000000000000000000000000000000000008152600401611c2c906157ff565b60405180910390fd5b60088281548110611c6f577f4e487b7100000000000000000000000000000000000000000000000000000000600052603260045260246000fd5b90600052602060002001549050919050565b611c8961309f565b73ffffffffffffffffffffffffffffffffffffffff16611ca7612277565b73ffffffffffffffffffffffffffffffffffffffff1614611cfd576040517f08c379a0000000000000000000000000000000000000000000000000000000008152600401611cf49061571f565b60405180910390fd5b8060169080519060200190611d1392919061463f565b5050565b611d1f6146c5565b611d276146c5565b601854816000018181525050601954816020018181525050601a54816040018181525050601b54816060018181525050611d5f611265565b816080018181525050601d548160a0018181525050601c548160c00181815250508091505090565b601160009054906101000a900473ffffffffffffffffffffffffffffffffffffffff1681565b611db561309f565b73ffffffffffffffffffffffffffffffffffffffff16611dd3612277565b73ffffffffffffffffffffffffffffffffffffffff1614611e29576040517f08c379a0000000000000000000000000000000000000000000000000000000008152600401611e209061571f565b60405180910390fd5b600082829050905060005b81811015611ef457600160256000868685818110611e7b577f4e487b7100000000000000000000000000000000000000000000000000000000600052603260045260246000fd5b9050602002016020810190611e9091906148e1565b73ffffffffffffffffffffffffffffffffffffffff1673ffffffffffffffffffffffffffffffffffffffff16815260200190815260200160002060006101000a81548160ff0219169083151502179055508080611eec90615bf8565b915050611e34565b50505050565b611f0261309f565b73ffffffffffffffffffffffffffffffffffffffff16611f20612277565b73ffffffffffffffffffffffffffffffffffffffff1614611f76576040517f08c379a0000000000000000000000000000000000000000000000000000000008152600401611f6d9061571f565b60405180910390fd5b60235482602254611f8791906159b8565b1115611f9257600080fd5b6000600190505b828111611fd957600160226000828254611fb391906159b8565b92505081905550611fc682602254613678565b8080611fd190615bf8565b915050611f99565b505050565b6000806002600084815260200190815260200160002060009054906101000a900473ffffffffffffffffffffffffffffffffffffffff169050600073ffffffffffffffffffffffffffffffffffffffff168173ffffffffffffffffffffffffffffffffffffffff161415612087576040517f08c379a000000000000000000000000000000000000000000000000000000000815260040161207e9061563f565b60405180910390fd5b80915050919050565b6016805461209d90615b95565b80601f01602080910402602001604051908101604052809291908181526020018280546120c990615b95565b80156121165780601f106120eb57610100808354040283529160200191612116565b820191906000526020600020905b8154815290600101906020018083116120f957829003601f168201915b505050505081565b60008073ffffffffffffffffffffffffffffffffffffffff168273ffffffffffffffffffffffffffffffffffffffff16141561218f576040517f08c379a00000000000000000000000000000000000000000000000000000000081526004016121869061561f565b60405180910390fd5b600360008373ffffffffffffffffffffffffffffffffffffffff1673ffffffffffffffffffffffffffffffffffffffff168152602001908152602001600020549050919050565b6121de61309f565b73ffffffffffffffffffffffffffffffffffffffff166121fc612277565b73ffffffffffffffffffffffffffffffffffffffff1614612252576040517f08c379a00000000000000000000000000000000000000000000000000000000081526004016122499061571f565b60405180910390fd5b61225c60006136a0565b565b602460009054906101000a900460ff1681565b60235481565b6000600a60009054906101000a900473ffffffffffffffffffffffffffffffffffffffff16905090565b6122a961309f565b73ffffffffffffffffffffffffffffffffffffffff166122c7612277565b73ffffffffffffffffffffffffffffffffffffffff161461231d576040517f08c379a00000000000000000000000000000000000000000000000000000000081526004016123149061571f565b60405180910390fd5b80602460016101000a81548160ff02191690831515021790555050565b601060009054906101000a900473ffffffffffffffffffffffffffffffffffffffff1681565b60606001805461236f90615b95565b80601f016020809104026020016040519081016040528092919081815260200182805461239b90615b95565b80156123e85780601f106123bd576101008083540402835291602001916123e8565b820191906000526020600020905b8154815290600101906020018083116123cb57829003601f168201915b5050505050905090565b6123fa61309f565b73ffffffffffffffffffffffffffffffffffffffff16612418612277565b73ffffffffffffffffffffffffffffffffffffffff161461246e576040517f08c379a00000000000000000000000000000000000000000000000000000000081526004016124659061571f565b60405180910390fd5b8060198190555050565b6000612484600b613766565b905090565b60195481565b61249761349a565b6000602460009054906101000a900460ff16156124e9576040517f08c379a00000000000000000000000000000000000000000000000000000000081526004016124e09061579f565b60405180910390fd5b60006124f3611265565b905060008311612538576040517f08c379a000000000000000000000000000000000000000000000000000000000815260040161252f9061583f565b60405180910390fd5b601c5483111561257d576040517f08c379a0000000000000000000000000000000000000000000000000000000008152600401612574906155bf565b60405180910390fd5b601b54838261258c91906159b8565b11156125cd576040517f08c379a00000000000000000000000000000000000000000000000000000000081526004016125c49061565f565b60405180910390fd5b6000600190505b838111612604576125e43361155f565b836125ef91906159b8565b925080806125fc90615bf8565b9150506125d4565b5081341015612648576040517f08c379a000000000000000000000000000000000000000000000000000000000815260040161263f906157bf565b60405180910390fd5b6000601060009054906101000a900473ffffffffffffffffffffffffffffffffffffffff169050600061268a601f54602154346137749092919063ffffffff16565b90508173ffffffffffffffffffffffffffffffffffffffff16634065da6382601160009054906101000a900473ffffffffffffffffffffffffffffffffffffffff166040518363ffffffff1660e01b81526004016126e891906153de565b6000604051808303818588803b15801561270157600080fd5b505af1158015612715573d6000803e3d6000fd5b5050505050601554612748601360009054906101000a900473ffffffffffffffffffffffffffffffffffffffff16612d0d565b1015612813576000612769602054602154346137749092919063ffffffff16565b90506015548161279a601360009054906101000a900473ffffffffffffffffffffffffffffffffffffffff16612d0d565b6127a491906159b8565b11156127e5576127d5601360009054906101000a900473ffffffffffffffffffffffffffffffffffffffff16612d0d565b6015546127e29190615a99565b90505b612811601360009054906101000a900473ffffffffffffffffffffffffffffffffffffffff16826138f3565b505b6000600190505b85811161284b57600061282b6134ea565b90506128373382613678565b50808061284390615bf8565b91505061281a565b5050505050612858613696565b50565b61286d61286661309f565b8383613983565b5050565b602460019054906101000a900460ff1681565b61288c61309f565b73ffffffffffffffffffffffffffffffffffffffff166128aa612277565b73ffffffffffffffffffffffffffffffffffffffff1614612900576040517f08c379a00000000000000000000000000000000000000000000000000000000081526004016128f79061571f565b60405180910390fd5b8060188190555050565b601260009054906101000a900473ffffffffffffffffffffffffffffffffffffffff1681565b61294161293b61309f565b83613160565b612980576040517f08c379a0000000000000000000000000000000000000000000000000000000008152600401612977906157df565b60405180910390fd5b61298c84848484613af0565b50505050565b61299a61309f565b73ffffffffffffffffffffffffffffffffffffffff166129b8612277565b73ffffffffffffffffffffffffffffffffffffffff1614612a0e576040517f08c379a0000000000000000000000000000000000000000000000000000000008152600401612a059061571f565b60405180910390fd5b80601360006101000a81548173ffffffffffffffffffffffffffffffffffffffff021916908373ffffffffffffffffffffffffffffffffffffffff16021790555050565b601d5481565b601460009054906101000a900473ffffffffffffffffffffffffffffffffffffffff1681565b6000601c549050919050565b60178054612a9790615b95565b80601f0160208091040260200160405190810160405280929190818152602001828054612ac390615b95565b8015612b105780601f10612ae557610100808354040283529160200191612b10565b820191906000526020600020905b815481529060010190602001808311612af357829003601f168201915b505050505081565b6060612b2382613033565b612b62576040517f08c379a0000000000000000000000000000000000000000000000000000000008152600401612b599061575f565b60405180910390fd5b600060168054612b7190615b95565b905011612b8d5760405180602001604052806000815250612bbc565b6016612b9883613b4c565b6017604051602001612bac93929190615398565b6040516020818303038152906040525b9050919050565b612bcb61309f565b73ffffffffffffffffffffffffffffffffffffffff16612be9612277565b73ffffffffffffffffffffffffffffffffffffffff1614612c3f576040517f08c379a0000000000000000000000000000000000000000000000000000000008152600401612c369061571f565b60405180910390fd5b80602460006101000a81548160ff02191690831515021790555050565b6000601b54905090565b6000612c70612478565b612c78610f80565b612c829190615a99565b905090565b612c8f61309f565b73ffffffffffffffffffffffffffffffffffffffff16612cad612277565b73ffffffffffffffffffffffffffffffffffffffff1614612d03576040517f08c379a0000000000000000000000000000000000000000000000000000000008152600401612cfa9061571f565b60405180910390fd5b8060158190555050565b60007f000000000000000000000000000000000000000000000000000000000000000073ffffffffffffffffffffffffffffffffffffffff1663e3a9db1a836040518263ffffffff1660e01b8152600401612d6891906153de565b60206040518083038186803b158015612d8057600080fd5b505afa158015612d94573d6000803e3d6000fd5b505050506040513d601f19601f82011682018060405250810190612db89190614c04565b9050919050565b601b5481565b6000600560008473ffffffffffffffffffffffffffffffffffffffff1673ffffffffffffffffffffffffffffffffffffffff16815260200190815260200160002060008373ffffffffffffffffffffffffffffffffffffffff1673ffffffffffffffffffffffffffffffffffffffff16815260200190815260200160002060009054906101000a900460ff16905092915050565b612e6161309f565b73ffffffffffffffffffffffffffffffffffffffff16612e7f612277565b73ffffffffffffffffffffffffffffffffffffffff1614612ed5576040517f08c379a0000000000000000000000000000000000000000000000000000000008152600401612ecc9061571f565b60405180910390fd5b600073ffffffffffffffffffffffffffffffffffffffff168173ffffffffffffffffffffffffffffffffffffffff161415612f45576040517f08c379a0000000000000000000000000000000000000000000000000000000008152600401612f3c9061551f565b60405180910390fd5b612f4e816136a0565b50565b60007f80ac58cd000000000000000000000000000000000000000000000000000000007bffffffffffffffffffffffffffffffffffffffffffffffffffffffff1916827bffffffffffffffffffffffffffffffffffffffffffffffffffffffff1916148061301c57507f5b5e139f000000000000000000000000000000000000000000000000000000007bffffffffffffffffffffffffffffffffffffffffffffffffffffffff1916827bffffffffffffffffffffffffffffffffffffffffffffffffffffffff1916145b8061302c575061302b82613cf9565b5b9050919050565b60008073ffffffffffffffffffffffffffffffffffffffff166002600084815260200190815260200160002060009054906101000a900473ffffffffffffffffffffffffffffffffffffffff1673ffffffffffffffffffffffffffffffffffffffff1614159050919050565b600033905090565b816004600083815260200190815260200160002060006101000a81548173ffffffffffffffffffffffffffffffffffffffff021916908373ffffffffffffffffffffffffffffffffffffffff160217905550808273ffffffffffffffffffffffffffffffffffffffff1661311a83611fde565b73ffffffffffffffffffffffffffffffffffffffff167f8c5be1e5ebec7d5bd14f71427d1e84f3dd0314c0f7b2291e5b200ac8c7c3b92560405160405180910390a45050565b600061316b82613033565b6131aa576040517f08c379a00000000000000000000000000000000000000000000000000000000081526004016131a1906155df565b60405180910390fd5b60006131b583611fde565b90508073ffffffffffffffffffffffffffffffffffffffff168473ffffffffffffffffffffffffffffffffffffffff16148061322457508373ffffffffffffffffffffffffffffffffffffffff1661320c8461103c565b73ffffffffffffffffffffffffffffffffffffffff16145b8061323557506132348185612dc5565b5b91505092915050565b8273ffffffffffffffffffffffffffffffffffffffff1661325e82611fde565b73ffffffffffffffffffffffffffffffffffffffff16146132b4576040517f08c379a00000000000000000000000000000000000000000000000000000000081526004016132ab9061573f565b60405180910390fd5b600073ffffffffffffffffffffffffffffffffffffffff168273ffffffffffffffffffffffffffffffffffffffff161415613324576040517f08c379a000000000000000000000000000000000000000000000000000000000815260040161331b9061555f565b60405180910390fd5b61332f838383613d63565b61333a6000826130a7565b6001600360008573ffffffffffffffffffffffffffffffffffffffff1673ffffffffffffffffffffffffffffffffffffffff168152602001908152602001600020600082825461338a9190615a99565b925050819055506001600360008473ffffffffffffffffffffffffffffffffffffffff1673ffffffffffffffffffffffffffffffffffffffff16815260200190815260200160002060008282546133e191906159b8565b92505081905550816002600083815260200190815260200160002060006101000a81548173ffffffffffffffffffffffffffffffffffffffff021916908373ffffffffffffffffffffffffffffffffffffffff160217905550808273ffffffffffffffffffffffffffffffffffffffff168473ffffffffffffffffffffffffffffffffffffffff167fddf252ad1be2c89b69c2b068fc378daa952ba7f163c4a11628f55a4df523b3ef60405160405180910390a4505050565b6002600f5414156134e0576040517f08c379a00000000000000000000000000000000000000000000000000000000081526004016134d79061581f565b60405180910390fd5b6002600f81905550565b6000806134f5612c66565b11613535576040517f08c379a000000000000000000000000000000000000000000000000000000000815260040161352c9061559f565b60405180910390fd5b600061353f612478565b613547610f80565b6135519190615a99565b9050600081334144454260405160200161356f959493929190615339565b6040516020818303038152906040528051906020012060001c6135929190615c81565b9050600080600d60008481526020019081526020016000205414156135b9578190506135d0565b600d60008381526020019081526020016000205490505b6000600d60006001866135e39190615a99565b8152602001908152602001600020541415613621576001836136059190615a99565b600d600084815260200190815260200160002081905550613659565b600d60006001856136329190615a99565b815260200190815260200160002054600d6000848152602001908152602001600020819055505b613661613e77565b50600e548161367091906159b8565b935050505090565b613692828260405180602001604052806000815250613e97565b5050565b6001600f81905550565b6000600a60009054906101000a900473ffffffffffffffffffffffffffffffffffffffff16905081600a60006101000a81548173ffffffffffffffffffffffffffffffffffffffff021916908373ffffffffffffffffffffffffffffffffffffffff1602179055508173ffffffffffffffffffffffffffffffffffffffff168173ffffffffffffffffffffffffffffffffffffffff167f8be0079c531659141344cd1fd0a4f28419497f9722a3daafe3b4186f6b6457e060405160405180910390a35050565b600081600001549050919050565b60008082116137b8576040517f08c379a00000000000000000000000000000000000000000000000000000000081526004016137af906156ff565b60405180910390fd5b60008414156137ca57600090506138ec565b600083856137d89190615a3f565b90508385826137e79190615a0e565b14156138015782816137f99190615a0e565b9150506138ec565b6000838661380f9190615a0e565b90506000848761381f9190615c81565b90506000858761382f9190615a0e565b90506000868861383f9190615c81565b90506138e46138698861385b8487613ef290919063ffffffff16565b613f0890919063ffffffff16565b6138d661387f8587613ef290919063ffffffff16565b6138c8613895868a613ef290919063ffffffff16565b6138ba8d6138ac8a8d613ef290919063ffffffff16565b613ef290919063ffffffff16565b613f1e90919063ffffffff16565b613f1e90919063ffffffff16565b613f1e90919063ffffffff16565b955050505050505b9392505050565b7f000000000000000000000000000000000000000000000000000000000000000073ffffffffffffffffffffffffffffffffffffffff1663f340fa0182846040518363ffffffff1660e01b815260040161394d91906153de565b6000604051808303818588803b15801561396657600080fd5b505af115801561397a573d6000803e3d6000fd5b50505050505050565b8173ffffffffffffffffffffffffffffffffffffffff168373ffffffffffffffffffffffffffffffffffffffff1614156139f2576040517f08c379a00000000000000000000000000000000000000000000000000000000081526004016139e99061557f565b60405180910390fd5b80600560008573ffffffffffffffffffffffffffffffffffffffff1673ffffffffffffffffffffffffffffffffffffffff16815260200190815260200160002060008473ffffffffffffffffffffffffffffffffffffffff1673ffffffffffffffffffffffffffffffffffffffff16815260200190815260200160002060006101000a81548160ff0219169083151502179055508173ffffffffffffffffffffffffffffffffffffffff168373ffffffffffffffffffffffffffffffffffffffff167f17307eab39ab6107e8899845ad3d59bd9653f200f220920489ca2b5937696c3183604051613ae39190615482565b60405180910390a3505050565b613afb84848461323e565b613b0784848484613f34565b613b46576040517f08c379a0000000000000000000000000000000000000000000000000000000008152600401613b3d906154ff565b60405180910390fd5b50505050565b60606000821415613b94576040518060400160405280600181526020017f30000000000000000000000000000000000000000000000000000000000000008152509050613cf4565b600082905060005b60008214613bc6578080613baf90615bf8565b915050600a82613bbf9190615a0e565b9150613b9c565b60008167ffffffffffffffff811115613c08577f4e487b7100000000000000000000000000000000000000000000000000000000600052604160045260246000fd5b6040519080825280601f01601f191660200182016040528015613c3a5781602001600182028036833780820191505090505b5090505b60008514613ced57600182613c539190615a99565b9150600a85613c629190615c81565b6030613c6e91906159b8565b60f81b818381518110613caa577f4e487b7100000000000000000000000000000000000000000000000000000000600052603260045260246000fd5b60200101907effffffffffffffffffffffffffffffffffffffffffffffffffffffffffffff1916908160001a905350600a85613ce69190615a0e565b9450613c3e565b8093505050505b919050565b60007f01ffc9a7000000000000000000000000000000000000000000000000000000007bffffffffffffffffffffffffffffffffffffffffffffffffffffffff1916827bffffffffffffffffffffffffffffffffffffffffffffffffffffffff1916149050919050565b613d6e8383836140cb565b600073ffffffffffffffffffffffffffffffffffffffff168373ffffffffffffffffffffffffffffffffffffffff161415613db157613dac816140d0565b613df0565b8173ffffffffffffffffffffffffffffffffffffffff168373ffffffffffffffffffffffffffffffffffffffff1614613def57613dee8382614119565b5b5b600073ffffffffffffffffffffffffffffffffffffffff168273ffffffffffffffffffffffffffffffffffffffff161415613e3357613e2e81614286565b613e72565b8273ffffffffffffffffffffffffffffffffffffffff168273ffffffffffffffffffffffffffffffffffffffff1614613e7157613e7082826143c9565b5b5b505050565b600080613e84600b613766565b9050613e90600b614448565b8091505090565b613ea1838361445e565b613eae6000848484613f34565b613eed576040517f08c379a0000000000000000000000000000000000000000000000000000000008152600401613ee4906154ff565b60405180910390fd5b505050565b60008183613f009190615a3f565b905092915050565b60008183613f169190615a0e565b905092915050565b60008183613f2c91906159b8565b905092915050565b6000613f558473ffffffffffffffffffffffffffffffffffffffff1661462c565b156140be578373ffffffffffffffffffffffffffffffffffffffff1663150b7a02613f7e61309f565b8786866040518563ffffffff1660e01b8152600401613fa09493929190615414565b602060405180830381600087803b158015613fba57600080fd5b505af1925050508015613feb57506040513d601f19601f82011682018060405250810190613fe89190614b71565b60015b61406e573d806000811461401b576040519150601f19603f3d011682016040523d82523d6000602084013e614020565b606091505b50600081511415614066576040517f08c379a000000000000000000000000000000000000000000000000000000000815260040161405d906154ff565b60405180910390fd5b805181602001fd5b63150b7a0260e01b7bffffffffffffffffffffffffffffffffffffffffffffffffffffffff1916817bffffffffffffffffffffffffffffffffffffffffffffffffffffffff1916149150506140c3565b600190505b949350505050565b505050565b6008805490506009600083815260200190815260200160002081905550600881908060018154018082558091505060019003906000526020600020016000909190919091505550565b600060016141268461211e565b6141309190615a99565b9050600060076000848152602001908152602001600020549050818114614215576000600660008673ffffffffffffffffffffffffffffffffffffffff1673ffffffffffffffffffffffffffffffffffffffff168152602001908152602001600020600084815260200190815260200160002054905080600660008773ffffffffffffffffffffffffffffffffffffffff1673ffffffffffffffffffffffffffffffffffffffff168152602001908152602001600020600084815260200190815260200160002081905550816007600083815260200190815260200160002081905550505b6007600084815260200190815260200160002060009055600660008573ffffffffffffffffffffffffffffffffffffffff1673ffffffffffffffffffffffffffffffffffffffff16815260200190815260200160002060008381526020019081526020016000206000905550505050565b6000600160088054905061429a9190615a99565b90506000600960008481526020019081526020016000205490506000600883815481106142f0577f4e487b7100000000000000000000000000000000000000000000000000000000600052603260045260246000fd5b906000526020600020015490508060088381548110614338577f4e487b7100000000000000000000000000000000000000000000000000000000600052603260045260246000fd5b9060005260206000200181905550816009600083815260200190815260200160002081905550600960008581526020019081526020016000206000905560088054806143ad577f4e487b7100000000000000000000000000000000000000000000000000000000600052603160045260246000fd5b6001900381819060005260206000200160009055905550505050565b60006143d48361211e565b905081600660008573ffffffffffffffffffffffffffffffffffffffff1673ffffffffffffffffffffffffffffffffffffffff168152602001908152602001600020600083815260200190815260200160002081905550806007600084815260200190815260200160002081905550505050565b6001816000016000828254019250508190555050565b600073ffffffffffffffffffffffffffffffffffffffff168273ffffffffffffffffffffffffffffffffffffffff1614156144ce576040517f08c379a00000000000000000000000000000000000000000000000000000000081526004016144c59061569f565b60405180910390fd5b6144d781613033565b15614517576040517f08c379a000000000000000000000000000000000000000000000000000000000815260040161450e9061553f565b60405180910390fd5b61452360008383613d63565b6001600360008473ffffffffffffffffffffffffffffffffffffffff1673ffffffffffffffffffffffffffffffffffffffff168152602001908152602001600020600082825461457391906159b8565b92505081905550816002600083815260200190815260200160002060006101000a81548173ffffffffffffffffffffffffffffffffffffffff021916908373ffffffffffffffffffffffffffffffffffffffff160217905550808273ffffffffffffffffffffffffffffffffffffffff16600073ffffffffffffffffffffffffffffffffffffffff167fddf252ad1be2c89b69c2b068fc378daa952ba7f163c4a11628f55a4df523b3ef60405160405180910390a45050565b600080823b905060008111915050919050565b82805461464b90615b95565b90600052602060002090601f01602090048101928261466d57600085556146b4565b82601f1061468657805160ff19168380011785556146b4565b828001600101855582156146b4579182015b828111156146b3578251825591602001919060010190614698565b5b5090506146c19190614702565b5090565b6040518060e00160405280600081526020016000815260200160008152602001600081526020016000815260200160008152602001600081525090565b5b8082111561471b576000816000905550600101614703565b5090565b600061473261472d846158ba565b615895565b90508281526020810184848401111561474a57600080fd5b614755848285615b53565b509392505050565b600061477061476b846158eb565b615895565b90508281526020810184848401111561478857600080fd5b614793848285615b53565b509392505050565b6000813590506147aa8161646e565b92915050565b6000813590506147bf81616485565b92915050565b60008083601f8401126147d757600080fd5b8235905067ffffffffffffffff8111156147f057600080fd5b60208301915083602082028301111561480857600080fd5b9250929050565b60008135905061481e8161649c565b92915050565b6000815190506148338161649c565b92915050565b600081359050614848816164b3565b92915050565b60008151905061485d816164b3565b92915050565b600082601f83011261487457600080fd5b813561488484826020860161471f565b91505092915050565b600082601f83011261489e57600080fd5b81356148ae84826020860161475d565b91505092915050565b6000813590506148c6816164ca565b92915050565b6000815190506148db816164ca565b92915050565b6000602082840312156148f357600080fd5b60006149018482850161479b565b91505092915050565b60006020828403121561491c57600080fd5b600061492a848285016147b0565b91505092915050565b6000806040838503121561494657600080fd5b60006149548582860161479b565b92505060206149658582860161479b565b9150509250929050565b60008060006060848603121561498457600080fd5b60006149928682870161479b565b93505060206149a38682870161479b565b92505060406149b4868287016148b7565b9150509250925092565b600080600080608085870312156149d457600080fd5b60006149e28782880161479b565b94505060206149f38782880161479b565b9350506040614a04878288016148b7565b925050606085013567ffffffffffffffff811115614a2157600080fd5b614a2d87828801614863565b91505092959194509250565b60008060408385031215614a4c57600080fd5b6000614a5a8582860161479b565b9250506020614a6b8582860161480f565b9150509250929050565b60008060408385031215614a8857600080fd5b6000614a968582860161479b565b9250506020614aa7858286016148b7565b9150509250929050565b60008060208385031215614ac457600080fd5b600083013567ffffffffffffffff811115614ade57600080fd5b614aea858286016147c5565b92509250509250929050565b600060208284031215614b0857600080fd5b6000614b168482850161480f565b91505092915050565b600060208284031215614b3157600080fd5b6000614b3f84828501614824565b91505092915050565b600060208284031215614b5a57600080fd5b6000614b6884828501614839565b91505092915050565b600060208284031215614b8357600080fd5b6000614b918482850161484e565b91505092915050565b600060208284031215614bac57600080fd5b600082013567ffffffffffffffff811115614bc657600080fd5b614bd28482850161488d565b91505092915050565b600060208284031215614bed57600080fd5b6000614bfb848285016148b7565b91505092915050565b600060208284031215614c1657600080fd5b6000614c24848285016148cc565b91505092915050565b60008060408385031215614c4057600080fd5b6000614c4e858286016148b7565b9250506020614c5f8582860161479b565b9150509250929050565b6000614c758383615304565b60208301905092915050565b614c8a81615adf565b82525050565b614ca1614c9c82615adf565b615c53565b82525050565b614cb081615acd565b82525050565b614cc7614cc282615acd565b615c41565b82525050565b6000614cd882615941565b614ce2818561596f565b9350614ced8361591c565b8060005b83811015614d1e578151614d058882614c69565b9750614d1083615962565b925050600181019050614cf1565b5085935050505092915050565b614d3481615af1565b82525050565b6000614d458261594c565b614d4f8185615980565b9350614d5f818560208601615b62565b614d6881615d6e565b840191505092915050565b6000614d7e82615957565b614d88818561599c565b9350614d98818560208601615b62565b614da181615d6e565b840191505092915050565b6000614db782615957565b614dc181856159ad565b9350614dd1818560208601615b62565b80840191505092915050565b60008154614dea81615b95565b614df481866159ad565b94506001821660008114614e0f5760018114614e2057614e53565b60ff19831686528186019350614e53565b614e298561592c565b60005b83811015614e4b57815481890152600182019150602081019050614e2c565b838801955050505b50505092915050565b6000614e69601b8361599c565b9150614e7482615d8c565b602082019050919050565b6000614e8c602b8361599c565b9150614e9782615db5565b604082019050919050565b6000614eaf60328361599c565b9150614eba82615e04565b604082019050919050565b6000614ed260268361599c565b9150614edd82615e53565b604082019050919050565b6000614ef5601c8361599c565b9150614f0082615ea2565b602082019050919050565b6000614f1860248361599c565b9150614f2382615ecb565b604082019050919050565b6000614f3b60198361599c565b9150614f4682615f1a565b602082019050919050565b6000614f5e60188361599c565b9150614f6982615f43565b602082019050919050565b6000614f8160288361599c565b9150614f8c82615f6c565b604082019050919050565b6000614fa4602c8361599c565b9150614faf82615fbb565b604082019050919050565b6000614fc760388361599c565b9150614fd28261600a565b604082019050919050565b6000614fea602a8361599c565b9150614ff582616059565b604082019050919050565b600061500d60298361599c565b9150615018826160a8565b604082019050919050565b600061503060168361599c565b915061503b826160f7565b602082019050919050565b600061505360168361599c565b915061505e82616120565b602082019050919050565b600061507660208361599c565b915061508182616149565b602082019050919050565b6000615099600f8361599c565b91506150a482616172565b602082019050919050565b60006150bc602c8361599c565b91506150c78261619b565b604082019050919050565b60006150df60108361599c565b91506150ea826161ea565b602082019050919050565b600061510260208361599c565b915061510d82616213565b602082019050919050565b600061512560298361599c565b91506151308261623c565b604082019050919050565b6000615148602f8361599c565b91506151538261628b565b604082019050919050565b600061516b60218361599c565b9150615176826162da565b604082019050919050565b600061518e60118361599c565b915061519982616329565b602082019050919050565b60006151b1600083615991565b91506151bc82616352565b600082019050919050565b60006151d460128361599c565b91506151df82616355565b602082019050919050565b60006151f760318361599c565b91506152028261637e565b604082019050919050565b600061521a602c8361599c565b9150615225826163cd565b604082019050919050565b600061523d601f8361599c565b91506152488261641c565b602082019050919050565b6000615260601b8361599c565b915061526b82616445565b602082019050919050565b60e08201600082015161528c6000850182615304565b50602082015161529f6020850182615304565b5060408201516152b26040850182615304565b5060608201516152c56060850182615304565b5060808201516152d86080850182615304565b5060a08201516152eb60a0850182615304565b5060c08201516152fe60c0850182615304565b50505050565b61530d81615b49565b82525050565b61531c81615b49565b82525050565b61533361532e82615b49565b615c77565b82525050565b60006153458288614cb6565b6014820191506153558287614c90565b6014820191506153658286615322565b6020820191506153758285615322565b6020820191506153858284615322565b6020820191508190509695505050505050565b60006153a48286614ddd565b91506153b08285614dac565b91506153bc8284614ddd565b9150819050949350505050565b60006153d4826151a4565b9150819050919050565b60006020820190506153f36000830184614ca7565b92915050565b600060208201905061540e6000830184614c81565b92915050565b60006080820190506154296000830187614ca7565b6154366020830186614ca7565b6154436040830185615313565b81810360608301526154558184614d3a565b905095945050505050565b6000602082019050818103600083015261547a8184614ccd565b905092915050565b60006020820190506154976000830184614d2b565b92915050565b600060208201905081810360008301526154b78184614d73565b905092915050565b600060208201905081810360008301526154d881614e5c565b9050919050565b600060208201905081810360008301526154f881614e7f565b9050919050565b6000602082019050818103600083015261551881614ea2565b9050919050565b6000602082019050818103600083015261553881614ec5565b9050919050565b6000602082019050818103600083015261555881614ee8565b9050919050565b6000602082019050818103600083015261557881614f0b565b9050919050565b6000602082019050818103600083015261559881614f2e565b9050919050565b600060208201905081810360008301526155b881614f51565b9050919050565b600060208201905081810360008301526155d881614f74565b9050919050565b600060208201905081810360008301526155f881614f97565b9050919050565b6000602082019050818103600083015261561881614fba565b9050919050565b6000602082019050818103600083015261563881614fdd565b9050919050565b6000602082019050818103600083015261565881615000565b9050919050565b6000602082019050818103600083015261567881615023565b9050919050565b6000602082019050818103600083015261569881615046565b9050919050565b600060208201905081810360008301526156b881615069565b9050919050565b600060208201905081810360008301526156d88161508c565b9050919050565b600060208201905081810360008301526156f8816150af565b9050919050565b60006020820190508181036000830152615718816150d2565b9050919050565b60006020820190508181036000830152615738816150f5565b9050919050565b6000602082019050818103600083015261575881615118565b9050919050565b600060208201905081810360008301526157788161513b565b9050919050565b600060208201905081810360008301526157988161515e565b9050919050565b600060208201905081810360008301526157b881615181565b9050919050565b600060208201905081810360008301526157d8816151c7565b9050919050565b600060208201905081810360008301526157f8816151ea565b9050919050565b600060208201905081810360008301526158188161520d565b9050919050565b6000602082019050818103600083015261583881615230565b9050919050565b6000602082019050818103600083015261585881615253565b9050919050565b600060e0820190506158746000830184615276565b92915050565b600060208201905061588f6000830184615313565b92915050565b600061589f6158b0565b90506158ab8282615bc7565b919050565b6000604051905090565b600067ffffffffffffffff8211156158d5576158d4615d3f565b5b6158de82615d6e565b9050602081019050919050565b600067ffffffffffffffff82111561590657615905615d3f565b5b61590f82615d6e565b9050602081019050919050565b6000819050602082019050919050565b60008190508160005260206000209050919050565b600081519050919050565b600081519050919050565b600081519050919050565b6000602082019050919050565b600082825260208201905092915050565b600082825260208201905092915050565b600081905092915050565b600082825260208201905092915050565b600081905092915050565b60006159c382615b49565b91506159ce83615b49565b9250827fffffffffffffffffffffffffffffffffffffffffffffffffffffffffffffffff03821115615a0357615a02615cb2565b5b828201905092915050565b6000615a1982615b49565b9150615a2483615b49565b925082615a3457615a33615ce1565b5b828204905092915050565b6000615a4a82615b49565b9150615a5583615b49565b9250817fffffffffffffffffffffffffffffffffffffffffffffffffffffffffffffffff0483118215151615615a8e57615a8d615cb2565b5b828202905092915050565b6000615aa482615b49565b9150615aaf83615b49565b925082821015615ac257615ac1615cb2565b5b828203905092915050565b6000615ad882615b29565b9050919050565b6000615aea82615b29565b9050919050565b60008115159050919050565b60007fffffffff0000000000000000000000000000000000000000000000000000000082169050919050565b600073ffffffffffffffffffffffffffffffffffffffff82169050919050565b6000819050919050565b82818337600083830152505050565b60005b83811015615b80578082015181840152602081019050615b65565b83811115615b8f576000848401525b50505050565b60006002820490506001821680615bad57607f821691505b60208210811415615bc157615bc0615d10565b5b50919050565b615bd082615d6e565b810181811067ffffffffffffffff82111715615bef57615bee615d3f565b5b80604052505050565b6000615c0382615b49565b91507fffffffffffffffffffffffffffffffffffffffffffffffffffffffffffffffff821415615c3657615c35615cb2565b5b600182019050919050565b6000615c4c82615c65565b9050919050565b6000615c5e82615c65565b9050919050565b6000615c7082615d7f565b9050919050565b6000819050919050565b6000615c8c82615b49565b9150615c9783615b49565b925082615ca757615ca6615ce1565b5b828206905092915050565b7f4e487b7100000000000000000000000000000000000000000000000000000000600052601160045260246000fd5b7f4e487b7100000000000000000000000000000000000000000000000000000000600052601260045260246000fd5b7f4e487b7100000000000000000000000000000000000000000000000000000000600052602260045260246000fd5b7f4e487b7100000000000000000000000000000000000000000000000000000000600052604160045260246000fd5b6000601f19601f8301169050919050565b60008160601b9050919050565b7f416464726573732048617320416c726561647920436c61696d65640000000000600082015250565b7f455243373231456e756d657261626c653a206f776e657220696e646578206f7560008201527f74206f6620626f756e6473000000000000000000000000000000000000000000602082015250565b7f4552433732313a207472616e7366657220746f206e6f6e20455243373231526560008201527f63656976657220696d706c656d656e7465720000000000000000000000000000602082015250565b7f4f776e61626c653a206e6577206f776e657220697320746865207a65726f206160008201527f6464726573730000000000000000000000000000000000000000000000000000602082015250565b7f4552433732313a20746f6b656e20616c7265616479206d696e74656400000000600082015250565b7f4552433732313a207472616e7366657220746f20746865207a65726f2061646460008201527f7265737300000000000000000000000000000000000000000000000000000000602082015250565b7f4552433732313a20617070726f766520746f2063616c6c657200000000000000600082015250565b7f4e6f206d6f726520746f6b656e7320617661696c61626c650000000000000000600082015250565b7f6d6178206d696e7420616d6f756e7420706572207472616e73616374696f6e2060008201527f6578636565646564000000000000000000000000000000000000000000000000602082015250565b7f4552433732313a206f70657261746f7220717565727920666f72206e6f6e657860008201527f697374656e7420746f6b656e0000000000000000000000000000000000000000602082015250565b7f4552433732313a20617070726f76652063616c6c6572206973206e6f74206f7760008201527f6e6572206e6f7220617070726f76656420666f7220616c6c0000000000000000602082015250565b7f4552433732313a2062616c616e636520717565727920666f7220746865207a6560008201527f726f206164647265737300000000000000000000000000000000000000000000602082015250565b7f4552433732313a206f776e657220717565727920666f72206e6f6e657869737460008201527f656e7420746f6b656e0000000000000000000000000000000000000000000000602082015250565b7f6d6178204e4654206c696d697420657863656564656400000000000000000000600082015250565b7f4d6178204e4654204c696d697420457863656564656400000000000000000000600082015250565b7f4552433732313a206d696e7420746f20746865207a65726f2061646472657373600082015250565b7f436c61696d206973207061757365640000000000000000000000000000000000600082015250565b7f4552433732313a20617070726f76656420717565727920666f72206e6f6e657860008201527f697374656e7420746f6b656e0000000000000000000000000000000000000000602082015250565b7f4469766973696f6e206279207a65726f00000000000000000000000000000000600082015250565b7f4f776e61626c653a2063616c6c6572206973206e6f7420746865206f776e6572600082015250565b7f4552433732313a207472616e73666572206f6620746f6b656e2074686174206960008201527f73206e6f74206f776e0000000000000000000000000000000000000000000000602082015250565b7f4552433732314d657461646174613a2055524920717565727920666f72206e6f60008201527f6e6578697374656e7420746f6b656e0000000000000000000000000000000000602082015250565b7f4552433732313a20617070726f76616c20746f2063757272656e74206f776e6560008201527f7200000000000000000000000000000000000000000000000000000000000000602082015250565b7f6d696e74696e6720697320706175736564000000000000000000000000000000600082015250565b50565b7f696e73756666696369656e742066756e64730000000000000000000000000000600082015250565b7f4552433732313a207472616e736665722063616c6c6572206973206e6f74206f60008201527f776e6572206e6f7220617070726f766564000000000000000000000000000000602082015250565b7f455243373231456e756d657261626c653a20676c6f62616c20696e646578206f60008201527f7574206f6620626f756e64730000000000000000000000000000000000000000602082015250565b7f5265656e7472616e637947756172643a207265656e7472616e742063616c6c00600082015250565b7f6e65656420746f206d696e74206174206c656173742031204e46540000000000600082015250565b61647781615acd565b811461648257600080fd5b50565b61648e81615adf565b811461649957600080fd5b50565b6164a581615af1565b81146164b057600080fd5b50565b6164bc81615afd565b81146164c757600080fd5b50565b6164d381615b49565b81146164de57600080fd5b5056fea2646970667358221220e94e4df67f8c91711a40a750263f86daa3b9872caf6a6bbebc5045f5a9b7256c64736f6c63430008040033608060405234801561001057600080fd5b5061002d61002261003260201b60201c565b61003a60201b60201c565b6100fe565b600033905090565b60008060009054906101000a900473ffffffffffffffffffffffffffffffffffffffff169050816000806101000a81548173ffffffffffffffffffffffffffffffffffffffff021916908373ffffffffffffffffffffffffffffffffffffffff1602179055508173ffffffffffffffffffffffffffffffffffffffff168173ffffffffffffffffffffffffffffffffffffffff167f8be0079c531659141344cd1fd0a4f28419497f9722a3daafe3b4186f6b6457e060405160405180910390a35050565b610bfc8061010d6000396000f3fe6080604052600436106100555760003560e01c806351cff8d91461005a578063715018a6146100835780638da5cb5b1461009a578063e3a9db1a146100c5578063f2fde38b14610102578063f340fa011461012b575b600080fd5b34801561006657600080fd5b50610081600480360381019061007c91906107f5565b610147565b005b34801561008f57600080fd5b506100986102c7565b005b3480156100a657600080fd5b506100af61034f565b6040516100bc9190610900565b60405180910390f35b3480156100d157600080fd5b506100ec60048036038101906100e791906107cc565b610378565b6040516100f9919061099b565b60405180910390f35b34801561010e57600080fd5b50610129600480360381019061012491906107cc565b6103c1565b005b610145600480360381019061014091906107cc565b6104b9565b005b61014f6105e2565b73ffffffffffffffffffffffffffffffffffffffff1661016d61034f565b73ffffffffffffffffffffffffffffffffffffffff16146101c3576040517f08c379a00000000000000000000000000000000000000000000000000000000081526004016101ba9061097b565b60405180910390fd5b6000600160008373ffffffffffffffffffffffffffffffffffffffff1673ffffffffffffffffffffffffffffffffffffffff1681526020019081526020016000205490506000600160008473ffffffffffffffffffffffffffffffffffffffff1673ffffffffffffffffffffffffffffffffffffffff16815260200190815260200160002081905550610275818373ffffffffffffffffffffffffffffffffffffffff166105ea90919063ffffffff16565b8173ffffffffffffffffffffffffffffffffffffffff167f7084f5476618d8e60b11ef0d7d3f06914655adb8793e28ff7f018d4c76d505d5826040516102bb919061099b565b60405180910390a25050565b6102cf6105e2565b73ffffffffffffffffffffffffffffffffffffffff166102ed61034f565b73ffffffffffffffffffffffffffffffffffffffff1614610343576040517f08c379a000000000000000000000000000000000000000000000000000000000815260040161033a9061097b565b60405180910390fd5b61034d60006106de565b565b60008060009054906101000a900473ffffffffffffffffffffffffffffffffffffffff16905090565b6000600160008373ffffffffffffffffffffffffffffffffffffffff1673ffffffffffffffffffffffffffffffffffffffff168152602001908152602001600020549050919050565b6103c96105e2565b73ffffffffffffffffffffffffffffffffffffffff166103e761034f565b73ffffffffffffffffffffffffffffffffffffffff161461043d576040517f08c379a00000000000000000000000000000000000000000000000000000000081526004016104349061097b565b60405180910390fd5b600073ffffffffffffffffffffffffffffffffffffffff168173ffffffffffffffffffffffffffffffffffffffff1614156104ad576040517f08c379a00000000000000000000000000000000000000000000000000000000081526004016104a49061091b565b60405180910390fd5b6104b6816106de565b50565b6104c16105e2565b73ffffffffffffffffffffffffffffffffffffffff166104df61034f565b73ffffffffffffffffffffffffffffffffffffffff1614610535576040517f08c379a000000000000000000000000000000000000000000000000000000000815260040161052c9061097b565b60405180910390fd5b600034905080600160008473ffffffffffffffffffffffffffffffffffffffff1673ffffffffffffffffffffffffffffffffffffffff168152602001908152602001600020600082825461058991906109d2565b925050819055508173ffffffffffffffffffffffffffffffffffffffff167f2da466a7b24304f47e87fa2e1e5a81b9831ce54fec19055ce277ca2f39ba42c4826040516105d6919061099b565b60405180910390a25050565b600033905090565b8047101561062d576040517f08c379a00000000000000000000000000000000000000000000000000000000081526004016106249061095b565b60405180910390fd5b60008273ffffffffffffffffffffffffffffffffffffffff1682604051610653906108eb565b60006040518083038185875af1925050503d8060008114610690576040519150601f19603f3d011682016040523d82523d6000602084013e610695565b606091505b50509050806106d9576040517f08c379a00000000000000000000000000000000000000000000000000000000081526004016106d09061093b565b60405180910390fd5b505050565b60008060009054906101000a900473ffffffffffffffffffffffffffffffffffffffff169050816000806101000a81548173ffffffffffffffffffffffffffffffffffffffff021916908373ffffffffffffffffffffffffffffffffffffffff1602179055508173ffffffffffffffffffffffffffffffffffffffff168173ffffffffffffffffffffffffffffffffffffffff167f8be0079c531659141344cd1fd0a4f28419497f9722a3daafe3b4186f6b6457e060405160405180910390a35050565b6000813590506107b181610b98565b92915050565b6000813590506107c681610baf565b92915050565b6000602082840312156107de57600080fd5b60006107ec848285016107a2565b91505092915050565b60006020828403121561080757600080fd5b6000610815848285016107b7565b91505092915050565b61082781610a28565b82525050565b600061083a6026836109c1565b915061084582610aa5565b604082019050919050565b600061085d603a836109c1565b915061086882610af4565b604082019050919050565b6000610880601d836109c1565b915061088b82610b43565b602082019050919050565b60006108a36020836109c1565b91506108ae82610b6c565b602082019050919050565b60006108c66000836109b6565b91506108d182610b95565b600082019050919050565b6108e581610a6c565b82525050565b60006108f6826108b9565b9150819050919050565b6000602082019050610915600083018461081e565b92915050565b600060208201905081810360008301526109348161082d565b9050919050565b6000602082019050818103600083015261095481610850565b9050919050565b6000602082019050818103600083015261097481610873565b9050919050565b6000602082019050818103600083015261099481610896565b9050919050565b60006020820190506109b060008301846108dc565b92915050565b600081905092915050565b600082825260208201905092915050565b60006109dd82610a6c565b91506109e883610a6c565b9250827fffffffffffffffffffffffffffffffffffffffffffffffffffffffffffffffff03821115610a1d57610a1c610a76565b5b828201905092915050565b6000610a3382610a4c565b9050919050565b6000610a4582610a4c565b9050919050565b600073ffffffffffffffffffffffffffffffffffffffff82169050919050565b6000819050919050565b7f4e487b7100000000000000000000000000000000000000000000000000000000600052601160045260246000fd5b7f4f776e61626c653a206e6577206f776e657220697320746865207a65726f206160008201527f6464726573730000000000000000000000000000000000000000000000000000602082015250565b7f416464726573733a20756e61626c6520746f2073656e642076616c75652c207260008201527f6563697069656e74206d61792068617665207265766572746564000000000000602082015250565b7f416464726573733a20696e73756666696369656e742062616c616e6365000000600082015250565b7f4f776e61626c653a2063616c6c6572206973206e6f7420746865206f776e6572600082015250565b50565b610ba181610a28565b8114610bac57600080fd5b50565b610bb881610a3a565b8114610bc357600080fd5b5056fea26469706673582212208826bc451bdd6672e6a8b3e54d3b93dad0bc44a49541d2670948f62b3207663364736f6c63430008040033",
  "linkReferences": {},
  "deployedLinkReferences": {}
}