{
  "_format": "hh-sol-artifact-1",
  "contractName": "V2Fighters",
  "sourceName": "contracts/V2Fighters.sol",
  "abi": [
    {
      "inputs": [
        {
          "internalType": "string",
          "name": "_name",
          "type": "string"
        },
        {
          "internalType": "string",
          "name": "_symbol",
          "type": "string"
        },
        {
          "internalType": "string",
          "name": "_initBaseURI",
          "type": "string"
        },
        {
          "internalType": "address",
          "name": "_marketAddress",
          "type": "address"
        },
        {
          "internalType": "address",
          "name": "_ebisusPaymentAddress",
          "type": "address"
        },
        {
          "internalType": "address",
          "name": "_V1Address",
          "type": "address"
        },
        {
          "internalType": "address",
          "name": "_dwsPaymentAddress",
          "type": "address"
        },
        {
          "internalType": "address",
          "name": "_fightersPaymentAddress",
          "type": "address"
        }
      ],
      "stateMutability": "nonpayable",
      "type": "constructor"
    },
    {
      "anonymous": false,
      "inputs": [
        {
          "indexed": true,
          "internalType": "address",
          "name": "owner",
          "type": "address"
        },
        {
          "indexed": true,
          "internalType": "address",
          "name": "approved",
          "type": "address"
        },
        {
          "indexed": true,
          "internalType": "uint256",
          "name": "tokenId",
          "type": "uint256"
        }
      ],
      "name": "Approval",
      "type": "event"
    },
    {
      "anonymous": false,
      "inputs": [
        {
          "indexed": true,
          "internalType": "address",
          "name": "owner",
          "type": "address"
        },
        {
          "indexed": true,
          "internalType": "address",
          "name": "operator",
          "type": "address"
        },
        {
          "indexed": false,
          "internalType": "bool",
          "name": "approved",
          "type": "bool"
        }
      ],
      "name": "ApprovalForAll",
      "type": "event"
    },
    {
      "anonymous": false,
      "inputs": [
        {
          "indexed": true,
          "internalType": "address",
          "name": "previousOwner",
          "type": "address"
        },
        {
          "indexed": true,
          "internalType": "address",
          "name": "newOwner",
          "type": "address"
        }
      ],
      "name": "OwnershipTransferred",
      "type": "event"
    },
    {
      "anonymous": false,
      "inputs": [
        {
          "indexed": true,
          "internalType": "uint256",
          "name": "supply",
          "type": "uint256"
        }
      ],
      "name": "SupplyChanged",
      "type": "event"
    },
    {
      "anonymous": false,
      "inputs": [
        {
          "indexed": true,
          "internalType": "address",
          "name": "from",
          "type": "address"
        },
        {
          "indexed": true,
          "internalType": "address",
          "name": "to",
          "type": "address"
        },
        {
          "indexed": true,
          "internalType": "uint256",
          "name": "tokenId",
          "type": "uint256"
        }
      ],
      "name": "Transfer",
      "type": "event"
    },
    {
      "inputs": [],
      "name": "V1Address",
      "outputs": [
        {
          "internalType": "address",
          "name": "",
          "type": "address"
        }
      ],
      "stateMutability": "view",
      "type": "function"
    },
    {
      "inputs": [
        {
          "internalType": "address[]",
          "name": "_addresses",
          "type": "address[]"
        }
      ],
      "name": "addWhiteList",
      "outputs": [],
      "stateMutability": "nonpayable",
      "type": "function"
    },
    {
      "inputs": [
        {
          "internalType": "address",
          "name": "to",
          "type": "address"
        },
        {
          "internalType": "uint256",
          "name": "tokenId",
          "type": "uint256"
        }
      ],
      "name": "approve",
      "outputs": [],
      "stateMutability": "nonpayable",
      "type": "function"
    },
    {
      "inputs": [],
      "name": "availableTokenCount",
      "outputs": [
        {
          "internalType": "uint256",
          "name": "",
          "type": "uint256"
        }
      ],
      "stateMutability": "view",
      "type": "function"
    },
    {
      "inputs": [
        {
          "internalType": "address",
          "name": "owner",
          "type": "address"
        }
      ],
      "name": "balanceOf",
      "outputs": [
        {
          "internalType": "uint256",
          "name": "",
          "type": "uint256"
        }
      ],
      "stateMutability": "view",
      "type": "function"
    },
    {
      "inputs": [],
      "name": "baseExtension",
      "outputs": [
        {
          "internalType": "string",
          "name": "",
          "type": "string"
        }
      ],
      "stateMutability": "view",
      "type": "function"
    },
    {
      "inputs": [],
      "name": "baseURI",
      "outputs": [
        {
          "internalType": "string",
          "name": "",
          "type": "string"
        }
      ],
      "stateMutability": "view",
      "type": "function"
    },
    {
      "inputs": [
        {
          "internalType": "address",
          "name": "",
          "type": "address"
        }
      ],
      "name": "canMint",
      "outputs": [
        {
          "internalType": "uint256",
          "name": "",
          "type": "uint256"
        }
      ],
      "stateMutability": "view",
      "type": "function"
    },
    {
      "inputs": [],
      "name": "claim",
      "outputs": [],
      "stateMutability": "nonpayable",
      "type": "function"
    },
    {
      "inputs": [
        {
          "internalType": "bool",
          "name": "_state",
          "type": "bool"
        }
      ],
      "name": "claimPause",
      "outputs": [],
      "stateMutability": "nonpayable",
      "type": "function"
    },
    {
      "inputs": [],
      "name": "claimPaused",
      "outputs": [
        {
          "internalType": "bool",
          "name": "",
          "type": "bool"
        }
      ],
      "stateMutability": "view",
      "type": "function"
    },
    {
      "inputs": [],
      "name": "dwsPaymentAddress",
      "outputs": [
        {
          "internalType": "address",
          "name": "",
          "type": "address"
        }
      ],
      "stateMutability": "view",
      "type": "function"
    },
    {
      "inputs": [],
      "name": "dwsPaymentTotal",
      "outputs": [
        {
          "internalType": "uint256",
          "name": "",
          "type": "uint256"
        }
      ],
      "stateMutability": "view",
      "type": "function"
    },
    {
      "inputs": [],
      "name": "ebisusPaymentAddress",
      "outputs": [
        {
          "internalType": "address",
          "name": "",
          "type": "address"
        }
      ],
      "stateMutability": "view",
      "type": "function"
    },
    {
      "inputs": [],
      "name": "fightersPaymentAddress",
      "outputs": [
        {
          "internalType": "address",
          "name": "",
          "type": "address"
        }
      ],
      "stateMutability": "view",
      "type": "function"
    },
    {
      "inputs": [
        {
          "internalType": "uint256",
          "name": "tokenId",
          "type": "uint256"
        }
      ],
      "name": "getApproved",
      "outputs": [
        {
          "internalType": "address",
          "name": "",
          "type": "address"
        }
      ],
      "stateMutability": "view",
      "type": "function"
    },
    {
      "inputs": [],
      "name": "getInfo",
      "outputs": [
        {
          "components": [
            {
              "internalType": "uint256",
              "name": "regularCost",
              "type": "uint256"
            },
            {
              "internalType": "uint256",
              "name": "memberCost",
              "type": "uint256"
            },
            {
              "internalType": "uint256",
              "name": "whitelistCost",
              "type": "uint256"
            },
            {
              "internalType": "uint256",
              "name": "maxSupply",
              "type": "uint256"
            },
            {
              "internalType": "uint256",
              "name": "totalSupply",
              "type": "uint256"
            },
            {
              "internalType": "uint256",
              "name": "maxMintPerAddress",
              "type": "uint256"
            },
            {
              "internalType": "uint256",
              "name": "maxMintPerTx",
              "type": "uint256"
            }
          ],
          "internalType": "struct IDrop.Info",
          "name": "",
          "type": "tuple"
        }
      ],
      "stateMutability": "view",
      "type": "function"
    },
    {
      "inputs": [
        {
          "internalType": "address",
          "name": "owner",
          "type": "address"
        },
        {
          "internalType": "address",
          "name": "operator",
          "type": "address"
        }
      ],
      "name": "isApprovedForAll",
      "outputs": [
        {
          "internalType": "bool",
          "name": "",
          "type": "bool"
        }
      ],
      "stateMutability": "view",
      "type": "function"
    },
    {
      "inputs": [
        {
          "internalType": "address",
          "name": "_address",
          "type": "address"
        }
      ],
      "name": "isEbisusBayMember",
      "outputs": [
        {
          "internalType": "bool",
          "name": "",
          "type": "bool"
        }
      ],
      "stateMutability": "view",
      "type": "function"
    },
    {
      "inputs": [],
      "name": "marketAddress",
      "outputs": [
        {
          "internalType": "address",
          "name": "",
          "type": "address"
        }
      ],
      "stateMutability": "view",
      "type": "function"
    },
    {
      "inputs": [],
      "name": "maxMintAmount",
      "outputs": [
        {
          "internalType": "uint256",
          "name": "",
          "type": "uint256"
        }
      ],
      "stateMutability": "view",
      "type": "function"
    },
    {
      "inputs": [],
      "name": "maxSupply",
      "outputs": [
        {
          "internalType": "uint256",
          "name": "",
          "type": "uint256"
        }
      ],
      "stateMutability": "view",
      "type": "function"
    },
    {
      "inputs": [],
      "name": "maxTokens",
      "outputs": [
        {
          "internalType": "uint256",
          "name": "",
          "type": "uint256"
        }
      ],
      "stateMutability": "view",
      "type": "function"
    },
    {
      "inputs": [],
      "name": "maximumSupply",
      "outputs": [
        {
          "internalType": "uint256",
          "name": "",
          "type": "uint256"
        }
      ],
      "stateMutability": "view",
      "type": "function"
    },
    {
      "inputs": [],
      "name": "memCost",
      "outputs": [
        {
          "internalType": "uint256",
          "name": "",
          "type": "uint256"
        }
      ],
      "stateMutability": "view",
      "type": "function"
    },
    {
      "inputs": [
        {
          "internalType": "uint256",
          "name": "_mintAmount",
          "type": "uint256"
        }
      ],
      "name": "mint",
      "outputs": [],
      "stateMutability": "payable",
      "type": "function"
    },
    {
      "inputs": [
        {
          "internalType": "address",
          "name": "_minter",
          "type": "address"
        }
      ],
      "name": "mintCost",
      "outputs": [
        {
          "internalType": "uint256",
          "name": "",
          "type": "uint256"
        }
      ],
      "stateMutability": "view",
      "type": "function"
    },
    {
      "inputs": [
        {
          "internalType": "bool",
          "name": "_state",
          "type": "bool"
        }
      ],
      "name": "mintPause",
      "outputs": [],
      "stateMutability": "nonpayable",
      "type": "function"
    },
    {
      "inputs": [],
      "name": "mintPaused",
      "outputs": [
        {
          "internalType": "bool",
          "name": "",
          "type": "bool"
        }
      ],
      "stateMutability": "view",
      "type": "function"
    },
    {
      "inputs": [],
      "name": "name",
      "outputs": [
        {
          "internalType": "string",
          "name": "",
          "type": "string"
        }
      ],
      "stateMutability": "view",
      "type": "function"
    },
    {
      "inputs": [],
      "name": "nftPerAddressLimit",
      "outputs": [
        {
          "internalType": "uint256",
          "name": "",
          "type": "uint256"
        }
      ],
      "stateMutability": "view",
      "type": "function"
    },
    {
      "inputs": [],
      "name": "nftPerWhitelistAddress",
      "outputs": [
        {
          "internalType": "uint256",
          "name": "",
          "type": "uint256"
        }
      ],
      "stateMutability": "view",
      "type": "function"
    },
    {
      "inputs": [],
      "name": "owner",
      "outputs": [
        {
          "internalType": "address",
          "name": "",
          "type": "address"
        }
      ],
      "stateMutability": "view",
      "type": "function"
    },
    {
      "inputs": [
        {
          "internalType": "uint256",
          "name": "tokenId",
          "type": "uint256"
        }
      ],
      "name": "ownerOf",
      "outputs": [
        {
          "internalType": "address",
          "name": "",
          "type": "address"
        }
      ],
      "stateMutability": "view",
      "type": "function"
    },
    {
      "inputs": [
        {
          "internalType": "address",
          "name": "dest",
          "type": "address"
        }
      ],
      "name": "payments",
      "outputs": [
        {
          "internalType": "uint256",
          "name": "",
          "type": "uint256"
        }
      ],
      "stateMutability": "view",
      "type": "function"
    },
    {
      "inputs": [],
      "name": "regCost",
      "outputs": [
        {
          "internalType": "uint256",
          "name": "",
          "type": "uint256"
        }
      ],
      "stateMutability": "view",
      "type": "function"
    },
    {
      "inputs": [
        {
          "internalType": "address",
          "name": "_address",
          "type": "address"
        }
      ],
      "name": "removeWhiteList",
      "outputs": [],
      "stateMutability": "nonpayable",
      "type": "function"
    },
    {
      "inputs": [],
      "name": "renounceOwnership",
      "outputs": [],
      "stateMutability": "nonpayable",
      "type": "function"
    },
    {
      "inputs": [
        {
          "internalType": "uint256",
          "name": "_mintAmount",
          "type": "uint256"
        },
        {
          "internalType": "address",
          "name": "_to",
          "type": "address"
        }
      ],
      "name": "reserveMint",
      "outputs": [],
      "stateMutability": "nonpayable",
      "type": "function"
    },
    {
      "inputs": [],
      "name": "reserveMintEnd",
      "outputs": [
        {
          "internalType": "uint256",
          "name": "",
          "type": "uint256"
        }
      ],
      "stateMutability": "view",
      "type": "function"
    },
    {
      "inputs": [
        {
          "internalType": "address",
          "name": "from",
          "type": "address"
        },
        {
          "internalType": "address",
          "name": "to",
          "type": "address"
        },
        {
          "internalType": "uint256",
          "name": "tokenId",
          "type": "uint256"
        }
      ],
      "name": "safeTransferFrom",
      "outputs": [],
      "stateMutability": "nonpayable",
      "type": "function"
    },
    {
      "inputs": [
        {
          "internalType": "address",
          "name": "from",
          "type": "address"
        },
        {
          "internalType": "address",
          "name": "to",
          "type": "address"
        },
        {
          "internalType": "uint256",
          "name": "tokenId",
          "type": "uint256"
        },
        {
          "internalType": "bytes",
          "name": "_data",
          "type": "bytes"
        }
      ],
      "name": "safeTransferFrom",
      "outputs": [],
      "stateMutability": "nonpayable",
      "type": "function"
    },
    {
      "inputs": [
        {
          "internalType": "address",
          "name": "operator",
          "type": "address"
        },
        {
          "internalType": "bool",
          "name": "approved",
          "type": "bool"
        }
      ],
      "name": "setApprovalForAll",
      "outputs": [],
      "stateMutability": "nonpayable",
      "type": "function"
    },
    {
      "inputs": [
        {
          "internalType": "string",
          "name": "_newBaseURI",
          "type": "string"
        }
      ],
      "name": "setBaseURI",
      "outputs": [],
      "stateMutability": "nonpayable",
      "type": "function"
    },
    {
      "inputs": [
        {
          "internalType": "address",
          "name": "_address",
          "type": "address"
        }
      ],
      "name": "setDWSAddress",
      "outputs": [],
      "stateMutability": "nonpayable",
      "type": "function"
    },
    {
      "inputs": [
        {
          "internalType": "uint256",
          "name": "_payment",
          "type": "uint256"
        }
      ],
      "name": "setDWSPaymentTotal",
      "outputs": [],
      "stateMutability": "nonpayable",
      "type": "function"
    },
    {
      "inputs": [
        {
          "internalType": "uint256",
          "name": "_mintAmount",
          "type": "uint256"
        }
      ],
      "name": "setMaxMintAmount",
      "outputs": [],
      "stateMutability": "nonpayable",
      "type": "function"
    },
    {
      "inputs": [
        {
          "internalType": "uint256",
          "name": "_newCost",
          "type": "uint256"
        }
      ],
      "name": "setMemCost",
      "outputs": [],
      "stateMutability": "nonpayable",
      "type": "function"
    },
    {
      "inputs": [
        {
          "internalType": "uint256",
          "name": "_newCost",
          "type": "uint256"
        }
      ],
      "name": "setRegCost",
      "outputs": [],
      "stateMutability": "nonpayable",
      "type": "function"
    },
    {
      "inputs": [
        {
          "internalType": "uint256",
          "name": "_newCost",
          "type": "uint256"
        }
      ],
      "name": "setWhiteCost",
      "outputs": [],
      "stateMutability": "nonpayable",
      "type": "function"
    },
    {
      "inputs": [
        {
          "internalType": "bytes4",
          "name": "interfaceId",
          "type": "bytes4"
        }
      ],
      "name": "supportsInterface",
      "outputs": [
        {
          "internalType": "bool",
          "name": "",
          "type": "bool"
        }
      ],
      "stateMutability": "view",
      "type": "function"
    },
    {
      "inputs": [],
      "name": "symbol",
      "outputs": [
        {
          "internalType": "string",
          "name": "",
          "type": "string"
        }
      ],
      "stateMutability": "view",
      "type": "function"
    },
    {
      "inputs": [
        {
          "internalType": "uint256",
          "name": "index",
          "type": "uint256"
        }
      ],
      "name": "tokenByIndex",
      "outputs": [
        {
          "internalType": "uint256",
          "name": "",
          "type": "uint256"
        }
      ],
      "stateMutability": "view",
      "type": "function"
    },
    {
      "inputs": [],
      "name": "tokenCount",
      "outputs": [
        {
          "internalType": "uint256",
          "name": "",
          "type": "uint256"
        }
      ],
      "stateMutability": "view",
      "type": "function"
    },
    {
      "inputs": [
        {
          "internalType": "address",
          "name": "owner",
          "type": "address"
        },
        {
          "internalType": "uint256",
          "name": "index",
          "type": "uint256"
        }
      ],
      "name": "tokenOfOwnerByIndex",
      "outputs": [
        {
          "internalType": "uint256",
          "name": "",
          "type": "uint256"
        }
      ],
      "stateMutability": "view",
      "type": "function"
    },
    {
      "inputs": [
        {
          "internalType": "uint256",
          "name": "tokenId",
          "type": "uint256"
        }
      ],
      "name": "tokenURI",
      "outputs": [
        {
          "internalType": "string",
          "name": "",
          "type": "string"
        }
      ],
      "stateMutability": "view",
      "type": "function"
    },
    {
      "inputs": [],
      "name": "totalSupply",
      "outputs": [
        {
          "internalType": "uint256",
          "name": "",
          "type": "uint256"
        }
      ],
      "stateMutability": "view",
      "type": "function"
    },
    {
      "inputs": [
        {
          "internalType": "address",
          "name": "from",
          "type": "address"
        },
        {
          "internalType": "address",
          "name": "to",
          "type": "address"
        },
        {
          "internalType": "uint256",
          "name": "tokenId",
          "type": "uint256"
        }
      ],
      "name": "transferFrom",
      "outputs": [],
      "stateMutability": "nonpayable",
      "type": "function"
    },
    {
      "inputs": [
        {
          "internalType": "address",
          "name": "newOwner",
          "type": "address"
        }
      ],
      "name": "transferOwnership",
      "outputs": [],
      "stateMutability": "nonpayable",
      "type": "function"
    },
    {
      "inputs": [
        {
          "internalType": "address",
          "name": "_owner",
          "type": "address"
        }
      ],
      "name": "walletOfOwner",
      "outputs": [
        {
          "internalType": "uint256[]",
          "name": "",
          "type": "uint256[]"
        }
      ],
      "stateMutability": "view",
      "type": "function"
    },
    {
      "inputs": [],
      "name": "whiteCost",
      "outputs": [
        {
          "internalType": "uint256",
          "name": "",
          "type": "uint256"
        }
      ],
      "stateMutability": "view",
      "type": "function"
    },
    {
      "inputs": [
        {
          "internalType": "address",
          "name": "",
          "type": "address"
        }
      ],
      "name": "whitelistedAddresses",
      "outputs": [
        {
          "internalType": "bool",
          "name": "",
          "type": "bool"
        }
      ],
      "stateMutability": "view",
      "type": "function"
    },
    {
      "inputs": [],
      "name": "withdraw",
      "outputs": [],
      "stateMutability": "payable",
      "type": "function"
    },
    {
      "inputs": [
        {
          "internalType": "address payable",
          "name": "payee",
          "type": "address"
        }
      ],
      "name": "withdrawPayments",
      "outputs": [],
      "stateMutability": "nonpayable",
      "type": "function"
    }
  ],
  "bytecode": "0x60a0604052737a3cdb2364f92369a602cae81167d0679087e6a3601060006101000a81548173ffffffffffffffffffffffffffffffffffffffff021916908373ffffffffffffffffffffffffffffffffffffffff16021790555073454cfaa623a629cc0b4017aeb85d54c42e91479d601160006101000a81548173ffffffffffffffffffffffffffffffffffffffff021916908373ffffffffffffffffffffffffffffffffffffffff160217905550730e8f883124c1c234d64ec566adc5966f1832d207601260006101000a81548173ffffffffffffffffffffffffffffffffffffffff021916908373ffffffffffffffffffffffffffffffffffffffff16021790555073e024bb3e3bd1b68c101f604f742cea66ecc4a2d2601360006101000a81548173ffffffffffffffffffffffffffffffffffffffff021916908373ffffffffffffffffffffffffffffffffffffffff160217905550737c53098aed50e7d2b5d0a4a89ef5b9c31a7b6aee601460006101000a81548173ffffffffffffffffffffffffffffffffffffffff021916908373ffffffffffffffffffffffffffffffffffffffff1602179055506932258ccefd8c854c00006015556040518060400160405280600581526020017f2e6a736f6e0000000000000000000000000000000000000000000000000000008152506017908051906020019062000208929190620006c5565b50681569b9e733474c0000601855680ffdf28905e43c0000601955680ffdf28905e43c0000601a55610fa0601b556005601c55610fa0601d556005601e556103e8601f55611d4c6020556127106021556000602255604b6023556001602460006101000a81548160ff0219169083151502179055506001602460016101000a81548160ff0219169083151502179055506000602460026101000a81548160ff021916908315150217905550348015620002c057600080fd5b5060405162007dca38038062007dca8339818101604052810190620002e691906200080c565b601b54602354818a8a816000908051906020019062000307929190620006c5565b50806001908051906020019062000320929190620006c5565b50505062000343620003376200052260201b60201c565b6200052a60201b60201c565b80600c819055505080600e819055505050604051620003629062000756565b604051809103906000f0801580156200037f573d6000803e3d6000fd5b5073ffffffffffffffffffffffffffffffffffffffff1660808173ffffffffffffffffffffffffffffffffffffffff1660601b815250506001600f81905550620003cf86620005f060201b60201c565b84601060006101000a81548173ffffffffffffffffffffffffffffffffffffffff021916908373ffffffffffffffffffffffffffffffffffffffff16021790555083601160006101000a81548173ffffffffffffffffffffffffffffffffffffffff021916908373ffffffffffffffffffffffffffffffffffffffff16021790555082601260006101000a81548173ffffffffffffffffffffffffffffffffffffffff021916908373ffffffffffffffffffffffffffffffffffffffff16021790555081601360006101000a81548173ffffffffffffffffffffffffffffffffffffffff021916908373ffffffffffffffffffffffffffffffffffffffff16021790555080601460006101000a81548173ffffffffffffffffffffffffffffffffffffffff021916908373ffffffffffffffffffffffffffffffffffffffff160217905550505050505050505062000b5b565b600033905090565b6000600a60009054906101000a900473ffffffffffffffffffffffffffffffffffffffff16905081600a60006101000a81548173ffffffffffffffffffffffffffffffffffffffff021916908373ffffffffffffffffffffffffffffffffffffffff1602179055508173ffffffffffffffffffffffffffffffffffffffff168173ffffffffffffffffffffffffffffffffffffffff167f8be0079c531659141344cd1fd0a4f28419497f9722a3daafe3b4186f6b6457e060405160405180910390a35050565b620006006200052260201b60201c565b73ffffffffffffffffffffffffffffffffffffffff16620006266200069b60201b60201c565b73ffffffffffffffffffffffffffffffffffffffff16146200067f576040517f08c379a0000000000000000000000000000000000000000000000000000000008152600401620006769062000941565b60405180910390fd5b806016908051906020019062000697929190620006c5565b5050565b6000600a60009054906101000a900473ffffffffffffffffffffffffffffffffffffffff16905090565b828054620006d39062000a3d565b90600052602060002090601f016020900481019282620006f7576000855562000743565b82601f106200071257805160ff191683800117855562000743565b8280016001018555821562000743579182015b828111156200074257825182559160200191906001019062000725565b5b50905062000752919062000764565b5090565b610d0980620070c183390190565b5b808211156200077f57600081600090555060010162000765565b5090565b60006200079a62000794846200098c565b62000963565b905082815260208101848484011115620007b357600080fd5b620007c084828562000a07565b509392505050565b600081519050620007d98162000b41565b92915050565b600082601f830112620007f157600080fd5b81516200080384826020860162000783565b91505092915050565b600080600080600080600080610100898b0312156200082a57600080fd5b600089015167ffffffffffffffff8111156200084557600080fd5b620008538b828c01620007df565b985050602089015167ffffffffffffffff8111156200087157600080fd5b6200087f8b828c01620007df565b975050604089015167ffffffffffffffff8111156200089d57600080fd5b620008ab8b828c01620007df565b9650506060620008be8b828c01620007c8565b9550506080620008d18b828c01620007c8565b94505060a0620008e48b828c01620007c8565b93505060c0620008f78b828c01620007c8565b92505060e06200090a8b828c01620007c8565b9150509295985092959890939650565b600062000929602083620009c2565b9150620009368262000b18565b602082019050919050565b600060208201905081810360008301526200095c816200091a565b9050919050565b60006200096f62000982565b90506200097d828262000a73565b919050565b6000604051905090565b600067ffffffffffffffff821115620009aa57620009a962000ad8565b5b620009b58262000b07565b9050602081019050919050565b600082825260208201905092915050565b6000620009e082620009e7565b9050919050565b600073ffffffffffffffffffffffffffffffffffffffff82169050919050565b60005b8381101562000a2757808201518184015260208101905062000a0a565b8381111562000a37576000848401525b50505050565b6000600282049050600182168062000a5657607f821691505b6020821081141562000a6d5762000a6c62000aa9565b5b50919050565b62000a7e8262000b07565b810181811067ffffffffffffffff8211171562000aa05762000a9f62000ad8565b5b80604052505050565b7f4e487b7100000000000000000000000000000000000000000000000000000000600052602260045260246000fd5b7f4e487b7100000000000000000000000000000000000000000000000000000000600052604160045260246000fd5b6000601f19601f8301169050919050565b7f4f776e61626c653a2063616c6c6572206973206e6f7420746865206f776e6572600082015250565b62000b4c81620009d3565b811462000b5857600080fd5b50565b60805160601c61653962000b88600039600081816116a601528181612d33015261391701526165396000f3fe6080604052600436106103c35760003560e01c80636c0360eb116101f2578063ace6c6ad1161010d578063cf6b6736116100a0578063e2982c211161006f578063e2982c2114610e38578063e831574214610e75578063e985e9c514610ea0578063f2fde38b14610edd576103c3565b8063cf6b673614610d90578063d5abeb0114610db9578063e14ca35314610de4578063e17d705914610e0f576103c3565b8063c0005082116100dc578063c000508214610cc0578063c2ba474414610ceb578063c668286214610d28578063c87b56dd14610d53576103c3565b8063ace6c6ad14610c18578063b88d4fde14610c43578063b957fa7314610c6c578063ba7d2c7614610c95576103c3565b806395d89b4111610185578063a0712d6811610154578063a0712d6814610b7f578063a22cb46514610b9b578063ab5e124a14610bc4578063ab762e1614610bef576103c3565b806395d89b4114610ad55780639822185814610b005780639f181b5e14610b295780639fb362ae14610b54576103c3565b80638c81ffe4116101c15780638c81ffe414610a2b5780638da5cb5b14610a565780638ee9afe514610a815780639562364114610aaa576103c3565b80636c0360eb1461098157806370a08231146109ac578063715018a6146109e95780637e4831d314610a00576103c3565b80632acc659e116102e25780634e71d92d116102755780635b2ad8b0116102445780635b2ad8b0146108c75780635e1045ec146108f257806360b02f701461091b5780636352211e14610944576103c3565b80634e71d92d1461081f5780634f6ccce71461083657806355f804b3146108735780635a9b0b891461089c576103c3565b806331b3eb94116102b157806331b3eb94146107865780633ccfd60b146107af57806342842e0e146107b9578063438b6300146107e2576103c3565b80632acc659e146106b65780632e75d354146106f35780632f745c591461071e57806331a18f7d1461075b576103c3565b806318160ddd1161035a578063239c70ae11610329578063239c70ae1461060c57806323b872dd1461063757806323b89cd214610660578063278882c51461068b576103c3565b806318160ddd146105525780631c838bd01461057d5780631cac1a5f146105ba5780632042e5c2146105e3576103c3565b8063081812fc11610396578063081812fc14610498578063088a4ed0146104d5578063095ea7b3146104fe5780630ce6e94214610527576103c3565b806301ffc9a7146103c85780630480e58b1461040557806306c933d81461043057806306fdde031461046d575b600080fd5b3480156103d457600080fd5b506103ef60048036038101906103ea9190614b6a565b610f06565b6040516103fc91906154a4565b60405180910390f35b34801561041157600080fd5b5061041a610f80565b604051610427919061589c565b60405180910390f35b34801561043c57600080fd5b5061045760048036038101906104529190614903565b610f8a565b60405161046491906154a4565b60405180910390f35b34801561047957600080fd5b50610482610faa565b60405161048f91906154bf565b60405180910390f35b3480156104a457600080fd5b506104bf60048036038101906104ba9190614bfd565b61103c565b6040516104cc9190615400565b60405180910390f35b3480156104e157600080fd5b506104fc60048036038101906104f79190614bfd565b6110c1565b005b34801561050a57600080fd5b5061052560048036038101906105209190614a97565b611147565b005b34801561053357600080fd5b5061053c61125f565b604051610549919061589c565b60405180910390f35b34801561055e57600080fd5b50610567611265565b604051610574919061589c565b60405180910390f35b34801561058957600080fd5b506105a4600480360381019061059f9190614903565b611272565b6040516105b191906154a4565b60405180910390f35b3480156105c657600080fd5b506105e160048036038101906105dc9190614bfd565b611326565b005b3480156105ef57600080fd5b5061060a60048036038101906106059190614903565b6113ac565b005b34801561061857600080fd5b506106216114cd565b60405161062e919061589c565b60405180910390f35b34801561064357600080fd5b5061065e60048036038101906106599190614991565b6114d3565b005b34801561066c57600080fd5b50610675611533565b604051610682919061589c565b60405180910390f35b34801561069757600080fd5b506106a0611539565b6040516106ad9190615400565b60405180910390f35b3480156106c257600080fd5b506106dd60048036038101906106d89190614903565b61155f565b6040516106ea919061589c565b60405180910390f35b3480156106ff57600080fd5b506107086115f3565b604051610715919061589c565b60405180910390f35b34801561072a57600080fd5b5061074560048036038101906107409190614a97565b6115f9565b604051610752919061589c565b60405180910390f35b34801561076757600080fd5b5061077061169e565b60405161077d919061589c565b60405180910390f35b34801561079257600080fd5b506107ad60048036038101906107a8919061492c565b6116a4565b005b6107b7611732565b005b3480156107c557600080fd5b506107e060048036038101906107db9190614991565b611849565b005b3480156107ee57600080fd5b5061080960048036038101906108049190614903565b611869565b6040516108169190615482565b60405180910390f35b34801561082b57600080fd5b50610834611963565b005b34801561084257600080fd5b5061085d60048036038101906108589190614bfd565b611c0c565b60405161086a919061589c565b60405180910390f35b34801561087f57600080fd5b5061089a60048036038101906108959190614bbc565b611ca3565b005b3480156108a857600080fd5b506108b1611d39565b6040516108be9190615881565b60405180910390f35b3480156108d357600080fd5b506108dc611da9565b6040516108e99190615400565b60405180910390f35b3480156108fe57600080fd5b5061091960048036038101906109149190614ad3565b611dcf565b005b34801561092757600080fd5b50610942600480360381019061093d9190614c4f565b611f1c565b005b34801561095057600080fd5b5061096b60048036038101906109669190614bfd565b612000565b6040516109789190615400565b60405180910390f35b34801561098d57600080fd5b506109966120b2565b6040516109a391906154bf565b60405180910390f35b3480156109b857600080fd5b506109d360048036038101906109ce9190614903565b612140565b6040516109e0919061589c565b60405180910390f35b3480156109f557600080fd5b506109fe6121f8565b005b348015610a0c57600080fd5b50610a15612280565b604051610a2291906154a4565b60405180910390f35b348015610a3757600080fd5b50610a40612293565b604051610a4d919061589c565b60405180910390f35b348015610a6257600080fd5b50610a6b612299565b604051610a789190615400565b60405180910390f35b348015610a8d57600080fd5b50610aa86004803603810190610aa39190614b18565b6122c3565b005b348015610ab657600080fd5b50610abf61235c565b604051610acc9190615400565b60405180910390f35b348015610ae157600080fd5b50610aea612382565b604051610af791906154bf565b60405180910390f35b348015610b0c57600080fd5b50610b276004803603810190610b229190614bfd565b612414565b005b348015610b3557600080fd5b50610b3e61249a565b604051610b4b919061589c565b60405180910390f35b348015610b6057600080fd5b50610b696124ab565b604051610b76919061589c565b60405180910390f35b610b996004803603810190610b949190614bfd565b6124b1565b005b348015610ba757600080fd5b50610bc26004803603810190610bbd9190614a5b565b61287d565b005b348015610bd057600080fd5b50610bd9612893565b604051610be691906154a4565b60405180910390f35b348015610bfb57600080fd5b50610c166004803603810190610c119190614bfd565b6128a6565b005b348015610c2457600080fd5b50610c2d61292c565b604051610c3a9190615400565b60405180910390f35b348015610c4f57600080fd5b50610c6a6004803603810190610c6591906149e0565b612952565b005b348015610c7857600080fd5b50610c936004803603810190610c8e9190614903565b6129b4565b005b348015610ca157600080fd5b50610caa612a74565b604051610cb7919061589c565b60405180910390f35b348015610ccc57600080fd5b50610cd5612a7a565b604051610ce29190615400565b60405180910390f35b348015610cf757600080fd5b50610d126004803603810190610d0d9190614903565b612aa0565b604051610d1f919061589c565b60405180910390f35b348015610d3457600080fd5b50610d3d612aac565b604051610d4a91906154bf565b60405180910390f35b348015610d5f57600080fd5b50610d7a6004803603810190610d759190614bfd565b612b3a565b604051610d8791906154bf565b60405180910390f35b348015610d9c57600080fd5b50610db76004803603810190610db29190614b18565b612be5565b005b348015610dc557600080fd5b50610dce612c7e565b604051610ddb919061589c565b60405180910390f35b348015610df057600080fd5b50610df9612c88565b604051610e06919061589c565b60405180910390f35b348015610e1b57600080fd5b50610e366004803603810190610e319190614bfd565b612ca9565b005b348015610e4457600080fd5b50610e5f6004803603810190610e5a9190614903565b612d2f565b604051610e6c919061589c565b60405180910390f35b348015610e8157600080fd5b50610e8a612de1565b604051610e97919061589c565b60405180910390f35b348015610eac57600080fd5b50610ec76004803603810190610ec29190614955565b612de7565b604051610ed491906154a4565b60405180910390f35b348015610ee957600080fd5b50610f046004803603810190610eff9190614903565b612e7b565b005b60007f780e9d63000000000000000000000000000000000000000000000000000000007bffffffffffffffffffffffffffffffffffffffffffffffffffffffff1916827bffffffffffffffffffffffffffffffffffffffffffffffffffffffff19161480610f795750610f7882612f73565b5b9050919050565b6000600c54905090565b60256020528060005260406000206000915054906101000a900460ff1681565b606060008054610fb990615bb7565b80601f0160208091040260200160405190810160405280929190818152602001828054610fe590615bb7565b80156110325780601f1061100757610100808354040283529160200191611032565b820191906000526020600020905b81548152906001019060200180831161101557829003601f168201915b5050505050905090565b600061104782613055565b611086576040517f08c379a000000000000000000000000000000000000000000000000000000000815260040161107d90615701565b60405180910390fd5b6004600083815260200190815260200160002060009054906101000a900473ffffffffffffffffffffffffffffffffffffffff169050919050565b6110c96130c1565b73ffffffffffffffffffffffffffffffffffffffff166110e7612299565b73ffffffffffffffffffffffffffffffffffffffff161461113d576040517f08c379a000000000000000000000000000000000000000000000000000000000815260040161113490615741565b60405180910390fd5b80601c8190555050565b600061115282612000565b90508073ffffffffffffffffffffffffffffffffffffffff168373ffffffffffffffffffffffffffffffffffffffff1614156111c3576040517f08c379a00000000000000000000000000000000000000000000000000000000081526004016111ba906157a1565b60405180910390fd5b8073ffffffffffffffffffffffffffffffffffffffff166111e26130c1565b73ffffffffffffffffffffffffffffffffffffffff16148061121157506112108161120b6130c1565b612de7565b5b611250576040517f08c379a000000000000000000000000000000000000000000000000000000000815260040161124790615621565b60405180910390fd5b61125a83836130c9565b505050565b601e5481565b6000600880549050905090565b6000601060009054906101000a900473ffffffffffffffffffffffffffffffffffffffff1673ffffffffffffffffffffffffffffffffffffffff1663a230c524836040518263ffffffff1660e01b81526004016112cf9190615400565b60206040518083038186803b1580156112e757600080fd5b505afa1580156112fb573d6000803e3d6000fd5b505050506040513d601f19601f8201168201806040525081019061131f9190614b41565b9050919050565b61132e6130c1565b73ffffffffffffffffffffffffffffffffffffffff1661134c612299565b73ffffffffffffffffffffffffffffffffffffffff16146113a2576040517f08c379a000000000000000000000000000000000000000000000000000000000815260040161139990615741565b60405180910390fd5b80601a8190555050565b6113b46130c1565b73ffffffffffffffffffffffffffffffffffffffff166113d2612299565b73ffffffffffffffffffffffffffffffffffffffff1614611428576040517f08c379a000000000000000000000000000000000000000000000000000000000815260040161141f90615741565b60405180910390fd5b602560008273ffffffffffffffffffffffffffffffffffffffff1673ffffffffffffffffffffffffffffffffffffffff16815260200190815260200160002060009054906101000a900460ff16156114ca57602560008273ffffffffffffffffffffffffffffffffffffffff1673ffffffffffffffffffffffffffffffffffffffff16815260200190815260200160002060006101000a81549060ff02191690555b50565b601c5481565b6114e46114de6130c1565b82613182565b611523576040517f08c379a000000000000000000000000000000000000000000000000000000000815260040161151a90615801565b60405180910390fd5b61152e838383613260565b505050565b601a5481565b601360009054906101000a900473ffffffffffffffffffffffffffffffffffffffff1681565b6000602560008373ffffffffffffffffffffffffffffffffffffffff1673ffffffffffffffffffffffffffffffffffffffff16815260200190815260200160002060009054906101000a900460ff16156115d057601e546115bf83612140565b10156115cf57601a5490506115ee565b5b6115d982611272565b156115e85760195490506115ee565b60185490505b919050565b60155481565b600061160483612140565b8210611645576040517f08c379a000000000000000000000000000000000000000000000000000000000815260040161163c90615501565b60405180910390fd5b600660008473ffffffffffffffffffffffffffffffffffffffff1673ffffffffffffffffffffffffffffffffffffffff168152602001908152602001600020600083815260200190815260200160002054905092915050565b60185481565b7f000000000000000000000000000000000000000000000000000000000000000073ffffffffffffffffffffffffffffffffffffffff166351cff8d9826040518263ffffffff1660e01b81526004016116fd919061541b565b600060405180830381600087803b15801561171757600080fd5b505af115801561172b573d6000803e3d6000fd5b5050505050565b61173a6130c1565b73ffffffffffffffffffffffffffffffffffffffff16611758612299565b73ffffffffffffffffffffffffffffffffffffffff16146117ae576040517f08c379a00000000000000000000000000000000000000000000000000000000081526004016117a590615741565b60405180910390fd5b6000601460009054906101000a900473ffffffffffffffffffffffffffffffffffffffff1673ffffffffffffffffffffffffffffffffffffffff16476040516117f6906153eb565b60006040518083038185875af1925050503d8060008114611833576040519150601f19603f3d011682016040523d82523d6000602084013e611838565b606091505b505090508061184657600080fd5b50565b61186483838360405180602001604052806000815250612952565b505050565b6060600061187683612140565b905060008167ffffffffffffffff8111156118ba577f4e487b7100000000000000000000000000000000000000000000000000000000600052604160045260246000fd5b6040519080825280602002602001820160405280156118e85781602001602082028036833780820191505090505b50905060005b828110156119585761190085826115f9565b828281518110611939577f4e487b7100000000000000000000000000000000000000000000000000000000600052603260045260246000fd5b602002602001018181525050808061195090615c1a565b9150506118ee565b508092505050919050565b61196b6134bc565b602460019054906101000a900460ff16156119bb576040517f08c379a00000000000000000000000000000000000000000000000000000000081526004016119b2906156e1565b60405180910390fd5b602660003373ffffffffffffffffffffffffffffffffffffffff1673ffffffffffffffffffffffffffffffffffffffff16815260200190815260200160002060009054906101000a900460ff1615611a48576040517f08c379a0000000000000000000000000000000000000000000000000000000008152600401611a3f906154e1565b60405180910390fd5b6000611a52611265565b90506000601260009054906101000a900473ffffffffffffffffffffffffffffffffffffffff1673ffffffffffffffffffffffffffffffffffffffff166370a08231336040518263ffffffff1660e01b8152600401611ab19190615400565b60206040518083038186803b158015611ac957600080fd5b505afa158015611add573d6000803e3d6000fd5b505050506040513d601f19601f82011682018060405250810190611b019190614c26565b90506000600382611b129190615a30565b9050601b548382611b2391906159da565b1115611b64576040517f08c379a0000000000000000000000000000000000000000000000000000000008152600401611b5b906156a1565b60405180910390fd5b6001602660003373ffffffffffffffffffffffffffffffffffffffff1673ffffffffffffffffffffffffffffffffffffffff16815260200190815260200160002060006101000a81548160ff0219169083151502179055506000811115611bff576000600190505b818111611bfd576000611bdd61350c565b9050611be9338261369a565b508080611bf590615c1a565b915050611bcc565b505b505050611c0a6136b8565b565b6000611c16611265565b8210611c57576040517f08c379a0000000000000000000000000000000000000000000000000000000008152600401611c4e90615821565b60405180910390fd5b60088281548110611c91577f4e487b7100000000000000000000000000000000000000000000000000000000600052603260045260246000fd5b90600052602060002001549050919050565b611cab6130c1565b73ffffffffffffffffffffffffffffffffffffffff16611cc9612299565b73ffffffffffffffffffffffffffffffffffffffff1614611d1f576040517f08c379a0000000000000000000000000000000000000000000000000000000008152600401611d1690615741565b60405180910390fd5b8060169080519060200190611d35929190614661565b5050565b611d416146e7565b611d496146e7565b601854816000018181525050601954816020018181525050601a54816040018181525050601b54816060018181525050611d81611265565b816080018181525050601d548160a0018181525050601c548160c00181815250508091505090565b601160009054906101000a900473ffffffffffffffffffffffffffffffffffffffff1681565b611dd76130c1565b73ffffffffffffffffffffffffffffffffffffffff16611df5612299565b73ffffffffffffffffffffffffffffffffffffffff1614611e4b576040517f08c379a0000000000000000000000000000000000000000000000000000000008152600401611e4290615741565b60405180910390fd5b600082829050905060005b81811015611f1657600160256000868685818110611e9d577f4e487b7100000000000000000000000000000000000000000000000000000000600052603260045260246000fd5b9050602002016020810190611eb29190614903565b73ffffffffffffffffffffffffffffffffffffffff1673ffffffffffffffffffffffffffffffffffffffff16815260200190815260200160002060006101000a81548160ff0219169083151502179055508080611f0e90615c1a565b915050611e56565b50505050565b611f246130c1565b73ffffffffffffffffffffffffffffffffffffffff16611f42612299565b73ffffffffffffffffffffffffffffffffffffffff1614611f98576040517f08c379a0000000000000000000000000000000000000000000000000000000008152600401611f8f90615741565b60405180910390fd5b60235482602254611fa991906159da565b1115611fb457600080fd5b6000600190505b828111611ffb57600160226000828254611fd591906159da565b92505081905550611fe88260225461369a565b8080611ff390615c1a565b915050611fbb565b505050565b6000806002600084815260200190815260200160002060009054906101000a900473ffffffffffffffffffffffffffffffffffffffff169050600073ffffffffffffffffffffffffffffffffffffffff168173ffffffffffffffffffffffffffffffffffffffff1614156120a9576040517f08c379a00000000000000000000000000000000000000000000000000000000081526004016120a090615661565b60405180910390fd5b80915050919050565b601680546120bf90615bb7565b80601f01602080910402602001604051908101604052809291908181526020018280546120eb90615bb7565b80156121385780601f1061210d57610100808354040283529160200191612138565b820191906000526020600020905b81548152906001019060200180831161211b57829003601f168201915b505050505081565b60008073ffffffffffffffffffffffffffffffffffffffff168273ffffffffffffffffffffffffffffffffffffffff1614156121b1576040517f08c379a00000000000000000000000000000000000000000000000000000000081526004016121a890615641565b60405180910390fd5b600360008373ffffffffffffffffffffffffffffffffffffffff1673ffffffffffffffffffffffffffffffffffffffff168152602001908152602001600020549050919050565b6122006130c1565b73ffffffffffffffffffffffffffffffffffffffff1661221e612299565b73ffffffffffffffffffffffffffffffffffffffff1614612274576040517f08c379a000000000000000000000000000000000000000000000000000000000815260040161226b90615741565b60405180910390fd5b61227e60006136c2565b565b602460009054906101000a900460ff1681565b60235481565b6000600a60009054906101000a900473ffffffffffffffffffffffffffffffffffffffff16905090565b6122cb6130c1565b73ffffffffffffffffffffffffffffffffffffffff166122e9612299565b73ffffffffffffffffffffffffffffffffffffffff161461233f576040517f08c379a000000000000000000000000000000000000000000000000000000000815260040161233690615741565b60405180910390fd5b80602460016101000a81548160ff02191690831515021790555050565b601060009054906101000a900473ffffffffffffffffffffffffffffffffffffffff1681565b60606001805461239190615bb7565b80601f01602080910402602001604051908101604052809291908181526020018280546123bd90615bb7565b801561240a5780601f106123df5761010080835404028352916020019161240a565b820191906000526020600020905b8154815290600101906020018083116123ed57829003601f168201915b5050505050905090565b61241c6130c1565b73ffffffffffffffffffffffffffffffffffffffff1661243a612299565b73ffffffffffffffffffffffffffffffffffffffff1614612490576040517f08c379a000000000000000000000000000000000000000000000000000000000815260040161248790615741565b60405180910390fd5b8060198190555050565b60006124a6600b613788565b905090565b60195481565b6124b96134bc565b6000602460009054906101000a900460ff161561250b576040517f08c379a0000000000000000000000000000000000000000000000000000000008152600401612502906157c1565b60405180910390fd5b6000612515611265565b90506000831161255a576040517f08c379a000000000000000000000000000000000000000000000000000000000815260040161255190615861565b60405180910390fd5b601c5483111561259f576040517f08c379a0000000000000000000000000000000000000000000000000000000008152600401612596906155e1565b60405180910390fd5b601b5483826125ae91906159da565b11156125ef576040517f08c379a00000000000000000000000000000000000000000000000000000000081526004016125e690615681565b60405180910390fd5b6000600190505b838111612626576126063361155f565b8361261191906159da565b9250808061261e90615c1a565b9150506125f6565b508134101561266a576040517f08c379a0000000000000000000000000000000000000000000000000000000008152600401612661906157e1565b60405180910390fd5b6000601060009054906101000a900473ffffffffffffffffffffffffffffffffffffffff16905060006126ac601f54602154346137969092919063ffffffff16565b90508173ffffffffffffffffffffffffffffffffffffffff16634065da6382601160009054906101000a900473ffffffffffffffffffffffffffffffffffffffff166040518363ffffffff1660e01b815260040161270a9190615400565b6000604051808303818588803b15801561272357600080fd5b505af1158015612737573d6000803e3d6000fd5b505050505060155461276a601360009054906101000a900473ffffffffffffffffffffffffffffffffffffffff16612d2f565b101561283557600061278b602054602154346137969092919063ffffffff16565b9050601554816127bc601360009054906101000a900473ffffffffffffffffffffffffffffffffffffffff16612d2f565b6127c691906159da565b1115612807576127f7601360009054906101000a900473ffffffffffffffffffffffffffffffffffffffff16612d2f565b6015546128049190615abb565b90505b612833601360009054906101000a900473ffffffffffffffffffffffffffffffffffffffff1682613915565b505b6000600190505b85811161286d57600061284d61350c565b9050612859338261369a565b50808061286590615c1a565b91505061283c565b505050505061287a6136b8565b50565b61288f6128886130c1565b83836139a5565b5050565b602460019054906101000a900460ff1681565b6128ae6130c1565b73ffffffffffffffffffffffffffffffffffffffff166128cc612299565b73ffffffffffffffffffffffffffffffffffffffff1614612922576040517f08c379a000000000000000000000000000000000000000000000000000000000815260040161291990615741565b60405180910390fd5b8060188190555050565b601260009054906101000a900473ffffffffffffffffffffffffffffffffffffffff1681565b61296361295d6130c1565b83613182565b6129a2576040517f08c379a000000000000000000000000000000000000000000000000000000000815260040161299990615801565b60405180910390fd5b6129ae84848484613b12565b50505050565b6129bc6130c1565b73ffffffffffffffffffffffffffffffffffffffff166129da612299565b73ffffffffffffffffffffffffffffffffffffffff1614612a30576040517f08c379a0000000000000000000000000000000000000000000000000000000008152600401612a2790615741565b60405180910390fd5b80601360006101000a81548173ffffffffffffffffffffffffffffffffffffffff021916908373ffffffffffffffffffffffffffffffffffffffff16021790555050565b601d5481565b601460009054906101000a900473ffffffffffffffffffffffffffffffffffffffff1681565b6000601c549050919050565b60178054612ab990615bb7565b80601f0160208091040260200160405190810160405280929190818152602001828054612ae590615bb7565b8015612b325780601f10612b0757610100808354040283529160200191612b32565b820191906000526020600020905b815481529060010190602001808311612b1557829003601f168201915b505050505081565b6060612b4582613055565b612b84576040517f08c379a0000000000000000000000000000000000000000000000000000000008152600401612b7b90615781565b60405180910390fd5b600060168054612b9390615bb7565b905011612baf5760405180602001604052806000815250612bde565b6016612bba83613b6e565b6017604051602001612bce939291906153ba565b6040516020818303038152906040525b9050919050565b612bed6130c1565b73ffffffffffffffffffffffffffffffffffffffff16612c0b612299565b73ffffffffffffffffffffffffffffffffffffffff1614612c61576040517f08c379a0000000000000000000000000000000000000000000000000000000008152600401612c5890615741565b60405180910390fd5b80602460006101000a81548160ff02191690831515021790555050565b6000601b54905090565b6000612c9261249a565b612c9a610f80565b612ca49190615abb565b905090565b612cb16130c1565b73ffffffffffffffffffffffffffffffffffffffff16612ccf612299565b73ffffffffffffffffffffffffffffffffffffffff1614612d25576040517f08c379a0000000000000000000000000000000000000000000000000000000008152600401612d1c90615741565b60405180910390fd5b8060158190555050565b60007f000000000000000000000000000000000000000000000000000000000000000073ffffffffffffffffffffffffffffffffffffffff1663e3a9db1a836040518263ffffffff1660e01b8152600401612d8a9190615400565b60206040518083038186803b158015612da257600080fd5b505afa158015612db6573d6000803e3d6000fd5b505050506040513d601f19601f82011682018060405250810190612dda9190614c26565b9050919050565b601b5481565b6000600560008473ffffffffffffffffffffffffffffffffffffffff1673ffffffffffffffffffffffffffffffffffffffff16815260200190815260200160002060008373ffffffffffffffffffffffffffffffffffffffff1673ffffffffffffffffffffffffffffffffffffffff16815260200190815260200160002060009054906101000a900460ff16905092915050565b612e836130c1565b73ffffffffffffffffffffffffffffffffffffffff16612ea1612299565b73ffffffffffffffffffffffffffffffffffffffff1614612ef7576040517f08c379a0000000000000000000000000000000000000000000000000000000008152600401612eee90615741565b60405180910390fd5b600073ffffffffffffffffffffffffffffffffffffffff168173ffffffffffffffffffffffffffffffffffffffff161415612f67576040517f08c379a0000000000000000000000000000000000000000000000000000000008152600401612f5e90615541565b60405180910390fd5b612f70816136c2565b50565b60007f80ac58cd000000000000000000000000000000000000000000000000000000007bffffffffffffffffffffffffffffffffffffffffffffffffffffffff1916827bffffffffffffffffffffffffffffffffffffffffffffffffffffffff1916148061303e57507f5b5e139f000000000000000000000000000000000000000000000000000000007bffffffffffffffffffffffffffffffffffffffffffffffffffffffff1916827bffffffffffffffffffffffffffffffffffffffffffffffffffffffff1916145b8061304e575061304d82613d1b565b5b9050919050565b60008073ffffffffffffffffffffffffffffffffffffffff166002600084815260200190815260200160002060009054906101000a900473ffffffffffffffffffffffffffffffffffffffff1673ffffffffffffffffffffffffffffffffffffffff1614159050919050565b600033905090565b816004600083815260200190815260200160002060006101000a81548173ffffffffffffffffffffffffffffffffffffffff021916908373ffffffffffffffffffffffffffffffffffffffff160217905550808273ffffffffffffffffffffffffffffffffffffffff1661313c83612000565b73ffffffffffffffffffffffffffffffffffffffff167f8c5be1e5ebec7d5bd14f71427d1e84f3dd0314c0f7b2291e5b200ac8c7c3b92560405160405180910390a45050565b600061318d82613055565b6131cc576040517f08c379a00000000000000000000000000000000000000000000000000000000081526004016131c390615601565b60405180910390fd5b60006131d783612000565b90508073ffffffffffffffffffffffffffffffffffffffff168473ffffffffffffffffffffffffffffffffffffffff16148061324657508373ffffffffffffffffffffffffffffffffffffffff1661322e8461103c565b73ffffffffffffffffffffffffffffffffffffffff16145b8061325757506132568185612de7565b5b91505092915050565b8273ffffffffffffffffffffffffffffffffffffffff1661328082612000565b73ffffffffffffffffffffffffffffffffffffffff16146132d6576040517f08c379a00000000000000000000000000000000000000000000000000000000081526004016132cd90615761565b60405180910390fd5b600073ffffffffffffffffffffffffffffffffffffffff168273ffffffffffffffffffffffffffffffffffffffff161415613346576040517f08c379a000000000000000000000000000000000000000000000000000000000815260040161333d90615581565b60405180910390fd5b613351838383613d85565b61335c6000826130c9565b6001600360008573ffffffffffffffffffffffffffffffffffffffff1673ffffffffffffffffffffffffffffffffffffffff16815260200190815260200160002060008282546133ac9190615abb565b925050819055506001600360008473ffffffffffffffffffffffffffffffffffffffff1673ffffffffffffffffffffffffffffffffffffffff168152602001908152602001600020600082825461340391906159da565b92505081905550816002600083815260200190815260200160002060006101000a81548173ffffffffffffffffffffffffffffffffffffffff021916908373ffffffffffffffffffffffffffffffffffffffff160217905550808273ffffffffffffffffffffffffffffffffffffffff168473ffffffffffffffffffffffffffffffffffffffff167fddf252ad1be2c89b69c2b068fc378daa952ba7f163c4a11628f55a4df523b3ef60405160405180910390a4505050565b6002600f541415613502576040517f08c379a00000000000000000000000000000000000000000000000000000000081526004016134f990615841565b60405180910390fd5b6002600f81905550565b600080613517612c88565b11613557576040517f08c379a000000000000000000000000000000000000000000000000000000000815260040161354e906155c1565b60405180910390fd5b600061356161249a565b613569610f80565b6135739190615abb565b9050600081334144454260405160200161359195949392919061535b565b6040516020818303038152906040528051906020012060001c6135b49190615ca3565b9050600080600d60008481526020019081526020016000205414156135db578190506135f2565b600d60008381526020019081526020016000205490505b6000600d60006001866136059190615abb565b8152602001908152602001600020541415613643576001836136279190615abb565b600d60008481526020019081526020016000208190555061367b565b600d60006001856136549190615abb565b815260200190815260200160002054600d6000848152602001908152602001600020819055505b613683613e99565b50600e548161369291906159da565b935050505090565b6136b4828260405180602001604052806000815250613eb9565b5050565b6001600f81905550565b6000600a60009054906101000a900473ffffffffffffffffffffffffffffffffffffffff16905081600a60006101000a81548173ffffffffffffffffffffffffffffffffffffffff021916908373ffffffffffffffffffffffffffffffffffffffff1602179055508173ffffffffffffffffffffffffffffffffffffffff168173ffffffffffffffffffffffffffffffffffffffff167f8be0079c531659141344cd1fd0a4f28419497f9722a3daafe3b4186f6b6457e060405160405180910390a35050565b600081600001549050919050565b60008082116137da576040517f08c379a00000000000000000000000000000000000000000000000000000000081526004016137d190615721565b60405180910390fd5b60008414156137ec576000905061390e565b600083856137fa9190615a61565b90508385826138099190615a30565b141561382357828161381b9190615a30565b91505061390e565b600083866138319190615a30565b9050600084876138419190615ca3565b9050600085876138519190615a30565b9050600086886138619190615ca3565b905061390661388b8861387d8487613f1490919063ffffffff16565b613f2a90919063ffffffff16565b6138f86138a18587613f1490919063ffffffff16565b6138ea6138b7868a613f1490919063ffffffff16565b6138dc8d6138ce8a8d613f1490919063ffffffff16565b613f1490919063ffffffff16565b613f4090919063ffffffff16565b613f4090919063ffffffff16565b613f4090919063ffffffff16565b955050505050505b9392505050565b7f000000000000000000000000000000000000000000000000000000000000000073ffffffffffffffffffffffffffffffffffffffff1663f340fa0182846040518363ffffffff1660e01b815260040161396f9190615400565b6000604051808303818588803b15801561398857600080fd5b505af115801561399c573d6000803e3d6000fd5b50505050505050565b8173ffffffffffffffffffffffffffffffffffffffff168373ffffffffffffffffffffffffffffffffffffffff161415613a14576040517f08c379a0000000000000000000000000000000000000000000000000000000008152600401613a0b906155a1565b60405180910390fd5b80600560008573ffffffffffffffffffffffffffffffffffffffff1673ffffffffffffffffffffffffffffffffffffffff16815260200190815260200160002060008473ffffffffffffffffffffffffffffffffffffffff1673ffffffffffffffffffffffffffffffffffffffff16815260200190815260200160002060006101000a81548160ff0219169083151502179055508173ffffffffffffffffffffffffffffffffffffffff168373ffffffffffffffffffffffffffffffffffffffff167f17307eab39ab6107e8899845ad3d59bd9653f200f220920489ca2b5937696c3183604051613b0591906154a4565b60405180910390a3505050565b613b1d848484613260565b613b2984848484613f56565b613b68576040517f08c379a0000000000000000000000000000000000000000000000000000000008152600401613b5f90615521565b60405180910390fd5b50505050565b60606000821415613bb6576040518060400160405280600181526020017f30000000000000000000000000000000000000000000000000000000000000008152509050613d16565b600082905060005b60008214613be8578080613bd190615c1a565b915050600a82613be19190615a30565b9150613bbe565b60008167ffffffffffffffff811115613c2a577f4e487b7100000000000000000000000000000000000000000000000000000000600052604160045260246000fd5b6040519080825280601f01601f191660200182016040528015613c5c5781602001600182028036833780820191505090505b5090505b60008514613d0f57600182613c759190615abb565b9150600a85613c849190615ca3565b6030613c9091906159da565b60f81b818381518110613ccc577f4e487b7100000000000000000000000000000000000000000000000000000000600052603260045260246000fd5b60200101907effffffffffffffffffffffffffffffffffffffffffffffffffffffffffffff1916908160001a905350600a85613d089190615a30565b9450613c60565b8093505050505b919050565b60007f01ffc9a7000000000000000000000000000000000000000000000000000000007bffffffffffffffffffffffffffffffffffffffffffffffffffffffff1916827bffffffffffffffffffffffffffffffffffffffffffffffffffffffff1916149050919050565b613d908383836140ed565b600073ffffffffffffffffffffffffffffffffffffffff168373ffffffffffffffffffffffffffffffffffffffff161415613dd357613dce816140f2565b613e12565b8173ffffffffffffffffffffffffffffffffffffffff168373ffffffffffffffffffffffffffffffffffffffff1614613e1157613e10838261413b565b5b5b600073ffffffffffffffffffffffffffffffffffffffff168273ffffffffffffffffffffffffffffffffffffffff161415613e5557613e50816142a8565b613e94565b8273ffffffffffffffffffffffffffffffffffffffff168273ffffffffffffffffffffffffffffffffffffffff1614613e9357613e9282826143eb565b5b5b505050565b600080613ea6600b613788565b9050613eb2600b61446a565b8091505090565b613ec38383614480565b613ed06000848484613f56565b613f0f576040517f08c379a0000000000000000000000000000000000000000000000000000000008152600401613f0690615521565b60405180910390fd5b505050565b60008183613f229190615a61565b905092915050565b60008183613f389190615a30565b905092915050565b60008183613f4e91906159da565b905092915050565b6000613f778473ffffffffffffffffffffffffffffffffffffffff1661464e565b156140e0578373ffffffffffffffffffffffffffffffffffffffff1663150b7a02613fa06130c1565b8786866040518563ffffffff1660e01b8152600401613fc29493929190615436565b602060405180830381600087803b158015613fdc57600080fd5b505af192505050801561400d57506040513d601f19601f8201168201806040525081019061400a9190614b93565b60015b614090573d806000811461403d576040519150601f19603f3d011682016040523d82523d6000602084013e614042565b606091505b50600081511415614088576040517f08c379a000000000000000000000000000000000000000000000000000000000815260040161407f90615521565b60405180910390fd5b805181602001fd5b63150b7a0260e01b7bffffffffffffffffffffffffffffffffffffffffffffffffffffffff1916817bffffffffffffffffffffffffffffffffffffffffffffffffffffffff1916149150506140e5565b600190505b949350505050565b505050565b6008805490506009600083815260200190815260200160002081905550600881908060018154018082558091505060019003906000526020600020016000909190919091505550565b6000600161414884612140565b6141529190615abb565b9050600060076000848152602001908152602001600020549050818114614237576000600660008673ffffffffffffffffffffffffffffffffffffffff1673ffffffffffffffffffffffffffffffffffffffff168152602001908152602001600020600084815260200190815260200160002054905080600660008773ffffffffffffffffffffffffffffffffffffffff1673ffffffffffffffffffffffffffffffffffffffff168152602001908152602001600020600084815260200190815260200160002081905550816007600083815260200190815260200160002081905550505b6007600084815260200190815260200160002060009055600660008573ffffffffffffffffffffffffffffffffffffffff1673ffffffffffffffffffffffffffffffffffffffff16815260200190815260200160002060008381526020019081526020016000206000905550505050565b600060016008805490506142bc9190615abb565b9050600060096000848152602001908152602001600020549050600060088381548110614312577f4e487b7100000000000000000000000000000000000000000000000000000000600052603260045260246000fd5b90600052602060002001549050806008838154811061435a577f4e487b7100000000000000000000000000000000000000000000000000000000600052603260045260246000fd5b9060005260206000200181905550816009600083815260200190815260200160002081905550600960008581526020019081526020016000206000905560088054806143cf577f4e487b7100000000000000000000000000000000000000000000000000000000600052603160045260246000fd5b6001900381819060005260206000200160009055905550505050565b60006143f683612140565b905081600660008573ffffffffffffffffffffffffffffffffffffffff1673ffffffffffffffffffffffffffffffffffffffff168152602001908152602001600020600083815260200190815260200160002081905550806007600084815260200190815260200160002081905550505050565b6001816000016000828254019250508190555050565b600073ffffffffffffffffffffffffffffffffffffffff168273ffffffffffffffffffffffffffffffffffffffff1614156144f0576040517f08c379a00000000000000000000000000000000000000000000000000000000081526004016144e7906156c1565b60405180910390fd5b6144f981613055565b15614539576040517f08c379a000000000000000000000000000000000000000000000000000000000815260040161453090615561565b60405180910390fd5b61454560008383613d85565b6001600360008473ffffffffffffffffffffffffffffffffffffffff1673ffffffffffffffffffffffffffffffffffffffff168152602001908152602001600020600082825461459591906159da565b92505081905550816002600083815260200190815260200160002060006101000a81548173ffffffffffffffffffffffffffffffffffffffff021916908373ffffffffffffffffffffffffffffffffffffffff160217905550808273ffffffffffffffffffffffffffffffffffffffff16600073ffffffffffffffffffffffffffffffffffffffff167fddf252ad1be2c89b69c2b068fc378daa952ba7f163c4a11628f55a4df523b3ef60405160405180910390a45050565b600080823b905060008111915050919050565b82805461466d90615bb7565b90600052602060002090601f01602090048101928261468f57600085556146d6565b82601f106146a857805160ff19168380011785556146d6565b828001600101855582156146d6579182015b828111156146d55782518255916020019190600101906146ba565b5b5090506146e39190614724565b5090565b6040518060e00160405280600081526020016000815260200160008152602001600081526020016000815260200160008152602001600081525090565b5b8082111561473d576000816000905550600101614725565b5090565b600061475461474f846158dc565b6158b7565b90508281526020810184848401111561476c57600080fd5b614777848285615b75565b509392505050565b600061479261478d8461590d565b6158b7565b9050828152602081018484840111156147aa57600080fd5b6147b5848285615b75565b509392505050565b6000813590506147cc81616490565b92915050565b6000813590506147e1816164a7565b92915050565b60008083601f8401126147f957600080fd5b8235905067ffffffffffffffff81111561481257600080fd5b60208301915083602082028301111561482a57600080fd5b9250929050565b600081359050614840816164be565b92915050565b600081519050614855816164be565b92915050565b60008135905061486a816164d5565b92915050565b60008151905061487f816164d5565b92915050565b600082601f83011261489657600080fd5b81356148a6848260208601614741565b91505092915050565b600082601f8301126148c057600080fd5b81356148d084826020860161477f565b91505092915050565b6000813590506148e8816164ec565b92915050565b6000815190506148fd816164ec565b92915050565b60006020828403121561491557600080fd5b6000614923848285016147bd565b91505092915050565b60006020828403121561493e57600080fd5b600061494c848285016147d2565b91505092915050565b6000806040838503121561496857600080fd5b6000614976858286016147bd565b9250506020614987858286016147bd565b9150509250929050565b6000806000606084860312156149a657600080fd5b60006149b4868287016147bd565b93505060206149c5868287016147bd565b92505060406149d6868287016148d9565b9150509250925092565b600080600080608085870312156149f657600080fd5b6000614a04878288016147bd565b9450506020614a15878288016147bd565b9350506040614a26878288016148d9565b925050606085013567ffffffffffffffff811115614a4357600080fd5b614a4f87828801614885565b91505092959194509250565b60008060408385031215614a6e57600080fd5b6000614a7c858286016147bd565b9250506020614a8d85828601614831565b9150509250929050565b60008060408385031215614aaa57600080fd5b6000614ab8858286016147bd565b9250506020614ac9858286016148d9565b9150509250929050565b60008060208385031215614ae657600080fd5b600083013567ffffffffffffffff811115614b0057600080fd5b614b0c858286016147e7565b92509250509250929050565b600060208284031215614b2a57600080fd5b6000614b3884828501614831565b91505092915050565b600060208284031215614b5357600080fd5b6000614b6184828501614846565b91505092915050565b600060208284031215614b7c57600080fd5b6000614b8a8482850161485b565b91505092915050565b600060208284031215614ba557600080fd5b6000614bb384828501614870565b91505092915050565b600060208284031215614bce57600080fd5b600082013567ffffffffffffffff811115614be857600080fd5b614bf4848285016148af565b91505092915050565b600060208284031215614c0f57600080fd5b6000614c1d848285016148d9565b91505092915050565b600060208284031215614c3857600080fd5b6000614c46848285016148ee565b91505092915050565b60008060408385031215614c6257600080fd5b6000614c70858286016148d9565b9250506020614c81858286016147bd565b9150509250929050565b6000614c978383615326565b60208301905092915050565b614cac81615b01565b82525050565b614cc3614cbe82615b01565b615c75565b82525050565b614cd281615aef565b82525050565b614ce9614ce482615aef565b615c63565b82525050565b6000614cfa82615963565b614d048185615991565b9350614d0f8361593e565b8060005b83811015614d40578151614d278882614c8b565b9750614d3283615984565b925050600181019050614d13565b5085935050505092915050565b614d5681615b13565b82525050565b6000614d678261596e565b614d7181856159a2565b9350614d81818560208601615b84565b614d8a81615d90565b840191505092915050565b6000614da082615979565b614daa81856159be565b9350614dba818560208601615b84565b614dc381615d90565b840191505092915050565b6000614dd982615979565b614de381856159cf565b9350614df3818560208601615b84565b80840191505092915050565b60008154614e0c81615bb7565b614e1681866159cf565b94506001821660008114614e315760018114614e4257614e75565b60ff19831686528186019350614e75565b614e4b8561594e565b60005b83811015614e6d57815481890152600182019150602081019050614e4e565b838801955050505b50505092915050565b6000614e8b601b836159be565b9150614e9682615dae565b602082019050919050565b6000614eae602b836159be565b9150614eb982615dd7565b604082019050919050565b6000614ed16032836159be565b9150614edc82615e26565b604082019050919050565b6000614ef46026836159be565b9150614eff82615e75565b604082019050919050565b6000614f17601c836159be565b9150614f2282615ec4565b602082019050919050565b6000614f3a6024836159be565b9150614f4582615eed565b604082019050919050565b6000614f5d6019836159be565b9150614f6882615f3c565b602082019050919050565b6000614f806018836159be565b9150614f8b82615f65565b602082019050919050565b6000614fa36028836159be565b9150614fae82615f8e565b604082019050919050565b6000614fc6602c836159be565b9150614fd182615fdd565b604082019050919050565b6000614fe96038836159be565b9150614ff48261602c565b604082019050919050565b600061500c602a836159be565b91506150178261607b565b604082019050919050565b600061502f6029836159be565b915061503a826160ca565b604082019050919050565b60006150526016836159be565b915061505d82616119565b602082019050919050565b60006150756016836159be565b915061508082616142565b602082019050919050565b60006150986020836159be565b91506150a38261616b565b602082019050919050565b60006150bb600f836159be565b91506150c682616194565b602082019050919050565b60006150de602c836159be565b91506150e9826161bd565b604082019050919050565b60006151016010836159be565b915061510c8261620c565b602082019050919050565b60006151246020836159be565b915061512f82616235565b602082019050919050565b60006151476029836159be565b91506151528261625e565b604082019050919050565b600061516a602f836159be565b9150615175826162ad565b604082019050919050565b600061518d6021836159be565b9150615198826162fc565b604082019050919050565b60006151b06011836159be565b91506151bb8261634b565b602082019050919050565b60006151d36000836159b3565b91506151de82616374565b600082019050919050565b60006151f66012836159be565b915061520182616377565b602082019050919050565b60006152196031836159be565b9150615224826163a0565b604082019050919050565b600061523c602c836159be565b9150615247826163ef565b604082019050919050565b600061525f601f836159be565b915061526a8261643e565b602082019050919050565b6000615282601b836159be565b915061528d82616467565b602082019050919050565b60e0820160008201516152ae6000850182615326565b5060208201516152c16020850182615326565b5060408201516152d46040850182615326565b5060608201516152e76060850182615326565b5060808201516152fa6080850182615326565b5060a082015161530d60a0850182615326565b5060c082015161532060c0850182615326565b50505050565b61532f81615b6b565b82525050565b61533e81615b6b565b82525050565b61535561535082615b6b565b615c99565b82525050565b60006153678288614cd8565b6014820191506153778287614cb2565b6014820191506153878286615344565b6020820191506153978285615344565b6020820191506153a78284615344565b6020820191508190509695505050505050565b60006153c68286614dff565b91506153d28285614dce565b91506153de8284614dff565b9150819050949350505050565b60006153f6826151c6565b9150819050919050565b60006020820190506154156000830184614cc9565b92915050565b60006020820190506154306000830184614ca3565b92915050565b600060808201905061544b6000830187614cc9565b6154586020830186614cc9565b6154656040830185615335565b81810360608301526154778184614d5c565b905095945050505050565b6000602082019050818103600083015261549c8184614cef565b905092915050565b60006020820190506154b96000830184614d4d565b92915050565b600060208201905081810360008301526154d98184614d95565b905092915050565b600060208201905081810360008301526154fa81614e7e565b9050919050565b6000602082019050818103600083015261551a81614ea1565b9050919050565b6000602082019050818103600083015261553a81614ec4565b9050919050565b6000602082019050818103600083015261555a81614ee7565b9050919050565b6000602082019050818103600083015261557a81614f0a565b9050919050565b6000602082019050818103600083015261559a81614f2d565b9050919050565b600060208201905081810360008301526155ba81614f50565b9050919050565b600060208201905081810360008301526155da81614f73565b9050919050565b600060208201905081810360008301526155fa81614f96565b9050919050565b6000602082019050818103600083015261561a81614fb9565b9050919050565b6000602082019050818103600083015261563a81614fdc565b9050919050565b6000602082019050818103600083015261565a81614fff565b9050919050565b6000602082019050818103600083015261567a81615022565b9050919050565b6000602082019050818103600083015261569a81615045565b9050919050565b600060208201905081810360008301526156ba81615068565b9050919050565b600060208201905081810360008301526156da8161508b565b9050919050565b600060208201905081810360008301526156fa816150ae565b9050919050565b6000602082019050818103600083015261571a816150d1565b9050919050565b6000602082019050818103600083015261573a816150f4565b9050919050565b6000602082019050818103600083015261575a81615117565b9050919050565b6000602082019050818103600083015261577a8161513a565b9050919050565b6000602082019050818103600083015261579a8161515d565b9050919050565b600060208201905081810360008301526157ba81615180565b9050919050565b600060208201905081810360008301526157da816151a3565b9050919050565b600060208201905081810360008301526157fa816151e9565b9050919050565b6000602082019050818103600083015261581a8161520c565b9050919050565b6000602082019050818103600083015261583a8161522f565b9050919050565b6000602082019050818103600083015261585a81615252565b9050919050565b6000602082019050818103600083015261587a81615275565b9050919050565b600060e0820190506158966000830184615298565b92915050565b60006020820190506158b16000830184615335565b92915050565b60006158c16158d2565b90506158cd8282615be9565b919050565b6000604051905090565b600067ffffffffffffffff8211156158f7576158f6615d61565b5b61590082615d90565b9050602081019050919050565b600067ffffffffffffffff82111561592857615927615d61565b5b61593182615d90565b9050602081019050919050565b6000819050602082019050919050565b60008190508160005260206000209050919050565b600081519050919050565b600081519050919050565b600081519050919050565b6000602082019050919050565b600082825260208201905092915050565b600082825260208201905092915050565b600081905092915050565b600082825260208201905092915050565b600081905092915050565b60006159e582615b6b565b91506159f083615b6b565b9250827fffffffffffffffffffffffffffffffffffffffffffffffffffffffffffffffff03821115615a2557615a24615cd4565b5b828201905092915050565b6000615a3b82615b6b565b9150615a4683615b6b565b925082615a5657615a55615d03565b5b828204905092915050565b6000615a6c82615b6b565b9150615a7783615b6b565b9250817fffffffffffffffffffffffffffffffffffffffffffffffffffffffffffffffff0483118215151615615ab057615aaf615cd4565b5b828202905092915050565b6000615ac682615b6b565b9150615ad183615b6b565b925082821015615ae457615ae3615cd4565b5b828203905092915050565b6000615afa82615b4b565b9050919050565b6000615b0c82615b4b565b9050919050565b60008115159050919050565b60007fffffffff0000000000000000000000000000000000000000000000000000000082169050919050565b600073ffffffffffffffffffffffffffffffffffffffff82169050919050565b6000819050919050565b82818337600083830152505050565b60005b83811015615ba2578082015181840152602081019050615b87565b83811115615bb1576000848401525b50505050565b60006002820490506001821680615bcf57607f821691505b60208210811415615be357615be2615d32565b5b50919050565b615bf282615d90565b810181811067ffffffffffffffff82111715615c1157615c10615d61565b5b80604052505050565b6000615c2582615b6b565b91507fffffffffffffffffffffffffffffffffffffffffffffffffffffffffffffffff821415615c5857615c57615cd4565b5b600182019050919050565b6000615c6e82615c87565b9050919050565b6000615c8082615c87565b9050919050565b6000615c9282615da1565b9050919050565b6000819050919050565b6000615cae82615b6b565b9150615cb983615b6b565b925082615cc957615cc8615d03565b5b828206905092915050565b7f4e487b7100000000000000000000000000000000000000000000000000000000600052601160045260246000fd5b7f4e487b7100000000000000000000000000000000000000000000000000000000600052601260045260246000fd5b7f4e487b7100000000000000000000000000000000000000000000000000000000600052602260045260246000fd5b7f4e487b7100000000000000000000000000000000000000000000000000000000600052604160045260246000fd5b6000601f19601f8301169050919050565b60008160601b9050919050565b7f416464726573732048617320416c726561647920436c61696d65640000000000600082015250565b7f455243373231456e756d657261626c653a206f776e657220696e646578206f7560008201527f74206f6620626f756e6473000000000000000000000000000000000000000000602082015250565b7f4552433732313a207472616e7366657220746f206e6f6e20455243373231526560008201527f63656976657220696d706c656d656e7465720000000000000000000000000000602082015250565b7f4f776e61626c653a206e6577206f776e657220697320746865207a65726f206160008201527f6464726573730000000000000000000000000000000000000000000000000000602082015250565b7f4552433732313a20746f6b656e20616c7265616479206d696e74656400000000600082015250565b7f4552433732313a207472616e7366657220746f20746865207a65726f2061646460008201527f7265737300000000000000000000000000000000000000000000000000000000602082015250565b7f4552433732313a20617070726f766520746f2063616c6c657200000000000000600082015250565b7f4e6f206d6f726520746f6b656e7320617661696c61626c650000000000000000600082015250565b7f6d6178206d696e7420616d6f756e7420706572207472616e73616374696f6e2060008201527f6578636565646564000000000000000000000000000000000000000000000000602082015250565b7f4552433732313a206f70657261746f7220717565727920666f72206e6f6e657860008201527f697374656e7420746f6b656e0000000000000000000000000000000000000000602082015250565b7f4552433732313a20617070726f76652063616c6c6572206973206e6f74206f7760008201527f6e6572206e6f7220617070726f76656420666f7220616c6c0000000000000000602082015250565b7f4552433732313a2062616c616e636520717565727920666f7220746865207a6560008201527f726f206164647265737300000000000000000000000000000000000000000000602082015250565b7f4552433732313a206f776e657220717565727920666f72206e6f6e657869737460008201527f656e7420746f6b656e0000000000000000000000000000000000000000000000602082015250565b7f6d6178204e4654206c696d697420657863656564656400000000000000000000600082015250565b7f4d6178204e4654204c696d697420457863656564656400000000000000000000600082015250565b7f4552433732313a206d696e7420746f20746865207a65726f2061646472657373600082015250565b7f436c61696d206973207061757365640000000000000000000000000000000000600082015250565b7f4552433732313a20617070726f76656420717565727920666f72206e6f6e657860008201527f697374656e7420746f6b656e0000000000000000000000000000000000000000602082015250565b7f4469766973696f6e206279207a65726f00000000000000000000000000000000600082015250565b7f4f776e61626c653a2063616c6c6572206973206e6f7420746865206f776e6572600082015250565b7f4552433732313a207472616e73666572206f6620746f6b656e2074686174206960008201527f73206e6f74206f776e0000000000000000000000000000000000000000000000602082015250565b7f4552433732314d657461646174613a2055524920717565727920666f72206e6f60008201527f6e6578697374656e7420746f6b656e0000000000000000000000000000000000602082015250565b7f4552433732313a20617070726f76616c20746f2063757272656e74206f776e6560008201527f7200000000000000000000000000000000000000000000000000000000000000602082015250565b7f6d696e74696e6720697320706175736564000000000000000000000000000000600082015250565b50565b7f696e73756666696369656e742066756e64730000000000000000000000000000600082015250565b7f4552433732313a207472616e736665722063616c6c6572206973206e6f74206f60008201527f776e6572206e6f7220617070726f766564000000000000000000000000000000602082015250565b7f455243373231456e756d657261626c653a20676c6f62616c20696e646578206f60008201527f7574206f6620626f756e64730000000000000000000000000000000000000000602082015250565b7f5265656e7472616e637947756172643a207265656e7472616e742063616c6c00600082015250565b7f6e65656420746f206d696e74206174206c656173742031204e46540000000000600082015250565b61649981615aef565b81146164a457600080fd5b50565b6164b081615b01565b81146164bb57600080fd5b50565b6164c781615b13565b81146164d257600080fd5b50565b6164de81615b1f565b81146164e957600080fd5b50565b6164f581615b6b565b811461650057600080fd5b5056fea2646970667358221220bedfdefd464235bc01243d8924810184f3a407b912f231f9defdc518237a3ba964736f6c63430008040033608060405234801561001057600080fd5b5061002d61002261003260201b60201c565b61003a60201b60201c565b6100fe565b600033905090565b60008060009054906101000a900473ffffffffffffffffffffffffffffffffffffffff169050816000806101000a81548173ffffffffffffffffffffffffffffffffffffffff021916908373ffffffffffffffffffffffffffffffffffffffff1602179055508173ffffffffffffffffffffffffffffffffffffffff168173ffffffffffffffffffffffffffffffffffffffff167f8be0079c531659141344cd1fd0a4f28419497f9722a3daafe3b4186f6b6457e060405160405180910390a35050565b610bfc8061010d6000396000f3fe6080604052600436106100555760003560e01c806351cff8d91461005a578063715018a6146100835780638da5cb5b1461009a578063e3a9db1a146100c5578063f2fde38b14610102578063f340fa011461012b575b600080fd5b34801561006657600080fd5b50610081600480360381019061007c91906107f5565b610147565b005b34801561008f57600080fd5b506100986102c7565b005b3480156100a657600080fd5b506100af61034f565b6040516100bc9190610900565b60405180910390f35b3480156100d157600080fd5b506100ec60048036038101906100e791906107cc565b610378565b6040516100f9919061099b565b60405180910390f35b34801561010e57600080fd5b50610129600480360381019061012491906107cc565b6103c1565b005b610145600480360381019061014091906107cc565b6104b9565b005b61014f6105e2565b73ffffffffffffffffffffffffffffffffffffffff1661016d61034f565b73ffffffffffffffffffffffffffffffffffffffff16146101c3576040517f08c379a00000000000000000000000000000000000000000000000000000000081526004016101ba9061097b565b60405180910390fd5b6000600160008373ffffffffffffffffffffffffffffffffffffffff1673ffffffffffffffffffffffffffffffffffffffff1681526020019081526020016000205490506000600160008473ffffffffffffffffffffffffffffffffffffffff1673ffffffffffffffffffffffffffffffffffffffff16815260200190815260200160002081905550610275818373ffffffffffffffffffffffffffffffffffffffff166105ea90919063ffffffff16565b8173ffffffffffffffffffffffffffffffffffffffff167f7084f5476618d8e60b11ef0d7d3f06914655adb8793e28ff7f018d4c76d505d5826040516102bb919061099b565b60405180910390a25050565b6102cf6105e2565b73ffffffffffffffffffffffffffffffffffffffff166102ed61034f565b73ffffffffffffffffffffffffffffffffffffffff1614610343576040517f08c379a000000000000000000000000000000000000000000000000000000000815260040161033a9061097b565b60405180910390fd5b61034d60006106de565b565b60008060009054906101000a900473ffffffffffffffffffffffffffffffffffffffff16905090565b6000600160008373ffffffffffffffffffffffffffffffffffffffff1673ffffffffffffffffffffffffffffffffffffffff168152602001908152602001600020549050919050565b6103c96105e2565b73ffffffffffffffffffffffffffffffffffffffff166103e761034f565b73ffffffffffffffffffffffffffffffffffffffff161461043d576040517f08c379a00000000000000000000000000000000000000000000000000000000081526004016104349061097b565b60405180910390fd5b600073ffffffffffffffffffffffffffffffffffffffff168173ffffffffffffffffffffffffffffffffffffffff1614156104ad576040517f08c379a00000000000000000000000000000000000000000000000000000000081526004016104a49061091b565b60405180910390fd5b6104b6816106de565b50565b6104c16105e2565b73ffffffffffffffffffffffffffffffffffffffff166104df61034f565b73ffffffffffffffffffffffffffffffffffffffff1614610535576040517f08c379a000000000000000000000000000000000000000000000000000000000815260040161052c9061097b565b60405180910390fd5b600034905080600160008473ffffffffffffffffffffffffffffffffffffffff1673ffffffffffffffffffffffffffffffffffffffff168152602001908152602001600020600082825461058991906109d2565b925050819055508173ffffffffffffffffffffffffffffffffffffffff167f2da466a7b24304f47e87fa2e1e5a81b9831ce54fec19055ce277ca2f39ba42c4826040516105d6919061099b565b60405180910390a25050565b600033905090565b8047101561062d576040517f08c379a00000000000000000000000000000000000000000000000000000000081526004016106249061095b565b60405180910390fd5b60008273ffffffffffffffffffffffffffffffffffffffff1682604051610653906108eb565b60006040518083038185875af1925050503d8060008114610690576040519150601f19603f3d011682016040523d82523d6000602084013e610695565b606091505b50509050806106d9576040517f08c379a00000000000000000000000000000000000000000000000000000000081526004016106d09061093b565b60405180910390fd5b505050565b60008060009054906101000a900473ffffffffffffffffffffffffffffffffffffffff169050816000806101000a81548173ffffffffffffffffffffffffffffffffffffffff021916908373ffffffffffffffffffffffffffffffffffffffff1602179055508173ffffffffffffffffffffffffffffffffffffffff168173ffffffffffffffffffffffffffffffffffffffff167f8be0079c531659141344cd1fd0a4f28419497f9722a3daafe3b4186f6b6457e060405160405180910390a35050565b6000813590506107b181610b98565b92915050565b6000813590506107c681610baf565b92915050565b6000602082840312156107de57600080fd5b60006107ec848285016107a2565b91505092915050565b60006020828403121561080757600080fd5b6000610815848285016107b7565b91505092915050565b61082781610a28565b82525050565b600061083a6026836109c1565b915061084582610aa5565b604082019050919050565b600061085d603a836109c1565b915061086882610af4565b604082019050919050565b6000610880601d836109c1565b915061088b82610b43565b602082019050919050565b60006108a36020836109c1565b91506108ae82610b6c565b602082019050919050565b60006108c66000836109b6565b91506108d182610b95565b600082019050919050565b6108e581610a6c565b82525050565b60006108f6826108b9565b9150819050919050565b6000602082019050610915600083018461081e565b92915050565b600060208201905081810360008301526109348161082d565b9050919050565b6000602082019050818103600083015261095481610850565b9050919050565b6000602082019050818103600083015261097481610873565b9050919050565b6000602082019050818103600083015261099481610896565b9050919050565b60006020820190506109b060008301846108dc565b92915050565b600081905092915050565b600082825260208201905092915050565b60006109dd82610a6c565b91506109e883610a6c565b9250827fffffffffffffffffffffffffffffffffffffffffffffffffffffffffffffffff03821115610a1d57610a1c610a76565b5b828201905092915050565b6000610a3382610a4c565b9050919050565b6000610a4582610a4c565b9050919050565b600073ffffffffffffffffffffffffffffffffffffffff82169050919050565b6000819050919050565b7f4e487b7100000000000000000000000000000000000000000000000000000000600052601160045260246000fd5b7f4f776e61626c653a206e6577206f776e657220697320746865207a65726f206160008201527f6464726573730000000000000000000000000000000000000000000000000000602082015250565b7f416464726573733a20756e61626c6520746f2073656e642076616c75652c207260008201527f6563697069656e74206d61792068617665207265766572746564000000000000602082015250565b7f416464726573733a20696e73756666696369656e742062616c616e6365000000600082015250565b7f4f776e61626c653a2063616c6c6572206973206e6f7420746865206f776e6572600082015250565b50565b610ba181610a28565b8114610bac57600080fd5b50565b610bb881610a3a565b8114610bc357600080fd5b5056fea2646970667358221220da43c3e6dfb884450e4c8d9d8e7fd0d6db837d91cdd6cadc3ab84266935ec3e964736f6c63430008040033",
  "linkReferences": {},
  "deployedLinkReferences": {}
}