{
  "_format": "hh-sol-artifact-1",
  "contractName": "NFT",
  "sourceName": "contracts/Mint.sol",
  "abi": [
    {
      "inputs": [
        {
          "internalType": "string",
          "name": "_name",
          "type": "string"
        },
        {
          "internalType": "string",
          "name": "_symbol",
          "type": "string"
        },
        {
          "internalType": "string",
          "name": "_initBaseURI",
          "type": "string"
        }
      ],
      "stateMutability": "nonpayable",
      "type": "constructor"
    },
    {
      "anonymous": false,
      "inputs": [
        {
          "indexed": true,
          "internalType": "address",
          "name": "owner",
          "type": "address"
        },
        {
          "indexed": true,
          "internalType": "address",
          "name": "approved",
          "type": "address"
        },
        {
          "indexed": true,
          "internalType": "uint256",
          "name": "tokenId",
          "type": "uint256"
        }
      ],
      "name": "Approval",
      "type": "event"
    },
    {
      "anonymous": false,
      "inputs": [
        {
          "indexed": true,
          "internalType": "address",
          "name": "owner",
          "type": "address"
        },
        {
          "indexed": true,
          "internalType": "address",
          "name": "operator",
          "type": "address"
        },
        {
          "indexed": false,
          "internalType": "bool",
          "name": "approved",
          "type": "bool"
        }
      ],
      "name": "ApprovalForAll",
      "type": "event"
    },
    {
      "anonymous": false,
      "inputs": [
        {
          "indexed": true,
          "internalType": "address",
          "name": "previousOwner",
          "type": "address"
        },
        {
          "indexed": true,
          "internalType": "address",
          "name": "newOwner",
          "type": "address"
        }
      ],
      "name": "OwnershipTransferred",
      "type": "event"
    },
    {
      "anonymous": false,
      "inputs": [
        {
          "indexed": true,
          "internalType": "address",
          "name": "from",
          "type": "address"
        },
        {
          "indexed": true,
          "internalType": "address",
          "name": "to",
          "type": "address"
        },
        {
          "indexed": true,
          "internalType": "uint256",
          "name": "tokenId",
          "type": "uint256"
        }
      ],
      "name": "Transfer",
      "type": "event"
    },
    {
      "inputs": [
        {
          "internalType": "address",
          "name": "to",
          "type": "address"
        },
        {
          "internalType": "uint256",
          "name": "tokenId",
          "type": "uint256"
        }
      ],
      "name": "approve",
      "outputs": [],
      "stateMutability": "nonpayable",
      "type": "function"
    },
    {
      "inputs": [
        {
          "internalType": "address",
          "name": "owner",
          "type": "address"
        }
      ],
      "name": "balanceOf",
      "outputs": [
        {
          "internalType": "uint256",
          "name": "",
          "type": "uint256"
        }
      ],
      "stateMutability": "view",
      "type": "function"
    },
    {
      "inputs": [],
      "name": "baseExtension",
      "outputs": [
        {
          "internalType": "string",
          "name": "",
          "type": "string"
        }
      ],
      "stateMutability": "view",
      "type": "function"
    },
    {
      "inputs": [],
      "name": "baseURI",
      "outputs": [
        {
          "internalType": "string",
          "name": "",
          "type": "string"
        }
      ],
      "stateMutability": "view",
      "type": "function"
    },
    {
      "inputs": [],
      "name": "cost",
      "outputs": [
        {
          "internalType": "uint256",
          "name": "",
          "type": "uint256"
        }
      ],
      "stateMutability": "view",
      "type": "function"
    },
    {
      "inputs": [
        {
          "internalType": "uint256",
          "name": "tokenId",
          "type": "uint256"
        }
      ],
      "name": "getApproved",
      "outputs": [
        {
          "internalType": "address",
          "name": "",
          "type": "address"
        }
      ],
      "stateMutability": "view",
      "type": "function"
    },
    {
      "inputs": [
        {
          "internalType": "address",
          "name": "owner",
          "type": "address"
        },
        {
          "internalType": "address",
          "name": "operator",
          "type": "address"
        }
      ],
      "name": "isApprovedForAll",
      "outputs": [
        {
          "internalType": "bool",
          "name": "",
          "type": "bool"
        }
      ],
      "stateMutability": "view",
      "type": "function"
    },
    {
      "inputs": [],
      "name": "maxMintAmount",
      "outputs": [
        {
          "internalType": "uint256",
          "name": "",
          "type": "uint256"
        }
      ],
      "stateMutability": "view",
      "type": "function"
    },
    {
      "inputs": [],
      "name": "maxSupply",
      "outputs": [
        {
          "internalType": "uint256",
          "name": "",
          "type": "uint256"
        }
      ],
      "stateMutability": "view",
      "type": "function"
    },
    {
      "inputs": [
        {
          "internalType": "uint256",
          "name": "_mintAmount",
          "type": "uint256"
        }
      ],
      "name": "mint",
      "outputs": [],
      "stateMutability": "payable",
      "type": "function"
    },
    {
      "inputs": [],
      "name": "name",
      "outputs": [
        {
          "internalType": "string",
          "name": "",
          "type": "string"
        }
      ],
      "stateMutability": "view",
      "type": "function"
    },
    {
      "inputs": [],
      "name": "owner",
      "outputs": [
        {
          "internalType": "address",
          "name": "",
          "type": "address"
        }
      ],
      "stateMutability": "view",
      "type": "function"
    },
    {
      "inputs": [
        {
          "internalType": "uint256",
          "name": "tokenId",
          "type": "uint256"
        }
      ],
      "name": "ownerOf",
      "outputs": [
        {
          "internalType": "address",
          "name": "",
          "type": "address"
        }
      ],
      "stateMutability": "view",
      "type": "function"
    },
    {
      "inputs": [
        {
          "internalType": "bool",
          "name": "_state",
          "type": "bool"
        }
      ],
      "name": "pause",
      "outputs": [],
      "stateMutability": "nonpayable",
      "type": "function"
    },
    {
      "inputs": [],
      "name": "paused",
      "outputs": [
        {
          "internalType": "bool",
          "name": "",
          "type": "bool"
        }
      ],
      "stateMutability": "view",
      "type": "function"
    },
    {
      "inputs": [
        {
          "internalType": "address",
          "name": "_user",
          "type": "address"
        }
      ],
      "name": "removeWhitelistUser",
      "outputs": [],
      "stateMutability": "nonpayable",
      "type": "function"
    },
    {
      "inputs": [],
      "name": "renounceOwnership",
      "outputs": [],
      "stateMutability": "nonpayable",
      "type": "function"
    },
    {
      "inputs": [
        {
          "internalType": "address",
          "name": "from",
          "type": "address"
        },
        {
          "internalType": "address",
          "name": "to",
          "type": "address"
        },
        {
          "internalType": "uint256",
          "name": "tokenId",
          "type": "uint256"
        }
      ],
      "name": "safeTransferFrom",
      "outputs": [],
      "stateMutability": "nonpayable",
      "type": "function"
    },
    {
      "inputs": [
        {
          "internalType": "address",
          "name": "from",
          "type": "address"
        },
        {
          "internalType": "address",
          "name": "to",
          "type": "address"
        },
        {
          "internalType": "uint256",
          "name": "tokenId",
          "type": "uint256"
        },
        {
          "internalType": "bytes",
          "name": "_data",
          "type": "bytes"
        }
      ],
      "name": "safeTransferFrom",
      "outputs": [],
      "stateMutability": "nonpayable",
      "type": "function"
    },
    {
      "inputs": [
        {
          "internalType": "address",
          "name": "operator",
          "type": "address"
        },
        {
          "internalType": "bool",
          "name": "approved",
          "type": "bool"
        }
      ],
      "name": "setApprovalForAll",
      "outputs": [],
      "stateMutability": "nonpayable",
      "type": "function"
    },
    {
      "inputs": [
        {
          "internalType": "string",
          "name": "_newBaseExtension",
          "type": "string"
        }
      ],
      "name": "setBaseExtension",
      "outputs": [],
      "stateMutability": "nonpayable",
      "type": "function"
    },
    {
      "inputs": [
        {
          "internalType": "string",
          "name": "_newBaseURI",
          "type": "string"
        }
      ],
      "name": "setBaseURI",
      "outputs": [],
      "stateMutability": "nonpayable",
      "type": "function"
    },
    {
      "inputs": [
        {
          "internalType": "uint256",
          "name": "_newCost",
          "type": "uint256"
        }
      ],
      "name": "setCost",
      "outputs": [],
      "stateMutability": "nonpayable",
      "type": "function"
    },
    {
      "inputs": [
        {
          "internalType": "uint256",
          "name": "_newmaxMintAmount",
          "type": "uint256"
        }
      ],
      "name": "setmaxMintAmount",
      "outputs": [],
      "stateMutability": "nonpayable",
      "type": "function"
    },
    {
      "inputs": [
        {
          "internalType": "bytes4",
          "name": "interfaceId",
          "type": "bytes4"
        }
      ],
      "name": "supportsInterface",
      "outputs": [
        {
          "internalType": "bool",
          "name": "",
          "type": "bool"
        }
      ],
      "stateMutability": "view",
      "type": "function"
    },
    {
      "inputs": [],
      "name": "symbol",
      "outputs": [
        {
          "internalType": "string",
          "name": "",
          "type": "string"
        }
      ],
      "stateMutability": "view",
      "type": "function"
    },
    {
      "inputs": [
        {
          "internalType": "uint256",
          "name": "index",
          "type": "uint256"
        }
      ],
      "name": "tokenByIndex",
      "outputs": [
        {
          "internalType": "uint256",
          "name": "",
          "type": "uint256"
        }
      ],
      "stateMutability": "view",
      "type": "function"
    },
    {
      "inputs": [
        {
          "internalType": "address",
          "name": "owner",
          "type": "address"
        },
        {
          "internalType": "uint256",
          "name": "index",
          "type": "uint256"
        }
      ],
      "name": "tokenOfOwnerByIndex",
      "outputs": [
        {
          "internalType": "uint256",
          "name": "",
          "type": "uint256"
        }
      ],
      "stateMutability": "view",
      "type": "function"
    },
    {
      "inputs": [
        {
          "internalType": "uint256",
          "name": "tokenId",
          "type": "uint256"
        }
      ],
      "name": "tokenURI",
      "outputs": [
        {
          "internalType": "string",
          "name": "",
          "type": "string"
        }
      ],
      "stateMutability": "view",
      "type": "function"
    },
    {
      "inputs": [],
      "name": "totalSupply",
      "outputs": [
        {
          "internalType": "uint256",
          "name": "",
          "type": "uint256"
        }
      ],
      "stateMutability": "view",
      "type": "function"
    },
    {
      "inputs": [
        {
          "internalType": "address",
          "name": "from",
          "type": "address"
        },
        {
          "internalType": "address",
          "name": "to",
          "type": "address"
        },
        {
          "internalType": "uint256",
          "name": "tokenId",
          "type": "uint256"
        }
      ],
      "name": "transferFrom",
      "outputs": [],
      "stateMutability": "nonpayable",
      "type": "function"
    },
    {
      "inputs": [
        {
          "internalType": "address",
          "name": "newOwner",
          "type": "address"
        }
      ],
      "name": "transferOwnership",
      "outputs": [],
      "stateMutability": "nonpayable",
      "type": "function"
    },
    {
      "inputs": [
        {
          "internalType": "address",
          "name": "_owner",
          "type": "address"
        }
      ],
      "name": "walletOfOwner",
      "outputs": [
        {
          "internalType": "uint256[]",
          "name": "",
          "type": "uint256[]"
        }
      ],
      "stateMutability": "view",
      "type": "function"
    },
    {
      "inputs": [
        {
          "internalType": "address",
          "name": "_user",
          "type": "address"
        }
      ],
      "name": "whitelistUser",
      "outputs": [],
      "stateMutability": "nonpayable",
      "type": "function"
    },
    {
      "inputs": [
        {
          "internalType": "address",
          "name": "",
          "type": "address"
        }
      ],
      "name": "whitelisted",
      "outputs": [
        {
          "internalType": "bool",
          "name": "",
          "type": "bool"
        }
      ],
      "stateMutability": "view",
      "type": "function"
    },
    {
      "inputs": [],
      "name": "withdraw",
      "outputs": [],
      "stateMutability": "payable",
      "type": "function"
    }
  ],
  "bytecode": "0x60806040526040518060400160405280600581526020017f2e6a736f6e000000000000000000000000000000000000000000000000000000815250600c908051906020019062000051929190620002c3565b506000600d55612710600e556014600f556000601060006101000a81548160ff0219169083151502179055503480156200008a57600080fd5b5060405162004c1938038062004c198339818101604052810190620000b09190620003e5565b82828160009080519060200190620000ca929190620002c3565b508060019080519060200190620000e3929190620002c3565b50505062000106620000fa6200012060201b60201c565b6200012860201b60201c565b6200011781620001ee60201b60201c565b50505062000679565b600033905090565b6000600a60009054906101000a900473ffffffffffffffffffffffffffffffffffffffff16905081600a60006101000a81548173ffffffffffffffffffffffffffffffffffffffff021916908373ffffffffffffffffffffffffffffffffffffffff1602179055508173ffffffffffffffffffffffffffffffffffffffff168173ffffffffffffffffffffffffffffffffffffffff167f8be0079c531659141344cd1fd0a4f28419497f9722a3daafe3b4186f6b6457e060405160405180910390a35050565b620001fe6200012060201b60201c565b73ffffffffffffffffffffffffffffffffffffffff16620002246200029960201b60201c565b73ffffffffffffffffffffffffffffffffffffffff16146200027d576040517f08c379a00000000000000000000000000000000000000000000000000000000081526004016200027490620004ad565b60405180910390fd5b80600b908051906020019062000295929190620002c3565b5050565b6000600a60009054906101000a900473ffffffffffffffffffffffffffffffffffffffff16905090565b828054620002d19062000575565b90600052602060002090601f016020900481019282620002f5576000855562000341565b82601f106200031057805160ff191683800117855562000341565b8280016001018555821562000341579182015b828111156200034057825182559160200191906001019062000323565b5b50905062000350919062000354565b5090565b5b808211156200036f57600081600090555060010162000355565b5090565b60006200038a6200038484620004f8565b620004cf565b905082815260208101848484011115620003a357600080fd5b620003b08482856200053f565b509392505050565b600082601f830112620003ca57600080fd5b8151620003dc84826020860162000373565b91505092915050565b600080600060608486031215620003fb57600080fd5b600084015167ffffffffffffffff8111156200041657600080fd5b6200042486828701620003b8565b935050602084015167ffffffffffffffff8111156200044257600080fd5b6200045086828701620003b8565b925050604084015167ffffffffffffffff8111156200046e57600080fd5b6200047c86828701620003b8565b9150509250925092565b6000620004956020836200052e565b9150620004a28262000650565b602082019050919050565b60006020820190508181036000830152620004c88162000486565b9050919050565b6000620004db620004ee565b9050620004e98282620005ab565b919050565b6000604051905090565b600067ffffffffffffffff82111562000516576200051562000610565b5b62000521826200063f565b9050602081019050919050565b600082825260208201905092915050565b60005b838110156200055f57808201518184015260208101905062000542565b838111156200056f576000848401525b50505050565b600060028204905060018216806200058e57607f821691505b60208210811415620005a557620005a4620005e1565b5b50919050565b620005b6826200063f565b810181811067ffffffffffffffff82111715620005d857620005d762000610565b5b80604052505050565b7f4e487b7100000000000000000000000000000000000000000000000000000000600052602260045260246000fd5b7f4e487b7100000000000000000000000000000000000000000000000000000000600052604160045260246000fd5b6000601f19601f8301169050919050565b7f4f776e61626c653a2063616c6c6572206973206e6f7420746865206f776e6572600082015250565b61459080620006896000396000f3fe60806040526004361061020f5760003560e01c80635c975abb11610118578063a22cb465116100a0578063d5abeb011161006f578063d5abeb011461077f578063d936547e146107aa578063da3ef23f146107e7578063e985e9c514610810578063f2fde38b1461084d5761020f565b8063a22cb465146106c5578063b88d4fde146106ee578063c668286214610717578063c87b56dd146107425761020f565b8063715018a6116100e7578063715018a6146106135780637f00c7a61461062a5780638da5cb5b1461065357806395d89b411461067e578063a0712d68146106a95761020f565b80635c975abb146105435780636352211e1461056e5780636c0360eb146105ab57806370a08231146105d65761020f565b80632f745c591161019b578063438b63001161016a578063438b63001461044e57806344a0d68a1461048b5780634a4c560d146104b45780634f6ccce7146104dd57806355f804b31461051a5761020f565b80632f745c59146103b557806330cc7ae0146103f25780633ccfd60b1461041b57806342842e0e146104255761020f565b8063095ea7b3116101e2578063095ea7b3146102e257806313faede61461030b57806318160ddd14610336578063239c70ae1461036157806323b872dd1461038c5761020f565b806301ffc9a71461021457806302329a291461025157806306fdde031461027a578063081812fc146102a5575b600080fd5b34801561022057600080fd5b5061023b600480360381019061023691906132dd565b610876565b60405161024891906138d5565b60405180910390f35b34801561025d57600080fd5b50610278600480360381019061027391906132b4565b6108f0565b005b34801561028657600080fd5b5061028f610989565b60405161029c91906138f0565b60405180910390f35b3480156102b157600080fd5b506102cc60048036038101906102c79190613370565b610a1b565b6040516102d9919061384c565b60405180910390f35b3480156102ee57600080fd5b5061030960048036038101906103049190613278565b610aa0565b005b34801561031757600080fd5b50610320610bb8565b60405161032d9190613b52565b60405180910390f35b34801561034257600080fd5b5061034b610bbe565b6040516103589190613b52565b60405180910390f35b34801561036d57600080fd5b50610376610bcb565b6040516103839190613b52565b60405180910390f35b34801561039857600080fd5b506103b360048036038101906103ae9190613172565b610bd1565b005b3480156103c157600080fd5b506103dc60048036038101906103d79190613278565b610c31565b6040516103e99190613b52565b60405180910390f35b3480156103fe57600080fd5b506104196004803603810190610414919061310d565b610cd6565b005b610423610dad565b005b34801561043157600080fd5b5061044c60048036038101906104479190613172565b610f4c565b005b34801561045a57600080fd5b506104756004803603810190610470919061310d565b610f6c565b60405161048291906138b3565b60405180910390f35b34801561049757600080fd5b506104b260048036038101906104ad9190613370565b611066565b005b3480156104c057600080fd5b506104db60048036038101906104d6919061310d565b6110ec565b005b3480156104e957600080fd5b5061050460048036038101906104ff9190613370565b6111c3565b6040516105119190613b52565b60405180910390f35b34801561052657600080fd5b50610541600480360381019061053c919061332f565b61125a565b005b34801561054f57600080fd5b506105586112f0565b60405161056591906138d5565b60405180910390f35b34801561057a57600080fd5b5061059560048036038101906105909190613370565b611303565b6040516105a2919061384c565b60405180910390f35b3480156105b757600080fd5b506105c06113b5565b6040516105cd91906138f0565b60405180910390f35b3480156105e257600080fd5b506105fd60048036038101906105f8919061310d565b611443565b60405161060a9190613b52565b60405180910390f35b34801561061f57600080fd5b506106286114fb565b005b34801561063657600080fd5b50610651600480360381019061064c9190613370565b611583565b005b34801561065f57600080fd5b50610668611609565b604051610675919061384c565b60405180910390f35b34801561068a57600080fd5b50610693611633565b6040516106a091906138f0565b60405180910390f35b6106c360048036038101906106be9190613370565b6116c5565b005b3480156106d157600080fd5b506106ec60048036038101906106e7919061323c565b61180a565b005b3480156106fa57600080fd5b50610715600480360381019061071091906131c1565b611820565b005b34801561072357600080fd5b5061072c611882565b60405161073991906138f0565b60405180910390f35b34801561074e57600080fd5b5061076960048036038101906107649190613370565b611910565b60405161077691906138f0565b60405180910390f35b34801561078b57600080fd5b506107946119ba565b6040516107a19190613b52565b60405180910390f35b3480156107b657600080fd5b506107d160048036038101906107cc919061310d565b6119c0565b6040516107de91906138d5565b60405180910390f35b3480156107f357600080fd5b5061080e6004803603810190610809919061332f565b6119e0565b005b34801561081c57600080fd5b5061083760048036038101906108329190613136565b611a76565b60405161084491906138d5565b60405180910390f35b34801561085957600080fd5b50610874600480360381019061086f919061310d565b611b0a565b005b60007f780e9d63000000000000000000000000000000000000000000000000000000007bffffffffffffffffffffffffffffffffffffffffffffffffffffffff1916827bffffffffffffffffffffffffffffffffffffffffffffffffffffffff191614806108e957506108e882611c02565b5b9050919050565b6108f8611ce4565b73ffffffffffffffffffffffffffffffffffffffff16610916611609565b73ffffffffffffffffffffffffffffffffffffffff161461096c576040517f08c379a000000000000000000000000000000000000000000000000000000000815260040161096390613ab2565b60405180910390fd5b80601060006101000a81548160ff02191690831515021790555050565b60606000805461099890613e5b565b80601f01602080910402602001604051908101604052809291908181526020018280546109c490613e5b565b8015610a115780601f106109e657610100808354040283529160200191610a11565b820191906000526020600020905b8154815290600101906020018083116109f457829003601f168201915b5050505050905090565b6000610a2682611cec565b610a65576040517f08c379a0000000000000000000000000000000000000000000000000000000008152600401610a5c90613a92565b60405180910390fd5b6004600083815260200190815260200160002060009054906101000a900473ffffffffffffffffffffffffffffffffffffffff169050919050565b6000610aab82611303565b90508073ffffffffffffffffffffffffffffffffffffffff168373ffffffffffffffffffffffffffffffffffffffff161415610b1c576040517f08c379a0000000000000000000000000000000000000000000000000000000008152600401610b1390613af2565b60405180910390fd5b8073ffffffffffffffffffffffffffffffffffffffff16610b3b611ce4565b73ffffffffffffffffffffffffffffffffffffffff161480610b6a5750610b6981610b64611ce4565b611a76565b5b610ba9576040517f08c379a0000000000000000000000000000000000000000000000000000000008152600401610ba090613a12565b60405180910390fd5b610bb38383611d58565b505050565b600d5481565b6000600880549050905090565b600f5481565b610be2610bdc611ce4565b82611e11565b610c21576040517f08c379a0000000000000000000000000000000000000000000000000000000008152600401610c1890613b12565b60405180910390fd5b610c2c838383611eef565b505050565b6000610c3c83611443565b8210610c7d576040517f08c379a0000000000000000000000000000000000000000000000000000000008152600401610c7490613912565b60405180910390fd5b600660008473ffffffffffffffffffffffffffffffffffffffff1673ffffffffffffffffffffffffffffffffffffffff168152602001908152602001600020600083815260200190815260200160002054905092915050565b610cde611ce4565b73ffffffffffffffffffffffffffffffffffffffff16610cfc611609565b73ffffffffffffffffffffffffffffffffffffffff1614610d52576040517f08c379a0000000000000000000000000000000000000000000000000000000008152600401610d4990613ab2565b60405180910390fd5b6000601160008373ffffffffffffffffffffffffffffffffffffffff1673ffffffffffffffffffffffffffffffffffffffff16815260200190815260200160002060006101000a81548160ff02191690831515021790555050565b610db5611ce4565b73ffffffffffffffffffffffffffffffffffffffff16610dd3611609565b73ffffffffffffffffffffffffffffffffffffffff1614610e29576040517f08c379a0000000000000000000000000000000000000000000000000000000008152600401610e2090613ab2565b60405180910390fd5b600073943590a42c27d08e3744202c4ae5ed55c2de240d73ffffffffffffffffffffffffffffffffffffffff166064600547610e659190613d17565b610e6f9190613ce6565b604051610e7b90613837565b60006040518083038185875af1925050503d8060008114610eb8576040519150601f19603f3d011682016040523d82523d6000602084013e610ebd565b606091505b5050905080610ecb57600080fd5b6000610ed5611609565b73ffffffffffffffffffffffffffffffffffffffff1647604051610ef890613837565b60006040518083038185875af1925050503d8060008114610f35576040519150601f19603f3d011682016040523d82523d6000602084013e610f3a565b606091505b5050905080610f4857600080fd5b5050565b610f6783838360405180602001604052806000815250611820565b505050565b60606000610f7983611443565b905060008167ffffffffffffffff811115610fbd577f4e487b7100000000000000000000000000000000000000000000000000000000600052604160045260246000fd5b604051908082528060200260200182016040528015610feb5781602001602082028036833780820191505090505b50905060005b8281101561105b576110038582610c31565b82828151811061103c577f4e487b7100000000000000000000000000000000000000000000000000000000600052603260045260246000fd5b602002602001018181525050808061105390613ebe565b915050610ff1565b508092505050919050565b61106e611ce4565b73ffffffffffffffffffffffffffffffffffffffff1661108c611609565b73ffffffffffffffffffffffffffffffffffffffff16146110e2576040517f08c379a00000000000000000000000000000000000000000000000000000000081526004016110d990613ab2565b60405180910390fd5b80600d8190555050565b6110f4611ce4565b73ffffffffffffffffffffffffffffffffffffffff16611112611609565b73ffffffffffffffffffffffffffffffffffffffff1614611168576040517f08c379a000000000000000000000000000000000000000000000000000000000815260040161115f90613ab2565b60405180910390fd5b6001601160008373ffffffffffffffffffffffffffffffffffffffff1673ffffffffffffffffffffffffffffffffffffffff16815260200190815260200160002060006101000a81548160ff02191690831515021790555050565b60006111cd610bbe565b821061120e576040517f08c379a000000000000000000000000000000000000000000000000000000000815260040161120590613b32565b60405180910390fd5b60088281548110611248577f4e487b7100000000000000000000000000000000000000000000000000000000600052603260045260246000fd5b90600052602060002001549050919050565b611262611ce4565b73ffffffffffffffffffffffffffffffffffffffff16611280611609565b73ffffffffffffffffffffffffffffffffffffffff16146112d6576040517f08c379a00000000000000000000000000000000000000000000000000000000081526004016112cd90613ab2565b60405180910390fd5b80600b90805190602001906112ec929190612f31565b5050565b601060009054906101000a900460ff1681565b6000806002600084815260200190815260200160002060009054906101000a900473ffffffffffffffffffffffffffffffffffffffff169050600073ffffffffffffffffffffffffffffffffffffffff168173ffffffffffffffffffffffffffffffffffffffff1614156113ac576040517f08c379a00000000000000000000000000000000000000000000000000000000081526004016113a390613a52565b60405180910390fd5b80915050919050565b600b80546113c290613e5b565b80601f01602080910402602001604051908101604052809291908181526020018280546113ee90613e5b565b801561143b5780601f106114105761010080835404028352916020019161143b565b820191906000526020600020905b81548152906001019060200180831161141e57829003601f168201915b505050505081565b60008073ffffffffffffffffffffffffffffffffffffffff168273ffffffffffffffffffffffffffffffffffffffff1614156114b4576040517f08c379a00000000000000000000000000000000000000000000000000000000081526004016114ab90613a32565b60405180910390fd5b600360008373ffffffffffffffffffffffffffffffffffffffff1673ffffffffffffffffffffffffffffffffffffffff168152602001908152602001600020549050919050565b611503611ce4565b73ffffffffffffffffffffffffffffffffffffffff16611521611609565b73ffffffffffffffffffffffffffffffffffffffff1614611577576040517f08c379a000000000000000000000000000000000000000000000000000000000815260040161156e90613ab2565b60405180910390fd5b6115816000612156565b565b61158b611ce4565b73ffffffffffffffffffffffffffffffffffffffff166115a9611609565b73ffffffffffffffffffffffffffffffffffffffff16146115ff576040517f08c379a00000000000000000000000000000000000000000000000000000000081526004016115f690613ab2565b60405180910390fd5b80600f8190555050565b6000600a60009054906101000a900473ffffffffffffffffffffffffffffffffffffffff16905090565b60606001805461164290613e5b565b80601f016020809104026020016040519081016040528092919081815260200182805461166e90613e5b565b80156116bb5780601f10611690576101008083540402835291602001916116bb565b820191906000526020600020905b81548152906001019060200180831161169e57829003601f168201915b5050505050905090565b60006116cf610bbe565b9050601060009054906101000a900460ff16156116eb57600080fd5b600082116116f857600080fd5b600f5482111561170757600080fd5b600e5482826117169190613c90565b111561172157600080fd5b611729611609565b73ffffffffffffffffffffffffffffffffffffffff163373ffffffffffffffffffffffffffffffffffffffff16146117cf5760011515601160003373ffffffffffffffffffffffffffffffffffffffff1673ffffffffffffffffffffffffffffffffffffffff16815260200190815260200160002060009054906101000a900460ff161515146117ce5781600d546117c19190613d17565b3410156117cd57600080fd5b5b5b6000600190505b828111611805576117f23382846117ed9190613c90565b61221c565b80806117fd90613ebe565b9150506117d6565b505050565b61181c611815611ce4565b838361223a565b5050565b61183161182b611ce4565b83611e11565b611870576040517f08c379a000000000000000000000000000000000000000000000000000000000815260040161186790613b12565b60405180910390fd5b61187c848484846123a7565b50505050565b600c805461188f90613e5b565b80601f01602080910402602001604051908101604052809291908181526020018280546118bb90613e5b565b80156119085780601f106118dd57610100808354040283529160200191611908565b820191906000526020600020905b8154815290600101906020018083116118eb57829003601f168201915b505050505081565b606061191b82611cec565b61195a576040517f08c379a000000000000000000000000000000000000000000000000000000000815260040161195190613ad2565b60405180910390fd5b6000611964612403565b9050600081511161198457604051806020016040528060008152506119b2565b8061198e84612495565b600c6040516020016119a293929190613806565b6040516020818303038152906040525b915050919050565b600e5481565b60116020528060005260406000206000915054906101000a900460ff1681565b6119e8611ce4565b73ffffffffffffffffffffffffffffffffffffffff16611a06611609565b73ffffffffffffffffffffffffffffffffffffffff1614611a5c576040517f08c379a0000000000000000000000000000000000000000000000000000000008152600401611a5390613ab2565b60405180910390fd5b80600c9080519060200190611a72929190612f31565b5050565b6000600560008473ffffffffffffffffffffffffffffffffffffffff1673ffffffffffffffffffffffffffffffffffffffff16815260200190815260200160002060008373ffffffffffffffffffffffffffffffffffffffff1673ffffffffffffffffffffffffffffffffffffffff16815260200190815260200160002060009054906101000a900460ff16905092915050565b611b12611ce4565b73ffffffffffffffffffffffffffffffffffffffff16611b30611609565b73ffffffffffffffffffffffffffffffffffffffff1614611b86576040517f08c379a0000000000000000000000000000000000000000000000000000000008152600401611b7d90613ab2565b60405180910390fd5b600073ffffffffffffffffffffffffffffffffffffffff168173ffffffffffffffffffffffffffffffffffffffff161415611bf6576040517f08c379a0000000000000000000000000000000000000000000000000000000008152600401611bed90613952565b60405180910390fd5b611bff81612156565b50565b60007f80ac58cd000000000000000000000000000000000000000000000000000000007bffffffffffffffffffffffffffffffffffffffffffffffffffffffff1916827bffffffffffffffffffffffffffffffffffffffffffffffffffffffff19161480611ccd57507f5b5e139f000000000000000000000000000000000000000000000000000000007bffffffffffffffffffffffffffffffffffffffffffffffffffffffff1916827bffffffffffffffffffffffffffffffffffffffffffffffffffffffff1916145b80611cdd5750611cdc82612642565b5b9050919050565b600033905090565b60008073ffffffffffffffffffffffffffffffffffffffff166002600084815260200190815260200160002060009054906101000a900473ffffffffffffffffffffffffffffffffffffffff1673ffffffffffffffffffffffffffffffffffffffff1614159050919050565b816004600083815260200190815260200160002060006101000a81548173ffffffffffffffffffffffffffffffffffffffff021916908373ffffffffffffffffffffffffffffffffffffffff160217905550808273ffffffffffffffffffffffffffffffffffffffff16611dcb83611303565b73ffffffffffffffffffffffffffffffffffffffff167f8c5be1e5ebec7d5bd14f71427d1e84f3dd0314c0f7b2291e5b200ac8c7c3b92560405160405180910390a45050565b6000611e1c82611cec565b611e5b576040517f08c379a0000000000000000000000000000000000000000000000000000000008152600401611e52906139f2565b60405180910390fd5b6000611e6683611303565b90508073ffffffffffffffffffffffffffffffffffffffff168473ffffffffffffffffffffffffffffffffffffffff161480611ed557508373ffffffffffffffffffffffffffffffffffffffff16611ebd84610a1b565b73ffffffffffffffffffffffffffffffffffffffff16145b80611ee65750611ee58185611a76565b5b91505092915050565b8273ffffffffffffffffffffffffffffffffffffffff16611f0f82611303565b73ffffffffffffffffffffffffffffffffffffffff1614611f65576040517f08c379a0000000000000000000000000000000000000000000000000000000008152600401611f5c90613972565b60405180910390fd5b600073ffffffffffffffffffffffffffffffffffffffff168273ffffffffffffffffffffffffffffffffffffffff161415611fd5576040517f08c379a0000000000000000000000000000000000000000000000000000000008152600401611fcc906139b2565b60405180910390fd5b611fe08383836126ac565b611feb600082611d58565b6001600360008573ffffffffffffffffffffffffffffffffffffffff1673ffffffffffffffffffffffffffffffffffffffff168152602001908152602001600020600082825461203b9190613d71565b925050819055506001600360008473ffffffffffffffffffffffffffffffffffffffff1673ffffffffffffffffffffffffffffffffffffffff16815260200190815260200160002060008282546120929190613c90565b92505081905550816002600083815260200190815260200160002060006101000a81548173ffffffffffffffffffffffffffffffffffffffff021916908373ffffffffffffffffffffffffffffffffffffffff160217905550808273ffffffffffffffffffffffffffffffffffffffff168473ffffffffffffffffffffffffffffffffffffffff167fddf252ad1be2c89b69c2b068fc378daa952ba7f163c4a11628f55a4df523b3ef60405160405180910390a46121518383836127c0565b505050565b6000600a60009054906101000a900473ffffffffffffffffffffffffffffffffffffffff16905081600a60006101000a81548173ffffffffffffffffffffffffffffffffffffffff021916908373ffffffffffffffffffffffffffffffffffffffff1602179055508173ffffffffffffffffffffffffffffffffffffffff168173ffffffffffffffffffffffffffffffffffffffff167f8be0079c531659141344cd1fd0a4f28419497f9722a3daafe3b4186f6b6457e060405160405180910390a35050565b6122368282604051806020016040528060008152506127c5565b5050565b8173ffffffffffffffffffffffffffffffffffffffff168373ffffffffffffffffffffffffffffffffffffffff1614156122a9576040517f08c379a00000000000000000000000000000000000000000000000000000000081526004016122a0906139d2565b60405180910390fd5b80600560008573ffffffffffffffffffffffffffffffffffffffff1673ffffffffffffffffffffffffffffffffffffffff16815260200190815260200160002060008473ffffffffffffffffffffffffffffffffffffffff1673ffffffffffffffffffffffffffffffffffffffff16815260200190815260200160002060006101000a81548160ff0219169083151502179055508173ffffffffffffffffffffffffffffffffffffffff168373ffffffffffffffffffffffffffffffffffffffff167f17307eab39ab6107e8899845ad3d59bd9653f200f220920489ca2b5937696c318360405161239a91906138d5565b60405180910390a3505050565b6123b2848484611eef565b6123be84848484612820565b6123fd576040517f08c379a00000000000000000000000000000000000000000000000000000000081526004016123f490613932565b60405180910390fd5b50505050565b6060600b805461241290613e5b565b80601f016020809104026020016040519081016040528092919081815260200182805461243e90613e5b565b801561248b5780601f106124605761010080835404028352916020019161248b565b820191906000526020600020905b81548152906001019060200180831161246e57829003601f168201915b5050505050905090565b606060008214156124dd576040518060400160405280600181526020017f3000000000000000000000000000000000000000000000000000000000000000815250905061263d565b600082905060005b6000821461250f5780806124f890613ebe565b915050600a826125089190613ce6565b91506124e5565b60008167ffffffffffffffff811115612551577f4e487b7100000000000000000000000000000000000000000000000000000000600052604160045260246000fd5b6040519080825280601f01601f1916602001820160405280156125835781602001600182028036833780820191505090505b5090505b600085146126365760018261259c9190613d71565b9150600a856125ab9190613f07565b60306125b79190613c90565b60f81b8183815181106125f3577f4e487b7100000000000000000000000000000000000000000000000000000000600052603260045260246000fd5b60200101907effffffffffffffffffffffffffffffffffffffffffffffffffffffffffffff1916908160001a905350600a8561262f9190613ce6565b9450612587565b8093505050505b919050565b60007f01ffc9a7000000000000000000000000000000000000000000000000000000007bffffffffffffffffffffffffffffffffffffffffffffffffffffffff1916827bffffffffffffffffffffffffffffffffffffffffffffffffffffffff1916149050919050565b6126b78383836129b7565b600073ffffffffffffffffffffffffffffffffffffffff168373ffffffffffffffffffffffffffffffffffffffff1614156126fa576126f5816129bc565b612739565b8173ffffffffffffffffffffffffffffffffffffffff168373ffffffffffffffffffffffffffffffffffffffff1614612738576127378382612a05565b5b5b600073ffffffffffffffffffffffffffffffffffffffff168273ffffffffffffffffffffffffffffffffffffffff16141561277c5761277781612b72565b6127bb565b8273ffffffffffffffffffffffffffffffffffffffff168273ffffffffffffffffffffffffffffffffffffffff16146127ba576127b98282612cb5565b5b5b505050565b505050565b6127cf8383612d34565b6127dc6000848484612820565b61281b576040517f08c379a000000000000000000000000000000000000000000000000000000000815260040161281290613932565b60405180910390fd5b505050565b60006128418473ffffffffffffffffffffffffffffffffffffffff16612f0e565b156129aa578373ffffffffffffffffffffffffffffffffffffffff1663150b7a0261286a611ce4565b8786866040518563ffffffff1660e01b815260040161288c9493929190613867565b602060405180830381600087803b1580156128a657600080fd5b505af19250505080156128d757506040513d601f19601f820116820180604052508101906128d49190613306565b60015b61295a573d8060008114612907576040519150601f19603f3d011682016040523d82523d6000602084013e61290c565b606091505b50600081511415612952576040517f08c379a000000000000000000000000000000000000000000000000000000000815260040161294990613932565b60405180910390fd5b805181602001fd5b63150b7a0260e01b7bffffffffffffffffffffffffffffffffffffffffffffffffffffffff1916817bffffffffffffffffffffffffffffffffffffffffffffffffffffffff1916149150506129af565b600190505b949350505050565b505050565b6008805490506009600083815260200190815260200160002081905550600881908060018154018082558091505060019003906000526020600020016000909190919091505550565b60006001612a1284611443565b612a1c9190613d71565b9050600060076000848152602001908152602001600020549050818114612b01576000600660008673ffffffffffffffffffffffffffffffffffffffff1673ffffffffffffffffffffffffffffffffffffffff168152602001908152602001600020600084815260200190815260200160002054905080600660008773ffffffffffffffffffffffffffffffffffffffff1673ffffffffffffffffffffffffffffffffffffffff168152602001908152602001600020600084815260200190815260200160002081905550816007600083815260200190815260200160002081905550505b6007600084815260200190815260200160002060009055600660008573ffffffffffffffffffffffffffffffffffffffff1673ffffffffffffffffffffffffffffffffffffffff16815260200190815260200160002060008381526020019081526020016000206000905550505050565b60006001600880549050612b869190613d71565b9050600060096000848152602001908152602001600020549050600060088381548110612bdc577f4e487b7100000000000000000000000000000000000000000000000000000000600052603260045260246000fd5b906000526020600020015490508060088381548110612c24577f4e487b7100000000000000000000000000000000000000000000000000000000600052603260045260246000fd5b906000526020600020018190555081600960008381526020019081526020016000208190555060096000858152602001908152602001600020600090556008805480612c99577f4e487b7100000000000000000000000000000000000000000000000000000000600052603160045260246000fd5b6001900381819060005260206000200160009055905550505050565b6000612cc083611443565b905081600660008573ffffffffffffffffffffffffffffffffffffffff1673ffffffffffffffffffffffffffffffffffffffff168152602001908152602001600020600083815260200190815260200160002081905550806007600084815260200190815260200160002081905550505050565b600073ffffffffffffffffffffffffffffffffffffffff168273ffffffffffffffffffffffffffffffffffffffff161415612da4576040517f08c379a0000000000000000000000000000000000000000000000000000000008152600401612d9b90613a72565b60405180910390fd5b612dad81611cec565b15612ded576040517f08c379a0000000000000000000000000000000000000000000000000000000008152600401612de490613992565b60405180910390fd5b612df9600083836126ac565b6001600360008473ffffffffffffffffffffffffffffffffffffffff1673ffffffffffffffffffffffffffffffffffffffff1681526020019081526020016000206000828254612e499190613c90565b92505081905550816002600083815260200190815260200160002060006101000a81548173ffffffffffffffffffffffffffffffffffffffff021916908373ffffffffffffffffffffffffffffffffffffffff160217905550808273ffffffffffffffffffffffffffffffffffffffff16600073ffffffffffffffffffffffffffffffffffffffff167fddf252ad1be2c89b69c2b068fc378daa952ba7f163c4a11628f55a4df523b3ef60405160405180910390a4612f0a600083836127c0565b5050565b6000808273ffffffffffffffffffffffffffffffffffffffff163b119050919050565b828054612f3d90613e5b565b90600052602060002090601f016020900481019282612f5f5760008555612fa6565b82601f10612f7857805160ff1916838001178555612fa6565b82800160010185558215612fa6579182015b82811115612fa5578251825591602001919060010190612f8a565b5b509050612fb39190612fb7565b5090565b5b80821115612fd0576000816000905550600101612fb8565b5090565b6000612fe7612fe284613b92565b613b6d565b905082815260208101848484011115612fff57600080fd5b61300a848285613e19565b509392505050565b600061302561302084613bc3565b613b6d565b90508281526020810184848401111561303d57600080fd5b613048848285613e19565b509392505050565b60008135905061305f816144fe565b92915050565b60008135905061307481614515565b92915050565b6000813590506130898161452c565b92915050565b60008151905061309e8161452c565b92915050565b600082601f8301126130b557600080fd5b81356130c5848260208601612fd4565b91505092915050565b600082601f8301126130df57600080fd5b81356130ef848260208601613012565b91505092915050565b60008135905061310781614543565b92915050565b60006020828403121561311f57600080fd5b600061312d84828501613050565b91505092915050565b6000806040838503121561314957600080fd5b600061315785828601613050565b925050602061316885828601613050565b9150509250929050565b60008060006060848603121561318757600080fd5b600061319586828701613050565b93505060206131a686828701613050565b92505060406131b7868287016130f8565b9150509250925092565b600080600080608085870312156131d757600080fd5b60006131e587828801613050565b94505060206131f687828801613050565b9350506040613207878288016130f8565b925050606085013567ffffffffffffffff81111561322457600080fd5b613230878288016130a4565b91505092959194509250565b6000806040838503121561324f57600080fd5b600061325d85828601613050565b925050602061326e85828601613065565b9150509250929050565b6000806040838503121561328b57600080fd5b600061329985828601613050565b92505060206132aa858286016130f8565b9150509250929050565b6000602082840312156132c657600080fd5b60006132d484828501613065565b91505092915050565b6000602082840312156132ef57600080fd5b60006132fd8482850161307a565b91505092915050565b60006020828403121561331857600080fd5b60006133268482850161308f565b91505092915050565b60006020828403121561334157600080fd5b600082013567ffffffffffffffff81111561335b57600080fd5b613367848285016130ce565b91505092915050565b60006020828403121561338257600080fd5b6000613390848285016130f8565b91505092915050565b60006133a583836137e8565b60208301905092915050565b6133ba81613da5565b82525050565b60006133cb82613c19565b6133d58185613c47565b93506133e083613bf4565b8060005b838110156134115781516133f88882613399565b975061340383613c3a565b9250506001810190506133e4565b5085935050505092915050565b61342781613db7565b82525050565b600061343882613c24565b6134428185613c58565b9350613452818560208601613e28565b61345b81613ff4565b840191505092915050565b600061347182613c2f565b61347b8185613c74565b935061348b818560208601613e28565b61349481613ff4565b840191505092915050565b60006134aa82613c2f565b6134b48185613c85565b93506134c4818560208601613e28565b80840191505092915050565b600081546134dd81613e5b565b6134e78186613c85565b94506001821660008114613502576001811461351357613546565b60ff19831686528186019350613546565b61351c85613c04565b60005b8381101561353e5781548189015260018201915060208101905061351f565b838801955050505b50505092915050565b600061355c602b83613c74565b915061356782614005565b604082019050919050565b600061357f603283613c74565b915061358a82614054565b604082019050919050565b60006135a2602683613c74565b91506135ad826140a3565b604082019050919050565b60006135c5602583613c74565b91506135d0826140f2565b604082019050919050565b60006135e8601c83613c74565b91506135f382614141565b602082019050919050565b600061360b602483613c74565b91506136168261416a565b604082019050919050565b600061362e601983613c74565b9150613639826141b9565b602082019050919050565b6000613651602c83613c74565b915061365c826141e2565b604082019050919050565b6000613674603883613c74565b915061367f82614231565b604082019050919050565b6000613697602a83613c74565b91506136a282614280565b604082019050919050565b60006136ba602983613c74565b91506136c5826142cf565b604082019050919050565b60006136dd602083613c74565b91506136e88261431e565b602082019050919050565b6000613700602c83613c74565b915061370b82614347565b604082019050919050565b6000613723602083613c74565b915061372e82614396565b602082019050919050565b6000613746602f83613c74565b9150613751826143bf565b604082019050919050565b6000613769602183613c74565b91506137748261440e565b604082019050919050565b600061378c600083613c69565b91506137978261445d565b600082019050919050565b60006137af603183613c74565b91506137ba82614460565b604082019050919050565b60006137d2602c83613c74565b91506137dd826144af565b604082019050919050565b6137f181613e0f565b82525050565b61380081613e0f565b82525050565b6000613812828661349f565b915061381e828561349f565b915061382a82846134d0565b9150819050949350505050565b60006138428261377f565b9150819050919050565b600060208201905061386160008301846133b1565b92915050565b600060808201905061387c60008301876133b1565b61388960208301866133b1565b61389660408301856137f7565b81810360608301526138a8818461342d565b905095945050505050565b600060208201905081810360008301526138cd81846133c0565b905092915050565b60006020820190506138ea600083018461341e565b92915050565b6000602082019050818103600083015261390a8184613466565b905092915050565b6000602082019050818103600083015261392b8161354f565b9050919050565b6000602082019050818103600083015261394b81613572565b9050919050565b6000602082019050818103600083015261396b81613595565b9050919050565b6000602082019050818103600083015261398b816135b8565b9050919050565b600060208201905081810360008301526139ab816135db565b9050919050565b600060208201905081810360008301526139cb816135fe565b9050919050565b600060208201905081810360008301526139eb81613621565b9050919050565b60006020820190508181036000830152613a0b81613644565b9050919050565b60006020820190508181036000830152613a2b81613667565b9050919050565b60006020820190508181036000830152613a4b8161368a565b9050919050565b60006020820190508181036000830152613a6b816136ad565b9050919050565b60006020820190508181036000830152613a8b816136d0565b9050919050565b60006020820190508181036000830152613aab816136f3565b9050919050565b60006020820190508181036000830152613acb81613716565b9050919050565b60006020820190508181036000830152613aeb81613739565b9050919050565b60006020820190508181036000830152613b0b8161375c565b9050919050565b60006020820190508181036000830152613b2b816137a2565b9050919050565b60006020820190508181036000830152613b4b816137c5565b9050919050565b6000602082019050613b6760008301846137f7565b92915050565b6000613b77613b88565b9050613b838282613e8d565b919050565b6000604051905090565b600067ffffffffffffffff821115613bad57613bac613fc5565b5b613bb682613ff4565b9050602081019050919050565b600067ffffffffffffffff821115613bde57613bdd613fc5565b5b613be782613ff4565b9050602081019050919050565b6000819050602082019050919050565b60008190508160005260206000209050919050565b600081519050919050565b600081519050919050565b600081519050919050565b6000602082019050919050565b600082825260208201905092915050565b600082825260208201905092915050565b600081905092915050565b600082825260208201905092915050565b600081905092915050565b6000613c9b82613e0f565b9150613ca683613e0f565b9250827fffffffffffffffffffffffffffffffffffffffffffffffffffffffffffffffff03821115613cdb57613cda613f38565b5b828201905092915050565b6000613cf182613e0f565b9150613cfc83613e0f565b925082613d0c57613d0b613f67565b5b828204905092915050565b6000613d2282613e0f565b9150613d2d83613e0f565b9250817fffffffffffffffffffffffffffffffffffffffffffffffffffffffffffffffff0483118215151615613d6657613d65613f38565b5b828202905092915050565b6000613d7c82613e0f565b9150613d8783613e0f565b925082821015613d9a57613d99613f38565b5b828203905092915050565b6000613db082613def565b9050919050565b60008115159050919050565b60007fffffffff0000000000000000000000000000000000000000000000000000000082169050919050565b600073ffffffffffffffffffffffffffffffffffffffff82169050919050565b6000819050919050565b82818337600083830152505050565b60005b83811015613e46578082015181840152602081019050613e2b565b83811115613e55576000848401525b50505050565b60006002820490506001821680613e7357607f821691505b60208210811415613e8757613e86613f96565b5b50919050565b613e9682613ff4565b810181811067ffffffffffffffff82111715613eb557613eb4613fc5565b5b80604052505050565b6000613ec982613e0f565b91507fffffffffffffffffffffffffffffffffffffffffffffffffffffffffffffffff821415613efc57613efb613f38565b5b600182019050919050565b6000613f1282613e0f565b9150613f1d83613e0f565b925082613f2d57613f2c613f67565b5b828206905092915050565b7f4e487b7100000000000000000000000000000000000000000000000000000000600052601160045260246000fd5b7f4e487b7100000000000000000000000000000000000000000000000000000000600052601260045260246000fd5b7f4e487b7100000000000000000000000000000000000000000000000000000000600052602260045260246000fd5b7f4e487b7100000000000000000000000000000000000000000000000000000000600052604160045260246000fd5b6000601f19601f8301169050919050565b7f455243373231456e756d657261626c653a206f776e657220696e646578206f7560008201527f74206f6620626f756e6473000000000000000000000000000000000000000000602082015250565b7f4552433732313a207472616e7366657220746f206e6f6e20455243373231526560008201527f63656976657220696d706c656d656e7465720000000000000000000000000000602082015250565b7f4f776e61626c653a206e6577206f776e657220697320746865207a65726f206160008201527f6464726573730000000000000000000000000000000000000000000000000000602082015250565b7f4552433732313a207472616e736665722066726f6d20696e636f72726563742060008201527f6f776e6572000000000000000000000000000000000000000000000000000000602082015250565b7f4552433732313a20746f6b656e20616c7265616479206d696e74656400000000600082015250565b7f4552433732313a207472616e7366657220746f20746865207a65726f2061646460008201527f7265737300000000000000000000000000000000000000000000000000000000602082015250565b7f4552433732313a20617070726f766520746f2063616c6c657200000000000000600082015250565b7f4552433732313a206f70657261746f7220717565727920666f72206e6f6e657860008201527f697374656e7420746f6b656e0000000000000000000000000000000000000000602082015250565b7f4552433732313a20617070726f76652063616c6c6572206973206e6f74206f7760008201527f6e6572206e6f7220617070726f76656420666f7220616c6c0000000000000000602082015250565b7f4552433732313a2062616c616e636520717565727920666f7220746865207a6560008201527f726f206164647265737300000000000000000000000000000000000000000000602082015250565b7f4552433732313a206f776e657220717565727920666f72206e6f6e657869737460008201527f656e7420746f6b656e0000000000000000000000000000000000000000000000602082015250565b7f4552433732313a206d696e7420746f20746865207a65726f2061646472657373600082015250565b7f4552433732313a20617070726f76656420717565727920666f72206e6f6e657860008201527f697374656e7420746f6b656e0000000000000000000000000000000000000000602082015250565b7f4f776e61626c653a2063616c6c6572206973206e6f7420746865206f776e6572600082015250565b7f4552433732314d657461646174613a2055524920717565727920666f72206e6f60008201527f6e6578697374656e7420746f6b656e0000000000000000000000000000000000602082015250565b7f4552433732313a20617070726f76616c20746f2063757272656e74206f776e6560008201527f7200000000000000000000000000000000000000000000000000000000000000602082015250565b50565b7f4552433732313a207472616e736665722063616c6c6572206973206e6f74206f60008201527f776e6572206e6f7220617070726f766564000000000000000000000000000000602082015250565b7f455243373231456e756d657261626c653a20676c6f62616c20696e646578206f60008201527f7574206f6620626f756e64730000000000000000000000000000000000000000602082015250565b61450781613da5565b811461451257600080fd5b50565b61451e81613db7565b811461452957600080fd5b50565b61453581613dc3565b811461454057600080fd5b50565b61454c81613e0f565b811461455757600080fd5b5056fea2646970667358221220f04752d03b8b7c5fc09d52dfb18397968ad76df4df26272310d53425b3d1a07a64736f6c63430008040033",
  "linkReferences": {},
  "deployedLinkReferences": {}
}